:020000000000fe
:020001000000fd
:020002000000fc
:020003000001fa
:020004000001f9
:020005000001f8
:020006000001f7
:020007000001f6
:020008000002f4
:020009000002f3
:02000a000002f2
:02000b000002f1
:02000c000002f0
:02000d000003ee
:02000e000003ed
:02000f000003ec
:020010000003eb
:020011000003ea
:020012000004e8
:020013000004e7
:020014000004e6
:020015000004e5
:020016000004e4
:020017000005e2
:020018000005e1
:020019000005e0
:02001a000005df
:02001b000005de
:02001c000005dd
:02001d000006db
:02001e000006da
:02001f000006d9
:020020000006d8
:020021000006d7
:020022000007d5
:020023000007d4
:020024000007d3
:020025000007d2
:020026000007d1
:020027000008cf
:020028000008ce
:020029000008cd
:02002a000008cc
:02002b000008cb
:02002c000009c9
:02002d000009c8
:02002e000009c7
:02002f000009c6
:020030000009c5
:02003100000ac3
:02003200000ac2
:02003300000ac1
:02003400000ac0
:02003500000abf
:02003600000bbd
:02003700000bbc
:02003800000bbb
:02003900000bba
:02003a00000bb9
:02003b00000cb7
:02003c00000cb6
:02003d00000cb5
:02003e00000cb4
:02003f00000cb3
:02004000000db1
:02004100000db0
:02004200000daf
:02004300000dae
:02004400000dad
:02004500000eab
:02004600000eaa
:02004700000ea9
:02004800000ea8
:02004900000ea7
:02004a00000fa5
:02004b00000fa4
:02004c00000fa3
:02004d00000fa2
:02004e00000fa1
:02004f0000109f
:0200500000109e
:0200510000109d
:0200520000109c
:0200530000109b
:0200540000109a
:02005500001198
:02005600001197
:02005700001196
:02005800001195
:02005900001194
:02005a00001292
:02005b00001291
:02005c00001290
:02005d0000128f
:02005e0000128e
:02005f0000138c
:0200600000138b
:0200610000138a
:02006200001389
:02006300001388
:02006400001486
:02006500001485
:02006600001484
:02006700001483
:02006800001482
:02006900001580
:02006a0000157f
:02006b0000157e
:02006c0000157d
:02006d0000157c
:02006e0000167a
:02006f00001679
:02007000001678
:02007100001677
:02007200001676
:02007300001774
:02007400001773
:02007500001772
:02007600001771
:02007700001770
:0200780000186e
:0200790000186d
:02007a0000186c
:02007b0000186b
:02007c0000186a
:02007d00001968
:02007e00001967
:02007f00001966
:02008000001965
:02008100001964
:02008200001a62
:02008300001a61
:02008400001a60
:02008500001a5f
:02008600001a5e
:02008700001a5d
:02008800001b5b
:02008900001b5a
:02008a00001b59
:02008b00001b58
:02008c00001b57
:02008d00001c55
:02008e00001c54
:02008f00001c53
:02009000001c52
:02009100001c51
:02009200001d4f
:02009300001d4e
:02009400001d4d
:02009500001d4c
:02009600001d4b
:02009700001e49
:02009800001e48
:02009900001e47
:02009a00001e46
:02009b00001e45
:02009c00001f43
:02009d00001f42
:02009e00001f41
:02009f00001f40
:0200a000001f3f
:0200a10000203d
:0200a20000203c
:0200a30000203b
:0200a40000203a
:0200a500002039
:0200a600002137
:0200a700002136
:0200a800002135
:0200a900002134
:0200aa00002133
:0200ab00002231
:0200ac00002230
:0200ad0000222f
:0200ae0000222e
:0200af0000222d
:0200b00000232b
:0200b10000232a
:0200b200002329
:0200b300002328
:0200b400002327
:0200b500002425
:0200b600002424
:0200b700002423
:0200b800002422
:0200b900002421
:0200ba0000251f
:0200bb0000251e
:0200bc0000251d
:0200bd0000251c
:0200be0000251b
:0200bf0000251a
:0200c000002618
:0200c100002617
:0200c200002616
:0200c300002615
:0200c400002614
:0200c500002712
:0200c600002711
:0200c700002710
:0200c80000270f
:0200c90000270e
:0200ca0000280c
:0200cb0000280b
:0200cc0000280a
:0200cd00002809
:0200ce00002808
:0200cf00002906
:0200d000002905
:0200d100002904
:0200d200002903
:0200d300002902
:0200d400002a00
:0200d500002aff
:0200d600002afe
:0200d700002afd
:0200d800002afc
:0200d900002bfa
:0200da00002bf9
:0200db00002bf8
:0200dc00002bf7
:0200dd00002bf6
:0200de00002cf4
:0200df00002cf3
:0200e000002cf2
:0200e100002cf1
:0200e200002cf0
:0200e300002dee
:0200e400002ded
:0200e500002dec
:0200e600002deb
:0200e700002dea
:0200e800002ee8
:0200e900002ee7
:0200ea00002ee6
:0200eb00002ee5
:0200ec00002ee4
:0200ed00002fe2
:0200ee00002fe1
:0200ef00002fe0
:0200f000002fdf
:0200f100002fde
:0200f200002fdd
:0200f3000030db
:0200f4000030da
:0200f5000030d9
:0200f6000030d8
:0200f7000030d7
:0200f8000031d5
:0200f9000031d4
:0200fa000031d3
:0200fb000031d2
:0200fc000031d1
:0200fd000032cf
:0200fe000032ce
:0200ff000032cd
:020100000032cb
:020101000032ca
:020102000033c8
:020103000033c7
:020104000033c6
:020105000033c5
:020106000033c4
:020107000034c2
:020108000034c1
:020109000034c0
:02010a000034bf
:02010b000034be
:02010c000035bc
:02010d000035bb
:02010e000035ba
:02010f000035b9
:020110000035b8
:020111000036b6
:020112000036b5
:020113000036b4
:020114000036b3
:020115000036b2
:020116000037b0
:020117000037af
:020118000037ae
:020119000037ad
:02011a000037ac
:02011b000038aa
:02011c000038a9
:02011d000038a8
:02011e000038a7
:02011f000038a6
:020120000039a4
:020121000039a3
:020122000039a2
:020123000039a1
:020124000039a0
:0201250000399f
:02012600003a9d
:02012700003a9c
:02012800003a9b
:02012900003a9a
:02012a00003a99
:02012b00003b97
:02012c00003b96
:02012d00003b95
:02012e00003b94
:02012f00003b93
:02013000003c91
:02013100003c90
:02013200003c8f
:02013300003c8e
:02013400003c8d
:02013500003d8b
:02013600003d8a
:02013700003d89
:02013800003d88
:02013900003d87
:02013a00003e85
:02013b00003e84
:02013c00003e83
:02013d00003e82
:02013e00003e81
:02013f00003f7f
:02014000003f7e
:02014100003f7d
:02014200003f7c
:02014300003f7b
:02014400004079
:02014500004078
:02014600004077
:02014700004076
:02014800004075
:02014900004173
:02014a00004172
:02014b00004171
:02014c00004170
:02014d0000416f
:02014e0000426d
:02014f0000426c
:0201500000426b
:0201510000426a
:02015200004269
:02015300004367
:02015400004366
:02015500004365
:02015600004364
:02015700004363
:02015800004362
:02015900004460
:02015a0000445f
:02015b0000445e
:02015c0000445d
:02015d0000445c
:02015e0000455a
:02015f00004559
:02016000004558
:02016100004557
:02016200004556
:02016300004654
:02016400004653
:02016500004652
:02016600004651
:02016700004650
:0201680000474e
:0201690000474d
:02016a0000474c
:02016b0000474b
:02016c0000474a
:02016d00004848
:02016e00004847
:02016f00004846
:02017000004845
:02017100004844
:02017200004942
:02017300004941
:02017400004940
:0201750000493f
:0201760000493e
:02017700004a3c
:02017800004a3b
:02017900004a3a
:02017a00004a39
:02017b00004a38
:02017c00004b36
:02017d00004b35
:02017e00004b34
:02017f00004b33
:02018000004b32
:02018100004c30
:02018200004c2f
:02018300004c2e
:02018400004c2d
:02018500004c2c
:02018600004d2a
:02018700004d29
:02018800004d28
:02018900004d27
:02018a00004d26
:02018b00004e24
:02018c00004e23
:02018d00004e22
:02018e00004e21
:02018f00004e20
:02019000004e1f
:02019100004f1d
:02019200004f1c
:02019300004f1b
:02019400004f1a
:02019500004f19
:02019600005017
:02019700005016
:02019800005015
:02019900005014
:02019a00005013
:02019b00005111
:02019c00005110
:02019d0000510f
:02019e0000510e
:02019f0000510d
:0201a00000520b
:0201a10000520a
:0201a200005209
:0201a300005208
:0201a400005207
:0201a500005305
:0201a600005304
:0201a700005303
:0201a800005302
:0201a900005301
:0201aa000054ff
:0201ab000054fe
:0201ac000054fd
:0201ad000054fc
:0201ae000054fb
:0201af000055f9
:0201b0000055f8
:0201b1000055f7
:0201b2000055f6
:0201b3000055f5
:0201b4000056f3
:0201b5000056f2
:0201b6000056f1
:0201b7000056f0
:0201b8000056ef
:0201b9000057ed
:0201ba000057ec
:0201bb000057eb
:0201bc000057ea
:0201bd000057e9
:0201be000058e7
:0201bf000058e6
:0201c0000058e5
:0201c1000058e4
:0201c2000058e3
:0201c3000058e2
:0201c4000059e0
:0201c5000059df
:0201c6000059de
:0201c7000059dd
:0201c8000059dc
:0201c900005ada
:0201ca00005ad9
:0201cb00005ad8
:0201cc00005ad7
:0201cd00005ad6
:0201ce00005bd4
:0201cf00005bd3
:0201d000005bd2
:0201d100005bd1
:0201d200005bd0
:0201d300005cce
:0201d400005ccd
:0201d500005ccc
:0201d600005ccb
:0201d700005cca
:0201d800005dc8
:0201d900005dc7
:0201da00005dc6
:0201db00005dc5
:0201dc00005dc4
:0201dd00005ec2
:0201de00005ec1
:0201df00005ec0
:0201e000005ebf
:0201e100005ebe
:0201e200005fbc
:0201e300005fbb
:0201e400005fba
:0201e500005fb9
:0201e600005fb8
:0201e7000060b6
:0201e8000060b5
:0201e9000060b4
:0201ea000060b3
:0201eb000060b2
:0201ec000061b0
:0201ed000061af
:0201ee000061ae
:0201ef000061ad
:0201f0000061ac
:0201f1000062aa
:0201f2000062a9
:0201f3000062a8
:0201f4000062a7
:0201f5000062a6
:0201f6000062a5
:0201f7000063a3
:0201f8000063a2
:0201f9000063a1
:0201fa000063a0
:0201fb0000639f
:0201fc0000649d
:0201fd0000649c
:0201fe0000649b
:0201ff0000649a
:02020000006498
:02020100006596
:02020200006595
:02020300006594
:02020400006593
:02020500006592
:02020600006690
:0202070000668f
:0202080000668e
:0202090000668d
:02020a0000668c
:02020b0000678a
:02020c00006789
:02020d00006788
:02020e00006787
:02020f00006786
:02021000006884
:02021100006883
:02021200006882
:02021300006881
:02021400006880
:0202150000697e
:0202160000697d
:0202170000697c
:0202180000697b
:0202190000697a
:02021a00006a78
:02021b00006a77
:02021c00006a76
:02021d00006a75
:02021e00006a74
:02021f00006b72
:02022000006b71
:02022100006b70
:02022200006b6f
:02022300006b6e
:02022400006b6d
:02022500006c6b
:02022600006c6a
:02022700006c69
:02022800006c68
:02022900006c67
:02022a00006d65
:02022b00006d64
:02022c00006d63
:02022d00006d62
:02022e00006d61
:02022f00006e5f
:02023000006e5e
:02023100006e5d
:02023200006e5c
:02023300006e5b
:02023400006f59
:02023500006f58
:02023600006f57
:02023700006f56
:02023800006f55
:02023900007053
:02023a00007052
:02023b00007051
:02023c00007050
:02023d0000704f
:02023e0000714d
:02023f0000714c
:0202400000714b
:0202410000714a
:02024200007149
:02024300007247
:02024400007246
:02024500007245
:02024600007244
:02024700007243
:02024800007341
:02024900007340
:02024a0000733f
:02024b0000733e
:02024c0000733d
:02024d0000743b
:02024e0000743a
:02024f00007439
:02025000007438
:02025100007437
:02025200007535
:02025300007534
:02025400007533
:02025500007532
:02025600007531
:02025700007530
:0202580000762e
:0202590000762d
:02025a0000762c
:02025b0000762b
:02025c0000762a
:02025d00007728
:02025e00007727
:02025f00007726
:02026000007725
:02026100007724
:02026200007822
:02026300007821
:02026400007820
:0202650000781f
:0202660000781e
:0202670000791c
:0202680000791b
:0202690000791a
:02026a00007919
:02026b00007918
:02026c00007a16
:02026d00007a15
:02026e00007a14
:02026f00007a13
:02027000007a12
:02027100007b10
:02027200007b0f
:02027300007b0e
:02027400007b0d
:02027500007b0c
:02027600007c0a
:02027700007c09
:02027800007c08
:02027900007c07
:02027a00007c06
:02027b00007d04
:02027c00007d03
:02027d00007d02
:02027e00007d01
:02027f00007d00
:02028000007efe
:02028100007efd
:02028200007efc
:02028300007efb
:02028400007efa
:02028500007ff8
:02028600007ff7
:02028700007ff6
:02028800007ff5
:02028900007ff4
:02028a00007ff3
:02028b000080f1
:02028c000080f0
:02028d000080ef
:02028e000080ee
:02028f000080ed
:020290000081eb
:020291000081ea
:020292000081e9
:020293000081e8
:020294000081e7
:020295000082e5
:020296000082e4
:020297000082e3
:020298000082e2
:020299000082e1
:02029a000083df
:02029b000083de
:02029c000083dd
:02029d000083dc
:02029e000083db
:02029f000084d9
:0202a0000084d8
:0202a1000084d7
:0202a2000084d6
:0202a3000084d5
:0202a4000085d3
:0202a5000085d2
:0202a6000085d1
:0202a7000085d0
:0202a8000085cf
:0202a9000086cd
:0202aa000086cc
:0202ab000086cb
:0202ac000086ca
:0202ad000086c9
:0202ae000087c7
:0202af000087c6
:0202b0000087c5
:0202b1000087c4
:0202b2000087c3
:0202b3000088c1
:0202b4000088c0
:0202b5000088bf
:0202b6000088be
:0202b7000088bd
:0202b8000088bc
:0202b9000089ba
:0202ba000089b9
:0202bb000089b8
:0202bc000089b7
:0202bd000089b6
:0202be00008ab4
:0202bf00008ab3
:0202c000008ab2
:0202c100008ab1
:0202c200008ab0
:0202c300008bae
:0202c400008bad
:0202c500008bac
:0202c600008bab
:0202c700008baa
:0202c800008ca8
:0202c900008ca7
:0202ca00008ca6
:0202cb00008ca5
:0202cc00008ca4
:0202cd00008da2
:0202ce00008da1
:0202cf00008da0
:0202d000008d9f
:0202d100008d9e
:0202d200008e9c
:0202d300008e9b
:0202d400008e9a
:0202d500008e99
:0202d600008e98
:0202d700008f96
:0202d800008f95
:0202d900008f94
:0202da00008f93
:0202db00008f92
:0202dc00009090
:0202dd0000908f
:0202de0000908e
:0202df0000908d
:0202e00000908c
:0202e10000918a
:0202e200009189
:0202e300009188
:0202e400009187
:0202e500009186
:0202e600009185
:0202e700009283
:0202e800009282
:0202e900009281
:0202ea00009280
:0202eb0000927f
:0202ec0000937d
:0202ed0000937c
:0202ee0000937b
:0202ef0000937a
:0202f000009379
:0202f100009477
:0202f200009476
:0202f300009475
:0202f400009474
:0202f500009473
:0202f600009571
:0202f700009570
:0202f80000956f
:0202f90000956e
:0202fa0000956d
:0202fb0000966b
:0202fc0000966a
:0202fd00009669
:0202fe00009668
:0202ff00009667
:02030000009764
:02030100009763
:02030200009762
:02030300009761
:02030400009760
:0203050000985e
:0203060000985d
:0203070000985c
:0203080000985b
:0203090000985a
:02030a00009958
:02030b00009957
:02030c00009956
:02030d00009955
:02030e00009954
:02030f00009a52
:02031000009a51
:02031100009a50
:02031200009a4f
:02031300009a4e
:02031400009b4c
:02031500009b4b
:02031600009b4a
:02031700009b49
:02031800009b48
:02031900009b47
:02031a00009c45
:02031b00009c44
:02031c00009c43
:02031d00009c42
:02031e00009c41
:02031f00009d3f
:02032000009d3e
:02032100009d3d
:02032200009d3c
:02032300009d3b
:02032400009e39
:02032500009e38
:02032600009e37
:02032700009e36
:02032800009e35
:02032900009f33
:02032a00009f32
:02032b00009f31
:02032c00009f30
:02032d00009f2f
:02032e0000a02d
:02032f0000a02c
:0203300000a02b
:0203310000a02a
:0203320000a029
:0203330000a127
:0203340000a126
:0203350000a125
:0203360000a124
:0203370000a123
:0203380000a221
:0203390000a220
:02033a0000a21f
:02033b0000a21e
:02033c0000a21d
:02033d0000a31b
:02033e0000a31a
:02033f0000a319
:0203400000a318
:0203410000a317
:0203420000a415
:0203430000a414
:0203440000a413
:0203450000a412
:0203460000a411
:0203470000a410
:0203480000a50e
:0203490000a50d
:02034a0000a50c
:02034b0000a50b
:02034c0000a50a
:02034d0000a608
:02034e0000a607
:02034f0000a606
:0203500000a605
:0203510000a604
:0203520000a702
:0203530000a701
:0203540000a700
:0203550000a7ff
:0203560000a7fe
:0203570000a8fc
:0203580000a8fb
:0203590000a8fa
:02035a0000a8f9
:02035b0000a8f8
:02035c0000a9f6
:02035d0000a9f5
:02035e0000a9f4
:02035f0000a9f3
:0203600000a9f2
:0203610000aaf0
:0203620000aaef
:0203630000aaee
:0203640000aaed
:0203650000aaec
:0203660000abea
:0203670000abe9
:0203680000abe8
:0203690000abe7
:02036a0000abe6
:02036b0000ace4
:02036c0000ace3
:02036d0000ace2
:02036e0000ace1
:02036f0000ace0
:0203700000acdf
:0203710000addd
:0203720000addc
:0203730000addb
:0203740000adda
:0203750000add9
:0203760000aed7
:0203770000aed6
:0203780000aed5
:0203790000aed4
:02037a0000aed3
:02037b0000afd1
:02037c0000afd0
:02037d0000afcf
:02037e0000afce
:02037f0000afcd
:0203800000b0cb
:0203810000b0ca
:0203820000b0c9
:0203830000b0c8
:0203840000b0c7
:0203850000b1c5
:0203860000b1c4
:0203870000b1c3
:0203880000b1c2
:0203890000b1c1
:02038a0000b2bf
:02038b0000b2be
:02038c0000b2bd
:02038d0000b2bc
:02038e0000b2bb
:02038f0000b3b9
:0203900000b3b8
:0203910000b3b7
:0203920000b3b6
:0203930000b3b5
:0203940000b4b3
:0203950000b4b2
:0203960000b4b1
:0203970000b4b0
:0203980000b4af
:0203990000b5ad
:02039a0000b5ac
:02039b0000b5ab
:02039c0000b5aa
:02039d0000b5a9
:02039e0000b5a8
:02039f0000b6a6
:0203a00000b6a5
:0203a10000b6a4
:0203a20000b6a3
:0203a30000b6a2
:0203a40000b7a0
:0203a50000b79f
:0203a60000b79e
:0203a70000b79d
:0203a80000b79c
:0203a90000b89a
:0203aa0000b899
:0203ab0000b898
:0203ac0000b897
:0203ad0000b896
:0203ae0000b994
:0203af0000b993
:0203b00000b992
:0203b10000b991
:0203b20000b990
:0203b30000ba8e
:0203b40000ba8d
:0203b50000ba8c
:0203b60000ba8b
:0203b70000ba8a
:0203b80000bb88
:0203b90000bb87
:0203ba0000bb86
:0203bb0000bb85
:0203bc0000bb84
:0203bd0000bc82
:0203be0000bc81
:0203bf0000bc80
:0203c00000bc7f
:0203c10000bc7e
:0203c20000bd7c
:0203c30000bd7b
:0203c40000bd7a
:0203c50000bd79
:0203c60000bd78
:0203c70000be76
:0203c80000be75
:0203c90000be74
:0203ca0000be73
:0203cb0000be72
:0203cc0000be71
:0203cd0000bf6f
:0203ce0000bf6e
:0203cf0000bf6d
:0203d00000bf6c
:0203d10000bf6b
:0203d20000c069
:0203d30000c068
:0203d40000c067
:0203d50000c066
:0203d60000c065
:0203d70000c163
:0203d80000c162
:0203d90000c161
:0203da0000c160
:0203db0000c15f
:0203dc0000c25d
:0203dd0000c25c
:0203de0000c25b
:0203df0000c25a
:0203e00000c259
:0203e10000c357
:0203e20000c356
:0203e30000c355
:0203e40000c354
:0203e50000c353
:0203e60000c451
:0203e70000c450
:0203e80000c44f
:0203e90000c44e
:0203ea0000c44d
:0203eb0000c54b
:0203ec0000c54a
:0203ed0000c549
:0203ee0000c548
:0203ef0000c547
:0203f00000c645
:0203f10000c644
:0203f20000c643
:0203f30000c642
:0203f40000c641
:0203f50000c640
:0203f60000c73e
:0203f70000c73d
:0203f80000c73c
:0203f90000c73b
:0203fa0000c73a
:0203fb0000c838
:0203fc0000c837
:0203fd0000c836
:0203fe0000c835
:0203ff0000c834
:0204000000c931
:0204010000c930
:0204020000c92f
:0204030000c92e
:0204040000c92d
:0204050000ca2b
:0204060000ca2a
:0204070000ca29
:0204080000ca28
:0204090000ca27
:02040a0000cb25
:02040b0000cb24
:02040c0000cb23
:02040d0000cb22
:02040e0000cb21
:02040f0000cc1f
:0204100000cc1e
:0204110000cc1d
:0204120000cc1c
:0204130000cc1b
:0204140000cd19
:0204150000cd18
:0204160000cd17
:0204170000cd16
:0204180000cd15
:0204190000ce13
:02041a0000ce12
:02041b0000ce11
:02041c0000ce10
:02041d0000ce0f
:02041e0000ce0e
:02041f0000cf0c
:0204200000cf0b
:0204210000cf0a
:0204220000cf09
:0204230000cf08
:0204240000d006
:0204250000d005
:0204260000d004
:0204270000d003
:0204280000d002
:0204290000d100
:02042a0000d1ff
:02042b0000d1fe
:02042c0000d1fd
:02042d0000d1fc
:02042e0000d2fa
:02042f0000d2f9
:0204300000d2f8
:0204310000d2f7
:0204320000d2f6
:0204330000d3f4
:0204340000d3f3
:0204350000d3f2
:0204360000d3f1
:0204370000d3f0
:0204380000d4ee
:0204390000d4ed
:02043a0000d4ec
:02043b0000d4eb
:02043c0000d4ea
:02043d0000d5e8
:02043e0000d5e7
:02043f0000d5e6
:0204400000d5e5
:0204410000d5e4
:0204420000d6e2
:0204430000d6e1
:0204440000d6e0
:0204450000d6df
:0204460000d6de
:0204470000d7dc
:0204480000d7db
:0204490000d7da
:02044a0000d7d9
:02044b0000d7d8
:02044c0000d7d7
:02044d0000d8d5
:02044e0000d8d4
:02044f0000d8d3
:0204500000d8d2
:0204510000d8d1
:0204520000d9cf
:0204530000d9ce
:0204540000d9cd
:0204550000d9cc
:0204560000d9cb
:0204570000dac9
:0204580000dac8
:0204590000dac7
:02045a0000dac6
:02045b0000dac5
:02045c0000dbc3
:02045d0000dbc2
:02045e0000dbc1
:02045f0000dbc0
:0204600000dbbf
:0204610000dcbd
:0204620000dcbc
:0204630000dcbb
:0204640000dcba
:0204650000dcb9
:0204660000ddb7
:0204670000ddb6
:0204680000ddb5
:0204690000ddb4
:02046a0000ddb3
:02046b0000deb1
:02046c0000deb0
:02046d0000deaf
:02046e0000deae
:02046f0000dead
:0204700000dfab
:0204710000dfaa
:0204720000dfa9
:0204730000dfa8
:0204740000dfa7
:0204750000dfa6
:0204760000e0a4
:0204770000e0a3
:0204780000e0a2
:0204790000e0a1
:02047a0000e0a0
:02047b0000e19e
:02047c0000e19d
:02047d0000e19c
:02047e0000e19b
:02047f0000e19a
:0204800000e298
:0204810000e297
:0204820000e296
:0204830000e295
:0204840000e294
:0204850000e392
:0204860000e391
:0204870000e390
:0204880000e38f
:0204890000e38e
:02048a0000e48c
:02048b0000e48b
:02048c0000e48a
:02048d0000e489
:02048e0000e488
:02048f0000e586
:0204900000e585
:0204910000e584
:0204920000e583
:0204930000e582
:0204940000e680
:0204950000e67f
:0204960000e67e
:0204970000e67d
:0204980000e67c
:0204990000e77a
:02049a0000e779
:02049b0000e778
:02049c0000e777
:02049d0000e776
:02049e0000e775
:02049f0000e873
:0204a00000e872
:0204a10000e871
:0204a20000e870
:0204a30000e86f
:0204a40000e96d
:0204a50000e96c
:0204a60000e96b
:0204a70000e96a
:0204a80000e969
:0204a90000ea67
:0204aa0000ea66
:0204ab0000ea65
:0204ac0000ea64
:0204ad0000ea63
:0204ae0000eb61
:0204af0000eb60
:0204b00000eb5f
:0204b10000eb5e
:0204b20000eb5d
:0204b30000ec5b
:0204b40000ec5a
:0204b50000ec59
:0204b60000ec58
:0204b70000ec57
:0204b80000ed55
:0204b90000ed54
:0204ba0000ed53
:0204bb0000ed52
:0204bc0000ed51
:0204bd0000ee4f
:0204be0000ee4e
:0204bf0000ee4d
:0204c00000ee4c
:0204c10000ee4b
:0204c20000ee4a
:0204c30000ef48
:0204c40000ef47
:0204c50000ef46
:0204c60000ef45
:0204c70000ef44
:0204c80000f042
:0204c90000f041
:0204ca0000f040
:0204cb0000f03f
:0204cc0000f03e
:0204cd0000f13c
:0204ce0000f13b
:0204cf0000f13a
:0204d00000f139
:0204d10000f138
:0204d20000f236
:0204d30000f235
:0204d40000f234
:0204d50000f233
:0204d60000f232
:0204d70000f330
:0204d80000f32f
:0204d90000f32e
:0204da0000f32d
:0204db0000f32c
:0204dc0000f42a
:0204dd0000f429
:0204de0000f428
:0204df0000f427
:0204e00000f426
:0204e10000f524
:0204e20000f523
:0204e30000f522
:0204e40000f521
:0204e50000f520
:0204e60000f61e
:0204e70000f61d
:0204e80000f61c
:0204e90000f61b
:0204ea0000f61a
:0204eb0000f619
:0204ec0000f717
:0204ed0000f716
:0204ee0000f715
:0204ef0000f714
:0204f00000f713
:0204f10000f811
:0204f20000f810
:0204f30000f80f
:0204f40000f80e
:0204f50000f80d
:0204f60000f90b
:0204f70000f90a
:0204f80000f909
:0204f90000f908
:0204fa0000f907
:0204fb0000fa05
:0204fc0000fa04
:0204fd0000fa03
:0204fe0000fa02
:0204ff0000fa01
:0205000000fbfe
:0205010000fbfd
:0205020000fbfc
:0205030000fbfb
:0205040000fbfa
:0205050000fcf8
:0205060000fcf7
:0205070000fcf6
:0205080000fcf5
:0205090000fcf4
:02050a0000fdf2
:02050b0000fdf1
:02050c0000fdf0
:02050d0000fdef
:02050e0000fdee
:02050f0000fded
:0205100000feeb
:0205110000feea
:0205120000fee9
:0205130000fee8
:0205140000fee7
:0205150000ffe5
:0205160000ffe4
:0205170000ffe3
:0205180000ffe2
:0205190000ffe1
:02051a000100de
:02051b000100dd
:02051c000100dc
:02051d000100db
:02051e000100da
:02051f000101d8
:020520000101d7
:020521000101d6
:020522000101d5
:020523000101d4
:020524000102d2
:020525000102d1
:020526000102d0
:020527000102cf
:020528000102ce
:020529000103cc
:02052a000103cb
:02052b000103ca
:02052c000103c9
:02052d000103c8
:02052e000104c6
:02052f000104c5
:020530000104c4
:020531000104c3
:020532000104c2
:020533000105c0
:020534000105bf
:020535000105be
:020536000105bd
:020537000105bc
:020538000105bb
:020539000106b9
:02053a000106b8
:02053b000106b7
:02053c000106b6
:02053d000106b5
:02053e000107b3
:02053f000107b2
:020540000107b1
:020541000107b0
:020542000107af
:020543000108ad
:020544000108ac
:020545000108ab
:020546000108aa
:020547000108a9
:020548000109a7
:020549000109a6
:02054a000109a5
:02054b000109a4
:02054c000109a3
:02054d00010aa1
:02054e00010aa0
:02054f00010a9f
:02055000010a9e
:02055100010a9d
:02055200010b9b
:02055300010b9a
:02055400010b99
:02055500010b98
:02055600010b97
:02055700010c95
:02055800010c94
:02055900010c93
:02055a00010c92
:02055b00010c91
:02055c00010c90
:02055d00010d8e
:02055e00010d8d
:02055f00010d8c
:02056000010d8b
:02056100010d8a
:02056200010e88
:02056300010e87
:02056400010e86
:02056500010e85
:02056600010e84
:02056700010f82
:02056800010f81
:02056900010f80
:02056a00010f7f
:02056b00010f7e
:02056c0001107c
:02056d0001107b
:02056e0001107a
:02056f00011079
:02057000011078
:02057100011176
:02057200011175
:02057300011174
:02057400011173
:02057500011172
:02057600011270
:0205770001126f
:0205780001126e
:0205790001126d
:02057a0001126c
:02057b0001136a
:02057c00011369
:02057d00011368
:02057e00011367
:02057f00011366
:02058000011365
:02058100011463
:02058200011462
:02058300011461
:02058400011460
:0205850001145f
:0205860001155d
:0205870001155c
:0205880001155b
:0205890001155a
:02058a00011559
:02058b00011657
:02058c00011656
:02058d00011655
:02058e00011654
:02058f00011653
:02059000011751
:02059100011750
:0205920001174f
:0205930001174e
:0205940001174d
:0205950001184b
:0205960001184a
:02059700011849
:02059800011848
:02059900011847
:02059a00011945
:02059b00011944
:02059c00011943
:02059d00011942
:02059e00011941
:02059f00011a3f
:0205a000011a3e
:0205a100011a3d
:0205a200011a3c
:0205a300011a3b
:0205a400011a3a
:0205a500011b38
:0205a600011b37
:0205a700011b36
:0205a800011b35
:0205a900011b34
:0205aa00011c32
:0205ab00011c31
:0205ac00011c30
:0205ad00011c2f
:0205ae00011c2e
:0205af00011d2c
:0205b000011d2b
:0205b100011d2a
:0205b200011d29
:0205b300011d28
:0205b400011e26
:0205b500011e25
:0205b600011e24
:0205b700011e23
:0205b800011e22
:0205b900011f20
:0205ba00011f1f
:0205bb00011f1e
:0205bc00011f1d
:0205bd00011f1c
:0205be0001201a
:0205bf00012019
:0205c000012018
:0205c100012017
:0205c200012016
:0205c300012114
:0205c400012113
:0205c500012112
:0205c600012111
:0205c700012110
:0205c80001210f
:0205c90001220d
:0205ca0001220c
:0205cb0001220b
:0205cc0001220a
:0205cd00012209
:0205ce00012307
:0205cf00012306
:0205d000012305
:0205d100012304
:0205d200012303
:0205d300012401
:0205d400012400
:0205d5000124ff
:0205d6000124fe
:0205d7000124fd
:0205d8000125fb
:0205d9000125fa
:0205da000125f9
:0205db000125f8
:0205dc000125f7
:0205dd000126f5
:0205de000126f4
:0205df000126f3
:0205e0000126f2
:0205e1000126f1
:0205e2000127ef
:0205e3000127ee
:0205e4000127ed
:0205e5000127ec
:0205e6000127eb
:0205e7000128e9
:0205e8000128e8
:0205e9000128e7
:0205ea000128e6
:0205eb000128e5
:0205ec000128e4
:0205ed000129e2
:0205ee000129e1
:0205ef000129e0
:0205f0000129df
:0205f1000129de
:0205f200012adc
:0205f300012adb
:0205f400012ada
:0205f500012ad9
:0205f600012ad8
:0205f700012bd6
:0205f800012bd5
:0205f900012bd4
:0205fa00012bd3
:0205fb00012bd2
:0205fc00012cd0
:0205fd00012ccf
:0205fe00012cce
:0205ff00012ccd
:02060000012ccb
:02060100012dc9
:02060200012dc8
:02060300012dc7
:02060400012dc6
:02060500012dc5
:02060600012ec3
:02060700012ec2
:02060800012ec1
:02060900012ec0
:02060a00012ebf
:02060b00012ebe
:02060c00012fbc
:02060d00012fbb
:02060e00012fba
:02060f00012fb9
:02061000012fb8
:020611000130b6
:020612000130b5
:020613000130b4
:020614000130b3
:020615000130b2
:020616000131b0
:020617000131af
:020618000131ae
:020619000131ad
:02061a000131ac
:02061b000132aa
:02061c000132a9
:02061d000132a8
:02061e000132a7
:02061f000132a6
:020620000133a4
:020621000133a3
:020622000133a2
:020623000133a1
:020624000133a0
:0206250001349e
:0206260001349d
:0206270001349c
:0206280001349b
:0206290001349a
:02062a00013598
:02062b00013597
:02062c00013596
:02062d00013595
:02062e00013594
:02062f00013593
:02063000013691
:02063100013690
:0206320001368f
:0206330001368e
:0206340001368d
:0206350001378b
:0206360001378a
:02063700013789
:02063800013788
:02063900013787
:02063a00013885
:02063b00013884
:02063c00013883
:02063d00013882
:02063e00013881
:02063f0001397f
:0206400001397e
:0206410001397d
:0206420001397c
:0206430001397b
:02064400013a79
:02064500013a78
:02064600013a77
:02064700013a76
:02064800013a75
:02064900013b73
:02064a00013b72
:02064b00013b71
:02064c00013b70
:02064d00013b6f
:02064e00013b6e
:02064f00013c6c
:02065000013c6b
:02065100013c6a
:02065200013c69
:02065300013c68
:02065400013d66
:02065500013d65
:02065600013d64
:02065700013d63
:02065800013d62
:02065900013e60
:02065a00013e5f
:02065b00013e5e
:02065c00013e5d
:02065d00013e5c
:02065e00013f5a
:02065f00013f59
:02066000013f58
:02066100013f57
:02066200013f56
:02066300014054
:02066400014053
:02066500014052
:02066600014051
:02066700014050
:0206680001414e
:0206690001414d
:02066a0001414c
:02066b0001414b
:02066c0001414a
:02066d00014248
:02066e00014247
:02066f00014246
:02067000014245
:02067100014244
:02067200014243
:02067300014341
:02067400014340
:0206750001433f
:0206760001433e
:0206770001433d
:0206780001443b
:0206790001443a
:02067a00014439
:02067b00014438
:02067c00014437
:02067d00014535
:02067e00014534
:02067f00014533
:02068000014532
:02068100014531
:0206820001462f
:0206830001462e
:0206840001462d
:0206850001462c
:0206860001462b
:02068700014729
:02068800014728
:02068900014727
:02068a00014726
:02068b00014725
:02068c00014823
:02068d00014822
:02068e00014821
:02068f00014820
:0206900001481f
:0206910001481e
:0206920001491c
:0206930001491b
:0206940001491a
:02069500014919
:02069600014918
:02069700014a16
:02069800014a15
:02069900014a14
:02069a00014a13
:02069b00014a12
:02069c00014b10
:02069d00014b0f
:02069e00014b0e
:02069f00014b0d
:0206a000014b0c
:0206a100014c0a
:0206a200014c09
:0206a300014c08
:0206a400014c07
:0206a500014c06
:0206a600014d04
:0206a700014d03
:0206a800014d02
:0206a900014d01
:0206aa00014d00
:0206ab00014efe
:0206ac00014efd
:0206ad00014efc
:0206ae00014efb
:0206af00014efa
:0206b000014ef9
:0206b100014ff7
:0206b200014ff6
:0206b300014ff5
:0206b400014ff4
:0206b500014ff3
:0206b6000150f1
:0206b7000150f0
:0206b8000150ef
:0206b9000150ee
:0206ba000150ed
:0206bb000151eb
:0206bc000151ea
:0206bd000151e9
:0206be000151e8
:0206bf000151e7
:0206c0000152e5
:0206c1000152e4
:0206c2000152e3
:0206c3000152e2
:0206c4000152e1
:0206c5000153df
:0206c6000153de
:0206c7000153dd
:0206c8000153dc
:0206c9000153db
:0206ca000154d9
:0206cb000154d8
:0206cc000154d7
:0206cd000154d6
:0206ce000154d5
:0206cf000154d4
:0206d0000155d2
:0206d1000155d1
:0206d2000155d0
:0206d3000155cf
:0206d4000155ce
:0206d5000156cc
:0206d6000156cb
:0206d7000156ca
:0206d8000156c9
:0206d9000156c8
:0206da000157c6
:0206db000157c5
:0206dc000157c4
:0206dd000157c3
:0206de000157c2
:0206df000158c0
:0206e0000158bf
:0206e1000158be
:0206e2000158bd
:0206e3000158bc
:0206e4000159ba
:0206e5000159b9
:0206e6000159b8
:0206e7000159b7
:0206e8000159b6
:0206e900015ab4
:0206ea00015ab3
:0206eb00015ab2
:0206ec00015ab1
:0206ed00015ab0
:0206ee00015aaf
:0206ef00015bad
:0206f000015bac
:0206f100015bab
:0206f200015baa
:0206f300015ba9
:0206f400015ca7
:0206f500015ca6
:0206f600015ca5
:0206f700015ca4
:0206f800015ca3
:0206f900015da1
:0206fa00015da0
:0206fb00015d9f
:0206fc00015d9e
:0206fd00015d9d
:0206fe00015e9b
:0206ff00015e9a
:02070000015e98
:02070100015e97
:02070200015e96
:02070300015f94
:02070400015f93
:02070500015f92
:02070600015f91
:02070700015f90
:0207080001608e
:0207090001608d
:02070a0001608c
:02070b0001608b
:02070c0001608a
:02070d00016089
:02070e00016187
:02070f00016186
:02071000016185
:02071100016184
:02071200016183
:02071300016281
:02071400016280
:0207150001627f
:0207160001627e
:0207170001627d
:0207180001637b
:0207190001637a
:02071a00016379
:02071b00016378
:02071c00016377
:02071d00016475
:02071e00016474
:02071f00016473
:02072000016472
:02072100016471
:0207220001656f
:0207230001656e
:0207240001656d
:0207250001656c
:0207260001656b
:0207270001656a
:02072800016668
:02072900016667
:02072a00016666
:02072b00016665
:02072c00016664
:02072d00016762
:02072e00016761
:02072f00016760
:0207300001675f
:0207310001675e
:0207320001685c
:0207330001685b
:0207340001685a
:02073500016859
:02073600016858
:02073700016956
:02073800016955
:02073900016954
:02073a00016953
:02073b00016952
:02073c00016a50
:02073d00016a4f
:02073e00016a4e
:02073f00016a4d
:02074000016a4c
:02074100016b4a
:02074200016b49
:02074300016b48
:02074400016b47
:02074500016b46
:02074600016b45
:02074700016c43
:02074800016c42
:02074900016c41
:02074a00016c40
:02074b00016c3f
:02074c00016d3d
:02074d00016d3c
:02074e00016d3b
:02074f00016d3a
:02075000016d39
:02075100016e37
:02075200016e36
:02075300016e35
:02075400016e34
:02075500016e33
:02075600016f31
:02075700016f30
:02075800016f2f
:02075900016f2e
:02075a00016f2d
:02075b0001702b
:02075c0001702a
:02075d00017029
:02075e00017028
:02075f00017027
:02076000017125
:02076100017124
:02076200017123
:02076300017122
:02076400017121
:02076500017120
:0207660001721e
:0207670001721d
:0207680001721c
:0207690001721b
:02076a0001721a
:02076b00017318
:02076c00017317
:02076d00017316
:02076e00017315
:02076f00017314
:02077000017412
:02077100017411
:02077200017410
:0207730001740f
:0207740001740e
:0207750001750c
:0207760001750b
:0207770001750a
:02077800017509
:02077900017508
:02077a00017606
:02077b00017605
:02077c00017604
:02077d00017603
:02077e00017602
:02077f00017601
:020780000177ff
:020781000177fe
:020782000177fd
:020783000177fc
:020784000177fb
:020785000178f9
:020786000178f8
:020787000178f7
:020788000178f6
:020789000178f5
:02078a000179f3
:02078b000179f2
:02078c000179f1
:02078d000179f0
:02078e000179ef
:02078f00017aed
:02079000017aec
:02079100017aeb
:02079200017aea
:02079300017ae9
:02079400017be7
:02079500017be6
:02079600017be5
:02079700017be4
:02079800017be3
:02079900017ce1
:02079a00017ce0
:02079b00017cdf
:02079c00017cde
:02079d00017cdd
:02079e00017cdc
:02079f00017dda
:0207a000017dd9
:0207a100017dd8
:0207a200017dd7
:0207a300017dd6
:0207a400017ed4
:0207a500017ed3
:0207a600017ed2
:0207a700017ed1
:0207a800017ed0
:0207a900017fce
:0207aa00017fcd
:0207ab00017fcc
:0207ac00017fcb
:0207ad00017fca
:0207ae000180c8
:0207af000180c7
:0207b0000180c6
:0207b1000180c5
:0207b2000180c4
:0207b3000181c2
:0207b4000181c1
:0207b5000181c0
:0207b6000181bf
:0207b7000181be
:0207b8000181bd
:0207b9000182bb
:0207ba000182ba
:0207bb000182b9
:0207bc000182b8
:0207bd000182b7
:0207be000183b5
:0207bf000183b4
:0207c0000183b3
:0207c1000183b2
:0207c2000183b1
:0207c3000184af
:0207c4000184ae
:0207c5000184ad
:0207c6000184ac
:0207c7000184ab
:0207c8000185a9
:0207c9000185a8
:0207ca000185a7
:0207cb000185a6
:0207cc000185a5
:0207cd000186a3
:0207ce000186a2
:0207cf000186a1
:0207d0000186a0
:0207d10001869f
:0207d20001869e
:0207d30001879c
:0207d40001879b
:0207d50001879a
:0207d600018799
:0207d700018798
:0207d800018896
:0207d900018895
:0207da00018894
:0207db00018893
:0207dc00018892
:0207dd00018990
:0207de0001898f
:0207df0001898e
:0207e00001898d
:0207e10001898c
:0207e200018a8a
:0207e300018a89
:0207e400018a88
:0207e500018a87
:0207e600018a86
:0207e700018b84
:0207e800018b83
:0207e900018b82
:0207ea00018b81
:0207eb00018b80
:0207ec00018b7f
:0207ed00018c7d
:0207ee00018c7c
:0207ef00018c7b
:0207f000018c7a
:0207f100018c79
:0207f200018d77
:0207f300018d76
:0207f400018d75
:0207f500018d74
:0207f600018d73
:0207f700018e71
:0207f800018e70
:0207f900018e6f
:0207fa00018e6e
:0207fb00018e6d
:0207fc00018f6b
:0207fd00018f6a
:0207fe00018f69
:0207ff00018f68
:02080000018f66
:02080100019064
:02080200019063
:02080300019062
:02080400019061
:02080500019060
:0208060001915e
:0208070001915d
:0208080001915c
:0208090001915b
:02080a0001915a
:02080b00019159
:02080c00019257
:02080d00019256
:02080e00019255
:02080f00019254
:02081000019253
:02081100019351
:02081200019350
:0208130001934f
:0208140001934e
:0208150001934d
:0208160001944b
:0208170001944a
:02081800019449
:02081900019448
:02081a00019447
:02081b00019545
:02081c00019544
:02081d00019543
:02081e00019542
:02081f00019541
:0208200001963f
:0208210001963e
:0208220001963d
:0208230001963c
:0208240001963b
:0208250001963a
:02082600019738
:02082700019737
:02082800019736
:02082900019735
:02082a00019734
:02082b00019832
:02082c00019831
:02082d00019830
:02082e0001982f
:02082f0001982e
:0208300001992c
:0208310001992b
:0208320001992a
:02083300019929
:02083400019928
:02083500019a26
:02083600019a25
:02083700019a24
:02083800019a23
:02083900019a22
:02083a00019b20
:02083b00019b1f
:02083c00019b1e
:02083d00019b1d
:02083e00019b1c
:02083f00019b1b
:02084000019c19
:02084100019c18
:02084200019c17
:02084300019c16
:02084400019c15
:02084500019d13
:02084600019d12
:02084700019d11
:02084800019d10
:02084900019d0f
:02084a00019e0d
:02084b00019e0c
:02084c00019e0b
:02084d00019e0a
:02084e00019e09
:02084f00019f07
:02085000019f06
:02085100019f05
:02085200019f04
:02085300019f03
:0208540001a001
:0208550001a000
:0208560001a0ff
:0208570001a0fe
:0208580001a0fd
:0208590001a0fc
:02085a0001a1fa
:02085b0001a1f9
:02085c0001a1f8
:02085d0001a1f7
:02085e0001a1f6
:02085f0001a2f4
:0208600001a2f3
:0208610001a2f2
:0208620001a2f1
:0208630001a2f0
:0208640001a3ee
:0208650001a3ed
:0208660001a3ec
:0208670001a3eb
:0208680001a3ea
:0208690001a4e8
:02086a0001a4e7
:02086b0001a4e6
:02086c0001a4e5
:02086d0001a4e4
:02086e0001a5e2
:02086f0001a5e1
:0208700001a5e0
:0208710001a5df
:0208720001a5de
:0208730001a5dd
:0208740001a6db
:0208750001a6da
:0208760001a6d9
:0208770001a6d8
:0208780001a6d7
:0208790001a7d5
:02087a0001a7d4
:02087b0001a7d3
:02087c0001a7d2
:02087d0001a7d1
:02087e0001a8cf
:02087f0001a8ce
:0208800001a8cd
:0208810001a8cc
:0208820001a8cb
:0208830001a9c9
:0208840001a9c8
:0208850001a9c7
:0208860001a9c6
:0208870001a9c5
:0208880001a9c4
:0208890001aac2
:02088a0001aac1
:02088b0001aac0
:02088c0001aabf
:02088d0001aabe
:02088e0001abbc
:02088f0001abbb
:0208900001abba
:0208910001abb9
:0208920001abb8
:0208930001acb6
:0208940001acb5
:0208950001acb4
:0208960001acb3
:0208970001acb2
:0208980001adb0
:0208990001adaf
:02089a0001adae
:02089b0001adad
:02089c0001adac
:02089d0001aeaa
:02089e0001aea9
:02089f0001aea8
:0208a00001aea7
:0208a10001aea6
:0208a20001aea5
:0208a30001afa3
:0208a40001afa2
:0208a50001afa1
:0208a60001afa0
:0208a70001af9f
:0208a80001b09d
:0208a90001b09c
:0208aa0001b09b
:0208ab0001b09a
:0208ac0001b099
:0208ad0001b197
:0208ae0001b196
:0208af0001b195
:0208b00001b194
:0208b10001b193
:0208b20001b291
:0208b30001b290
:0208b40001b28f
:0208b50001b28e
:0208b60001b28d
:0208b70001b38b
:0208b80001b38a
:0208b90001b389
:0208ba0001b388
:0208bb0001b387
:0208bc0001b386
:0208bd0001b484
:0208be0001b483
:0208bf0001b482
:0208c00001b481
:0208c10001b480
:0208c20001b57e
:0208c30001b57d
:0208c40001b57c
:0208c50001b57b
:0208c60001b57a
:0208c70001b678
:0208c80001b677
:0208c90001b676
:0208ca0001b675
:0208cb0001b674
:0208cc0001b772
:0208cd0001b771
:0208ce0001b770
:0208cf0001b76f
:0208d00001b76e
:0208d10001b76d
:0208d20001b86b
:0208d30001b86a
:0208d40001b869
:0208d50001b868
:0208d60001b867
:0208d70001b965
:0208d80001b964
:0208d90001b963
:0208da0001b962
:0208db0001b961
:0208dc0001ba5f
:0208dd0001ba5e
:0208de0001ba5d
:0208df0001ba5c
:0208e00001ba5b
:0208e10001bb59
:0208e20001bb58
:0208e30001bb57
:0208e40001bb56
:0208e50001bb55
:0208e60001bc53
:0208e70001bc52
:0208e80001bc51
:0208e90001bc50
:0208ea0001bc4f
:0208eb0001bc4e
:0208ec0001bd4c
:0208ed0001bd4b
:0208ee0001bd4a
:0208ef0001bd49
:0208f00001bd48
:0208f10001be46
:0208f20001be45
:0208f30001be44
:0208f40001be43
:0208f50001be42
:0208f60001bf40
:0208f70001bf3f
:0208f80001bf3e
:0208f90001bf3d
:0208fa0001bf3c
:0208fb0001c03a
:0208fc0001c039
:0208fd0001c038
:0208fe0001c037
:0208ff0001c036
:0209000001c133
:0209010001c132
:0209020001c131
:0209030001c130
:0209040001c12f
:0209050001c12e
:0209060001c22c
:0209070001c22b
:0209080001c22a
:0209090001c229
:02090a0001c228
:02090b0001c326
:02090c0001c325
:02090d0001c324
:02090e0001c323
:02090f0001c322
:0209100001c420
:0209110001c41f
:0209120001c41e
:0209130001c41d
:0209140001c41c
:0209150001c51a
:0209160001c519
:0209170001c518
:0209180001c517
:0209190001c516
:02091a0001c515
:02091b0001c613
:02091c0001c612
:02091d0001c611
:02091e0001c610
:02091f0001c60f
:0209200001c70d
:0209210001c70c
:0209220001c70b
:0209230001c70a
:0209240001c709
:0209250001c807
:0209260001c806
:0209270001c805
:0209280001c804
:0209290001c803
:02092a0001c901
:02092b0001c900
:02092c0001c9ff
:02092d0001c9fe
:02092e0001c9fd
:02092f0001c9fc
:0209300001cafa
:0209310001caf9
:0209320001caf8
:0209330001caf7
:0209340001caf6
:0209350001cbf4
:0209360001cbf3
:0209370001cbf2
:0209380001cbf1
:0209390001cbf0
:02093a0001ccee
:02093b0001cced
:02093c0001ccec
:02093d0001cceb
:02093e0001ccea
:02093f0001cde8
:0209400001cde7
:0209410001cde6
:0209420001cde5
:0209430001cde4
:0209440001cee2
:0209450001cee1
:0209460001cee0
:0209470001cedf
:0209480001cede
:0209490001cedd
:02094a0001cfdb
:02094b0001cfda
:02094c0001cfd9
:02094d0001cfd8
:02094e0001cfd7
:02094f0001d0d5
:0209500001d0d4
:0209510001d0d3
:0209520001d0d2
:0209530001d0d1
:0209540001d1cf
:0209550001d1ce
:0209560001d1cd
:0209570001d1cc
:0209580001d1cb
:0209590001d2c9
:02095a0001d2c8
:02095b0001d2c7
:02095c0001d2c6
:02095d0001d2c5
:02095e0001d2c4
:02095f0001d3c2
:0209600001d3c1
:0209610001d3c0
:0209620001d3bf
:0209630001d3be
:0209640001d4bc
:0209650001d4bb
:0209660001d4ba
:0209670001d4b9
:0209680001d4b8
:0209690001d5b6
:02096a0001d5b5
:02096b0001d5b4
:02096c0001d5b3
:02096d0001d5b2
:02096e0001d6b0
:02096f0001d6af
:0209700001d6ae
:0209710001d6ad
:0209720001d6ac
:0209730001d6ab
:0209740001d7a9
:0209750001d7a8
:0209760001d7a7
:0209770001d7a6
:0209780001d7a5
:0209790001d8a3
:02097a0001d8a2
:02097b0001d8a1
:02097c0001d8a0
:02097d0001d89f
:02097e0001d99d
:02097f0001d99c
:0209800001d99b
:0209810001d99a
:0209820001d999
:0209830001da97
:0209840001da96
:0209850001da95
:0209860001da94
:0209870001da93
:0209880001db91
:0209890001db90
:02098a0001db8f
:02098b0001db8e
:02098c0001db8d
:02098d0001db8c
:02098e0001dc8a
:02098f0001dc89
:0209900001dc88
:0209910001dc87
:0209920001dc86
:0209930001dd84
:0209940001dd83
:0209950001dd82
:0209960001dd81
:0209970001dd80
:0209980001de7e
:0209990001de7d
:02099a0001de7c
:02099b0001de7b
:02099c0001de7a
:02099d0001df78
:02099e0001df77
:02099f0001df76
:0209a00001df75
:0209a10001df74
:0209a20001df73
:0209a30001e071
:0209a40001e070
:0209a50001e06f
:0209a60001e06e
:0209a70001e06d
:0209a80001e16b
:0209a90001e16a
:0209aa0001e169
:0209ab0001e168
:0209ac0001e167
:0209ad0001e265
:0209ae0001e264
:0209af0001e263
:0209b00001e262
:0209b10001e261
:0209b20001e35f
:0209b30001e35e
:0209b40001e35d
:0209b50001e35c
:0209b60001e35b
:0209b70001e35a
:0209b80001e458
:0209b90001e457
:0209ba0001e456
:0209bb0001e455
:0209bc0001e454
:0209bd0001e552
:0209be0001e551
:0209bf0001e550
:0209c00001e54f
:0209c10001e54e
:0209c20001e64c
:0209c30001e64b
:0209c40001e64a
:0209c50001e649
:0209c60001e648
:0209c70001e746
:0209c80001e745
:0209c90001e744
:0209ca0001e743
:0209cb0001e742
:0209cc0001e741
:0209cd0001e83f
:0209ce0001e83e
:0209cf0001e83d
:0209d00001e83c
:0209d10001e83b
:0209d20001e939
:0209d30001e938
:0209d40001e937
:0209d50001e936
:0209d60001e935
:0209d70001ea33
:0209d80001ea32
:0209d90001ea31
:0209da0001ea30
:0209db0001ea2f
:0209dc0001eb2d
:0209dd0001eb2c
:0209de0001eb2b
:0209df0001eb2a
:0209e00001eb29
:0209e10001eb28
:0209e20001ec26
:0209e30001ec25
:0209e40001ec24
:0209e50001ec23
:0209e60001ec22
:0209e70001ed20
:0209e80001ed1f
:0209e90001ed1e
:0209ea0001ed1d
:0209eb0001ed1c
:0209ec0001ee1a
:0209ed0001ee19
:0209ee0001ee18
:0209ef0001ee17
:0209f00001ee16
:0209f10001ef14
:0209f20001ef13
:0209f30001ef12
:0209f40001ef11
:0209f50001ef10
:0209f60001ef0f
:0209f70001f00d
:0209f80001f00c
:0209f90001f00b
:0209fa0001f00a
:0209fb0001f009
:0209fc0001f107
:0209fd0001f106
:0209fe0001f105
:0209ff0001f104
:020a000001f102
:020a010001f200
:020a020001f2ff
:020a030001f2fe
:020a040001f2fd
:020a050001f2fc
:020a060001f3fa
:020a070001f3f9
:020a080001f3f8
:020a090001f3f7
:020a0a0001f3f6
:020a0b0001f3f5
:020a0c0001f4f3
:020a0d0001f4f2
:020a0e0001f4f1
:020a0f0001f4f0
:020a100001f4ef
:020a110001f5ed
:020a120001f5ec
:020a130001f5eb
:020a140001f5ea
:020a150001f5e9
:020a160001f6e7
:020a170001f6e6
:020a180001f6e5
:020a190001f6e4
:020a1a0001f6e3
:020a1b0001f7e1
:020a1c0001f7e0
:020a1d0001f7df
:020a1e0001f7de
:020a1f0001f7dd
:020a200001f7dc
:020a210001f8da
:020a220001f8d9
:020a230001f8d8
:020a240001f8d7
:020a250001f8d6
:020a260001f9d4
:020a270001f9d3
:020a280001f9d2
:020a290001f9d1
:020a2a0001f9d0
:020a2b0001face
:020a2c0001facd
:020a2d0001facc
:020a2e0001facb
:020a2f0001faca
:020a300001fbc8
:020a310001fbc7
:020a320001fbc6
:020a330001fbc5
:020a340001fbc4
:020a350001fbc3
:020a360001fcc1
:020a370001fcc0
:020a380001fcbf
:020a390001fcbe
:020a3a0001fcbd
:020a3b0001fdbb
:020a3c0001fdba
:020a3d0001fdb9
:020a3e0001fdb8
:020a3f0001fdb7
:020a400001feb5
:020a410001feb4
:020a420001feb3
:020a430001feb2
:020a440001feb1
:020a450001ffaf
:020a460001ffae
:020a470001ffad
:020a480001ffac
:020a490001ffab
:020a4a0001ffaa
:020a4b000200a7
:020a4c000200a6
:020a4d000200a5
:020a4e000200a4
:020a4f000200a3
:020a50000201a1
:020a51000201a0
:020a520002019f
:020a530002019e
:020a540002019d
:020a550002029b
:020a560002029a
:020a5700020299
:020a5800020298
:020a5900020297
:020a5a00020296
:020a5b00020394
:020a5c00020393
:020a5d00020392
:020a5e00020391
:020a5f00020390
:020a600002048e
:020a610002048d
:020a620002048c
:020a630002048b
:020a640002048a
:020a6500020588
:020a6600020587
:020a6700020586
:020a6800020585
:020a6900020584
:020a6a00020682
:020a6b00020681
:020a6c00020680
:020a6d0002067f
:020a6e0002067e
:020a6f0002067d
:020a700002077b
:020a710002077a
:020a7200020779
:020a7300020778
:020a7400020777
:020a7500020875
:020a7600020874
:020a7700020873
:020a7800020872
:020a7900020871
:020a7a0002096f
:020a7b0002096e
:020a7c0002096d
:020a7d0002096c
:020a7e0002096b
:020a7f00020a69
:020a8000020a68
:020a8100020a67
:020a8200020a66
:020a8300020a65
:020a8400020a64
:020a8500020b62
:020a8600020b61
:020a8700020b60
:020a8800020b5f
:020a8900020b5e
:020a8a00020c5c
:020a8b00020c5b
:020a8c00020c5a
:020a8d00020c59
:020a8e00020c58
:020a8f00020d56
:020a9000020d55
:020a9100020d54
:020a9200020d53
:020a9300020d52
:020a9400020e50
:020a9500020e4f
:020a9600020e4e
:020a9700020e4d
:020a9800020e4c
:020a9900020e4b
:020a9a00020f49
:020a9b00020f48
:020a9c00020f47
:020a9d00020f46
:020a9e00020f45
:020a9f00021043
:020aa000021042
:020aa100021041
:020aa200021040
:020aa30002103f
:020aa40002113d
:020aa50002113c
:020aa60002113b
:020aa70002113a
:020aa800021139
:020aa900021138
:020aaa00021236
:020aab00021235
:020aac00021234
:020aad00021233
:020aae00021232
:020aaf00021330
:020ab00002132f
:020ab10002132e
:020ab20002132d
:020ab30002132c
:020ab40002142a
:020ab500021429
:020ab600021428
:020ab700021427
:020ab800021426
:020ab900021524
:020aba00021523
:020abb00021522
:020abc00021521
:020abd00021520
:020abe0002151f
:020abf0002161d
:020ac00002161c
:020ac10002161b
:020ac20002161a
:020ac300021619
:020ac400021717
:020ac500021716
:020ac600021715
:020ac700021714
:020ac800021713
:020ac900021811
:020aca00021810
:020acb0002180f
:020acc0002180e
:020acd0002180d
:020ace0002180c
:020acf0002190a
:020ad000021909
:020ad100021908
:020ad200021907
:020ad300021906
:020ad400021a04
:020ad500021a03
:020ad600021a02
:020ad700021a01
:020ad800021a00
:020ad900021bfe
:020ada00021bfd
:020adb00021bfc
:020adc00021bfb
:020add00021bfa
:020ade00021cf8
:020adf00021cf7
:020ae000021cf6
:020ae100021cf5
:020ae200021cf4
:020ae300021cf3
:020ae400021df1
:020ae500021df0
:020ae600021def
:020ae700021dee
:020ae800021ded
:020ae900021eeb
:020aea00021eea
:020aeb00021ee9
:020aec00021ee8
:020aed00021ee7
:020aee00021fe5
:020aef00021fe4
:020af000021fe3
:020af100021fe2
:020af200021fe1
:020af3000220df
:020af4000220de
:020af5000220dd
:020af6000220dc
:020af7000220db
:020af8000220da
:020af9000221d8
:020afa000221d7
:020afb000221d6
:020afc000221d5
:020afd000221d4
:020afe000222d2
:020aff000222d1
:020b00000222cf
:020b01000222ce
:020b02000222cd
:020b03000223cb
:020b04000223ca
:020b05000223c9
:020b06000223c8
:020b07000223c7
:020b08000223c6
:020b09000224c4
:020b0a000224c3
:020b0b000224c2
:020b0c000224c1
:020b0d000224c0
:020b0e000225be
:020b0f000225bd
:020b10000225bc
:020b11000225bb
:020b12000225ba
:020b13000226b8
:020b14000226b7
:020b15000226b6
:020b16000226b5
:020b17000226b4
:020b18000226b3
:020b19000227b1
:020b1a000227b0
:020b1b000227af
:020b1c000227ae
:020b1d000227ad
:020b1e000228ab
:020b1f000228aa
:020b20000228a9
:020b21000228a8
:020b22000228a7
:020b23000229a5
:020b24000229a4
:020b25000229a3
:020b26000229a2
:020b27000229a1
:020b2800022a9f
:020b2900022a9e
:020b2a00022a9d
:020b2b00022a9c
:020b2c00022a9b
:020b2d00022a9a
:020b2e00022b98
:020b2f00022b97
:020b3000022b96
:020b3100022b95
:020b3200022b94
:020b3300022c92
:020b3400022c91
:020b3500022c90
:020b3600022c8f
:020b3700022c8e
:020b3800022d8c
:020b3900022d8b
:020b3a00022d8a
:020b3b00022d89
:020b3c00022d88
:020b3d00022d87
:020b3e00022e85
:020b3f00022e84
:020b4000022e83
:020b4100022e82
:020b4200022e81
:020b4300022f7f
:020b4400022f7e
:020b4500022f7d
:020b4600022f7c
:020b4700022f7b
:020b4800023079
:020b4900023078
:020b4a00023077
:020b4b00023076
:020b4c00023075
:020b4d00023173
:020b4e00023172
:020b4f00023171
:020b5000023170
:020b510002316f
:020b520002316e
:020b530002326c
:020b540002326b
:020b550002326a
:020b5600023269
:020b5700023268
:020b5800023366
:020b5900023365
:020b5a00023364
:020b5b00023363
:020b5c00023362
:020b5d00023460
:020b5e0002345f
:020b5f0002345e
:020b600002345d
:020b610002345c
:020b620002345b
:020b6300023559
:020b6400023558
:020b6500023557
:020b6600023556
:020b6700023555
:020b6800023653
:020b6900023652
:020b6a00023651
:020b6b00023650
:020b6c0002364f
:020b6d0002374d
:020b6e0002374c
:020b6f0002374b
:020b700002374a
:020b7100023749
:020b7200023748
:020b7300023846
:020b7400023845
:020b7500023844
:020b7600023843
:020b7700023842
:020b7800023940
:020b790002393f
:020b7a0002393e
:020b7b0002393d
:020b7c0002393c
:020b7d00023a3a
:020b7e00023a39
:020b7f00023a38
:020b8000023a37
:020b8100023a36
:020b8200023b34
:020b8300023b33
:020b8400023b32
:020b8500023b31
:020b8600023b30
:020b8700023b2f
:020b8800023c2d
:020b8900023c2c
:020b8a00023c2b
:020b8b00023c2a
:020b8c00023c29
:020b8d00023d27
:020b8e00023d26
:020b8f00023d25
:020b9000023d24
:020b9100023d23
:020b9200023e21
:020b9300023e20
:020b9400023e1f
:020b9500023e1e
:020b9600023e1d
:020b9700023e1c
:020b9800023f1a
:020b9900023f19
:020b9a00023f18
:020b9b00023f17
:020b9c00023f16
:020b9d00024014
:020b9e00024013
:020b9f00024012
:020ba000024011
:020ba100024010
:020ba20002410e
:020ba30002410d
:020ba40002410c
:020ba50002410b
:020ba60002410a
:020ba700024109
:020ba800024207
:020ba900024206
:020baa00024205
:020bab00024204
:020bac00024203
:020bad00024301
:020bae00024300
:020baf000243ff
:020bb0000243fe
:020bb1000243fd
:020bb2000244fb
:020bb3000244fa
:020bb4000244f9
:020bb5000244f8
:020bb6000244f7
:020bb7000244f6
:020bb8000245f4
:020bb9000245f3
:020bba000245f2
:020bbb000245f1
:020bbc000245f0
:020bbd000246ee
:020bbe000246ed
:020bbf000246ec
:020bc0000246eb
:020bc1000246ea
:020bc2000247e8
:020bc3000247e7
:020bc4000247e6
:020bc5000247e5
:020bc6000247e4
:020bc7000247e3
:020bc8000248e1
:020bc9000248e0
:020bca000248df
:020bcb000248de
:020bcc000248dd
:020bcd000249db
:020bce000249da
:020bcf000249d9
:020bd0000249d8
:020bd1000249d7
:020bd200024ad5
:020bd300024ad4
:020bd400024ad3
:020bd500024ad2
:020bd600024ad1
:020bd700024bcf
:020bd800024bce
:020bd900024bcd
:020bda00024bcc
:020bdb00024bcb
:020bdc00024bca
:020bdd00024cc8
:020bde00024cc7
:020bdf00024cc6
:020be000024cc5
:020be100024cc4
:020be200024dc2
:020be300024dc1
:020be400024dc0
:020be500024dbf
:020be600024dbe
:020be700024ebc
:020be800024ebb
:020be900024eba
:020bea00024eb9
:020beb00024eb8
:020bec00024eb7
:020bed00024fb5
:020bee00024fb4
:020bef00024fb3
:020bf000024fb2
:020bf100024fb1
:020bf2000250af
:020bf3000250ae
:020bf4000250ad
:020bf5000250ac
:020bf6000250ab
:020bf7000251a9
:020bf8000251a8
:020bf9000251a7
:020bfa000251a6
:020bfb000251a5
:020bfc000251a4
:020bfd000252a2
:020bfe000252a1
:020bff000252a0
:020c000002529e
:020c010002529d
:020c020002539b
:020c030002539a
:020c0400025399
:020c0500025398
:020c0600025397
:020c0700025495
:020c0800025494
:020c0900025493
:020c0a00025492
:020c0b00025491
:020c0c00025490
:020c0d0002558e
:020c0e0002558d
:020c0f0002558c
:020c100002558b
:020c110002558a
:020c1200025688
:020c1300025687
:020c1400025686
:020c1500025685
:020c1600025684
:020c1700025782
:020c1800025781
:020c1900025780
:020c1a0002577f
:020c1b0002577e
:020c1c0002577d
:020c1d0002587b
:020c1e0002587a
:020c1f00025879
:020c2000025878
:020c2100025877
:020c2200025975
:020c2300025974
:020c2400025973
:020c2500025972
:020c2600025971
:020c2700025a6f
:020c2800025a6e
:020c2900025a6d
:020c2a00025a6c
:020c2b00025a6b
:020c2c00025a6a
:020c2d00025b68
:020c2e00025b67
:020c2f00025b66
:020c3000025b65
:020c3100025b64
:020c3200025c62
:020c3300025c61
:020c3400025c60
:020c3500025c5f
:020c3600025c5e
:020c3700025d5c
:020c3800025d5b
:020c3900025d5a
:020c3a00025d59
:020c3b00025d58
:020c3c00025d57
:020c3d00025e55
:020c3e00025e54
:020c3f00025e53
:020c4000025e52
:020c4100025e51
:020c4200025f4f
:020c4300025f4e
:020c4400025f4d
:020c4500025f4c
:020c4600025f4b
:020c4700026049
:020c4800026048
:020c4900026047
:020c4a00026046
:020c4b00026045
:020c4c00026044
:020c4d00026142
:020c4e00026141
:020c4f00026140
:020c500002613f
:020c510002613e
:020c520002623c
:020c530002623b
:020c540002623a
:020c5500026239
:020c5600026238
:020c5700026336
:020c5800026335
:020c5900026334
:020c5a00026333
:020c5b00026332
:020c5c00026331
:020c5d0002642f
:020c5e0002642e
:020c5f0002642d
:020c600002642c
:020c610002642b
:020c6200026529
:020c6300026528
:020c6400026527
:020c6500026526
:020c6600026525
:020c6700026623
:020c6800026622
:020c6900026621
:020c6a00026620
:020c6b0002661f
:020c6c0002661e
:020c6d0002671c
:020c6e0002671b
:020c6f0002671a
:020c7000026719
:020c7100026718
:020c7200026816
:020c7300026815
:020c7400026814
:020c7500026813
:020c7600026812
:020c7700026910
:020c780002690f
:020c790002690e
:020c7a0002690d
:020c7b0002690c
:020c7c0002690b
:020c7d00026a09
:020c7e00026a08
:020c7f00026a07
:020c8000026a06
:020c8100026a05
:020c8200026b03
:020c8300026b02
:020c8400026b01
:020c8500026b00
:020c8600026bff
:020c8700026cfd
:020c8800026cfc
:020c8900026cfb
:020c8a00026cfa
:020c8b00026cf9
:020c8c00026cf8
:020c8d00026df6
:020c8e00026df5
:020c8f00026df4
:020c9000026df3
:020c9100026df2
:020c9200026ef0
:020c9300026eef
:020c9400026eee
:020c9500026eed
:020c9600026eec
:020c9700026fea
:020c9800026fe9
:020c9900026fe8
:020c9a00026fe7
:020c9b00026fe6
:020c9c00026fe5
:020c9d000270e3
:020c9e000270e2
:020c9f000270e1
:020ca0000270e0
:020ca1000270df
:020ca2000271dd
:020ca3000271dc
:020ca4000271db
:020ca5000271da
:020ca6000271d9
:020ca7000271d8
:020ca8000272d6
:020ca9000272d5
:020caa000272d4
:020cab000272d3
:020cac000272d2
:020cad000273d0
:020cae000273cf
:020caf000273ce
:020cb0000273cd
:020cb1000273cc
:020cb2000274ca
:020cb3000274c9
:020cb4000274c8
:020cb5000274c7
:020cb6000274c6
:020cb7000274c5
:020cb8000275c3
:020cb9000275c2
:020cba000275c1
:020cbb000275c0
:020cbc000275bf
:020cbd000276bd
:020cbe000276bc
:020cbf000276bb
:020cc0000276ba
:020cc1000276b9
:020cc2000277b7
:020cc3000277b6
:020cc4000277b5
:020cc5000277b4
:020cc6000277b3
:020cc7000277b2
:020cc8000278b0
:020cc9000278af
:020cca000278ae
:020ccb000278ad
:020ccc000278ac
:020ccd000279aa
:020cce000279a9
:020ccf000279a8
:020cd0000279a7
:020cd1000279a6
:020cd200027aa4
:020cd300027aa3
:020cd400027aa2
:020cd500027aa1
:020cd600027aa0
:020cd700027a9f
:020cd800027b9d
:020cd900027b9c
:020cda00027b9b
:020cdb00027b9a
:020cdc00027b99
:020cdd00027c97
:020cde00027c96
:020cdf00027c95
:020ce000027c94
:020ce100027c93
:020ce200027d91
:020ce300027d90
:020ce400027d8f
:020ce500027d8e
:020ce600027d8d
:020ce700027d8c
:020ce800027e8a
:020ce900027e89
:020cea00027e88
:020ceb00027e87
:020cec00027e86
:020ced00027f84
:020cee00027f83
:020cef00027f82
:020cf000027f81
:020cf100027f80
:020cf200027f7f
:020cf30002807d
:020cf40002807c
:020cf50002807b
:020cf60002807a
:020cf700028079
:020cf800028177
:020cf900028176
:020cfa00028175
:020cfb00028174
:020cfc00028173
:020cfd00028271
:020cfe00028270
:020cff0002826f
:020d000002826d
:020d010002826c
:020d020002826b
:020d0300028369
:020d0400028368
:020d0500028367
:020d0600028366
:020d0700028365
:020d0800028463
:020d0900028462
:020d0a00028461
:020d0b00028460
:020d0c0002845f
:020d0d0002855d
:020d0e0002855c
:020d0f0002855b
:020d100002855a
:020d1100028559
:020d1200028558
:020d1300028656
:020d1400028655
:020d1500028654
:020d1600028653
:020d1700028652
:020d1800028750
:020d190002874f
:020d1a0002874e
:020d1b0002874d
:020d1c0002874c
:020d1d0002884a
:020d1e00028849
:020d1f00028848
:020d2000028847
:020d2100028846
:020d2200028845
:020d2300028943
:020d2400028942
:020d2500028941
:020d2600028940
:020d270002893f
:020d2800028a3d
:020d2900028a3c
:020d2a00028a3b
:020d2b00028a3a
:020d2c00028a39
:020d2d00028a38
:020d2e00028b36
:020d2f00028b35
:020d3000028b34
:020d3100028b33
:020d3200028b32
:020d3300028c30
:020d3400028c2f
:020d3500028c2e
:020d3600028c2d
:020d3700028c2c
:020d3800028d2a
:020d3900028d29
:020d3a00028d28
:020d3b00028d27
:020d3c00028d26
:020d3d00028d25
:020d3e00028e23
:020d3f00028e22
:020d4000028e21
:020d4100028e20
:020d4200028e1f
:020d4300028f1d
:020d4400028f1c
:020d4500028f1b
:020d4600028f1a
:020d4700028f19
:020d4800029017
:020d4900029016
:020d4a00029015
:020d4b00029014
:020d4c00029013
:020d4d00029012
:020d4e00029110
:020d4f0002910f
:020d500002910e
:020d510002910d
:020d520002910c
:020d530002920a
:020d5400029209
:020d5500029208
:020d5600029207
:020d5700029206
:020d5800029205
:020d5900029303
:020d5a00029302
:020d5b00029301
:020d5c00029300
:020d5d000293ff
:020d5e000294fd
:020d5f000294fc
:020d60000294fb
:020d61000294fa
:020d62000294f9
:020d63000295f7
:020d64000295f6
:020d65000295f5
:020d66000295f4
:020d67000295f3
:020d68000295f2
:020d69000296f0
:020d6a000296ef
:020d6b000296ee
:020d6c000296ed
:020d6d000296ec
:020d6e000297ea
:020d6f000297e9
:020d70000297e8
:020d71000297e7
:020d72000297e6
:020d73000297e5
:020d74000298e3
:020d75000298e2
:020d76000298e1
:020d77000298e0
:020d78000298df
:020d79000299dd
:020d7a000299dc
:020d7b000299db
:020d7c000299da
:020d7d000299d9
:020d7e00029ad7
:020d7f00029ad6
:020d8000029ad5
:020d8100029ad4
:020d8200029ad3
:020d8300029ad2
:020d8400029bd0
:020d8500029bcf
:020d8600029bce
:020d8700029bcd
:020d8800029bcc
:020d8900029cca
:020d8a00029cc9
:020d8b00029cc8
:020d8c00029cc7
:020d8d00029cc6
:020d8e00029dc4
:020d8f00029dc3
:020d9000029dc2
:020d9100029dc1
:020d9200029dc0
:020d9300029dbf
:020d9400029ebd
:020d9500029ebc
:020d9600029ebb
:020d9700029eba
:020d9800029eb9
:020d9900029fb7
:020d9a00029fb6
:020d9b00029fb5
:020d9c00029fb4
:020d9d00029fb3
:020d9e00029fb2
:020d9f0002a0b0
:020da00002a0af
:020da10002a0ae
:020da20002a0ad
:020da30002a0ac
:020da40002a1aa
:020da50002a1a9
:020da60002a1a8
:020da70002a1a7
:020da80002a1a6
:020da90002a2a4
:020daa0002a2a3
:020dab0002a2a2
:020dac0002a2a1
:020dad0002a2a0
:020dae0002a29f
:020daf0002a39d
:020db00002a39c
:020db10002a39b
:020db20002a39a
:020db30002a399
:020db40002a497
:020db50002a496
:020db60002a495
:020db70002a494
:020db80002a493
:020db90002a492
:020dba0002a590
:020dbb0002a58f
:020dbc0002a58e
:020dbd0002a58d
:020dbe0002a58c
:020dbf0002a68a
:020dc00002a689
:020dc10002a688
:020dc20002a687
:020dc30002a686
:020dc40002a784
:020dc50002a783
:020dc60002a782
:020dc70002a781
:020dc80002a780
:020dc90002a77f
:020dca0002a87d
:020dcb0002a87c
:020dcc0002a87b
:020dcd0002a87a
:020dce0002a879
:020dcf0002a977
:020dd00002a976
:020dd10002a975
:020dd20002a974
:020dd30002a973
:020dd40002a972
:020dd50002aa70
:020dd60002aa6f
:020dd70002aa6e
:020dd80002aa6d
:020dd90002aa6c
:020dda0002ab6a
:020ddb0002ab69
:020ddc0002ab68
:020ddd0002ab67
:020dde0002ab66
:020ddf0002ac64
:020de00002ac63
:020de10002ac62
:020de20002ac61
:020de30002ac60
:020de40002ac5f
:020de50002ad5d
:020de60002ad5c
:020de70002ad5b
:020de80002ad5a
:020de90002ad59
:020dea0002ae57
:020deb0002ae56
:020dec0002ae55
:020ded0002ae54
:020dee0002ae53
:020def0002ae52
:020df00002af50
:020df10002af4f
:020df20002af4e
:020df30002af4d
:020df40002af4c
:020df50002b04a
:020df60002b049
:020df70002b048
:020df80002b047
:020df90002b046
:020dfa0002b144
:020dfb0002b143
:020dfc0002b142
:020dfd0002b141
:020dfe0002b140
:020dff0002b13f
:020e000002b23c
:020e010002b23b
:020e020002b23a
:020e030002b239
:020e040002b238
:020e050002b336
:020e060002b335
:020e070002b334
:020e080002b333
:020e090002b332
:020e0a0002b331
:020e0b0002b42f
:020e0c0002b42e
:020e0d0002b42d
:020e0e0002b42c
:020e0f0002b42b
:020e100002b529
:020e110002b528
:020e120002b527
:020e130002b526
:020e140002b525
:020e150002b524
:020e160002b622
:020e170002b621
:020e180002b620
:020e190002b61f
:020e1a0002b61e
:020e1b0002b71c
:020e1c0002b71b
:020e1d0002b71a
:020e1e0002b719
:020e1f0002b718
:020e200002b816
:020e210002b815
:020e220002b814
:020e230002b813
:020e240002b812
:020e250002b811
:020e260002b90f
:020e270002b90e
:020e280002b90d
:020e290002b90c
:020e2a0002b90b
:020e2b0002ba09
:020e2c0002ba08
:020e2d0002ba07
:020e2e0002ba06
:020e2f0002ba05
:020e300002ba04
:020e310002bb02
:020e320002bb01
:020e330002bb00
:020e340002bbff
:020e350002bbfe
:020e360002bcfc
:020e370002bcfb
:020e380002bcfa
:020e390002bcf9
:020e3a0002bcf8
:020e3b0002bdf6
:020e3c0002bdf5
:020e3d0002bdf4
:020e3e0002bdf3
:020e3f0002bdf2
:020e400002bdf1
:020e410002beef
:020e420002beee
:020e430002beed
:020e440002beec
:020e450002beeb
:020e460002bfe9
:020e470002bfe8
:020e480002bfe7
:020e490002bfe6
:020e4a0002bfe5
:020e4b0002bfe4
:020e4c0002c0e2
:020e4d0002c0e1
:020e4e0002c0e0
:020e4f0002c0df
:020e500002c0de
:020e510002c1dc
:020e520002c1db
:020e530002c1da
:020e540002c1d9
:020e550002c1d8
:020e560002c1d7
:020e570002c2d5
:020e580002c2d4
:020e590002c2d3
:020e5a0002c2d2
:020e5b0002c2d1
:020e5c0002c3cf
:020e5d0002c3ce
:020e5e0002c3cd
:020e5f0002c3cc
:020e600002c3cb
:020e610002c4c9
:020e620002c4c8
:020e630002c4c7
:020e640002c4c6
:020e650002c4c5
:020e660002c4c4
:020e670002c5c2
:020e680002c5c1
:020e690002c5c0
:020e6a0002c5bf
:020e6b0002c5be
:020e6c0002c6bc
:020e6d0002c6bb
:020e6e0002c6ba
:020e6f0002c6b9
:020e700002c6b8
:020e710002c6b7
:020e720002c7b5
:020e730002c7b4
:020e740002c7b3
:020e750002c7b2
:020e760002c7b1
:020e770002c8af
:020e780002c8ae
:020e790002c8ad
:020e7a0002c8ac
:020e7b0002c8ab
:020e7c0002c8aa
:020e7d0002c9a8
:020e7e0002c9a7
:020e7f0002c9a6
:020e800002c9a5
:020e810002c9a4
:020e820002caa2
:020e830002caa1
:020e840002caa0
:020e850002ca9f
:020e860002ca9e
:020e870002cb9c
:020e880002cb9b
:020e890002cb9a
:020e8a0002cb99
:020e8b0002cb98
:020e8c0002cb97
:020e8d0002cc95
:020e8e0002cc94
:020e8f0002cc93
:020e900002cc92
:020e910002cc91
:020e920002cd8f
:020e930002cd8e
:020e940002cd8d
:020e950002cd8c
:020e960002cd8b
:020e970002cd8a
:020e980002ce88
:020e990002ce87
:020e9a0002ce86
:020e9b0002ce85
:020e9c0002ce84
:020e9d0002cf82
:020e9e0002cf81
:020e9f0002cf80
:020ea00002cf7f
:020ea10002cf7e
:020ea20002cf7d
:020ea30002d07b
:020ea40002d07a
:020ea50002d079
:020ea60002d078
:020ea70002d077
:020ea80002d175
:020ea90002d174
:020eaa0002d173
:020eab0002d172
:020eac0002d171
:020ead0002d170
:020eae0002d26e
:020eaf0002d26d
:020eb00002d26c
:020eb10002d26b
:020eb20002d26a
:020eb30002d368
:020eb40002d367
:020eb50002d366
:020eb60002d365
:020eb70002d364
:020eb80002d462
:020eb90002d461
:020eba0002d460
:020ebb0002d45f
:020ebc0002d45e
:020ebd0002d45d
:020ebe0002d55b
:020ebf0002d55a
:020ec00002d559
:020ec10002d558
:020ec20002d557
:020ec30002d655
:020ec40002d654
:020ec50002d653
:020ec60002d652
:020ec70002d651
:020ec80002d650
:020ec90002d74e
:020eca0002d74d
:020ecb0002d74c
:020ecc0002d74b
:020ecd0002d74a
:020ece0002d848
:020ecf0002d847
:020ed00002d846
:020ed10002d845
:020ed20002d844
:020ed30002d843
:020ed40002d941
:020ed50002d940
:020ed60002d93f
:020ed70002d93e
:020ed80002d93d
:020ed90002da3b
:020eda0002da3a
:020edb0002da39
:020edc0002da38
:020edd0002da37
:020ede0002da36
:020edf0002db34
:020ee00002db33
:020ee10002db32
:020ee20002db31
:020ee30002db30
:020ee40002dc2e
:020ee50002dc2d
:020ee60002dc2c
:020ee70002dc2b
:020ee80002dc2a
:020ee90002dc29
:020eea0002dd27
:020eeb0002dd26
:020eec0002dd25
:020eed0002dd24
:020eee0002dd23
:020eef0002de21
:020ef00002de20
:020ef10002de1f
:020ef20002de1e
:020ef30002de1d
:020ef40002df1b
:020ef50002df1a
:020ef60002df19
:020ef70002df18
:020ef80002df17
:020ef90002df16
:020efa0002e014
:020efb0002e013
:020efc0002e012
:020efd0002e011
:020efe0002e010
:020eff0002e10e
:020f000002e10c
:020f010002e10b
:020f020002e10a
:020f030002e109
:020f040002e108
:020f050002e206
:020f060002e205
:020f070002e204
:020f080002e203
:020f090002e202
:020f0a0002e300
:020f0b0002e3ff
:020f0c0002e3fe
:020f0d0002e3fd
:020f0e0002e3fc
:020f0f0002e3fb
:020f100002e4f9
:020f110002e4f8
:020f120002e4f7
:020f130002e4f6
:020f140002e4f5
:020f150002e5f3
:020f160002e5f2
:020f170002e5f1
:020f180002e5f0
:020f190002e5ef
:020f1a0002e5ee
:020f1b0002e6ec
:020f1c0002e6eb
:020f1d0002e6ea
:020f1e0002e6e9
:020f1f0002e6e8
:020f200002e7e6
:020f210002e7e5
:020f220002e7e4
:020f230002e7e3
:020f240002e7e2
:020f250002e7e1
:020f260002e8df
:020f270002e8de
:020f280002e8dd
:020f290002e8dc
:020f2a0002e8db
:020f2b0002e9d9
:020f2c0002e9d8
:020f2d0002e9d7
:020f2e0002e9d6
:020f2f0002e9d5
:020f300002e9d4
:020f310002ead2
:020f320002ead1
:020f330002ead0
:020f340002eacf
:020f350002eace
:020f360002ebcc
:020f370002ebcb
:020f380002ebca
:020f390002ebc9
:020f3a0002ebc8
:020f3b0002ebc7
:020f3c0002ecc5
:020f3d0002ecc4
:020f3e0002ecc3
:020f3f0002ecc2
:020f400002ecc1
:020f410002edbf
:020f420002edbe
:020f430002edbd
:020f440002edbc
:020f450002edbb
:020f460002eeb9
:020f470002eeb8
:020f480002eeb7
:020f490002eeb6
:020f4a0002eeb5
:020f4b0002eeb4
:020f4c0002efb2
:020f4d0002efb1
:020f4e0002efb0
:020f4f0002efaf
:020f500002efae
:020f510002f0ac
:020f520002f0ab
:020f530002f0aa
:020f540002f0a9
:020f550002f0a8
:020f560002f0a7
:020f570002f1a5
:020f580002f1a4
:020f590002f1a3
:020f5a0002f1a2
:020f5b0002f1a1
:020f5c0002f29f
:020f5d0002f29e
:020f5e0002f29d
:020f5f0002f29c
:020f600002f29b
:020f610002f29a
:020f620002f398
:020f630002f397
:020f640002f396
:020f650002f395
:020f660002f394
:020f670002f492
:020f680002f491
:020f690002f490
:020f6a0002f48f
:020f6b0002f48e
:020f6c0002f48d
:020f6d0002f58b
:020f6e0002f58a
:020f6f0002f589
:020f700002f588
:020f710002f587
:020f720002f685
:020f730002f684
:020f740002f683
:020f750002f682
:020f760002f681
:020f770002f680
:020f780002f77e
:020f790002f77d
:020f7a0002f77c
:020f7b0002f77b
:020f7c0002f77a
:020f7d0002f878
:020f7e0002f877
:020f7f0002f876
:020f800002f875
:020f810002f874
:020f820002f873
:020f830002f971
:020f840002f970
:020f850002f96f
:020f860002f96e
:020f870002f96d
:020f880002fa6b
:020f890002fa6a
:020f8a0002fa69
:020f8b0002fa68
:020f8c0002fa67
:020f8d0002fa66
:020f8e0002fb64
:020f8f0002fb63
:020f900002fb62
:020f910002fb61
:020f920002fb60
:020f930002fc5e
:020f940002fc5d
:020f950002fc5c
:020f960002fc5b
:020f970002fc5a
:020f980002fc59
:020f990002fd57
:020f9a0002fd56
:020f9b0002fd55
:020f9c0002fd54
:020f9d0002fd53
:020f9e0002fe51
:020f9f0002fe50
