:020000040800F2
:1000000050040020AD0200086B1A0008991900087E
:10001000691A0008F50200083D1E000800000000F3
:10002000000000000000000000000000ED1C0008BF
:10003000F7020008000000006D1A0008EF1C00081D
:10004000C7020008C7020008C7020008C70200086C
:10005000C7020008C7020008C7020008C70200085C
:10006000C7020008C7020008C7020008C70200084C
:10007000C7020008C7020008C7020008C70200083C
:10008000C7020008C7020008C7020008C70200082C
:10009000C7020008C7020008C7020008C70200081C
:1000A000C7020008C7020008C7020008C70200080C
:1000B000C7020008C7020008C7020008C7020008FC
:1000C000C7020008C7020008C7020008C7020008EC
:1000D000C7020008C7020008C7020008C7020008DC
:1000E000C7020008C702000800000000C70200089D
:1000F000C7020008C7020008C7020008C7020008BC
:10010000C7020008C7020008C7020008C7020008AB
:10011000C7020008C7020008C7020008C70200089B
:10012000C7020008C7020008C7020008C70200088B
:10013000C7020008C7020008C7020008C70200087B
:1001400000000000000000000000000000000000AF
:10015000C7020008C7020008C7020008C70200085B
:10016000C7020008C7020008C7020008C70200084B
:10017000C7020008C7020008C7020008000000000C
:10018000C7020008C7020008C7020008C70200082B
:10019000C7020008C7020008C7020008C70200081B
:1001A000C7020008C7020008C7020008C70200080B
:1001B000C7020008C7020008C7020008C7020008FB
:1001C000C7020008C7020008C7020008C7020008EB
:1001D000C7020008C7020008C7020008C7020008DB
:1001E000C7020008C7020008C7020008C7020008CB
:1001F000C7020008C7020008C7020008C7020008BB
:10020000C7020008C7020008C7020008C7020008AA
:10021000C7020008C7020008C7020008C70200089A
:10022000C7020008C7020008C7020008000000005B
:10023000C7020008C702000800000000C70200084B
:10024000C7020008C7020008C7020008C70200086A
:10025000C7020008C7020008C7020008C70200085A
:10026000C7020008C7020008C7020008C70200084A
:10027000C7020008C7020008C7020008000000000B
:10028000C702000800000000C702000800000000CC
:1002900000000000C7020008DFF80CD000F018F8DA
:1002A00000480047811E000850040020064880478F
:1002B00006480047FEE7FEE7FEE7FEE7FEE7FEE74B
:1002C000FEE7FEE7FEE7FEE7B51D0008990200081D
:1002D000064C074D06E0E06840F0010394E8070093
:1002E00098471034AC42F6D3FFF7DAFFF81E000847
:1002F000181F0008FEE77047F0B5D1E90125D1E9E4
:100300000343D1E905762A43D1F800C044EA030447
:10031000D1E9073542EA0402496A42EA0702BCF120
:10032000010F42EA060208D004681A432A430A432E
:10033000E30BDB031A4302600BE0066844682B43BF
:1003400026F4F84529430B4303606FF30E04224360
:1003500042600020F0BD426942EA41014161002053
:100360007047002A07D0A1F18043491C521E1B7818
:1003700000F8013BF7D1704738B591E81C00C96817
:100380006FF01F051A4305EB441444EA41210A4368
:1003900000920261002038BD2DE9F043914691E8BA
:1003A0001C006FF00F05521E2E0105EB03131A43BC
:1003B0000B7E06EB04268C8A2F034FEA054C0D8A30
:1003C00032434FF07F4808EB0366CB68B9F1010F69
:1003D00007EB05450CEB04540CD081683F1107EB8B
:1003E00003331A432A432243324301F070410A4344
:1003F000826011E08168DFF828C0C7681B03A3F59D
:10040000805323432A4301EA0C0132430B438360A8
:1004100007F070442243C2600020BDE8F083000072
:10042000FF0F0FFF002A10B508D000BFA1F18044D4
:1004300010F8013B491C521E2370F7D110BD00007B
:1004400070B5044600F054F90546601C02D004481B
:100450000078044400F04CF9401BA042FAD370BD70
:10046000080000201E48F0B5016887B0002935D18A
:10047000012101601B48016841F48051016000685E
:1004800002240025694600F48050059003264FF6AB
:100490003F000C278DE8F100134800F02FF80D20E5
:1004A00069468DE8F100114800F028F848F237104D
:1004B00069468DE8F1000E4800F020F84FF6837091
:1004C00069468DE8F1000B4800F018F84CF2037013
:1004D00069468DE8F100084800F010F807B0F0BD5B
:1004E00000000020D44402580014025800080258AA
:1004F0000018025800100258000C02582DE9F84F5D
:100500006F4D00224FF001094FF0030E4FF00F0B1B
:100510000B6809FA02F803EA0803434574D14C68F2
:10052000022C01D0122C0FD1D4080E69570700EB12
:100530008404A246246AFF0E0BFA07FCBE4024EA9C
:100540000C042643CAF820600F79540006680EFA9E
:1005500004FC07F0030726EA0C06A74037430760B0
:100560004E68012E05D0022E03D0112E01D0122E7E
:100570000FD18668CF6826EA0C06A740374387600C
:1005800046680F7926EA0806C7F3001797403743F5
:100590004760C7688E6827EA0C07A6403E43C660DE
:1005A0004C68E40030D5474C266846F002062660C9
:1005B000246822F0030606F1B04604F00204009419
:1005C0009407270FD6F80844DFF8FC800BFA07FCE5
:1005D000404524EA0C0402D14FF0000C41E0DFF862
:1005E000ECC0604502D14FF0010C3AE0DFF8E0C00A
:1005F000604502D14FF0020C33E0DFF8D8C060450F
:1006000003D14FF0030C2CE053E0DFF8CCC0604581
:1006100002D14FF0040C24E0DFF8C0C0604502D1E5
:100620004FF0050C1DE0DFF8B8C0604502D14FF077
:10063000060C16E0DFF8ACC0604502D14FF0070CA5
:100640000FE0DFF8A4C0604502D14FF0080C08E0CD
:10065000DFF898C0604502D14FF0090C01E04FF07F
:100660000A0C0CFA07FC4CEA040CC6F808C42C6807
:100670004E6824EA0304F60300D51C432C606C6822
:100680004E6824EA0304B60300D51C436C604FF0A7
:10069000B0444F682668FF0226EA030600D51E43D1
:1006A00026604F686668BF0226EA030600D51E432F
:1006B0006660521C102AFFF42BAFBDE8F88F0000D3
:1006C00080000058F4440258000002580004025808
:1006D00000080258000C025800100258001402587A
:1006E00000180258001C025800200258002402582A
:1006F00001488068704700000800002002488168B7
:10070000027811448160704708000020032010B572
:1007100000F082F8002000F007F808B1012010BDB9
:1007200000F022F8002010BD70B50D4D04464FF4C6
:100730007A700C4A29781268B0FBF1F0B2FBF0F045
:1007400001F013F948B9102C07D200222146501E9F
:1007500000F042F800206C6070BD012070BD000008
:1007600008000020140000201A4808B5016841F074
:1007700002010160006800F002000090032000F018
:100780004BF800226FF00B00114600F025F8002214
:100790006FF00A00114600F01FF800226FF0090008
:1007A000114600F019F80022501F114600F014F80D
:1007B0000022101F114600F00FF80022901E114673
:1007C00000F00AF80022BDE80840501E114600F073
:1007D00003B80000F44402580E4BF0B41B680D46F9
:1007E000C3F30223C3F10706042E00D90426191D02
:1007F000072901D2002300E0DB1E012404FA06F1E0
:100800009C40491E2940641E994014402143F0BC7D
:1008100001F015BB0CED00E0064900F0070210B531
:100820004FF6FF040868044B204040EA02201843BA
:10083000086010BD0CED00E00000FA052DE9FC5F3A
:10084000044650F8241B002500902E460801FE4F58
:10085000DFF8F8931DD5606E50B1B0F5801F0CD055
:10086000B0F5001F0ED0B0F5401F1DD001250FE0E0
:10087000386840F40030386016E00221201D01F095
:10088000F7F803E00098022101F070F905000BD0A1
:100890002E462088C00523D5606D05281ED2DFE8CE
:1008A00000F00C11161B1B00626ED9F8001021F429
:1008B00040111143C9F80010EBE7386840F40030EC
:1008C000386009E00021201D01F0D2F803E0009813
:1008D000002101F04BF905466DB100E001252E43E2
:1008E0002088800528D5A06D80281ED00CDC90B112
:1008F00040280ED114E0626DD9F8001021F00701F4
:100900001143C9F80010EBE7C02813D0B0F5807F81
:1009100010D001250FE0386840F40030386009E05D
:100920000021201D01F0A4F803E00098002101F04F
:100930001DF9054695B12E432088DFF81083400548
:1009400008F108082CD5D4F8A400B0F5800F20D009
:100950000DDCA0B1B0F5001F0FD115E0A26DD9F8E4
:10096000001021F4E0711143C9F80010E4E7B0F57C
:10097000C00F13D0B0F5000F10D001250FE038687C
:1009800040F40030386009E00021201D01F070F8CB
:1009900003E00098002101F0E9F8054675B12E4307
:1009A000208800052DD5D4F8A800B0F1007F21D013
:1009B0000EDCA8B1B0F1807F10D116E0D4F8A420ED
:1009C000D8F8001021F460011143C8F80010E7E7DF
:1009D000B0F1407F13D0B0F1806F10D001250FE04F
:1009E000386840F40030386009E00021201D01F033
:1009F0003FF803E00098002101F0B8F805466DB11A
:100A00002E43206880011FD5A06CD8B110280FD0CC
:100A1000202812D0302815D0012514E0D4F8A820C1
:100A2000D8F8001021F0E0611143C8F80010E8E7A1
:100A3000386840F40030386004E00221201D01F0E5
:100A400017F805466DB12E432088C0042BD5E06D04
:100A5000B0F5005F20D00DDCA0B1B0F5805F0FD104
:100A600015E07A48A26C001F016821F030011143A3
:100A70000160E9E7B0F5405F13D0B0F5804F10D0CA
:100A800001250FE0386840F40030386009E00021AB
:100A9000201D00F0EDFF03E00098002101F066F852
:100AA000054685B12E432088800429D5206EB0F5F7
:100AB000403F23D010DC08B3B0F5803F14D0B0F530
:100AC000003F0FD115E0E26DD9F8001021F4E041AC
:100AD0001143C9F80010E6E7B0F5802F0ED0B0F54D
:100AE000A02F0BD001250AE00121201D00F0C0FF3E
:100AF00003E00098012101F039F805468DB12E433D
:100B0000208840042AD5D4F8AC00B0F1405F23D04F
:100B100010DC08B3B0F1805F14D0B0F1005F0FD1EA
:100B200015E0226ED9F8001021F4E0211143C9F834
:100B30000010E5E7B0F1804F0ED0B0F1A04F0BD020
:100B400001250AE00121201D00F092FF03E000983A
:100B5000012101F00BF805466DB12E4320880004F9
:100B60001FD5E06ED8B1B0F1805F0ED0B0F1005F5C
:100B700010D0012514E0D4F8AC20D8F8001021F0F2
:100B8000E0411143C8F80010E8E7386840F400304D
:100B9000386004E00121201D00F06AFF05466DB1B8
:100BA0002E432068C0011ED5606CD0B101280ED044
:100BB000022811D0032814D0012513E0E26ED9F8E1
:100BC000001021F040511143C9F80010E9E73868DE
:100BD00040F40030386004E00221201D00F048FF9E
:100BE000054685B12E432068DFF85CB04002ABF1CA
:100BF0001C0B1FD51648016841F480710160FFF796
:100C000077FD824610E01148626C001F016821F0F8
:100C1000030111430160E6E7FFF76AFDA0EB0A005C
:100C2000642801D9032504E009480068C005F3D50C
:100C3000C5B12E432078DFF814A0C0070AF1040ADA
:100C400079D0A06F182805E02C440258504402586F
:100C5000004802586DD05BDCC0B308285ED0102875
:100C60005AD161E0DFF880A4B4F8B010DAF80000DF
:100C700001F4407100F44070884211D0DAF800109D
:100C8000DAF8002021F4407142F48032CAF80020E2
:100C9000DAF8002022F48032CAF80020CAF80010E6
:100CA000D4F8B000B0F5807F15D1FFF721FD019099
:100CB0000DE000BFFFF71CFD0199411A41F2883099
:100CC000814204D9032546F00306B3E731E0DAF8A0
:100CD00000008007EED5D4F8B010C1F3012003283E
:100CE00058460DD0016821F47C510160B4F8B02061
:100CF000DAF80010C2F30B021143CAF8001099E7AA
:100D0000FA4A036802EA111223F47C511143ECE71A
:100D100020280ED028280CD001250BE00121201D11
:100D200000F0A6FE04E006E00098012100F01EFF9E
:100D300005465DB12E43207880071ED5606F0628DA
:100D400019D2DFE800F0160C11161616A26FDAF8A9
:100D5000001021F038011143CAF80010EBE701211F
:100D6000201D00F085FE03E00098012100F0FEFE4A
:100D7000054675B100E001252E43207840071FD5B8
:100D8000D4F89000062819D2DFE800F0160C1116EE
:100D90001616626FDAF8001021F007011143CAF845
:100DA0000010EAE70121201D00F062FE03E0009838
:100DB000012100F0DBFE05469DB100E001252E4338
:100DC000207880062BD5D4F88C00B0F1405F24D079
:100DD00011DC10B3B0F1805F15D0B0F1005F10D11D
:100DE00016E0D4F89020D8F8001021F00701114344
:100DF000C8F80010E4E7B0F1804F0ED0B0F1A04F7A
:100E00000BD001250AE00021201D00F031FE03E097
:100E10000098022100F0AAFE05468DB12E432078ED
:100E200040062BD5D4F89800B0F5406F24D011DCE3
:100E300010B3B0F5806F15D0B0F5006F10D116E08B
:100E4000D4F88C20DAF8001021F0E0411143CAF800
:100E50000010E4E7B0F5805F0ED0B0F5A05F0BD0D6
:100E600001250AE00021201D00F002FE03E00098A9
:100E7000022100F07BFE05468DB12E43207800064E
:100E80002BD5D4F89C00B0F5C04F24D011DC10B3A2
:100E9000B0F5005F15D0B0F5804F10D116E0D4F852
:100EA0009820D8F8001021F4E0511143C8F8001040
:100EB000E4E7B0F5004F0ED0B0F5204F0BD0012580
:100EC0000AE00021201D00F0D3FD03E0009802217C
:100ED00000F04CFE054665B32E43207800070BD585
:100EE000D4F88010B1F5805F2DD0DAF8002022F41C
:100EF00040520A43CAF800202078C0060BD5D4F827
:100F00009410B1F5807F24D0D8F8002022F44072EC
:100F10000A43C8F80020206800032CD5D4F8A000AC
:100F2000E8B1B0F5803F1FD0B0F5003F21D00125DA
:100F300020E0D4F89C20D8F8001021F4604111433F
:100F4000C8F80010C9E70098022100F00FFE064320
:100F5000D2E70098022100F009FE0643DBE70021FA
:100F6000201D00F085FD03E00098022100F0FEFD49
:100F7000054685B12E432068400322D5D4F884006D
:100F8000B0F5801F11D0B0F5001F13D0B0F5401F91
:100F900015D0012514E0D4F8A020D8F8001021F4D1
:100FA00040311143C8F80010E5E7386840F40030DC
:100FB000386004E00098012100F0D8FD054655B1E5
:100FC0002E432068C0031CD5E06C70B1B0F5803FA3
:100FD00010D0012514E0D4F88420DAF8001021F4B0
:100FE00040111143CAF80010EBE7386840F40030B4
:100FF000386004E00221201D00F03AFD0546C5B12D
:101000002E432068800004D50098022100F0AEFD38
:101010000643206880031BD5E06FB8B1B0F5807F30
:1010200010D0B0F5007F11D0B0F5407F0ED0012573
:101030000DE02D48E26C2438016821F48031114321
:101040000160DEE7386840F400303860F5B32E43C5
:101050002068C00207D5226FD9F8001021F00041A6
:101060001143C9F800102068C00008D5D4F8B42096
:10107000DBF8001021F480411143CBF80010206808
:10108000800207D5A26ED9F8001021F080711143BB
:10109000C9F80010206840000CD5DBF8001021F4DE
:1010A0000041CBF80010DBF80010D4F8B820114351
:1010B000CBF800102068002807DA0B48226D24388E
:1010C000016821F040511143016000E003E07EB16E
:1010D0000120BDE8FC9FE26FDAF8001021F44071B6
:1010E0001143CAF80010B3E770440258CFFFFF0065
:1010F0000020EEE72DE9F047DFF8C49104460E46E4
:10110000D9F8000000F00700B0420CD2D9F8001066
:1011100021F007013143C9F80010D9F8000000F0B0
:101120000700B04272D12078DFF89881800707D598
:10113000E268D8F8001021F00F011143C8F8001040
:101140002078C00767D05F49A368D8F80020183915
:1011500022F470621A43C8F80020606802281CD08C
:1011600003281DD0096801281DD04907002963DA2A
:10117000544D083D296821F0070101432960FFF71C
:10118000B7FA6168074641F28830022914D0032972
:1011900020D0012982462AD039E009688903E5E791
:1011A00009688901E2E7C905E0E700BFFFF7A0FA97
:1011B000C11B514501D926E082462868C0F3C20010
:1011C0000228F3D127E000BFFFF792FAC11B514577
:1011D00001D918E082462868C0F3C2000328F3D181
:1011E00019E000BFFFF784FAC11B51450BD82868EE
:1011F000C0F3C2000128F5D10DE000BFFFF778FA77
:10120000C11B514503D90320BDE8F08714E02868CD
:1012100010F0380FF2D1D9F80010484601F007015C
:10122000B1420BD9016821F0070131430160006828
:1012300000F00700B04201D00120E5E72078400728
:1012400007D52269D8F8001021F070011143C8F8C1
:10125000001021781B48001D090705D56269016847
:1012600021F07001114301602178C90605D5A269FA
:10127000016821F4E061114301602078800607D500
:101280001048E2690830016821F0700111430160E3
:1012900000F01EF8D8F800104FF4807292FAA2F213
:1012A00001F47061B2FA82F2D140074A515CC84041
:1012B000064908600020FFF737FA0020A4E7000085
:1012C0000020005218440258E81E000814000020B4
:1012D0004749F0B547480968454B103B11F03804C1
:1012E00009D00111082C04D0434A102C0BD0182C23
:1012F0000BD00846F0BD19688906FBD51968C1F303
:10130000C101C840F0BD1046F0BD394CDFF8E0C067
:101310001834261D0CF1240C2768351D2468DFEDD8
:10132000370AB7EE001A3668DCF800C017F003077A
:1013300006F00106C4F30514CCF3CC0C1CFB06F636
:1013400000EE106AB8EE400A09D0012F01D0022F3A
:101350003BD02868B1FBF4F1C0F308003AE019680B
:10136000890615D51A682968C2F3C102C1F30801BC
:10137000D04001EE901AB0FBF4F0F8EE611A40EEA6
:10138000201A00EE100A71EE810AB8EE400A0BE056
:101390002968B0FBF4F0C1F3080101EE901AB8EE31
:1013A000612A01EE900A1BE020EE200A2868C0F3B3
:1013B0004620401C00EE900AF8EE600A80EE201AEB
:1013C000BCEEC10A10EE100AF0BD2868B2FBF4F1C1
:1013D000C0F3080001EE900AB8EE612A01EE901AFF
:1013E00000EE202AB8EE610A72EE010ADCE7000086
:1013F000104402580090D00340787D01000000396D
:101400002DE9F047FF4C05460078DFF8F883103CE3
:10141000FC4FC00708F118084CD03868C0F3C20070
:1014200002281AD03868C0F3C200032805D1D8F8C2
:10143000000000F0030002280FD06868B0F5803F7C
:1014400012D010B1B0F5A02F18D0206820F4803051
:101450002060206820F4802009E02068800329D5DE
:101460006868002876D025E0206840F4803020604D
:10147000686890B1FFF73CF906460AE0206840F43E
:1014800080202060F0E700BFFFF732F9801B64285E
:101490007ED820688003F7D50CE0FFF729F90646CF
:1014A00005E000BFFFF724F9801B6428F0D820680E
:1014B0008003F7D42878D34E0C3E80075DD538687A
:1014C0004FF47C3A10F0380F13D03868C0F3C200E4
:1014D000032803D1D8F8000080070AD0E868C0B319
:1014E000216821F0190101432160FFF701F98146CC
:1014F00020E02068400702D5E8680028B2D0E968FB
:10150000206820F0190008432060FFF7F1F88146B9
:1015100006E000BFFFF7ECF8A0EB09000228B7D8FF
:1015200020684007F6D508E0FFF7E2F8A0EB0900D5
:101530000228ADD820684007F6D5286932689AFAA3
:10154000AAF1B1FA81F1884022F47C310143316083
:1015500013E000E0AAE0206820F001002060FFF71F
:10156000C7F8814606E000BFFFF7C2F8A0EB09000C
:1015700002288DD820684007F6D42878C00649D5BF
:1015800038684FF0F84AC0F3C200012817D000E0D5
:10159000DAE03868C0F3C200032805D1D8F80000AB
:1015A00000F0030001280AD0E8690028206822D052
:1015B00040F080002060FFF79BF881460CE0206837
:1015C000C0050CD5E869802870D108E0FFF790F8D5
:1015D000A0EB09000228A2D82068C005F6D5286A29
:1015E00032689AFAAAF1B1FA81F1884022F0F84102
:1015F000014331600EE020F080002060FFF778F8B2
:10160000064604E0FFF774F8801B022887D820689C
:10161000C005F7D42878000729D57A48696964306D
:1016200000298146016811D041F001010160FFF7F6
:101630005FF8064605E000BFFFF75AF8801B022856
:1016400097D8D9F800008007F6D510E021F0010105
:101650000160FFF74DF8064605E000BFFFF748F8C8
:10166000801B022870D8D9F800008007F6D42878AB
:10167000800625D5A8690028206810D040F4805045
:101680002060FFF735F8064605E000BFFFF730F8A9
:10169000801B022858D820688004F7D510E020F479
:1016A00080502060FFF724F8064606E0D7E000BF30
:1016B000FFF71EF8801B022846D820688004F7D464
:1016C000287840074FD5DFF84091D9F8001041F451
:1016D0008071C9F80010FFF70BF8064605E000BF5F
:1016E000FFF706F8801B64282ED8D9F80000C00543
:1016F000F6D5444EA868603601280AD008B10528FE
:1017000013D0306820F001003060306820F0040011
:1017100002E0306840F001003060A86841F2883A89
:1017200098B1FEF7E5FF81460AE0306840F004001A
:101730003060EEE7FEF7DCFFA0EB0901514503D86E
:1017400030688007F6D50EE088E0FEF7D1FF8146CD
:1017500006E000BFFEF7CCFFA0EB090151457DD8A4
:1017600030688007F6D4686AE8B33968C1F3C2010B
:10177000032974D00228206820F08070206003D0F4
:10178000FEF7B6FF054685E0FEF7B2FF064604E029
:10179000FEF7AEFF801B022879D820688001F7D4BD
:1017A000EB6A40F2F332D8F800104FF4FE0755F818
:1017B000286F914341EA03113143C8F80010287B98
:1017C0004FF0FE4C0F4EB5F8088040022B8A2036B1
:1017D0002A7DA8F10108311DA0F5007080B25B1EC2
:1017E000C8F3080800E058E0521E07EA034340EA45
:1017F000080018434FF6F8730CEA02621043306099
:101800000A6803E0104402580048025893FAA3F70C
:101810002E6A24489A43B7FA87F7BE4032430A60DB
:101820000168AA6921F00C01114301600168EA69AD
:1018300021F0020111430160016841F4803101602F
:10184000016841F400310160016841F480210160C8
:10185000016841F001010160206801E017E01EE02D
:1018600040F080702060FEF743FF054605E000BFB2
:10187000FEF73EFF401B022809D820688001F7D5FB
:101880000BE000BFFEF734FF401B022802D9032003
:10189000BDE8F08720688001F4D40020F8E701203B
:1018A000F6E700002C44025870B504000D4603D042
:1018B00094F82C0010B107E0012070BD002084F8DE
:1018C0002D00204600F018F8022084F82C00206833
:1018D000211DFEF711FDD4E900022946FEF75CFD4B
:1018E00004480121026842F00042026084F82C1092
:1018F000002070BD00400052FEF7B4BD10B5044694
:1019000090F82C00022809D0022084F82C002068CE
:10191000FEF721FD012084F82C00002010BD0000FE
:1019200070B5044690F82C000D4602280DD0022018
:1019300084F82C002068FEF71FFD2868022805D0D7
:101940005FF0010084F82C00002070BD0520F9E74D
:1019500004284FF0E020016903D021F00401016167
:10196000704741F00401FAE77047401EB0F1807FF4
:1019700010B501D3012010BD4FF0E02460610F21AC
:10198000601700F05CFA0020A0610721216110BD02
:1019900010B5FFF7E9FF10BDFEE70000F0B51648EF
:1019A00000250822134F87B04FF0400E0126C0E9F2
:1019B00000750221C0E90262102404610C03C0F822
:1019C00014E04FF4807CC0E906C58F020762CE02A6
:1019D0000623C0E909648DE80E0004250393CDE9D0
:1019E000045106916946FFF75FFF002800D0FEE72B
:1019F00007B0F0BD4041005218000020194808B55A
:101A0000016841F004010160016801F004010091E6
:101A1000016841F020010160016801F0200100919E
:101A2000016841F080010160016801F080010091CE
:101A3000016841F040010160016801F0400100913E
:101A4000016841F010010160016801F0100100918E
:101A5000016841F008010160006800F00800009092
:101A600008BD0000E0440258FEE7704770470000E0
:101A70002DE9F0473C4E044689464FF0000A306895
:101A8000C04380070AD0384D283D286820F0806088
:101A90002860FEF72DFE0746A84608E00120BDE8B5
:101AA000F08700BFFEF724FEC01B022855D8D8F8E7
:101AB00000000001F6D4206831684FF4FE0C4FF0AE
:101AC000FE4721F47C3141EA00303060207AA6885C
:101AD000A3894002244D761E23495B1E227C1035CB
:101AE000091DA0F5007080B2521EC6F308063043EF
:101AF0000CEA0343184307EA0262104328600868AF
:101B0000626920F0C000104308600868A26920F0F4
:101B1000200010430860B9F1000F11D00868B9F136
:101B2000010F11D040F400100860D8F800004446BE
:101B300040F08060C8F80000FEF7DAFD05460EE0D0
:101B4000086840F40020EFE740F48010ECE700BFA5
:101B5000FEF7CEFD401B022801D903209FE7206835
:101B60000001F5D550469AE7284402582DE9F04780
:101B70003C4E044689464FF0000A3068C043800757
:101B80000AD0384D283D286820F080502860FEF7A4
:101B9000AFFD0746A84608E00120BDE8F08700BF7A
:101BA000FEF7A6FDC01B022855D8D8F8000080001B
:101BB000F6D4208831684FF4FE0C4FF0FE4721F038
:101BC0007C7141EA00503060207AA688A3894002E7
:101BD000244D761E23495B1E227C1835091DA0F575
:101BE000007080B2521EC6F3080630430CEA03436D
:101BF000184307EA0262104328600868626920F40B
:101C00004060104308600868A26920F40070104327
:101C10000860B9F1000F11D00868B9F1010F11D0B7
:101C200040F080700860D8F80000444640F08050D2
:101C3000C8F80000FEF75CFD05460EE0086840F4B9
:101C40008000EFE740F40000ECE700BFFEF750FD36
:101C5000401B022801D903209FE720688000F5D5AA
:101C600050469AE72844025800230122184611469C
:101C700010B500F01FF80120FEF7E2FB002301225F
:101C80001846022100F016F8002308221846032106
:101C900000F010F80122042100204FF4087300F036
:101CA00009F8BDE81040024840F2A521FFF726BE22
:101CB000180000201FB54FF0000410B1012802D019
:101CC00002E0102400E008240748CDE902234FF683
:101CD000FF72CDE900146946FFF722FE002800D00C
:101CE000012004B010BD000018000020704710B59E
:101CF000FEF704FDBDE81040FFF74ABE2B4830B5A3
:101D0000CBB0016821F00401016028480C300024A8
:101D1000016841F440410160016801F440414A9189
:101D200001688904FCD50220389040253C903EABE8
:101D30003D9001212F91C20330920C213990CDE9C1
:101D40003A0583E813002FA84194FFF759FB00B12F
:101D5000FEE70822CDE94525D30142AA3F20CDE97F
:101D600047530321499582E81300022142A8FFF757
:101D7000C1F900B1FEE74FF0807011940090684601
:101D8000FEF75CFD00B1FEE709494FF47A7009687F
:101D9000B1FBF0F0FFF7E9FD0420FFF7D9FD0022C9
:101DA000501E1146FEF718FD4BB030BD0C480258CE
:101DB000140000201D4AF0B51D49146800201C4B7A
:101DC00044F47004146010330A681A4C42F00102A3
:101DD0000A6018600D68164A25400D601832131D00
:101DE0001C1D134D1060283518602A1D2060131D1E
:101DF0001C1D2860251D10602A1D1860131D206001
:101E00001C1D28601060186020600A680124084BBF
:101E1000064FE606084D6033803F22F480220A60B8
:101E20001860C5F808413E60F0BD000088ED00E094
:101E3000004402587FEDF6EA00800051FEE70907F2
:101E400000284FEA116104DB00F1E02080F8001463
:101E5000704700F00F0000F1E02080F8141D70477B
:101E600002E008C8121F08C1002AFAD17047704763
:101E7000002001E001C1121F002AFBD170470000C1
:101E800000259AB04FF40014FEF740FCFFF736FF30
:101E9000FFF7B4FDFFF782FDFFF7E6FE04E0210146
:101EA00010220BA0FEF7BEFA641EE04345F1FF3599
:101EB00070EA0500F3D101226FF07E4109A0FEF720
:101EC000B1FA0A2268460021FEF74BFAFEE700004D
:101ED00031323334353637383930616263646566A0
:101EE000000000005A00000000000000010203048E
:101EF0000102030406070809181F0008000000205B
:101F000018000000601E0008301F000818000020A4
:101F100038040000701E00080000000000000000EF
:101F20000100000010000000000000000090D0033D
:040000050800029954
:00000001FF
