:020000040800F2
:100000007041002069030008E30E0008DF0E0008BD
:10001000E10E0008F90300081110000800000000BC
:10002000000000000000000000000000AD02000819
:10003000FB0300080000000001030008ED0E0008AB
:100040008303000883030008830300088303000878
:100050008303000883030008830300088303000868
:100060008303000883030008830300088303000858
:100070008303000883030008830300088303000848
:100080008303000883030008830300088303000838
:100090008303000883030008830300088303000828
:1000A0008303000883030008830300088303000818
:1000B0008303000883030008830300088303000808
:1000C00083030008830300088303000883030008F8
:1000D00083030008830300088303000883030008E8
:1000E0008303000883030008000000008303000866
:1000F00083030008830300088303000883030008C8
:1001000083030008830300088303000883030008B7
:1001100083030008830300088303000883030008A7
:100120008303000883030008830300088303000897
:100130008303000883030008830300088303000887
:1001400000000000000000000000000000000000AF
:100150008303000883030008830300088303000867
:100160008303000883030008830300088303000857
:1001700083030008830300088303000800000000D5
:100180008303000883030008830300088303000837
:100190008303000883030008830300088303000827
:1001A0008303000883030008830300088303000817
:1001B0008303000883030008830300088303000807
:1001C00083030008830300088303000883030008F7
:1001D00083030008830300088303000883030008E7
:1001E00083030008830300088303000883030008D7
:1001F00083030008830300088303000883030008C7
:1002000083030008830300088303000883030008B6
:1002100083030008830300088303000883030008A6
:100220008303000883030008830300080000000024
:100230008303000883030008000000008303000814
:100240008303000883030008830300088303000876
:100250008303000883030008830300088303000866
:100260008303000883030008830300088303000856
:1002700083030008830300088303000800000000D4
:100280008303000800000000830300080000000052
:100290000000000083030008DFF80CD000F09AF89B
:1002A00000480047AD100008704100202B4B196832
:1002B0000868B0E8F04F80F30988BFF36F8F4FF004
:1002C000000080F3118870470000000006480068B5
:1002D000006880F3088862B661B6BFF34F8FBFF342
:1002E0006F8F00DF00BF00BF08ED00E0DFF80C00FB
:1002F000016841F470010160704700BF88ED00E0C3
:10030000EFF30980BFF36F8F144B1A681EF0100FC4
:1003100008BF20ED108A20E9F04F106008B44FF0BC
:10032000500072B680F31188BFF34F8FBFF36F8F09
:1003300062B601F057FB4FF0000080F3118808BC53
:1003400019680868B0E8F04F1EF0100F08BFB0EC55
:10035000108A80F30988BFF36F8F70471C0000205C
:10036000EFF30580704700000648804706480047C5
:10037000FEE7FEE7FEE7FEE7FEE7FEE7FEE7FEE755
:10038000FEE7FEE7890F00089902000840EA010332
:100390009B0703D009E008C9121F08C0042AFAD23B
:1003A00003E011F8013B00F8013B521EF9D27047FF
:1003B000D2B201E000F8012B491EFBD270470022A7
:1003C000F6E710B513460A4604461946FFF7F0FF54
:1003D000204610BD064C074D06E0E06840F00103E2
:1003E00094E8070098471034AC42F6D3FFF758FF63
:1003F000941D0008B41D0008FEE770472DE9F84F72
:100400006F4D00224FF001094FF0030E4FF00F0B1C
:100410000B6809FA02F803EA0803434574D14C68F3
:10042000022C01D0122C0FD1D4080E69570700EB13
:100430008404A246246AFF0E0BFA07FCBE4024EA9D
:100440000C042643CAF820600F79540006680EFA9F
:1004500004FC07F0030726EA0C06A74037430760B1
:100460004E68012E05D0022E03D0112E01D0122E7F
:100470000FD18668CF6826EA0C06A740374387600D
:1004800046680F7926EA0806C7F3001797403743F6
:100490004760C7688E6827EA0C07A6403E43C660DF
:1004A0004C68E40030D5474C266846F002062660CA
:1004B000246822F0030606F1B04604F0020400941A
:1004C0009407270FD6F80844DFF8FC800BFA07FCE6
:1004D000404524EA0C0402D14FF0000C41E0DFF863
:1004E000ECC0604502D14FF0010C3AE0DFF8E0C00B
:1004F000604502D14FF0020C33E0DFF8D8C0604510
:1005000003D14FF0030C2CE053E0DFF8CCC0604582
:1005100002D14FF0040C24E0DFF8C0C0604502D1E6
:100520004FF0050C1DE0DFF8B8C0604502D14FF078
:10053000060C16E0DFF8ACC0604502D14FF0070CA6
:100540000FE0DFF8A4C0604502D14FF0080C08E0CE
:10055000DFF898C0604502D14FF0090C01E04FF080
:100560000A0C0CFA07FC4CEA040CC6F808C42C6808
:100570004E6824EA0304F60300D51C432C606C6823
:100580004E6824EA0304B60300D51C436C604FF0A8
:10059000B0444F682668FF0226EA030600D51E43D2
:1005A00026604F686668BF0226EA030600D51E4330
:1005B0006660521C102AFFF42BAFBDE8F88F0000D4
:1005C00080000058F4440258000002580004025809
:1005D00000080258000C025800100258001402587B
:1005E00000180258001C025800200258002402582B
:1005F00042694A40426170470AB1018370474183B2
:100600007047000001488068704700000C0000201F
:100610000248816802781144816070470C00002014
:10062000032010B500F05CF80F2000F007F808B1C7
:10063000012010BD00F022F8002010BD70B50D4D56
:1006400004464FF47A700C4A29781268B0FBF1F036
:10065000B2FBF0F000F030FC48B9102C07D20022B9
:100660002146501E00F01CF800206C6070BD012077
:1006700070BD00000C00002018000020074882B068
:10068000016841F002010160006800220F2100F0C2
:1006900002000090901E02B000F002B8F44402582C
:1006A0000E4BF0B41B680D46C3F30223C3F10706DB
:1006B000042E00D90426191D072901D2002300E0C9
:1006C000DB1E012404FA06F19C40491E2940641EE9
:1006D000994014402143F0BC00F09BBC0CED00E0BD
:1006E000064900F0070210B54FF6FF040868044BF6
:1006F000204040EA02201843086010BD0CED00E0E5
:100700000000FA052DE9F047DFF8C49104460E46D3
:10071000D9F8000000F00700B0420CD2D9F8001060
:1007200021F007013143C9F80010D9F8000000F0AA
:100730000700B04272D12078DFF89881800707D592
:10074000E268D8F8001021F00F011143C8F800103A
:100750002078C00767D05F49A368D8F8002018390F
:1007600022F470621A43C8F80020606802281CD086
:1007700003281DD0096801281DD04907002963DA24
:10078000544D083D296821F0070101432960FFF716
:1007900039FF6168074641F28830022914D00329E5
:1007A00020D0012982462AD039E009688903E5E78B
:1007B00009688901E2E7C905E0E700BFFFF722FF0A
:1007C000C11B514501D926E082462868C0F3C2000A
:1007D0000228F3D127E000BFFFF714FFC11B5145EA
:1007E00001D918E082462868C0F3C2000328F3D17B
:1007F00019E000BFFFF706FFC11B51450BD8286861
:10080000C0F3C2000128F5D10DE000BFFFF7FAFEEA
:10081000C11B514503D90320BDE8F08714E02868C7
:1008200010F0380FF2D1D9F80010484601F0070156
:10083000B1420BD9016821F0070131430160006822
:1008400000F00700B04201D00120E5E72078400722
:1008500007D52269D8F8001021F070011143C8F8BB
:10086000001021781B48001D090705D56269016841
:1008700021F07001114301602178C90605D5A269F4
:10088000016821F4E061114301602078800607D5FA
:100890001048E2690830016821F0700111430160DD
:1008A00000F01EF8D8F800104FF4807292FAA2F20D
:1008B00001F47061B2FA82F2D140074A515CC8403B
:1008C000064908600F20FFF7B9FE0020A4E70000EA
:1008D0000020005218440258601D00081800002033
:1008E0004749F0B547480968454B103B11F03804BB
:1008F00009D00111082C04D0434A102C0BD0182C1D
:100900000BD00846F0BD19688906FBD51968C1F3FC
:10091000C101C840F0BD1046F0BD394CDFF8E0C061
:100920001834261D0CF1240C2768351D2468DFEDD2
:10093000370AB7EE001A3668DCF800C017F0030774
:1009400006F00106C4F30514CCF3CC0C1CFB06F630
:1009500000EE106AB8EE400A09D0012F01D0022F34
:100960003BD02868B1FBF4F1C0F308003AE0196805
:10097000890615D51A682968C2F3C102C1F30801B6
:10098000D04001EE901AB0FBF4F0F8EE611A40EEA0
:10099000201A00EE100A71EE810AB8EE400A0BE050
:1009A0002968B0FBF4F0C1F3080101EE901AB8EE2B
:1009B000612A01EE900A1BE020EE200A2868C0F3AD
:1009C0004620401C00EE900AF8EE600A80EE201AE5
:1009D000BCEEC10A10EE100AF0BD2868B2FBF4F1BB
:1009E000C0F3080001EE900AB8EE612A01EE901AF9
:1009F00000EE202AB8EE610A72EE010ADCE7000080
:100A0000104402580090D00340787D010000003966
:100A10002DE9F047FF4C05460078DFF8F883103CDD
:100A2000FC4FC00708F118084CD03868C0F3C2006A
:100A300002281AD03868C0F3C200032805D1D8F8BC
:100A4000000000F0030002280FD06868B0F5803F76
:100A500012D010B1B0F5A02F18D0206820F480304B
:100A60002060206820F4802009E02068800329D5D8
:100A70006868002876D025E0206840F48030206047
:100A8000686890B1FFF7BEFD06460AE0206840F4B2
:100A900080202060F0E700BFFFF7B4FD801B6428D2
:100AA0007ED820688003F7D50CE0FFF7ABFD064643
:100AB00005E000BFFFF7A6FD801B6428F0D8206882
:100AC0008003F7D42878D34E0C3E80075DD5386874
:100AD0004FF47C3A10F0380F13D03868C0F3C200DE
:100AE000032803D1D8F8000080070AD0E868C0B313
:100AF000216821F0190101432160FFF783FD814640
:100B000020E02068400702D5E8680028B2D0E968F4
:100B1000206820F0190008432060FFF773FD81462C
:100B200006E000BFFFF76EFDA0EB09000228B7D872
:100B300020684007F6D508E0FFF764FDA0EB090048
:100B40000228ADD820684007F6D5286932689AFA9D
:100B5000AAF1B1FA81F1884022F47C31014331607D
:100B600013E000E0AAE0206820F001002060FFF719
:100B700049FD814606E000BFFFF744FDA0EB0900F8
:100B800002288DD820684007F6D42878C00649D5B9
:100B900038684FF0F84AC0F3C200012817D000E0CF
:100BA000DAE03868C0F3C200032805D1D8F80000A5
:100BB00000F0030001280AD0E8690028206822D04C
:100BC00040F080002060FFF71DFD81460CE02068AA
:100BD000C0050CD5E869802870D108E0FFF712FD48
:100BE000A0EB09000228A2D82068C005F6D5286A23
:100BF00032689AFAAAF1B1FA81F1884022F0F841FC
:100C0000014331600EE020F080002060FFF7FAFC25
:100C1000064604E0FFF7F6FC801B022887D8206810
:100C2000C005F7D42878000729D57A486969643067
:100C300000298146016811D041F001010160FFF7F0
:100C4000E1FC064605E000BFFFF7DCFC801B022844
:100C500097D8D9F800008007F6D510E021F00101FF
:100C60000160FFF7CFFC064605E000BFFFF7CAFCB6
:100C7000801B022870D8D9F800008007F6D42878A5
:100C8000800625D5A8690028206810D040F480503F
:100C90002060FFF7B7FC064605E000BFFFF7B2FC97
:100CA000801B022858D820688004F7D510E020F473
:100CB00080502060FFF7A6FC064606E0D7E000BFA4
:100CC000FFF7A0FC801B022846D820688004F7D4D8
:100CD000287840074FD5DFF84091D9F8001041F44B
:100CE0008071C9F80010FFF78DFC064605E000BFD3
:100CF000FFF788FC801B64282ED8D9F80000C005B7
:100D0000F6D5444EA868603601280AD008B10528F7
:100D100013D0306820F001003060306820F004000B
:100D200002E0306840F001003060A86841F2883A83
:100D300098B1FFF767FC81460AE0306840F0040094
:100D40003060EEE7FFF75EFCA0EB0901514503D8E8
:100D500030688007F6D50EE088E0FFF753FC814647
:100D600006E000BFFFF74EFCA0EB090151457DD81E
:100D700030688007F6D4686AE8B33968C1F3C20105
:100D8000032974D00228206820F08070206003D0EE
:100D9000FFF738FC054685E0FFF734FC064604E023
:100DA000FFF730FC801B022879D820688001F7D437
:100DB000EB6A40F2F332D8F800104FF4FE0755F812
:100DC000286F914341EA03113143C8F80010287B92
:100DD0004FF0FE4C0F4EB5F8088040022B8A2036AB
:100DE0002A7DA8F10108311DA0F5007080B25B1EBC
:100DF000C8F3080800E058E0521E07EA034340EA3F
:100E0000080018434FF6F8730CEA02621043306092
:100E10000A6803E0104402580048025893FAA3F706
:100E20002E6A24489A43B7FA87F7BE4032430A60D5
:100E30000168AA6921F00C01114301600168EA69A7
:100E400021F0020111430160016841F48031016029
:100E5000016841F400310160016841F480210160C2
:100E6000016841F001010160206801E017E01EE027
:100E700040F080702060FFF7C5FB054605E000BF2D
:100E8000FFF7C0FB401B022809D820688001F7D576
:100E90000BE000BFFFF7B6FB401B022802D903207E
:100EA000BDE8F08720688001F4D40020F8E7012035
:100EB000F6E700002C440258401EB0F1807F10B5C8
:100EC00001D3012010BD4FF0E02460610F216017B5
:100ED00000F09FF80020A0610721216110BDFEE70E
:100EE000FEE77047012000F040F9FBE710B5FFF77F
:100EF0008FFBBDE8104000F044B9000030B59DB054
:100F00004C216846FFF75BFA202113A8FFF757FA38
:100F10001C48016821F0040101601A480C300025CA
:100F2000016841F440410160016801F440411B91B6
:100F300001688904FCD5022009904024C2030121E4
:100F4000CDE900120A900FAACDE90B040C210D90F7
:100F50000E9082E8230068461295FFF759FD08229B
:100F60001A94CDE91624D30113AA3F200321CDE919
:100F7000184382E82300022113A8FFF7C3FB1DB02A
:100F800030BD00000C4802581D4AF0B51D491468D8
:100F900000201C4B44F47004146010330A681A4C8F
:100FA00042F001020A6018600D68164A25400D6083
:100FB0001832131D1C1D134D1060283518602A1D92
:100FC0002060131D1C1D2860251D10602A1D18603F
:100FD000131D20601C1D28601060186020600A68C6
:100FE0000124084B064FE606084D6033803F22F48B
:100FF00080220A601860C5F808413E60F0BD00001C
:1010000088ED00E0004402587FEDF6EA00800051D0
:10101000FEE7090700284FEA116104DB00F1E02038
:1010200080F80014704700F00F0000F1E02080F815
:10103000141D704702E008C8121F08C1002AFAD127
:1010400070477047002001E001C1121F002AFBD148
:10105000704700000C4D00240C4E4FF4FA7708E066
:10106000A86800F05DFC04E0142C02D1A86800F030
:10107000DFFB02213046FFF7BBFA384600F075F877
:10108000641C0A2CF0D1EBE7000000200004025899
:10109000054C4FF47A7501212046FFF7A9FA28463E
:1010A00000F063F8F7E700000004025896B0FFF77D
:1010B000B7FAFFF723FF14216846FFF780F92348AA
:1010C000016841F080010160016801F08001149124
:1010D000016841F002010160006800221C4C0321FC
:1010E00000F0020014902046FFF786FA002103204A
:1010F000009001222046CDE9012103916946FFF7C6
:101100007DF91449142205A8FFF740F9002105A82C
:1011100000F041F8104C14220E49143120600AA846
:10112000FFF734F900210AA800F035F80949142224
:1011300060600FA82831FFF729F900210FA800F0FF
:101140002AF8A06000F018F8FEE70000E04402581A
:1011500000040258241D00080000002084280146D5
:101160004FF0000000D0C81C704710B500B9012036
:1011700000F036FB002010BD10B500F099FB0020F8
:1011800010BD10B500F0F6FC012803D0BDE81040FA
:1011900000F0ACBC10BD3EB50D460446B0F90800E9
:1011A000FFF7DCFF02A92B46CDE90001228AD4E932
:1011B000001092B200F0B2FC012801D000203EBD28
:1011C00002983EBD2DE9F041184C0F460546E668F1
:1011D0002068001D00F044FA38B922680121206916
:1011E00092F82C20914088432061681C07D137B1C8
:1011F0002168BDE8F0410E48091D00F069BA206879
:101200003544B5424560216805D2A06B091DBDE893
:10121000F04100F045BA606B091D00F041FAA06A88
:10122000854200D2A562BDE8F08100001C000020CC
:10123000580100202DE9F041054600F055FA2E4CEA
:101240002E4FA068401CA060206810B1606940B3B8
:101250002DE02560A068012829D1002606EB860034
:1012600007EB800000F00EFA761C072EF6D3234819
:101270008C3000F007FA2148A03000F003FA1F4834
:10128000B43000F0FFF91D48C83000F0FBF91B48EE
:10129000DC3000F0F7F919488C3060631430A0633B
:1012A00005E0E86A2168C96A814200D8256001200A
:1012B000616A491C6162E96A2269884010432061C1
:1012C00001EB8100291D07EB800000F001FA00F01E
:1012D0002FFA606900280CD02068E96AC06A884249
:1012E00007D207494FF080500860BFF34F8FBFF31C
:1012F0006F8FBDE8F08100001C0000207C00002002
:1013000004ED00E070B5114E114C17E000F062FBE7
:101310003068B8B100F0A2FC00F0E6F9F068C568EA
:10132000281D00F09DF9A068401EA0606068401E66
:10133000606000F0FDF9284600F00CF860680028B5
:10134000E4D170BD00F08AFCF8E700004401002001
:101350001C00002010B50446006B00F0FFF9204689
:10136000BDE8104000F0FAB911484FF4705110B5C3
:10137000420706D00E49C01D20F00700411AC1F5F2
:1013800070510C4C002301440839A4F1100221F0E3
:101390000701C4E900030C1A11604B600B60C0E93F
:1013A000001494604FF000415460D16010BD000003
:1013B0006C01002068000020074C4FF08056074D5C
:1013C000FFF7A0FF20680128FAD92E60BFF34F8FE6
:1013D000BFF36F8FF4E700007C00002004ED00E015
:1013E0002DE9F0479A4681466FF00303DDE9098451
:1013F00003EB8202089D206B104420F00706700763
:1014000009D0502072B680F31188BFF34F8FBFF31D
:101410006F8F62B6FEE723180A5C83F834200A5CFB
:1014200012B1401C1028F6D3002784F84370072D12
:1014300000D30625E562201DC4E9115700F02DF9FF
:1014400004F1180000F029F9E764C5F10700A06174
:1014500084F850705246246149463046646200F078
:10146000E7F8B8F1000F206001D0C8F80040BDE8EF
:10147000F087000030B5114900E011460A68824249
:10148000FBD34B685C18844203D14468084623446C
:101490004B6043681D18954209D1084C103C2468E4
:1014A000A24209D052681A4442600A681268026077
:1014B000814200D0086030BD0460F9E76800002078
:1014C0000648416B096829B1416BC968C968496818
:1014D000816270474FF0FF31FAE700001C000020E6
:1014E0000A484068401C4FF0500072B680F31188E3
:1014F00005D0BFF34F8FBFF36F8F62B6FEE7BFF328
:101500004F8FBFF36F8F62B6FEE7000070000020C0
:10151000002801464FF000000CD00B4B4A699A425C
:1015200007D1896AA3F12802914202D0002900D193
:1015300001207047502072B680F31188BFF34F8F9F
:10154000BFF36F8F62B6FEE7580100202DE9F0412E
:101550000027044600F03EFA344E306808B9FFF721
:1015600003FFF06804424FD1E4B30834600710D0A1
:1015700004F00700C0F108000444600709D05020BF
:1015800072B680F31188BFF34F8FBFF36F8F62B6CF
:10159000FEE73CB37068844236D8244810300146D8
:1015A0000D6801E028460D466968A14202D229680B
:1015B0000029F7D131688D4226D00768296801607B
:1015C00008376868011B102911D9281942070AD069
:1015D000502072B680F31188BFF34F8FBFF36F8F27
:1015E00062B6FEE710E041606C60FFF743FF696898
:1015F0007068401A7060B268904200D2B0600020FB
:10160000F2681143C5E9000100F028FB780709D012
:10161000502072B680F31188BFF34F8FBFF36F8FE6
:1016200062B6FEE73846BDE8F081000058000020B1
:1016300070B5041F094E231F4FF0807521F0010182
:1016400025601C1F1960A0F120010B1F2660443883
:101650000A606FF002051D6070BD0000E114000813
:10166000D0E9013201699A60D0E901235A604A68E1
:10167000824201D182684A60002202610868401EED
:101680000860704700F108014FF0FF330022C0E905
:101690000021C0E9023101617047002101617047FA
:1016A00030B50B685A1C02D000F1080202E0026952
:1016B00004E02246546825689D42FAD953684B607D
:1016C00099608A60516008610168491C016030BD01
:1016D00042684A6093688B609368596091600861C2
:1016E0000168491C01607047502072B680F3118870
:1016F000BFF34F8FBFF36F8F0B4962B64868401C32
:10170000486001280ED10948006810F0FF0F09D089
:10171000502072B680F31188BFF34F8FBFF36F8FE5
:1017200062B6FEE7704700007000002004ED00E0A4
:101730000949486828B1401E486001D180F31188EA
:101740007047502072B680F31188BFF34F8FBFF3FC
:101750006F8F62B6FEE700007000002070B50028B1
:101760002BD0164DA0F108046068E968084209D141
:10177000502072B680F31188BFF34F8FBFF36F8F85
:1017800062B6FEE722684AB1502072B680F3118833
:10179000BFF34F8FBFF36F8F62B6FEE78843606081
:1017A00000F018F960686968084468602046FFF72F
:1017B00061FEBDE8704000F051BA70BD58000020D5
:1017C00006484FF47A73072201684FF0E020B1FB1E
:1017D000F3F1491E416102617047000018000020CA
:1017E000020010B516D01048006B48B1502072B6F8
:1017F00080F31188BFF34F8FBFF36F8F62B6FEE7A0
:1018000000F0E8F800211046FFF7DCFC00F026FAB3
:10181000002807D105494FF080500860BFF34F8F73
:10182000BFF36F8F10BD00001C00002004ED00E02E
:1018300070B5044658B31B4D2868844231D0FFF779
:1018400053FF2046FFF764FEE8B1201DFFF708FFB5
:10185000E16A01202A6988401043286101EB810078
:10186000114901EB8000211DFFF732FF2868E16A72
:10187000C06A814207D30D494FF080500860BFF322
:101880004F8FBFF36F8FBDE87040FFF751BF5020FF
:1018900072B680F31188BFF34F8FBFF36F8F62B6BC
:1018A000FEE770BD1C0000207C00002004ED00E07D
:1018B000174818A11CB5002480222346CDE900401A
:1018C000164800F02BF901280BD0401C1ED15020E7
:1018D00072B680F31188BFF34F8FBFF36F8F62B67C
:1018E000FEE7502072B680F31188BFF34F8FBFF32D
:1018F0006F8F62B606484FF0FF322C3801218262AA
:101900004161C460BDE81C4000F09CB81CBD0000F3
:101910004800002049444C4500000000B91300086D
:1019200070B50446FFF7E0FE274D04B92C68201D72
:10193000FFF796FE58B9E06A244A00EB800152F89E
:10194000211021B92A69012181408A432A61A06AB4
:1019500018B104F11800FFF783FE1C48211DDC308C
:10196000FFF7B6FEFFF7E4FE686928B1FFF7BCFE9B
:10197000FFF7A6FDFFF7DCFE2868844215D16869F1
:10198000A0B1286B48B1502072B680F31188BFF324
:101990004F8FBFF36F8F62B6FEE70D494FF0805057
:1019A0000860BFF34F8FBFF36F8F70BD0748A96802
:1019B000DC300068884202D10020286070BDBDE89C
:1019C000704000F00FB800001C0000207C000020D8
:1019D00004ED00E00248016B491C01637047000000
:1019E0001C0000201548016B11B10121C161704735
:1019F0000021C16112490269B2FA82F2C2F11F02EA
:101A000002EB820251F822306BB101EB820101F14D
:101A100008034A6852684A609A4201D152684A6093
:101A2000D16801607047502072B680F31188BFF30F
:101A30004F8FBFF36F8F62B6FEE700001C000020DF
:101A40007C0000202549FF201CB50A78019208700F
:101A500008788DF800009DF800209DF8000002F045
:101A6000F002824209D0502072B680F31188BFF391
:101A70004F8FBFF36F8F62B6FEE79DF800200720FF
:101A8000174C02F050022270A06005E09DF8002083
:101A900052008DF80020401E9DF800201206F5D45B
:101AA000000200F4E060A060019808700D48016831
:101AB00041F470010160016841F070410160FFF77D
:101AC0007FFE00206060FEF711FC0748016841F0CE
:101AD00040410160FEF7FAFB00201CBD00E400E07D
:101AE0007000002020ED00E034EF00E0502010B541
:101AF00072B680F31188BFF34F8FBFF36F8F62B65A
:101B000000F046F818B104494FF0805008600020FA
:101B100080F3118810BD000004ED00E02DE9FF5FA7
:101B2000994616468A4683469000DDE90E87FFF700
:101B30000DFD05001AD05420FFF708FD040012D057
:101B400000212563CDE900874B463246CDE90241AD
:101B500051465846FFF744FC2046FFF76BFB012037
:101B600004B0BDE8F09F2846FFF7F8FD4FF0FF30C6
:101B7000F6E700000548416919B1006B18B1002073
:101B80007047012070470220704700001C000020B1
:101B90002DE9F0412F4C206B002740B1A069401C7B
:101BA000A061E06900B101273846BDE8F081E66830
:101BB000761CE66015D1606B006848B1502072B6A3
:101BC00080F31188BFF34F8FBFF36F8F62B6FEE7CC
:101BD000606BA16B6163A063206A401C2062FFF709
:101BE0006FFCDFF87480A06A864209D3606B0068DE
:101BF00080B1606BC068C568686886420DD2A0621B
:101C00002068C06A00EB800158F821000128C8D97B
:101C10000127C6E74FF0FF30F1E7281DFFF720FD51
:101C2000A86A18B105F11800FFF71AFDE86A01214A
:101C3000226981401143216100EB800108EB8100A2
:101C4000291DFFF745FD2068E96AC06A8142CDD3AE
:101C50000127CBE71C0000207C0000202DE9F04785
:101C60002D4D286B0024264638B1FFF73DFD286B2B
:101C7000401E2863286B50B149E0502072B680F3B3
:101C80001188BFF34F8FBFF36F8F62B6FEE7234F0C
:101C90000120A968D9B3A7F1B40980463868E8B132
:101CA000F868C46804F11800FFF7DAFC201DFFF79C
:101CB000D7FCE16A2A6908FA01F01043286101EBB8
:101CC000810109EB8100211DFFF702FD2968E06A0F
:101CD000C96A8842E2D3C5F81C80DFE70CB1FFF780
:101CE000EFFBAC6944B14746FFF752FF00B1EF612B
:101CF000641EF9D10020A861E86940B108490126B5
:101D00004FF080500860BFF34F8FBFF36F8FFFF726
:101D10000FFD3046BDE8F0871C0000203001002098
:101D200004ED00E0881D0008E50E0008000000003A
:101D30000000000080000000701D00085510000821
:101D40000000000000000000800000007C1D000872
:101D5000911000080000000000000000800000005A
:101D60000000000001020304010203040607080941
:101D7000426C696E6B5F504230000000426C696ECD
:101D80006B5F50423100000064656661756C74548D
:101D900061736B00B41D0008000000207C0000008F
:101DA00034100008301E00087C000020F4400000C1
:101DB00044100008000000000000000000000000C7
:101DC0000100000010000000000000000090D0039F
:101DD0000000000000000000000000000000000003
:101DE00000000000000000000000000000000000F3
:101DF00000000000000000000000000000000000E3
:101E000000000000000000000000000000000000D2
:101E100000000000000000000000000000000000C2
:101E20000000000000000000AAAAAAAA000000000A
:040000050800029954
:00000001FF
