:020000040800F2
:1000000068040020AD0200085F140008E713000830
:100010005D140008F5020008AF170008000000009A
:100020000000000000000000000000006314000851
:10003000F7020008000000006114000865140008C1
:10004000C7020008C7020008C7020008C70200086C
:10005000C7020008C7020008C7020008C70200085C
:10006000C7020008C7020008C7020008C70200084C
:10007000C7020008C7020008C7020008C70200083C
:10008000C7020008C7020008C7020008C70200082C
:10009000C7020008C7020008C7020008C70200081C
:1000A000C7020008C7020008C7020008C70200080C
:1000B000C7020008C7020008C7020008C7020008FC
:1000C000C7020008C7020008C7020008C7020008EC
:1000D000C7020008C7020008C7020008C7020008DC
:1000E000C7020008C702000800000000C70200089D
:1000F000C7020008C7020008C7020008C7020008BC
:10010000C7020008C7020008A5150008C7020008BA
:10011000C7020008C7020008C7020008C70200089B
:10012000C7020008C7020008C7020008C70200088B
:10013000C7020008C7020008C7020008C70200087B
:1001400000000000000000000000000000000000AF
:10015000C7020008C7020008C7020008C70200085B
:10016000C7020008C7020008C7020008C70200084B
:10017000C7020008C7020008C7020008000000000C
:10018000C7020008C7020008C7020008C70200082B
:10019000C7020008C7020008C7020008C70200081B
:1001A000C7020008C7020008C7020008C70200080B
:1001B000C7020008C7020008C7020008C7020008FB
:1001C000C7020008C7020008C7020008C7020008EB
:1001D000C7020008C7020008C7020008C7020008DB
:1001E000C7020008C7020008C7020008C7020008CB
:1001F000C7020008C7020008C7020008C7020008BB
:10020000C7020008C7020008C7020008C7020008AA
:10021000C7020008C7020008C7020008C70200089A
:10022000C7020008C7020008C7020008000000005B
:10023000C7020008C702000800000000C70200084B
:10024000C7020008C7020008C7020008C70200086A
:10025000C7020008C7020008C7020008C70200085A
:10026000C7020008C7020008C7020008C70200084A
:10027000C7020008C7020008C7020008000000000B
:10028000C702000800000000C702000800000000CC
:1002900000000000C7020008DFF80CD000F018F8DA
:1002A00000480047F117000868040020064880470E
:1002B00006480047FEE7FEE7FEE7FEE7FEE7FEE74B
:1002C000FEE7FEE7FEE7FEE71D15000899020008BD
:1002D000064C074D06E0E06840F0010394E8070093
:1002E00098471034AC42F6D3FFF7DAFF54180008F1
:1002F00074180008FEE770472DE9F84F6F4D002293
:100300004FF001094FF0030E4FF00F0B0B6809FA85
:1003100002F803EA0803434574D14C68022C01D06B
:10032000122C0FD1D4080E69570700EB8404A246A3
:10033000246AFF0E0BFA07FCBE4024EA0C04264395
:10034000CAF820600F79540006680EFA04FC07F022
:10035000030726EA0C06A740374307604E68012EC4
:1003600005D0022E03D0112E01D0122E0FD1866897
:10037000CF6826EA0C06A7403743876046680F79A6
:1003800026EA0806C7F30017974037434760C76857
:100390008E6827EA0C07A6403E43C6604C68E4001E
:1003A00030D5474C266846F002062660246822F0C5
:1003B000030606F1B04604F0020400949407270FE8
:1003C000D6F80844DFF8FC800BFA07FC404524EA25
:1003D0000C0402D14FF0000C41E0DFF8ECC06045A6
:1003E00002D14FF0010C3AE0DFF8E0C0604502D1E5
:1003F0004FF0020C33E0DFF8D8C0604503D14FF076
:10040000030C2CE053E0DFF8CCC0604502D14FF084
:10041000040C24E0DFF8C0C0604502D14FF0050CA9
:100420001DE0DFF8B8C0604502D14FF0060C16E0C1
:10043000DFF8ACC0604502D14FF0070C0FE0DFF8E9
:10044000A4C0604502D14FF0080C08E0DFF898C066
:10045000604502D14FF0090C01E04FF00A0C0CFA94
:1004600007FC4CEA040CC6F808C42C684E6824EA61
:100470000304F60300D51C432C606C684E6824EA24
:100480000304B60300D51C436C604FF0B0444F68C2
:100490002668FF0226EA030600D51E4326604F6841
:1004A0006668BF0226EA030600D51E436660521C3A
:1004B000102AFFF42BAFBDE8F88F00008000005831
:1004C000F444025800000258000402580008025880
:1004D000000C02580010025800140258001802586C
:1004E000001C02580020025800240258014880686D
:1004F000704700001800002002488168027811440B
:100500008160704718000020032010B500F090F8BB
:10051000002000F007F808B1012010BD00F022F81B
:10052000002010BD70B50D4D04464FF47A700C4A92
:1005300029781268B0FBF1F0B2FBF0F000F071FC2A
:1005400048B9102C07D200222146501E00F050F866
:1005500000206C6070BD012070BD000018000020FC
:10056000240000201A4808B5016841F0020101602A
:10057000006800F002000090032000F059F800220B
:100580006FF00B00114600F033F800226FF00A0004
:10059000114600F02DF800226FF00900114600F01E
:1005A00027F80022501F114600F022F80022101FE9
:1005B000114600F01DF80022901E114600F018F8B8
:1005C0000022BDE80840501E114600F011B800009E
:1005D000F4440258002809DB410900F01F02890099
:1005E000012001F1E0219040C1F8000170470000B6
:1005F0000E4BF0B41B680D46C3F30223C3F107068C
:10060000042E00D90426191D072901D2002300E079
:10061000DB1E012404FA06F19C40491E2940641E99
:10062000994014402143F0BC01F0C2B80CED00E049
:10063000064900F0070210B54FF6FF040868044BA6
:10064000204040EA02201843086010BD0CED00E095
:100650000000FA052DE9F047DFF8C49104460E4684
:10066000D9F8000000F00700B0420CD2D9F8001011
:1006700021F007013143C9F80010D9F8000000F05B
:100680000700B04272D12078DFF89881800707D543
:10069000E268D8F8001021F00F011143C8F80010EB
:1006A0002078C00767D05F49A368D8F800201839C0
:1006B00022F470621A43C8F80020606802281CD037
:1006C00003281DD0096801281DD04907002963DAD5
:1006D000544D083D296821F0070101432960FFF7C7
:1006E00005FF6168074641F28830022914D00329CA
:1006F00020D0012982462AD039E009688903E5E73C
:1007000009688901E2E7C905E0E700BFFFF7EEFEEF
:10071000C11B514501D926E082462868C0F3C200BA
:100720000228F3D127E000BFFFF7E0FEC11B5145CF
:1007300001D918E082462868C0F3C2000328F3D12B
:1007400019E000BFFFF7D2FEC11B51450BD8286846
:10075000C0F3C2000128F5D10DE000BFFFF7C6FECF
:10076000C11B514503D90320BDE8F08714E0286878
:1007700010F0380FF2D1D9F80010484601F0070107
:10078000B1420BD9016821F00701314301600068D3
:1007900000F00700B04201D00120E5E720784007D3
:1007A00007D52269D8F8001021F070011143C8F86C
:1007B000001021781B48001D090705D562690168F2
:1007C00021F07001114301602178C90605D5A269A5
:1007D000016821F4E061114301602078800607D5AB
:1007E0001048E2690830016821F07001114301608E
:1007F00000F01EF8D8F800104FF4807292FAA2F2BE
:1008000001F47061B2FA82F2D140074A515CC840EB
:10081000064908600020FFF785FE0020A4E70000DD
:1008200000200052184402584418000824000020F8
:100830004749F0B547480968454B103B11F038046B
:1008400009D00111082C04D0434A102C0BD0182CCD
:100850000BD00846F0BD19688906FBD51968C1F3AD
:10086000C101C840F0BD1046F0BD394CDFF8E0C012
:100870001834261D0CF1240C2768351D2468DFED83
:10088000370AB7EE001A3668DCF800C017F0030725
:1008900006F00106C4F30514CCF3CC0C1CFB06F6E1
:1008A00000EE106AB8EE400A09D0012F01D0022FE5
:1008B0003BD02868B1FBF4F1C0F308003AE01968B6
:1008C000890615D51A682968C2F3C102C1F3080167
:1008D000D04001EE901AB0FBF4F0F8EE611A40EE51
:1008E000201A00EE100A71EE810AB8EE400A0BE001
:1008F0002968B0FBF4F0C1F3080101EE901AB8EEDC
:10090000612A01EE900A1BE020EE200A2868C0F35D
:100910004620401C00EE900AF8EE600A80EE201A95
:10092000BCEEC10A10EE100AF0BD2868B2FBF4F16B
:10093000C0F3080001EE900AB8EE612A01EE901AA9
:1009400000EE202AB8EE610A72EE010ADCE7000030
:10095000104402580090D00340787D010000003917
:100960002DE9F047FF4C05460078DFF8F883103C8E
:10097000FC4FC00708F118084CD03868C0F3C2001B
:1009800002281AD03868C0F3C200032805D1D8F86D
:10099000000000F0030002280FD06868B0F5803F27
:1009A00012D010B1B0F5A02F18D0206820F48030FC
:1009B0002060206820F4802009E02068800329D589
:1009C0006868002876D025E0206840F480302060F8
:1009D000686890B1FFF78AFD06460AE0206840F497
:1009E00080202060F0E700BFFFF780FD801B6428B7
:1009F0007ED820688003F7D50CE0FFF777FD064628
:100A000005E000BFFFF772FD801B6428F0D8206866
:100A10008003F7D42878D34E0C3E80075DD5386824
:100A20004FF47C3A10F0380F13D03868C0F3C2008E
:100A3000032803D1D8F8000080070AD0E868C0B3C3
:100A4000216821F0190101432160FFF74FFD814624
:100A500020E02068400702D5E8680028B2D0E968A5
:100A6000206820F0190008432060FFF73FFD814611
:100A700006E000BFFFF73AFDA0EB09000228B7D857
:100A800020684007F6D508E0FFF730FDA0EB09002D
:100A90000228ADD820684007F6D5286932689AFA4E
:100AA000AAF1B1FA81F1884022F47C31014331602E
:100AB00013E000E0AAE0206820F001002060FFF7CA
:100AC00015FD814606E000BFFFF710FDA0EB090011
:100AD00002288DD820684007F6D42878C00649D56A
:100AE00038684FF0F84AC0F3C200012817D000E080
:100AF000DAE03868C0F3C200032805D1D8F8000056
:100B000000F0030001280AD0E8690028206822D0FC
:100B100040F080002060FFF7E9FC81460CE020688F
:100B2000C0050CD5E869802870D108E0FFF7DEFC2D
:100B3000A0EB09000228A2D82068C005F6D5286AD3
:100B400032689AFAAAF1B1FA81F1884022F0F841AC
:100B5000014331600EE020F080002060FFF7C6FC0A
:100B6000064604E0FFF7C2FC801B022887D82068F5
:100B7000C005F7D42878000729D57A486969643018
:100B800000298146016811D041F001010160FFF7A1
:100B9000ADFC064605E000BFFFF7A8FC801B02285D
:100BA00097D8D9F800008007F6D510E021F00101B0
:100BB0000160FFF79BFC064605E000BFFFF796FCCF
:100BC000801B022870D8D9F800008007F6D4287856
:100BD000800625D5A8690028206810D040F48050F0
:100BE0002060FFF783FC064605E000BFFFF77EFCB0
:100BF000801B022858D820688004F7D510E020F424
:100C000080502060FFF772FC064606E0D7E000BF88
:100C1000FFF76CFC801B022846D820688004F7D4BC
:100C2000287840074FD5DFF84091D9F8001041F4FB
:100C30008071C9F80010FFF759FC064605E000BFB7
:100C4000FFF754FC801B64282ED8D9F80000C0059B
:100C5000F6D5444EA868603601280AD008B10528A8
:100C600013D0306820F001003060306820F00400BC
:100C700002E0306840F001003060A86841F2883A34
:100C800098B1FFF733FC81460AE0306840F0040079
:100C90003060EEE7FFF72AFCA0EB0901514503D8CD
:100CA00030688007F6D50EE088E0FFF71FFC81462C
:100CB00006E000BFFFF71AFCA0EB090151457DD803
:100CC00030688007F6D4686AE8B33968C1F3C201B6
:100CD000032974D00228206820F08070206003D09F
:100CE000FFF704FC054685E0FFF700FC064604E03C
:100CF000FFF7FCFB801B022879D820688001F7D41D
:100D0000EB6A40F2F332D8F800104FF4FE0755F8C2
:100D1000286F914341EA03113143C8F80010287B42
:100D20004FF0FE4C0F4EB5F8088040022B8A20365B
:100D30002A7DA8F10108311DA0F5007080B25B1E6C
:100D4000C8F3080800E058E0521E07EA034340EAEF
:100D5000080018434FF6F8730CEA02621043306043
:100D60000A6803E0104402580048025893FAA3F7B7
:100D70002E6A24489A43B7FA87F7BE4032430A6086
:100D80000168AA6921F00C01114301600168EA6958
:100D900021F0020111430160016841F480310160DA
:100DA000016841F400310160016841F48021016073
:100DB000016841F001010160206801E017E01EE0D8
:100DC00040F080702060FFF791FB054605E000BF12
:100DD000FFF78CFB401B022809D820688001F7D55B
:100DE0000BE000BFFFF782FB401B022802D9032063
:100DF000BDE8F08720688001F4D40020F8E70120E6
:100E0000F6E700002C44025804284FF0E020016966
:100E100003D021F004010161704741F00401FAE7B9
:100E20007047401EB0F1807F10B501D3012010BD86
:100E30004FF0E02460610F21601700F0B9FC002042
:100E4000A0610721216110BD10B5FFF7E9FF10BDBA
:100E50007047704770B590F83C20012A1FD00122DE
:100E600080F83C2002680F4C5368A242956802D07B
:100E70000D4CA24203D14C6823F4700323430C6849
:100E80008968002623F070031C43546025F0800518
:100E900002682943916080F83C60304670BD0220B2
:100EA00070BD0000000001400004014010B50400C6
:100EB00003D094F83D0010B107E0012010BD0020E0
:100EC00084F83C00204600F00DF8022084F83D0034
:100ED0002068211D00F06CFB012084F83D000020FB
:100EE00010BD000000B5006887B00D49884214D1DC
:100EF0000C48016841F008010160006803220121EB
:100F000000F00800059002200490CDE90202CDE92E
:100F1000001005486946FFF7EFF907B000BD000073
:100F2000000C0040E84402580000025870B5044626
:100F300090F83C00012817D0394E012584F83C5028
:100F4000022084F83D0022689068304020F47F4001
:100F500090600868502838D00DDC20285AD005DC75
:100F600090B3102842D152E0022070BD302854D0F6
:100F700040283BD140E060282FD070280BD0B0F53E
:100F8000805F03D0B0F5005F30D111E02068254AC2
:100F90008168114016E04A682068D1E9021300F028
:100FA00074FB21688868304040F0770088601DE05D
:100FB0004A682068D1E9021300F067FB2068816865
:100FC00041F48041816011E01EE0CA6849682068F0
:100FD00000F06EFB2068502106E0CA68496820686E
:100FE00000F0B8FB2068602100F058FB002084F876
:100FF0003D5084F83C0070BDCA684968206800F024
:1010000057FB20684021EFE720680021ECE72068CB
:101010001021E9E720682021E6E720683021E3E796
:1010200088FFCEFFF8FFFEFF002110B500F0B8F9F1
:101030000E499FED0F0B0A68824201D2821A01E02D
:10104000D243024401EE102A530001EE903AB8EE6A
:10105000412BB8EE613B82EE001B80EE032B81ED4D
:10106000041B81ED022B086010BD00000000002071
:101070000000000084D7A7412DE9F041044690F814
:101080003C000D4601283DD0012684F83C6002203A
:1010900084F83D00AAB3042A46D02068082A55D017
:1010A000D5E90032E968076A4FF6FF7C4FF4204E1D
:1010B00027F4805707620CEA0131C769D0F820C0D5
:1010C0000EEA033327F4407747EA02222CF4204C3F
:1010D00022F470421143C16143EA0C0303622068A9
:1010E000C16921F44061C1612068A968C26942EA0E
:1010F0000121C161002084F83D6084F83C00BDE816
:10110000F08101E00220FAE7EB682068D5E90012DF
:1011100000F0E0FA2068816921F00C01816120680B
:101120008169AA6811430FE0EB682068D5E90012D5
:1011300000F022FB2068816921F440618161206810
:101140008169AA6841EA02218161D3E7D5E90023D8
:10115000297B076A4FF4206C0CEA0222090727F466
:1011600080770762C769D0F820C027F003071F43C4
:101170002CF4206C27F0F00342EA0C0243EA1161E0
:10118000C16102622068C16921F00C01C16120685F
:10119000AA68C1691143ACE710B5040003D094F804
:1011A0003D0010B107E0012010BD002084F83C0094
:1011B000204600F00CF8022084F83D002068211D34
:1011C00000F0F6F9012084F83D00002010BD7047C2
:1011D00010B50268044631B1042908D0082915D099
:1011E0000C2908D116E0D06840F0020002E0D06877
:1011F00040F00400D0602068012200F03BFA206833
:10120000018841F001010180002010BDD06840F04C
:101210000800EFE7D06840F01000EBE770B5044637
:10122000006800250169C943890715D4C168C9430D
:10123000890711D4EA1E02610121217720688069A3
:101240008007204602D0FFF7EFFE04E000F0A5F88B
:10125000204600F0A3F8257720680169C9434907B3
:1012600017D4C168C943490713D402216FF004029F
:10127000026121772068806910F4407F204602D007
:10128000FFF7D2FE04E000F088F8204600F086F870
:10129000257720680169C943090716D4C168C94385
:1012A000090712D404216FF0080202612177206837
:1012B000C0698007204602D0FFF7B6FE04E000F0C8
:1012C0006CF8204600F06AF8257720680169C94368
:1012D000C90617D4C168C943C90613D408216FF0E1
:1012E0001002026121772068C06910F4407F204617
:1012F00002D0FFF799FE04E000F04FF8204600F01E
:101300004DF8257720680169C943C90708D1C1682C
:10131000C943C90704D1891E0161204600F03FF886
:1013200020686FF080050169C943090607D4C168C8
:10133000C943090603D405612046FFF789FD2068EB
:101340000169C943C90507D4C168C943090603D463
:1013500005612046FFF77CFD20680169C943490605
:1013600009D4C168C943490605D46FF04001016141
:10137000204600F037F820680169C94389060BD47C
:10138000C168C943890607D46FF020010161204676
:10139000BDE87040FFF75DBD70BD70477047704796
:1013A00090F83C300022012B0AD0012380F83C3019
:1013B00041B1042909D008290AD00C290DD10AE02D
:1013C0000220704701684A6B07E001688A6B04E0FD
:1013D0000168CA6B01E001680A6C002180F83C10CA
:1013E000104670477047FEE71B4810B50024194AA5
:1013F000611E8CB0C0E90024C0E90241046184612F
:10140000FFF754FD00B1FEE74FF4805007901248FB
:1014100007A9FFF78BFD00B1FEE70F48FFF7BCFE01
:1014200000B1FEE70C4804A904940694FFF712FDEE
:1014300000B1FEE70A2001218DE8130006480022D2
:1014400069460394FFF718FE002800D0FEE70CB0B1
:1014500010BD0000000C004028000020FEE770478F
:101460007047704710B5FFF747F8BDE81040FFF729
:10147000EBBC0000274830B59DB0016821F00401A5
:10148000016024480C300025016841F440410160AE
:10149000016801F440411B9101688904FCD50220D8
:1014A0000990402401210091C20301920A900FABE0
:1014B000CDE90B040C210D900E9083E823006846C3
:1014C0001295FFF74DFA00B1FEE708221A94CDE914
:1014D0001624D30113AA3F200321CDE9184382E843
:1014E0002300022113A8FFF7B5F800B1FEE70A496F
:1014F0004FF47A700968B1FBF0F0FFF792FC04201A
:10150000FFF782FC0022501E1146FFF771F81DB054
:1015100030BD00000C480258240000201D4AF0B5E0
:101520001D49146800201C4B44F4700414601033EF
:101530000A681A4C42F001020A6018600D68164AE7
:1015400025400D601832131D1C1D134D10602835E9
:1015500018602A1D2060131D1C1D2860251D1060A9
:101560002A1D1860131D20601C1D28601060186063
:1015700020600A680124084B064FE606084D6033D8
:10158000803F22F480220A601860C5F808413E605E
:10159000F0BD000088ED00E0004402587FEDF6EA5F
:1015A000008000510148FFF739BE000028000020EC
:1015B0002DE9F047274B4FF0804A274D028898428B
:1015C000264E274F274C09D0504507D0A84205D0BA
:1015D000B04203D0B84201D0A04205D1D1F804C036
:1015E00022F070024CEA0202DFF87CC0DFF87C8057
:1015F0009842DFF87C900FD050450DD0A8420BD018
:10160000B04209D0B84207D0A04205D0604503D00F
:10161000404501D0484503D1CD6822F440722A43A9
:101620008D8A22F080022A43028098428A68C26230
:101630000A88028507D0A04205D0604503D0404506
:1016400001D0484501D1098A018601214161BDE8E7
:10165000F087000000000140000400400008004046
:10166000000C0040000401400040014000440140E3
:101670000048014010B5046A01238A408B409C4316
:101680000462016A1143016210BD42EA03228368C9
:101690000A4323F47F410A4382607047034B826808
:1016A0001A400A4342F00701816070478FFFCFFF65
:1016B00010B5036A046A23F00A0324F001040462EB
:1016C00084690B4324F0F00141EA02118161036255
:1016D00010BD000070B5046A174D24F001040462C7
:1016E000A8428469056A14D0B0F1804F11D0134E1E
:1016F000B0420ED0124EB0420BD0124EB04208D0C3
:10170000114EB04205D0114EB04202D0104EB04240
:1017100003D124F00304144301E044F001041A0748
:1017200024F0F00325F00A0401F00A01214343EA02
:1017300012628261016270BD00000140000400403D
:1017400000080040000C0040000401400018004068
:101750000040014010B5036A23F01003036283695F
:10176000046A23F4704324F0A00443EA0232826145
:1017700044EA0111016210BD70B5056AA0244FF65C
:10178000FF7606EA033325F01005056204EA01112D
:101790008469056A24F4407425F0A00544EA022215
:1017A000294322F4704213438361016270BDFEE756
:1017B000090700284FEA116104DB00F1E02080F8FE
:1017C0000014704700F00F0000F1E02080F8141DB5
:1017D000704702E008C8121F08C1002AFAD17047FA
:1017E0007047002001E001C1121F002AFBD17047A1
:1017F00008B5FEF789FEFFF73DFE1048016841F08D
:1018000080010160016801F080010091016841F0F0
:1018100001010160006800F001000090FFF7E4FDA5
:10182000002232201146FEF7E3FE3220FEF7D2FE00
:1018300003480021FFF7CCFCFEE70000E04402581B
:10184000280000200000000001020304010203043C
:10185000060708097418000800000020280000008E
:10186000D21700089C18000828000020400400003F
:10187000E217000800000000000000000000000067
:101880000000000000000000000000000100000057
:0C18900010000000000000000090D003D9
:040000050800029954
:00000001FF
