:020000040800F2
:1000000090040020AD02000895290008E9280008A6
:100010009129000851040008A52D000800000000E7
:10002000000000000000000000000000F92B0008A4
:10003000550400080000000097290008FB2B000869
:10004000C7020008C7020008C7020008C70200086C
:10005000C7020008C7020008C7020008C70200085C
:10006000C7020008C7020008C7020008C70200084C
:10007000C7020008C7020008C7020008C70200083C
:10008000C7020008C7020008C7020008C70200082C
:10009000C7020008C7020008C7020008C70200081C
:1000A000C7020008C7020008C7020008C70200080C
:1000B000C7020008C7020008C7020008C7020008FC
:1000C000C7020008C7020008C7020008C7020008EC
:1000D000C7020008C7020008C7020008C7020008DC
:1000E000C7020008C702000800000000C70200089D
:1000F000C7020008C7020008C7020008C7020008BC
:10010000C7020008C7020008C7020008C7020008AB
:10011000C7020008C7020008C7020008C70200089B
:10012000C7020008C7020008C7020008C70200088B
:10013000C7020008C7020008C7020008C70200087B
:1001400000000000000000000000000000000000AF
:10015000C7020008C7020008C7020008C70200085B
:10016000C7020008C7020008C7020008C70200084B
:10017000C7020008C7020008C7020008000000000C
:10018000C7020008C7020008C7020008C70200082B
:10019000C7020008C7020008C7020008C70200081B
:1001A000C7020008C7020008C7020008C70200080B
:1001B000C7020008C7020008C7020008C7020008FB
:1001C000C7020008C7020008C7020008C7020008EB
:1001D000C7020008C7020008C7020008C7020008DB
:1001E000C7020008C7020008C7020008C7020008CB
:1001F000C7020008C7020008C7020008C7020008BB
:10020000C7020008C7020008C7020008C7020008AA
:10021000C7020008C7020008C7020008C70200089A
:10022000C7020008C7020008C7020008000000005B
:10023000C7020008C702000800000000C70200084B
:10024000C7020008C7020008C7020008C70200086A
:10025000C7020008C7020008C7020008C70200085A
:10026000C7020008C7020008C7020008C70200084A
:10027000C7020008C7020008C7020008000000000B
:10028000C702000800000000C702000800000000CC
:1002900000000000C7020008DFF80CD000F02AF8C8
:1002A00000480047012E00089004002006488047BF
:1002B00006480047FEE7FEE7FEE7FEE7FEE7FEE74B
:1002C000FEE7FEE7FEE7FEE7112D000899020008B1
:1002D000D2B201E000F8012B491EFBD27047002288
:1002E000F6E710B513460A4604461946FFF7F0FF35
:1002F000204610BD064C074D06E0E06840F00103C3
:1003000094E8070098471034AC42F6D3FFF7C8FFD3
:10031000A42E0008C42E000870B5044600252068ED
:10032000806800F00300012806D12068006800F012
:10033000010008B1012000E0002080B3206880683F
:1003400000F00D00012800D100E0002050B100BFF6
:100350002068806840F002002168886003202168DE
:10036000086009E0606D40F010006065A06D40F02D
:100370000100A065012070BD00F0AEFE05460FE053
:1003800000F0AAFE401B02280AD9606D40F0100060
:100390006065A06D40F00100A0650120EBE705E07D
:1003A0002068806800F001000028E9D10020E2E721
:1003B00070B5044600252068806800F0030001281D
:1003C00006D12068006800F0010008B1012000E0BB
:1003D000002088BB206880681C49084008B90120BB
:1003E00000E0002048B9606D40F010006065A06D2D
:1003F00040F00100A065012070BD2068806840F0D9
:1004000001002168886000F067FE054615E020685D
:10041000806840F001002168886000F05DFE401BAC
:1004200002280AD9606D40F010006065A06D40F0B0
:100430000100A0650120DFE705E02068006800F00A
:1004400001000028E3D00020D6E700003F00008034
:1004500000BFFEE7704770472DE9F04104460D46A6
:1004600016460027B84600BF94F85000012802D174
:100470000220BDE8F081012084F8500000BF204632
:10048000FFF74AFF0746CFBB606D20F4885040F06D
:10049000020060652068806820F080403043216859
:1004A00088602068806820F4803028432168886054
:1004B0002068806840F000402168886011E008F101
:1004C0000108B8F57A4F0CD3606D20F0020040F0BF
:1004D0001000606500BF002084F8500000BF0120BC
:1004E000C7E72068806800F000400028E7D1606D11
:1004F00020F0020040F00100606504E0FFE7606D5D
:1005000040F01000606500BF002084F8500000BF7C
:100510003846AEE7F8B5024600250020009092F874
:100520003900012800D100E000BFC868B0F1804F59
:1005300000D00AE0FE4E1068B04200D105E0FD4E4A
:100540001068B04200D100E000BF00BF92F8500038
:10055000012801D10220F8BD012082F8500000BF1F
:1005600010688068C0F3800000287DD11068C069E1
:100570000F780126BE4030431668F06148680528B0
:100580001CD21068066B08794FF4F86797FAA7F742
:10059000B7FA87F778431F27874026EA07000F79C5
:1005A0004FF4F86C9CFAACFCBCFA8CFC07FB0CF723
:1005B0000E68BE4030431668306363E048680A281E
:1005C0001ED21068466B0879401F4FF4F86797FAFF
:1005D000A7F7B7FA87F778431F27874026EA07006F
:1005E0000E79761F4FF4F86C9CFAACFCBCFA8CFCCC
:1005F00006FB0CF60F68B74038431668706341E09D
:1006000048680F281ED21068866B08790A384FF4A4
:10061000F86797FAA7F7B7FA87F778431F27874055
:1006200026EA07000E790A3E4FF4F86C9CFAACFCFF
:10063000BCFA8CFC06FB0CF60F68B7403843166812
:10064000B0631FE01068C66B08790F384FF4F86785
:1006500097FAA7F7B7FA87F778431F27874026EA64
:1006600007000E790F3E00E0A5E24FF4F86C9CFA0B
:10067000ACFCBCFA8CFC06FB0CF60F68B7403843A8
:100680001668F0631068806800F00C0008B1012063
:1006900000E00020002874D108680A281DD31068E3
:1006A000866908780A38382797FAA7F7B7FA87F7DC
:1006B00078430727874026EA07000E780A3E4FF066
:1006C000380C9CFAACFCBCFA8CFC06FB0CF68F6870
:1006D000B74038431668B06119E0106840690E7879
:1006E000382797FAA7F7B7FA87F77E430727B74067
:1006F000B8430F784FF0380C9CFAACFCBCFA8CFC79
:1007000007FB0CF78E68BE4030431668706148697D
:100710001668F668C6F38206760000FA06F40869E1
:10072000012806D002282DD0032854D0042874D1E3
:100730007BE01068006E00F000464FF0F84797FA33
:10074000A7F7B7FA87F70868B84020430643106850
:1007500006661068006920F400600E7E304316685B
:100760003061487E30B11068006E40F0004016687D
:10077000306605E01068006E20F0004016683066B4
:10078000CDE0CDE01068406E00F000464FF0F84735
:1007900097FAA7F7B7FA87F70868B84020430643E7
:1007A000106846661068006920F480500E7E40EAAA
:1007B000460016683061487E30B11068406E40F0E7
:1007C00000401668706605E01068406E20F000403A
:1007D00016687066A3E01068806E00F000464FF067
:1007E000F84797FAA7F7B7FA87F70868B8402043A1
:1007F0000643106886661068006920F400500E7E7B
:1008000040EA860016683061487E38B11068806E14
:1008100040F000401668B06606E02FE01068806E79
:1008200020F000401668B06679E01068C06E00F0F5
:1008300000464FF0F84797FAA7F7B7FA87F7086826
:10084000B840204306431068C6661068006920F46B
:1008500080400E7E40EAC60016683061487E30B1A6
:100860001068C06E40F000401668F06605E0106841
:10087000C06E20F000401668F06650E01068006E10
:1008800000F0F8464FF0F84797FAA7F7B7FA87F75E
:100890000868B840864205D11068006E20F000401C
:1008A000166830661068406E00F0F8464FF0F84762
:1008B00097FAA7F7B7FA87F70868B840864205D1D4
:1008C0001068406E20F00040166870661068806EF8
:1008D00000F0F8464FF0F84797FAA7F7B7FA87F70E
:1008E0000868B840864205D11068806E20F000404C
:1008F0001668B0661068C06E00F0F8464FF0F84712
:1009000097FAA7F7B7FA87F70868B840864205D183
:100910001068C06E20F000401668F06600BF00BF8F
:100920001068806800F0030001280BD1106803E014
:100930000060025800200240006800F0010008B189
:10094000012000E0002000287ED1C868B0F1804F6F
:100950000AD01068D0F8C0000F780126BE40B0431E
:100960001668C6F8C00047E01068D0F8C0000F78DD
:100970000126BE4030431668C6F8C0000868092842
:100980001DD31068866908780938382797FAA7F7C1
:10099000B7FA87F778430727874026EA07000E78DB
:1009A000093E4FF0380C9CFAACFCBCFA8CFC06FB00
:1009B0000CF68F68B74038431668B0611CE01068C9
:1009C00046690878401C382797FAA7F7B7FA87F7DF
:1009D00078430727874026EA07000E78761C4FF0F9
:1009E000380C9CFAACFCBCFA8CFC06FB0CF68F684D
:1009F000B740384316687061754E1068B04203D036
:100A0000744E1068B04201D1734B00E0734B08681C
:100A1000122803D1986800F4000070B1086811280A
:100A200003D1986800F0807038B1086813288BD122
:100A3000986800F48000002886D11068806800F073
:100A40000300012808D100E0AEE01068006800F063
:100A5000010008B1012000E0002000287ED15C4E9A
:100A60001068B04222D15B480830006800F00300F3
:100A7000012806D15748006800F0010008B10120A4
:100A800000E0002070B95648806800F0030001289B
:100A900006D15348006800F0010008B1012000E0D1
:100AA000002008B1012049E0002047E0494E1068CD
:100AB000B04221D14648806800F00300012806D1E9
:100AC0004348006800F0010008B1012000E0002068
:100AD00070B94348806800F00300012806D14048FF
:100AE000006800F0010008B1012000E0002008B11A
:100AF00001200FE000200DE03548806800F0030081
:100B0000012806D13248006800F0010008B1012038
:100B100000E0002078B92F480830006800F003009A
:100B2000012806D12B48006800F0010008B101201F
:100B300000E0002008B1012000E0002070B9086842
:100B400012281AD1264E1068B04216D1986840F487
:100B50000000986023480068234E00E025E0B0FBC9
:100B6000F6F0C0EB0010C000009002E00098401EBC
:100B7000009000980028F9D122E00868112808D1D7
:100B8000174E1068B04204D1986840F080709860A9
:100B900016E00868132813D1114E1068B0420FD127
:100BA000986840F4800098600AE0506D40F02000A2
:100BB0005065012504E0506D40F02000506501258E
:100BC00000BF002082F8500000BF2846C3E40000A8
:100BD000002002400021024000230240006302582E
:100BE000006002582400002080841E00014608682E
:100BF000006C7047F8B504460027002600200090DE
:100C00000CB90120F8BDE06818B1207F012800D19F
:100C100000BF606D30B9204600F098F90020A06553
:100C200084F850002068806800F0005028B12068E7
:100C3000806820F00050216888602068806800F09B
:100C40008050A8B92068806840F080502168886092
:100C5000B5480068B549B0FBF1F000EB80004000FA
:100C6000009002E00098401E009000980028F9D102
:100C70002068806800F0805040B9606D40F010003E
:100C80006065A06D40F00100A0650127606D00F077
:100C9000100000286FD120688068C0F38000002811
:100CA000F8D1606D40F002006065A149206888427B
:100CB00003D0A0492068884201D19F4D00E09F4D9C
:100CC0002068806800F00300012806D120680068D1
:100CD00000F0010008B1012000E00020002877D1D9
:100CE00093492068884222D192480830006800F079
:100CF0000300012806D18F48006800F0010008B108
:100D0000012000E0002070B98D48806800F00300E9
:100D1000012806D18A48006800F0010008B10120CE
:100D200000E0002008B101204BE0002049E08149AB
:100D30002068884222D17E48806800F003000128A4
:100D400006D17B48006800F0010008B1012000E0F6
:100D5000002070B97A48806800F00300012806D1AD
:100D60007748006800F0010008B1012000E0002091
:100D700010B1012010E0D0E000200DE06C48806848
:100D800000F00300012806D16948006800F0010066
:100D900008B1012000E0002078B9664808300068FA
:100DA00000F00300012806D16248006800F001004D
:100DB00008B1012000E0002010B1012001E007E0AF
:100DC000002028B9A86820F47C1061680843A86056
:100DD000607D4FF4005191FAA1F1B1FA81F18840A0
:100DE000216B0843A1680843217F4FF4803292FAB7
:100DF000A2F2B2FA82F2914040EA0106207F012875
:100E000009D1206A401E4FF4602191FAA1F1B1FA94
:100E100081F188400643606A012805D0A06A18B1B4
:100E2000D4E90901084306432068C06845490840E1
:100E300030432168C8602068806800F00C0008B169
:100E4000012000E0002070BB207D4FF4804191FA2A
:100E5000A1F1B1FA81F18840E16A40EA0106206817
:100E6000C06844F20301884330432168C86094F8A5
:100E70003900012818D1606A012801D0A06A00B9A0
:100E800000BFA08F012141EA0041206C0843616C42
:100E90000843A16C0843216809692B4A11400843A3
:100EA0002168086106E01EE02068006920F001006A
:100EB000216808612068006920F07040616B084378
:100EC0002168086194F83800012806D120688068FC
:100ED00040F480702168886005E02068806820F414
:100EE000807021688860E068012809D12068006B63
:100EF00020F00F00A169491E08432168086305E03E
:100F00002068006B20F00F0021680863606D20F0FE
:100F1000020040F00100606504E0606D40F01000E8
:100F20006065012738466DE62400002080841E009D
:100F300000200240002102400023024000630258CA
:100F40000060025803C0F0FF1EF800FC08B5094A13
:100F5000016891420DD100BF0749096841F08071D5
:100F6000054A11601146096801F08071009100BFC7
:100F700000BF08BD00600258E044025870B5044646
:100F8000002520688068C0F38000002872D100BF6F
:100F900094F85000012801D1022070BD012084F88E
:100FA000500000BF2046FFF703FA0546002D70D120
:100FB000606D00F4805020B1A06D20F00600A065A7
:100FC00001E00020A065606D40F60161884340F4B7
:100FD000807060653C492068884203D03B492068A6
:100FE000884201D1012007E03948006800F01F0065
:100FF00008B9012000E0002018B1606D20F48010D5
:1010000060651C20216808602F492068884203D051
:1010100030492068884201D1012013E02C48006843
:1010200000F01F0058B12A48006800F01F00052892
:1010300005D02748006800F01F00092801D10120D1
:1010400000E00020B8B12068C06800F0007028B14E
:10105000606D20F4005040F48050606500BF0020B7
:1010600084F8500000BF2068806840F004002168C8
:10107000886026E024E0606D40F4801060651249CD
:101080002068884203D013492068884202D1206832
:1010900001E010E00C480646F06800F0007028B14E
:1010A000606D20F4005040F48050606500BF002067
:1010B00084F8500005E000BF002084F8500000E0F4
:1010C0000225284669E70000002002400021024076
:1010D0000823024000600258014800687047000081
:1010E00018000020034800680349097808440149B2
:1010F00008607047180000202000002010B5032071
:1011000000F080F8002000F007F808B1012010BDC1
:1011100000F028F80020FAE770B504460E48007881
:101120004FF47A71B1FBF0F00C490968B1FBF0F5AE
:10113000284601F0BFFB08B1012070BD102C07D27A
:1011400000222146501E00F01FF80548046001E00F
:101150000120F2E70020F0E720000020240000201A
:101160001C00002008B500BF0648006840F00200DF
:10117000044908600846006800F00200009000BFC3
:1011800000BF08BDF44402582DE9F05F80460D46CB
:10119000164601F009FE074639462A46334601F055
:1011A0000700C0F1070ABAF1040F02D94FF0040A90
:1011B00001E0C0F1070AD14600F1040ABAF1070FB5
:1011C00002D24FF0000A01E0A0F1030AD4464FF02A
:1011D000010A0AFA09FAAAF1010A0AEA020A0AFA53
:1011E0000CFA4FF0010B0BFA0CFBABF1010B0BEA05
:1011F000030B4AEA0B042146404601F0DDFDBDE841
:10120000F09F000000BF00F00702064B19684FF680
:10121000FF031940044B0B4343EA0221014B1960C1
:1012200000BF70470CED00E00000FA052DE9F04129
:10123000044600250026206800F00060B0F1006F31
:1012400030D1606E48B1B0F5801F0DD0B0F5001FF1
:1012500010D0B0F5401F15D113E0F948006840F4F4
:101260000030F74908600FE00221201D01F094FBD7
:10127000054609E0022104F1240001F025FC0546A1
:1012800002E001E0012500BF00BF55B9EC48243061
:10129000006820F44010616E0843E9492431086079
:1012A00000E02E43208800F48070B0F5807F2DD1BF
:1012B000606D05281AD2DFE800F0030A1017180045
:1012C000DF48006840F40030DD49086010E000218C
:1012D000201D01F061FB05460AE0002104F1240015
:1012E00001F0F2FB054603E002E001E0012500BF4A
:1012F00000BF55B9D2482430006820F00700616D66
:101300000843CF492431086000E02E43208800F4D0
:101310000070B0F5007F33D1A06D802817D003DCBA
:1013200040B140281CD10CE0C02817D0B0F5807F18
:1013300016D114E0C248006840F40030C04908608B
:1013400010E00021201D01F027FB05460AE00021E6
:1013500004F1240001F0B8FB054603E002E001E0DF
:10136000012500BF00BF55B9B5482430006820F4FE
:10137000E070A16D0843B2492431086000E02E43BB
:10138000208800F48060B0F5806F38D1D4F8A400D4
:10139000B0F5800F19D004DC50B1B0F5001F1DD19D
:1013A0000DE0B0F5C00F17D0B0F5000F16D114E066
:1013B000A348006840F40030A149086010E0002113
:1013C000201D01F0E9FA05460AE0002104F124009D
:1013D00001F07AFB054603E002E001E0012500BFD1
:1013E00000BF5DB996482C30006820F46000D4F846
:1013F000A410084392492C31086000E02E43208855
:1014000000F40060B0F5006F38D1D4F8A800B0F156
:10141000007F19D004DC50B1B0F1807F1DD10DE008
:10142000B0F1407F17D0B0F1806F16D114E084483E
:10143000006840F400308249086010E00021201D5F
:1014400001F0AAFA05460AE0002104F1240001F0A7
:101450003BFB054603E002E001E0012500BF00BFC1
:101460005DB977482C30006820F0E060D4F8A8100F
:10147000084373492C31086000E02E43206800F0D7
:101480000070B0F1007F27D1A06CA0B1102804D06B
:10149000202809D030280FD10CE06948006840F4BA
:1014A00000306749086009E00221201D01F074FA4C
:1014B000054603E002E001E0012500BF00BF55B989
:1014C0005F482030006820F03000A16C08435C4980
:1014D0002031086000E02E43208800F48050B0F5F1
:1014E000805F36D1E06DB0F5005F19D004DC50B1FB
:1014F000B0F5805F1DD10DE0B0F5405F17D0B0F5BD
:10150000804F16D114E04E48006840F400304C493A
:10151000086010E00021201D01F03EFA05460AE0B7
:10152000002104F1240001F0CFFA054603E002E0B7
:1015300001E0012500BF00BF55B9414824300068D3
:1015400020F4E040E16D08433D492431086000E0AB
:101550002E43208800F40050B0F5005F34D1206E97
:10156000B0F5403F1DD007DC68B1B0F5803F0BD02F
:10157000B0F5003F18D10DE0B0F5802F12D0B0F5D6
:10158000A02F11D10FE011E00121201D01F004FA7C
:1015900005460BE0012104F1240001F095FA05460F
:1015A00004E003E002E001E0012500BF00BF55B9FF
:1015B00023482430006820F4E020216E08432049AD
:1015C0002431086000E02E43208800F48040B0F50C
:1015D000804F38D1D4F8AC00B0F1405F1DD007DCAB
:1015E00068B1B0F1805F0BD0B0F1005F18D10DE0B1
:1015F000B0F1804F12D0B0F1A04F11D10FE011E047
:101600000121201D01F0C8F905460BE0012104F17C
:10161000240001F059FA054604E003E002E001E08D
:10162000012500BF00BF6DB905482C30006820F0CF
:10163000E040D4F8AC10084301492C31086002E0C6
:101640002C4402582E43208800F40040B0F5004F8F
:1016500026D1E06E98B1B0F1805F03D0B0F1005FA9
:101660000ED106E0FA48006840F40030F8490860FE
:1016700008E00121201D01F08FF9054602E001E09C
:10168000012500BF00BF55B9F1482430006820F0A3
:101690004050E16E0843EE492431086000E02E43DB
:1016A000206800F08070B0F1807F27D1606CA0B11D
:1016B000012804D0022809D003280FD10CE0E44807
:1016C000006840F40030E249086009E00221201D72
:1016D00001F062F9054603E002E001E0012500BFE8
:1016E00000BF55B9DA482030006820F00300616C73
:1016F0000843D7492031086000E02E43206800F4F9
:101700008000B0F5800F7DD1D248006840F4807031
:10171000D0490860FFF7E0FC074606E0FFF7DCFC75
:10172000C01B642801D9032505E0CA48006800F4FD
:1017300080700028F2D000BF8DBBC54844300068DF
:1017400000F44070B4F8B01001F44071884214D035
:10175000BF484430006820F44078BD4844300068F9
:1017600040F48030BA49443108600846006820F4EB
:10177000803008600846C0F80080D4F8B000B0F5AA
:10178000807F15D1FFF7A8FC074609E0FFF7A4FC0E
:10179000C01B41F28831884202D9032507E038E0B6
:1017A000AB4844300068C0F340000028EED000BFD2
:1017B0004DBB00BFB4F8B00000F44070B0F5407FFE
:1017C0000ED1A3481C38006820F47C51A24AD4F8FA
:1017D000B000104041EA10109D491C39086007E034
:1017E0009B481C38006820F47C5099491C390860DB
:1017F000974844300068B4F8B010C1F30B010843B7
:10180000934901E006E002E04431086002E02E4323
:1018100000E02E43207800F0010068B3A06F182884
:1018200019D005DC48B1082808D0102816D10BE0E3
:10183000202811D0282811D10FE011E00121201D0E
:1018400001F0AAF805460BE0012104F1240001F0A3
:101850003BF9054604E003E002E001E0012500BF9A
:1018600000BF55B97A482830006820F03800A16FD1
:10187000084377492831086000E02E43207800F0C3
:101880000200022828D1606F062815D2DFE800F098
:1018900003040A11121311E00121201D01F07CF84C
:1018A00005460BE0012104F1240001F00DF9054685
:1018B00004E003E002E001E0012500BF00BF55B9EC
:1018C00063482830006820F00700616F08436049D2
:1018D0002831086000E02E43207800F0040004283E
:1018E0002AD1D4F89000062815D2DFE800F00304CE
:1018F0000A11121311E00121201D01F04DF80546D7
:101900000BE0012104F1240001F0DEF8054604E0BB
:1019100003E002E001E0012500BF00BF5DB94C48D3
:101920002C30006820F00700D4F890100843484994
:101930002C31086000E02E43207800F020002028A1
:1019400036D1D4F88C00B0F1405F1DD007DC68B10F
:10195000B0F1805F0BD0B0F1005F18D10DE0B0F1B5
:10196000804F12D0B0F1A04F11D10FE011E0002153
:10197000201D01F011F805460BE0022104F12400BE
:1019800001F0A2F8054604E003E002E001E00125D1
:1019900000BF00BF5DB92E482830006820F0E0404D
:1019A000D4F88C1008432A492831086000E02E43FF
:1019B000207800F04000402836D1D4F89800B0F5E7
:1019C000406F1DD007DC68B1B0F5806F0BD0B0F56B
:1019D000006F18D10DE0B0F5805F12D0B0F5A05FB8
:1019E00011D10FE011E00021201D00F0D5FF0546C8
:1019F0000BE0022104F1240001F066F8054604E042
:101A000003E002E001E0012500BF00BF5DB910481E
:101A10002C30006820F4E050D4F8981008430C49AA
:101A20002C31086000E02E43207800F080008028F0
:101A30003BD1D4F89C00B0F5C04F24D00EDCA0B14F
:101A4000B0F5005F12D0B0F5804F1FD114E0000058
:101A50002C44025800480258FFFCFF0FB0F5004F1D
:101A600012D0B0F5204F11D10FE011E00021201D60
:101A700000F092FF05460BE0022104F1240001F082
:101A800023F8054604E003E002E001E0012500BF81
:101A900000BF4DB9B248006820F46040D4F89C10F3
:101AA0000843AF49086000E02E43207800F00800AA
:101AB000082816D1D4F88000B0F5805F06D1022145
:101AC00004F1240001F000F806430AE0A448001FD6
:101AD000006820F44050D4F880100843A049091F42
:101AE0000860207800F01000102814D1D4F8940079
:101AF000B0F5807F06D1022104F1240000F0E4FF5C
:101B0000064308E09648006820F44070D4F894102A
:101B1000084393490860206800F40020B0F5002FC6
:101B200026D1D4F8A00030B1B0F5803F09D0B0F58F
:101B3000003F0ED10CE00021201D00F02DFF0546D6
:101B400009E0022104F1240000F0BEFF054602E096
:101B500001E0012500BF00BF4DB98148006820F4B5
:101B60004030D4F8A01008437D49086000E02E43BF
:101B7000206800F48020B0F5802F2DD1D4F88400A7
:101B8000B0F5801F06D0B0F5001F0CD0B0F5401F97
:101B900011D10FE072482C38006840F400307049D1
:101BA0002C39086009E0012104F1240000F08CFFC9
:101BB000054602E001E0012500BF00BF5DB96848AD
:101BC000001F006820F44010D4F8841008436449D2
:101BD000091F086000E02E43206800F48030B0F553
:101BE000803F24D1E06C18B1B0F5803F0FD108E000
:101BF0005B482C38006840F4003059492C390860A3
:101C000007E00221201D00F0C7FE054601E0012586
:101C100000BF00BF55B952480C38006820F480302E
:101C2000E16C08434E490C39086000E02E432068FF
:101C300000F00050B0F1005F05D1022104F1240052
:101C400000F042FF0643206800F40030B0F5003F8A
:101C500027D1E06FA0B1B0F5807F06D0B0F5007F4E
:101C60000CD0B0F5407F0CD109E03D482C3800681D
:101C700040F400303A492C39086004E003E002E007
:101C800001E0012500BF00BF55B93548001F0068BD
:101C900020F44070E16F08433149091F086000E0FB
:101CA0002E43206800F48010B0F5801F09D12C4825
:101CB0000838006820F00040216F0843284908399F
:101CC0000860206800F08050B0F1805F0AD124489D
:101CD0004838006820F48040D4F8B4100843204904
:101CE00048390860206800F40010B0F5001F09D1E1
:101CF0001B480838006820F08070A16E084318491E
:101D000008390860206800F08040B0F1804F11D1A0
:101D100000BF13484838006820F400401049483993
:101D2000086008460068D4F8B81008430C494839E0
:101D3000086000BF206800F00040B0F1004F09D1FA
:101D400007480C38006820F04050216D08430449D2
:101D50000C39086016B90020BDE8F0810120FBE7CE
:101D60005844025870B504460D4600268D48006858
:101D700000F00700A8420ED28A48006820F0070051
:101D80002843884908600846006800F00700A84218
:101D900001D0012070BD207800F00200022807D198
:101DA0008148006820F00F00E16808437E49086020
:101DB000207800F00100002851D07B48006820F412
:101DC0007060A1680843784908606068022807D1FC
:101DD000754818380068C0F34040F8B90120D9E7C9
:101DE0006068032807D1704818380068C0F3406065
:101DF000A0B90120CEE76068012807D16A481838E9
:101E00000068C0F3002048B90120C3E766481838CD
:101E10000068C0F3800008B90120BBE762480838B9
:101E2000006820F00700616808435F4908390860CE
:101E3000FFF752F906466068022811D108E0FFF763
:101E40004BF9801B41F28831884201D90320A1E778
:101E500055480838006800F038001028EFD13AE003
:101E60006068032811D108E0FFF736F9801B41F2C2
:101E70008831884201D903208CE74B480838006834
:101E800000F038001828EFD125E06068012811D152
:101E900008E0FFF721F9801B41F28831884201D91F
:101EA000032077E740480838006800F03800082829
:101EB000EFD110E008E0FFF70FF9801B41F2883105
:101EC000884201D9032065E737480838006800F0E8
:101ED00038000028EFD13348006800F00700A8421E
:101EE0000ED93048006820F0070028432D490860CB
:101EF0000846006800F00700A84201D0012049E729
:101F0000207800F00400042807D12748006820F05A
:101F100070002169084324490860207800F0080017
:101F2000082809D12048001D006820F07000616970
:101F300008431D49091D0860207800F01000102892
:101F400009D11948001D006820F4E060A169084328
:101F50001549091D0860207800F02000202809D1CB
:101F600011480830006820F07000E16908430E490C
:101F70000831086000F01EF80B49096801F470612F
:101F80004FF4807292FAA2F2B2FA82F2D140074A7A
:101F9000515CC840064908600020FFF7BDF80020EA
:101FA000F8E600000020005218440258942E000861
:101FB0002400002070B5012500EE905A0022012176
:101FC00000230024DFED861AB0EE610ADFED841AEB
:101FD000B0EE611A0020834D2D6805F0380535B14B
:101FE000082D15D0102D15D0182D7CD114E07D4D65
:101FF000103D2D68C5F3401545B17A4D103D2D6853
:10200000C5F3C106784D25FA06F000E07648E5E014
:102010007648E3E07648E1E0724D18352D6805F02A
:102020000302704D18352D68C5F305116D4D1C3533
:102030002D6805F001036B4D24352D68C5F3CC05E3
:1020400015FB03F501EE905AF8EE611AB0EE610A45
:1020500022B1012A4FD0022A7DD16BE0614D103DA3
:102060002D68C5F340152DB35E4D103D2D68C5F3A9
:10207000C1065D4D25FA06F4B4FBF1F501EE905A68
:10208000B8EE612ADFED5B1AC0EE212A554D2035EE
:102090002D68C5F3080501EE905AF8EE611A72EE4C
:1020A000A11AF7EE002A71EEA21A62EE211AB0EE22
:1020B000611A1FE04C4DB5FBF1F501EE905AB8EEF8
:1020C000612ADFED4C1AC0EE212A464D20352D68DD
:1020D000C5F3080501EE905AF8EE611A72EEA11AE6
:1020E000F7EE002A00E077E071EEA21A62EE211A04
:1020F000B0EE611A5EE03D4DB5FBF1F501EE905A90
:10210000B8EE612ADFED3B1AC0EE212A354D2035AD
:102110002D68C5F3080501EE905AF8EE611A72EECB
:10212000A11AF7EE002A71EEA21A62EE211AB0EEA1
:10213000611A3FE02E4DB5FBF1F501EE905AB8EE75
:10214000612ADFED2C1AC0EE212A264D20352D689C
:10215000C5F3080500E00EE001EE905AF8EE611AB2
:1021600072EEA11AF7EE002A71EEA21A62EE211A9F
:10217000B0EE611A1EE01D4DB5FBF1F501EE905A6F
:10218000F8EE612ADFED1B1A80EE212A154D20356D
:102190002D68C5F3080501EE905AF8EE611A72EE4B
:1021A000211AB7EE002A71EE821A62EEA11AB0EE81
:1021B000611A00BF00BF0B4D20352D68C5F34625C1
:1021C0006D1C00EE905AF8EE601A81EE212AFCEEAA
:1021D000C21A11EE900A01E0044800BF00BF70BDB2
:1021E00000000000104402580090D00300093D0098
:1021F00040787D010000004670B504460025207837
:1022000000F00100002870D0F748006800F03800A6
:1022100010280CD0F448006800F03800182812D1BB
:10222000F1481830006800F0030002280BD1EE4896
:1022300010380068C0F34040002869D0606800286A
:1022400066D1012070BD00BF6068B0F5803F08D145
:10225000E5481038006840F48030E34910390860E0
:102260002EE0606868B9E0481038006820F48030DB
:10227000DD49103908600846006820F480200860B5
:102280001EE06068B0F5A02F0DD1D7481038006867
:1022900040F48020D449103908600846006840F4B2
:1022A000803008600CE0D0481038006820F480309E
:1022B000CD49103908600846006820F48020086085
:1022C00000BF606890B1FEF707FF054606E0FEF725
:1022D00003FF401B642801D90320B3E7C24810382C
:1022E0000068C0F340400028F1D011E0FEF7F4FE92
:1022F000054606E0FEF7F0FE401B642801D90320E6
:10230000A0E7B94810380068C0F340400028F1D178
:10231000207800F00200022847D1B348006800F09E
:10232000380058B1B048006800F0380018283ED195
:10233000AD481830006800F00300B8BBAA48103858
:102340000068C0F3800018B1E06808B9012079E79F
:10235000A5481038006820F01900E1680843A24938
:1023600010390860FEF7B8FE054606E0FEF7B4FE39
:10237000401B022801D9032064E79B4810380068FD
:10238000C0F380000028F1D097480C38006820F492
:102390007C304FF47C3292FAA2F2B2FA82F22169D6
:1023A0009140084390490C3908604AE0FFE7E06833
:1023B00068B38D481038006820F01900E1680843C0
:1023C000894910390860FEF787FE054606E0FEF7EA
:1023D00083FE401B022801D9032033E782481038CE
:1023E0000068C0F380000028F1D07F480C380068F6
:1023F00020F47C304FF47C3292FAA2F2B2FA82F2EC
:1024000021699140084378490C39086019E0764801
:102410001038006820F00100734910390860FEF799
:102420005BFE054606E0FEF757FE401B022801D979
:10243000032007E76C4810380068C0F380000028CC
:10244000F1D1207800F01000102877D1664800689C
:1024500000F0380008280CD06348006800F038000D
:10246000182823D160481830006800F003000128C4
:102470001CD15D4810380068C0F3002020B1E0692D
:10248000802801D00120DDE657480C38006820F094
:10249000F8404FF0F84292FAA2F2B2FA82F2216AC0
:1024A0009140084350490C39086047E0E06958B34F
:1024B0004D481038006840F080004B4910390860E2
:1024C000FEF70AFE054606E0FEF706FE401B022860
:1024D00001D90320B6E6444810380068C0F3002054
:1024E0000028F1D040480C38006820F0F8404FF048
:1024F000F84292FAA2F2B2FA82F2216A91400843BB
:1025000039490C39086019E037481038006820F064
:102510008000354910390860FEF7DEFD054606E00B
:10252000FEF7DAFD401B022801D903208AE62E4877
:1025300010380068C0F300200028F1D1207800F0A6
:102540000800082836D16069D0B127486430006897
:1025500040F00100244964310860FEF7BDFD0546E6
:1025600006E0FEF7B9FD401B022801D9032069E609
:102570001D4864300068C0F340000028F1D019E025
:1025800019486430006820F0010017496431086080
:10259000FEF7A2FD054606E0FEF79EFD401B022861
:1025A00001D903204EE6104864300068C0F34000B3
:1025B0000028F1D1207800F02000202834D1A06933
:1025C000D8B109481038006840F4805006491039E5
:1025D0000860FEF781FD054608E0FEF77DFD401B23
:1025E000022803D903202DE610440258AF480068A2
:1025F000C0F340300028F0D016E0AC48006820F46A
:102600008050AA490860FEF767FD054606E0FEF720
:1026100063FD401B022801D9032013E6A34800688C
:10262000C0F340300028F2D1207800F004000428E4
:102630007DD19F48006840F480709D490860FEF796
:102640004BFD054606E0FEF747FD401B642801D917
:102650000320F7E59648006800F480700028F2D067
:1026600000BFA068012808D190487030006840F091
:1026700001008E49703108602DE0A06868B98B4870
:102680007030006820F00100884970310860084609
:10269000006820F0040008601DE0A06805280DD146
:1026A00082487030006840F0040080497031086052
:1026B0000846006840F0010008600CE07B4870307C
:1026C000006820F001007949703108600846006810
:1026D00020F00400086000BFA068A0B1FEF7FCFC79
:1026E000054608E0FEF7F8FC401B41F288318842BD
:1026F00001D90320A6E56D4870300068C0F34000A2
:102700000028EFD013E0FEF7E7FC054608E0FEF7EF
:10271000E3FC401B41F28831884201D9032091E556
:10272000624870300068C0F340000028EFD1606A52
:1027300000287CD05D481030006800F03800182870
:1027400076D0606A022874D15848006820F0807002
:1027500056490860FEF7C0FC054606E0FEF7BCFCE3
:10276000401B022801D903206CE550480068C0F3E3
:1027700040600028F2D100BFD4E90A1041EA0010FD
:102780004A492831096840F2F332914308434749E6
:1027900028310860208E401EC0F30800616B491E7E
:1027A0004FF47E4202EA41210843218F491ED201A3
:1027B00002EA014108433C21095D491E120202EA76
:1027C0000161084339493031086000BF081D0068C5
:1027D0004FF6F87188434FF6F87292FAA2F2B2FA05
:1027E00082F2A16C914008433049343108602F488F
:1027F0002C30006820F00C00216C08432B492C3150
:1028000008600846006820F00200616C0843274910
:102810002C3108600846006840F4803008600846A3
:10282000006840F4003008600846006802E03BE0C1
:1028300038E01FE040F4802008600846006840F05F
:10284000010008601948006840F08070174908606E
:10285000FEF742FC054606E0FEF73EFC401B022860
:1028600001D90320EEE411480068C0F3406000285D
:10287000F2D019E00D48006820F080700B49086024
:10288000FEF72AFC054606E0FEF726FC401B022860
:1028900001D90320D6E405480068C0F34060002851
:1028A000F2D101E00120CDE40020CBE40044025845
:1028B0000048025870B504462546681EB0F1807F76
:1028C00001D301200FE0681E4FF0E02148610F2185
:1028D0004FF0FF3000F070FA00204FF0E0218861E7
:1028E00007200861002070BD00BFFEE700B587B07B
:1028F0001C216846FDF7F3FC1A481B4908604FF499
:1029000040204860002118488160C16004210161B5
:1029100000210175417501218161002101770121AB
:10292000416200218162C1620163416380F8381015
:1029300080F83910FEF75EF908B1FDF78CFD122022
:102940000090012001900720029000200390049045
:10295000059069460448FDF7DDFD08B1FDF77BFDF4
:1029600007B000BD006002582C00002008B500BF71
:102970000648006840F08000044908600846006886
:1029800000F08000009000BF00BF08BDE044025886
:1029900000BFFEE7704770472DE9F04104460E4640
:1029A00000274848006800F00300032802D10120F6
:1029B000BDE8F08143482838006820F08060414934
:1029C00028390860FEF788FB054606E0FEF784FB21
:1029D000401B022801D90320EAE73A48283800685A
:1029E000C0F3C0600028F1D100BF3648006820F471
:1029F0007C30216840EA013032490860A088401EDE
:102A0000C0F30800A168491E4FF47E4202EA41214A
:102A10000843A189491ED20102EA01410843217CF1
:102A2000491E120202EA016108432649103108607A
:102A300000BF2448001D006820F0C0006169084301
:102A40002049091D08600846006820F02000A1699F
:102A500008431C49091D08602EB90846006840F467
:102A60000020086012E0012E08D11648001D006801
:102A700040F480101349091D086007E01148001D4B
:102A8000006840F400100F49091D08600D482838FF
:102A9000006840F080600B4928390860FEF71CFB95
:102AA000054606E0FEF718FB401B022801D903206B
:102AB0007EE7044828380068C0F3C0600028F1D0E1
:102AC000384675E7284402582DE9F04104460E4681
:102AD00000274848006800F00300032802D10120C5
:102AE000BDE8F08143482838006820F08050414913
:102AF00028390860FEF7F0FA054606E0FEF7ECFA22
:102B0000401B022801D90320EAE73A482838006828
:102B1000C0F340700028F1D100BF3648006820F0B3
:102B20007C70218840EA015032490860A088401E2C
:102B3000C0F30800A168491E4FF47E4202EA412119
:102B40000843A189491ED20102EA01410843217CC0
:102B5000491E120202EA0161084326491831086041
:102B600000BF2448001D006820F4406061690843EC
:102B70002049091D08600846006820F40070A1691A
:102B800008431C49091D08602EB90846006840F436
:102B90008000086012E0012E08D11648001D006870
:102BA00040F400001349091D086007E01148001DAA
:102BB000006840F080700F49091D08600D482838F2
:102BC000006840F080500B4928390860FEF784FA0D
:102BD000054606E0FEF780FA401B022801D90320D3
:102BE0007EE7044828380068C0F340700028F1D020
:102BF000384675E728440258704710B5FEF772FA58
:102C000010BD000000B5CBB04C2138A8FDF767FB24
:102C1000202130A8FDF763FBBC2101A8FDF75FFB75
:102C20003948006820F004003749086000BF0020E0
:102C3000009035480C30006840F4404032490C3177
:102C400008600846006800F44040009000BF00BFE4
:102C500000BF2D480C30006800F40050B0F5005F54
:102C6000F7D12A48006820F00300801C274908603B
:102C7000012038900004399002204190022138A8A8
:102C80008162C16240210163022141638163C163AA
:102C90000C210164002141648164FFF7ADFA08B1A1
:102CA000FDF7D9FB3F203090032031900020329077
:102CB0000820339040203490359000013690402019
:102CC0003790022130A8FFF74DF808B1FDF7C3FB9C
:102CD0004FF400200190022002900C210391012169
:102CE0000491022105910691C021079120210891AC
:102CF000002109910020299001A8FEF797FA08B158
:102D0000FDF7A9FB4BB000BD0C48025828440258FF
:102D10002048006840F470001E4908601E480068A2
:102D200040F001001C49086000201B491031086078
:102D300019480068194908401749086000201649D9
:102D400018310860091D0860091D08601249283102
:102D50000860091D0860091D0860091D0860091D3B
:102D60000860091D0860091D0860091D08600A48FF
:102D7000006820F48020084908600020064960317E
:102D80000860012006490860C006024980390860D1
:102D90007047000088ED00E0004402587FEDF6EA3D
:102DA0000881005100BFFEE702480068C0F302201E
:102DB000704700000CED00E010B5002804DB0A07A6
:102DC000130E054A135406E00A07140E034A00F0D6
:102DD0000F031B1FD45410BD00E400E018ED00E009
:102DE00002E008C8121F08C1002AFAD170477047D4
:102DF000002001E001C1121F002AFBD17047000032
:102E0000FEF77CF9FFF7FEFEFFF7B0FDFFF76EFD62
:102E1000002211461848FDF71FFB2CE01648FEF76C
:102E2000ADF81548FDF7E2FE144908601448008823
:102E3000134920390988401A00EE100AB8EEC00B79
:102E40009FED101B81EE002B104880ED002B0C48ED
:102E50002038008809490968081A00EE100AB8EEFF
:102E6000401B0A4890ED002BB3EE0E0B02EE010B57
:102E7000074880ED000BD1E72C0000200000002067
:102E800040E8F11F0000000000005440080000204E
:102E900010000020000000000102030401020304EE
:102EA00006070809C42E0008000000202C000000BE
:102EB000E02D0008F02E00082C0000206404000023
:102EC000F02D0008000000000000000000000000DD
:102ED00000000000000000000000000000000000F2
:102EE00010000000010000000090D0030090D0030B
:040000050800029954
:00000001FF
