:020000040800F2
:1000000050040020AD0200089312000801120008FD
:1000100091120008F50200082F18000800000000E7
:10002000000000000000000000000000971200081F
:10003000F70200080000000095120008991200085D
:10004000C7020008C7020008C7020008C70200086C
:10005000C7020008C7020008C7020008C70200085C
:10006000C7020008C7020008C7020008C70200084C
:10007000C7020008C7020008C7020008C70200083C
:10008000C7020008C7020008C7020008C70200082C
:10009000C7020008C7020008C7020008C70200081C
:1000A000C7020008C7020008C7020008C70200080C
:1000B000C7020008C7020008C7020008C7020008FC
:1000C000C7020008C7020008C7020008C7020008EC
:1000D000C7020008C7020008C7020008C7020008DC
:1000E000C7020008C702000800000000C70200089D
:1000F000C7020008C7020008C7020008C7020008BC
:10010000C7020008C7020008C7020008C7020008AB
:10011000C7020008C7020008C7020008C70200089B
:10012000C7020008C7020008C7020008C70200088B
:10013000C7020008C7020008C7020008C70200087B
:1001400000000000000000000000000000000000AF
:10015000C7020008C7020008C7020008C70200085B
:10016000C7020008C7020008C7020008C70200084B
:10017000C7020008C7020008C7020008000000000C
:10018000C7020008C7020008C7020008C70200082B
:10019000C7020008C7020008C7020008C70200081B
:1001A000C7020008C7020008C7020008C70200080B
:1001B000C7020008C7020008C7020008C7020008FB
:1001C000C7020008C7020008C7020008C7020008EB
:1001D000C7020008C7020008C7020008C7020008DB
:1001E000C7020008C7020008C7020008C7020008CB
:1001F000C7020008C7020008C7020008C7020008BB
:10020000C7020008C7020008C7020008C7020008AA
:10021000C7020008C7020008C7020008C70200089A
:10022000C7020008C7020008C7020008000000005B
:10023000C7020008C702000800000000C70200084B
:10024000C7020008C7020008C7020008C70200086A
:10025000C7020008C7020008C7020008C70200085A
:10026000C7020008C7020008C7020008C70200084A
:10027000C7020008C7020008C7020008000000000B
:10028000C702000800000000C702000800000000CC
:1002900000000000C7020008DFF80CD000F018F8DA
:1002A00000480047711800085004002006488047A5
:1002B00006480047FEE7FEE7FEE7FEE7FEE7FEE74B
:1002C000FEE7FEE7FEE7FEE751130008990200088B
:1002D000064C074D06E0E06840F0010394E8070093
:1002E00098471034AC42F6D3FFF7DAFF1419000830
:1002F00034190008FEE770472DE9F84F6F4D0022D2
:100300004FF001094FF0030E4FF00F0B0B6809FA85
:1003100002F803EA0803434574D14C68022C01D06B
:10032000122C0FD1D4080E69570700EB8404A246A3
:10033000246AFF0E0BFA07FCBE4024EA0C04264395
:10034000CAF820600F79540006680EFA04FC07F022
:10035000030726EA0C06A740374307604E68012EC4
:1003600005D0022E03D0112E01D0122E0FD1866897
:10037000CF6826EA0C06A7403743876046680F79A6
:1003800026EA0806C7F30017974037434760C76857
:100390008E6827EA0C07A6403E43C6604C68E4001E
:1003A00030D5474C266846F002062660246822F0C5
:1003B000030606F1B04604F0020400949407270FE8
:1003C000D6F80844DFF8FC800BFA07FC404524EA25
:1003D0000C0402D14FF0000C41E0DFF8ECC06045A6
:1003E00002D14FF0010C3AE0DFF8E0C0604502D1E5
:1003F0004FF0020C33E0DFF8D8C0604503D14FF076
:10040000030C2CE053E0DFF8CCC0604502D14FF084
:10041000040C24E0DFF8C0C0604502D14FF0050CA9
:100420001DE0DFF8B8C0604502D14FF0060C16E0C1
:10043000DFF8ACC0604502D14FF0070C0FE0DFF8E9
:10044000A4C0604502D14FF0080C08E0DFF898C066
:10045000604502D14FF0090C01E04FF00A0C0CFA94
:1004600007FC4CEA040CC6F808C42C684E6824EA61
:100470000304F60300D51C432C606C684E6824EA24
:100480000304B60300D51C436C604FF0B0444F68C2
:100490002668FF0226EA030600D51E4326604F6841
:1004A0006668BF0226EA030600D51E436660521C3A
:1004B000102AFFF42BAFBDE8F88F00008000005831
:1004C000F444025800000258000402580008025880
:1004D000000C02580010025800140258001802586C
:1004E000001C02580020025800240258014880686D
:1004F0007047000000000020024881680278114423
:100500008160704700000020032010B500F082F8E1
:10051000002000F007F808B1012010BD00F022F81B
:10052000002010BD70B50D4D04464FF47A700C4A92
:1005300029781268B0FBF1F0B2FBF0F000F063FC38
:1005400048B9102C07D200222146501E00F042F874
:1005500000206C6070BD012070BD00000000002014
:100560000C0000201A4808B5016841F00201016042
:10057000006800F002000090032000F04BF8002219
:100580006FF00B00114600F025F800226FF00A0012
:10059000114600F01FF800226FF00900114600F02C
:1005A00019F80022501F114600F014F80022101F05
:1005B000114600F00FF80022901E114600F00AF8D4
:1005C0000022BDE80840501E114600F003B80000AC
:1005D000F44402580E4BF0B41B680D46C3F30223DB
:1005E000C3F10706042E00D90426191D072901D2DC
:1005F000002300E0DB1E012404FA06F19C40491EA2
:100600002940641E994014402143F0BC01F010B908
:100610000CED00E0064900F0070210B54FF6FF04AC
:100620000868044B204040EA02201843086010BDCF
:100630000CED00E00000FA052DE9F047DFF8C49169
:1006400004460E46D9F8000000F00700B0420CD274
:10065000D9F8001021F007013143C9F80010D9F88A
:10066000000000F00700B04272D12078DFF89881D6
:10067000800707D5E268D8F8001021F00F01114378
:10068000C8F800102078C00767D05F49A368D8F881
:100690000020183922F470621A43C8F800206068FC
:1006A00002281CD003281DD0096801281DD0490745
:1006B000002963DA544D083D296821F00701014300
:1006C0002960FFF713FF6168074641F2883002296D
:1006D00014D0032920D0012982462AD039E00968A4
:1006E0008903E5E709688901E2E7C905E0E700BF9A
:1006F000FFF7FCFEC11B514501D926E08246286860
:10070000C0F3C2000228F3D127E000BFFFF7EEFEDE
:10071000C11B514501D918E082462868C0F3C200C8
:100720000328F3D119E000BFFFF7E0FEC11B5145DC
:100730000BD82868C0F3C2000128F5D10DE000BF36
:10074000FFF7D4FEC11B514503D90320BDE8F08754
:1007500014E0286810F0380FF2D1D9F8001048469C
:1007600001F00701B1420BD9016821F007013143C3
:100770000160006800F00700B04201D00120E5E709
:100780002078400707D52269D8F8001021F07001C1
:100790001143C8F8001021781B48001D090705D532
:1007A0006269016821F07001114301602178C90676
:1007B00005D5A269016821F4E06111430160207848
:1007C000800607D51048E2690830016821F0700101
:1007D0001143016000F01EF8D8F800104FF4807249
:1007E00092FAA2F201F47061B2FA82F2D140074AA1
:1007F000515CC840064908600020FFF793FE0020C6
:10080000A4E7000000200052184402580419000810
:100810000C0000204749F0B547480968454B103B9C
:1008200011F0380409D00111082C04D0434A102CCF
:100830000BD0182C0BD00846F0BD19688906FBD5E3
:100840001968C1F3C101C840F0BD1046F0BD394C74
:10085000DFF8E0C01834261D0CF1240C2768351D84
:100860002468DFED370AB7EE001A3668DCF800C0FE
:1008700017F0030706F00106C4F30514CCF3CC0C03
:100880001CFB06F600EE106AB8EE400A09D0012FF4
:1008900001D0022F3BD02868B1FBF4F1C0F308006F
:1008A0003AE01968890615D51A682968C2F3C102A9
:1008B000C1F30801D04001EE901AB0FBF4F0F8EE5D
:1008C000611A40EE201A00EE100A71EE810AB8EEAD
:1008D000400A0BE02968B0FBF4F0C1F3080101EE17
:1008E000901AB8EE612A01EE900A1BE020EE200A71
:1008F0002868C0F34620401C00EE900AF8EE600A1B
:1009000080EE201ABCEEC10A10EE100AF0BD286875
:10091000B2FBF4F1C0F3080001EE900AB8EE612AD0
:1009200001EE901A00EE202AB8EE610A72EE010A7A
:10093000DCE70000104402580090D00340787D01AD
:10094000000000392DE9F047FF4C05460078DFF83C
:10095000F883103CFC4FC00708F118084CD03868E9
:10096000C0F3C20002281AD03868C0F3C2000328BE
:1009700005D1D8F8000000F0030002280FD0686805
:10098000B0F5803F12D010B1B0F5A02F18D020687C
:1009900020F480302060206820F4802009E0206866
:1009A000800329D56868002876D025E0206840F4C7
:1009B00080302060686890B1FFF798FD06460AE035
:1009C000206840F480202060F0E700BFFFF78EFD34
:1009D000801B64287ED820688003F7D50CE0FFF7E1
:1009E00085FD064605E000BFFFF780FD801B6428FB
:1009F000F0D820688003F7D42878D34E0C3E8007C7
:100A00005DD538684FF47C3A10F0380F13D0386851
:100A1000C0F3C200032803D1D8F8000080070AD031
:100A2000E868C0B3216821F0190101432160FFF794
:100A30005DFD814620E02068400702D5E868002877
:100A4000B2D0E968206820F0190008432060FFF761
:100A50004DFD814606E000BFFFF748FDA0EB090011
:100A60000228B7D820684007F6D508E0FFF73EFD1A
:100A7000A0EB09000228ADD820684007F6D5286908
:100A800032689AFAAAF1B1FA81F1884022F47C31F5
:100A90000143316013E000E0AAE0206820F001008B
:100AA0002060FFF723FD814606E000BFFFF71EFD33
:100AB000A0EB090002288DD820684007F6D42878DA
:100AC000C00649D538684FF0F84AC0F3C200012883
:100AD00017D000E0DAE03868C0F3C200032805D17F
:100AE000D8F8000000F0030001280AD0E8690028C7
:100AF000206822D040F080002060FFF7F7FC81469C
:100B00000CE02068C0050CD5E869802870D108E0A9
:100B1000FFF7ECFCA0EB09000228A2D82068C00572
:100B2000F6D5286A32689AFAAAF1B1FA81F18840BA
:100B300022F0F841014331600EE020F08000206097
:100B4000FFF7D4FC064604E0FFF7D0FC801B022828
:100B500087D82068C005F7D42878000729D57A48B7
:100B60006969643000298146016811D041F00101B2
:100B70000160FFF7BBFC064605E000BFFFF7B6FCCF
:100B8000801B022897D8D9F800008007F6D510E01E
:100B900021F001010160FFF7A9FC064605E000BF56
:100BA000FFF7A4FC801B022870D8D9F8000080074A
:100BB000F6D42878800625D5A8690028206810D0AA
:100BC00040F480502060FFF791FC064605E000BF2E
:100BD000FFF78CFC801B022858D820688004F7D5CA
:100BE00010E020F480502060FFF780FC064606E00D
:100BF000D7E000BFFFF77AFC801B022846D82068A8
:100C00008004F7D4287840074FD5DFF84091D9F811
:100C1000001041F48071C9F80010FFF767FC064628
:100C200005E000BFFFF762FC801B64282ED8D9F8CE
:100C30000000C005F6D5444EA868603601280AD0E9
:100C400008B1052813D0306820F00100306030680A
:100C500020F0040002E0306840F001003060A86835
:100C600041F2883A98B1FFF741FC81460AE03068CA
:100C700040F004003060EEE7FFF738FCA0EB09011C
:100C8000514503D830688007F6D50EE088E0FFF7BD
:100C90002DFC814606E000BFFFF728FCA0EB090110
:100CA00051457DD830688007F6D4686AE8B3396862
:100CB000C1F3C201032974D00228206820F080709B
:100CC000206003D0FFF712FC054685E0FFF70EFC1D
:100CD000064604E0FFF70AFC801B022879D820684A
:100CE0008001F7D4EB6A40F2F332D8F800104FF4E9
:100CF000FE0755F8286F914341EA03113143C8F8C4
:100D00000010287B4FF0FE4C0F4EB5F808804002D3
:100D10002B8A20362A7DA8F10108311DA0F500702C
:100D200080B25B1EC8F3080800E058E0521E07EAD4
:100D3000034340EA080018434FF6F8730CEA0262D6
:100D4000104330600A6803E010440258004802581B
:100D500093FAA3F72E6A24489A43B7FA87F7BE405E
:100D600032430A600168AA6921F00C011143016055
:100D70000168EA6921F0020111430160016841F450
:100D800080310160016841F400310160016841F483
:100D900080210160016841F001010160206801E0EB
:100DA00017E01EE040F080702060FFF79FFB0546D3
:100DB00005E000BFFFF79AFB401B022809D8206816
:100DC0008001F7D50BE000BFFFF790FB401B022826
:100DD00002D90320BDE8F08720688001F4D4002008
:100DE000F8E70120F6E700002C44025804284FF0F1
:100DF000E020016903D021F004010161704741F056
:100E00000401FAE77047401EB0F1807F10B501D3AE
:100E1000012010BD4FF0E02460610F21601700F049
:100E200007FD0020A0610721216110BD10B5FFF76B
:100E3000E9FF10BD70B590F83C20012A1FD00122B7
:100E400080F83C2002680F4C5368A242956802D09B
:100E50000D4CA24203D14C6823F4700323430C6869
:100E60008968002623F070031C43546025F0800538
:100E700002682943916080F83C60304670BD0220D2
:100E800070BD0000000001400004014010B50400E6
:100E900003D094F83D0010B107E0012010BD002000
:100EA00084F83C00204600F00DF8022084F83D0054
:100EB0002068211D00F090FA012084F83D000020F8
:100EC00010BD000008B500680649884208D10648F0
:100ED000016841F002010160006800F0020000902A
:100EE00008BD000000040040E844025870B5044604
:100EF00090F83C00012817D0394E012584F83C5069
:100F0000022084F83D0022689068304020F47F4041
:100F100090600868502838D00DDC20285AD005DCB5
:100F200090B3102842D152E0022070BD302854D036
:100F300040283BD140E060282FD070280BD0B0F57E
:100F4000805F03D0B0F5005F30D111E02068254A02
:100F50008168114016E04A682068D1E9021300F068
:100F6000A8FA21688868304040F0770088601DE06A
:100F70004A682068D1E9021300F09BFA2068816872
:100F800041F48041816011E01EE0CA684968206830
:100F900000F02AFC2068502106E0CA6849682068F1
:100FA00000F033FC2068602100F08CFA002084F807
:100FB0003D5084F83C0070BDCA684968206800F064
:100FC00013FC20684021EFE720680021ECE720684F
:100FD0001021E9E720682021E6E720683021E3E7D7
:100FE00088FFCEFFF8FFFEFF00B5006885B0084916
:100FF00088420BD10220032100220292CDE9001089
:10100000CDE9031003486946FFF776F905B000BD46
:10101000000400400004025870B5044690F83C00FB
:101020000D4601280ED0012684F83C60022084F889
:101030003D000C2A45D007DC5AB1042A1BD0082AEF
:1010400078D12CE0022070BD102A4ED0142A71D124
:101050005DE0206800F040FA2068816941F00801F5
:1010600081612068816921F00401816120682A6919
:101070008169114311E0206800F082FA20688169DB
:1010800041F4006181612068816921F4806181619E
:1010900020682969826942EA012181614AE0206869
:1010A00000F0BAFA2068C16941F00801C161206806
:1010B000C16921F00401C16120682A69C169114335
:1010C00011E0206800F0EEFA2068C16941F4006187
:1010D000C1612068C16921F48061C161206829690A
:1010E000C26942EA0121C16124E0206800F010FBDE
:1010F0002068416D41F0080141652068416D21F093
:101100000401416520682A69416D114311E020689E
:1011100000F034FB2068416D41F4006141652068B6
:10112000416D21F48061416520682969426D42EA80
:1011300001214165002084F83D6084F83C0070BDC9
:1011400010B5040003D094F83D0010B107E0012071
:1011500010BD002084F83C00204600F00CF802206E
:1011600084F83D002068211D00F036F9012084F844
:101170003D00002010BD704710B50268044631B133
:10118000042908D0082929D00C2908D12AE0D068E0
:1011900040F0020002E0D06840F00400D060206817
:1011A000012200F07BF91148216881420BD01048E0
:1011B000814208D00F48814205D00F48814202D0B9
:1011C0000E48814203D1486C40F4004048642068D6
:1011D000018841F001010180002010BDD06840F07D
:1011E0000800DBE7D06840F01000D7E700000140BE
:1011F000000401400040014000440140004801401B
:10120000FEE7000021484FF6FF7110B500241E4B89
:101210008EB08022C0E90034C0E9024104618261DD
:10122000FFF734FE00B1FEE74FF480500A901748F4
:101230000AA9FFF75BFE00B1FEE71448FFF780FF45
:1012400000B1FEE7114807A907940994FFF7F2FDE2
:1012500000B1FEE76020049402224FF400418DE8C3
:1012600007000A4808226946FFF7D6FE00B1FEE7EC
:1012700006480C226946FFF7CFFE00B1FEE703489F
:10128000FFF7B2FE0EB010BD0004004010000020B9
:10129000FEE770477047704710B5FFF72DF9BDE8BE
:1012A0001040FFF7C3BD0000274830B59DB001686E
:1012B00021F00401016024480C300025016841F44C
:1012C00040410160016801F440411B9101688904BB
:1012D000FCD502200990402401210091C203019213
:1012E0000A900FABCDE90B040C210D900E9083E812
:1012F000230068461295FFF725FB00B1FEE70822A0
:101300001A94CDE91624D30113AA3F200321CDE975
:10131000184382E82300022113A8FFF78DF900B1DA
:10132000FEE70A494FF47A700968B1FBF0F0FFF765
:101330006AFD0420FFF75AFD0022501E1146FFF7F8
:1013400049F91DB030BD00000C4802580C000020C7
:101350001D4AF0B51D49146800201C4B44F470046C
:10136000146010330A681A4C42F001020A601860D7
:101370000D68164A25400D601832131D1C1D134DB3
:101380001060283518602A1D2060131D1C1D286060
:10139000251D10602A1D1860131D20601C1D28606B
:1013A0001060186020600A680124084B064FE606AA
:1013B000084D6033803F22F480220A601860C5F82F
:1013C00008413E60F0BD000088ED00E00044025896
:1013D0007FEDF6EA008000512DE9F047274B4FF0F2
:1013E000804A274D02889842264E274F274C09D025
:1013F000504507D0A84205D0B04203D0B84201D032
:10140000A04205D1D1F804C022F070024CEA0202D9
:10141000DFF87CC0DFF87C809842DFF87C900FD04A
:1014200050450DD0A8420BD0B04209D0B84207D0E9
:10143000A04205D0604503D0404501D0484503D1C6
:10144000CD6822F440722A438D8A22F080022A431A
:10145000028098428A68C2620A88028507D0A04248
:1014600005D0604503D0404501D0484501D1098AE7
:10147000018601214161BDE8F087000000000140C4
:101480000004004000080040000C0040000401403F
:1014900000400140004401400048014010B5046A8A
:1014A00001238A408B409C430462016A114301621C
:1014B00010BD42EA032283680A4323F47F410A43B2
:1014C00082607047034B82681A400A4342F007016A
:1014D000816070478FFFCFFF2DE9F04F026ADFF880
:1014E0008880DFF8889022F00102DFF884A0DFF81E
:1014F00084B0214F0262DFF884C0066A42688369C3
:1015000026F002060D68B8428C6803EA0C0323F04B
:10151000030344EA060445EA030507D0404505D025
:10152000484503D0504501D0584505D1CB6824F03B
:101530000804234323F00404B84207D0404505D0F3
:10154000484503D0504501D0584505D122F4407696
:10155000D1E9053233431A434260856149684163EA
:101560000462BDE8F08F000000040140004001402B
:101570000044014000480140000001408FFFFEFF91
:10158000F0B5026A1E4E1F4C22F01002DFF878E020
:101590000262056A4368826925F02005D1F808C017
:1015A000A0420F6802EA060222F4407245EA0C15D6
:1015B00042EA072201D0704506D1CE6825F08005A9
:1015C00045EA061525F04005A0420AD0704508D02E
:1015D0000E4CA04205D00E4CA04202D00D4CA042B1
:1015E00007D1D1E9054623F4406343EA840343EA83
:1015F000860343608261496881630562F0BD000033
:10160000FF8FFFFE00000140000401400040014048
:101610000044014000480140F0B5026A1C4D1D4ED7
:1016200022F48072A8420262026A4368C76922F407
:101630000072D1F808C00C6827F0730742EA0C2248
:1016400044EA070401D0B04206D1CF6822F4006218
:1016500042EA072222F48062A8420AD0B04208D0AF
:101660000D4DA84205D00D4DA84202D00C4DA84208
:1016700007D1D1E9055623F4405343EA051343EA61
:1016800006134360C4614968C1630262F0BD000093
:1016900000000140000401400040014000440140BE
:1016A0000048014070B5026A144B22F48052026275
:1016B0009842036A4268C46923F400538E680D6837
:1016C00024F4E64443EA063344EA05240BD00C4DE7
:1016D000A84208D00B4DA84205D00B4DA84202D01D
:1016E0000A4DA84204D14D6922F4804242EA851293
:1016F0004260C46149680164036270BD000001403A
:101700000004014000400140004401400048014005
:10171000F0B5026A22F480320262134F056A426811
:10172000446D25F400350E89B8420B6824F070042E
:1017300045EA064543EA04030BD00C4CA04208D00E
:101740000B4CA04205D00B4CA04202D00A4CA04248
:1017500004D14C6922F4803242EA0422426043659B
:10176000496881650562F0BD000001400004014048
:10177000004001400044014000480140F0B5026AC9
:1017800022F480120262134F046A4268436D24F40B
:1017900000140E89B8420D6823F4E04344EA06546D
:1017A00043EA05230BD00C4DA84208D00B4DA842AC
:1017B00005D00B4DA84202D00A4DA84204D14D6974
:1017C00022F4003242EA8522426043654968C165DD
:1017D0000462F0BD000001400004014000400140EF
:1017E000004401400048014010B5036A046A23F038
:1017F0000A0324F00104046284690B4324F0F0011D
:1018000041EA02118161036210BD10B5036A23F041
:10181000100303628369046A23F4704324F0A00474
:1018200043EA0232826144EA0111016210BDFEE71F
:10183000090700284FEA116104DB00F1E02080F87D
:101840000014704700F00F0000F1E02080F8141D34
:10185000704702E008C8121F08C1002AFAD1704779
:101860007047002001E001C1121F002AFBD1704720
:1018700000254FF6FF7634462F4608B5FEF744FEA6
:10188000FFF712FD1D48016841F080010160016809
:1018900001F080010091016841F0020101600068DF
:1018A00000F002000090FFF7ADFC15480C21FFF797
:1018B00063FC13480821FFF75FFC1148012140F247
:1018C0008D230AE005B9012104B90127B54200D1F1
:1018D0000021B44200D1002719B10268D5636D1C04
:1018E00002E00268D5636D1E026814640FB1641CC7
:1018F00000E0641E1A46521EFDD2E3E7E04402589F
:101900001000002000000000010203040102030493
:101910000607080934190008000000201000000024
:10192000521800084419000810000020400400006C
:101930006218000801000000100000000000000014
:041940000090D00340
:040000050800029954
:00000001FF
