:020000040800F2
:10000000682D0020AD020008A52D00084F2800082B
:10001000A12D00081903000881320008000000002B
:10002000000000000000000000000000A1300008F7
:100030003504000800000000A72D0008A3300008C8
:10004000C7020008C7020008C7020008C70200086C
:10005000C7020008C7020008C7020008C70200085C
:10006000C7020008C7020008C7020008C70200084C
:10007000C7020008C7020008C7020008C70200083C
:10008000C7020008C7020008C7020008C70200082C
:10009000C7020008C7020008C7020008C70200081C
:1000A000C7020008C7020008C7020008C70200080C
:1000B000C7020008C7020008C7020008C7020008FC
:1000C000C7020008C7020008C7020008C7020008EC
:1000D000C7020008C7020008C7020008C7020008DC
:1000E000C7020008C702000800000000C70200089D
:1000F000C7020008C7020008C7020008C7020008BC
:10010000C7020008C7020008C7020008C7020008AB
:10011000C7020008C7020008C7020008C70200089B
:10012000C7020008C7020008C7020008C70200088B
:10013000C7020008C7020008C7020008C70200087B
:1001400000000000000000000000000000000000AF
:10015000C7020008C7020008C7020008C70200085B
:10016000C7020008C7020008C7020008C70200084B
:10017000C7020008C7020008C7020008000000000C
:10018000C7020008C7020008C7020008C70200082B
:10019000C7020008C7020008C7020008C70200081B
:1001A000C7020008C70200081D030008C7020008B4
:1001B000C7020008C7020008C7020008C7020008FB
:1001C000C7020008C7020008C7020008C7020008EB
:1001D000C7020008C7020008C7020008C7020008DB
:1001E000C7020008C7020008C7020008C7020008CB
:1001F000C7020008C7020008C7020008C7020008BB
:10020000C7020008C7020008C7020008C7020008AA
:10021000C7020008C7020008C7020008C70200089A
:10022000C7020008C7020008C7020008000000005B
:10023000C7020008C702000800000000C70200084B
:10024000C7020008C7020008C7020008C70200086A
:10025000C7020008C7020008C7020008C70200085A
:10026000C7020008C7020008C7020008C70200084A
:10027000C7020008C7020008C7020008000000000B
:10028000C702000800000000C702000800000000CC
:1002900000000000C7020008DFF80CD000F02AF8C8
:1002A0000048004759330008682D00200648804761
:1002B00006480047FEE7FEE7FEE7FEE7FEE7FEE74B
:1002C000FEE7FEE7FEE7FEE7ED31000899020008D1
:1002D00040EA01039B0703D009E008C9121F08C0C8
:1002E000042AFAD203E011F8013B00F8013B521E48
:1002F000F9D27047064C074D06E0E06840F0010374
:1003000094E8070098471034AC42F6D3FFF7C8FFD3
:10031000DC340008FC34000800BFFEE710B50248DA
:1003200000F0C4F910BD00002C0000202DE9F047BA
:100330000C4616461F46DDF820C04FF00008002589
:10034000002100220023D0F80090D9F8449009F051
:10035000404ADFF8DC9099FAA9F9B9FA89F907FA65
:1003600009F949EA0C094AEA090AD0F80090C9F8E3
:1003700044A0D0F80090C9F83C60D0F80490B9F5DA
:10038000403F4ED104F07F4504F47F0104F47F42E6
:10039000E3B2D0F80890B9F1000F06D142EA0109A2
:1003A00049EA050949EA030836E0D0F80890B9F1AE
:1003B000010F04D142EA010949EA03082CE0D0F810
:1003C0000890B9F1020F09D1C90C920ADB084FEA73
:1003D000421949EAC12949EA03081DE0D0F808900A
:1003E000B9F1030F0CD1ED0FC90CD20ADB084FEAAB
:1003F000421949EA812949EAC53949EA03080BE06B
:100400002D0F090D120B1B094FEA021949EA0129A8
:1004100049EA053949EA0308D0F80090C9F838805C
:1004200003E0D0F80090C9F80C40BDE8F087000068
:100430000000FF3F704730B50246002300240868E3
:10044000012816D013686FF30E03D1E90105284384
:10045000CD6828430D6928434D6928438D69284399
:10046000CD6928430D6A28434D6A2843034313602E
:1004700019E0136823F4F843D1E9070528434D6ACE
:100480002843034354686FF30E04D1E90105284360
:10049000CD6828430D6928434D6928438D69284359
:1004A000044313605460002030BD0246506940EAA6
:1004B000410050610020704718B5034600200090AD
:1004C000D1E9000420438C68641E40EA4410CC68E3
:1004D00040EA4420009000981861002018BD0000F8
:1004E00070B50346154600220024012D1FD09A68DE
:1004F00002F070420868401E4E68761E40EA0616FA
:100500008868401E46EA0026C868401E46EA003653
:10051000088A401E46EA0046888A401E46EA00567F
:10052000087E401E46EA006002439A6022E09A6814
:1005300011480240C868401E0603888A401E46EAE9
:1005400000500243DC6804F070440868401E4E68A6
:10055000761E40EA06168868401E46EA0026088A8B
:10056000401E46EA0046087E401E46EA00600443FC
:100570009A60DC60002070BDFF0F0FFF7047000025
:10058000F0B502460C46C4EBC40602F1200000EBB5
:100590008601002500235068B0F5403F02D0506826
:1005A00000B100BF00BF92F85800012801D102201D
:1005B000F0BD012082F8580000BF022082F85900E7
:1005C0004FF4403797FAA7F7B7FA87F7D1E9010652
:1005D000BE4030434FF4801797FAA7F7B7FA87F772
:1005E0000E69BE4030434FF4001797FAA7F7B7FAE9
:1005F00087F74E69BE4040EA06032B4D48680A283B
:1006000002D04868092804D1C86800F07F4003433D
:1006100008E04FF07F4696FAA6F6B6FA86F6C86866
:10062000B0400343A4B91068406AA8431843166851
:10063000706208681668B06148680A2802D0486885
:10064000092827D1C86820F07F401668B06221E0F1
:1006500048680B280AD14FF4402696FAA6F6B6FA57
:1006600086F68869B040034345F440251068C069A8
:10067000A84318431668F061086816683061486836
:100680000A2802D04868092804D1C86820F07F40B1
:1006900016683062012082F8590000BF002082F8FD
:1006A000580000BF00BF83E70F0033FF70B504465A
:1006B000206845682068066805F00100E0B106F48E
:1006C0008070C8B12068006820F4807021680860DC
:1006D000E06D40F00100E0650120216888600420A1
:1006E00084F8590000BF002084F8580000BFE0697A
:1006F00010B12046E169884705F02000E0B106F41A
:100700000050C8B12068006820F4005021680860DB
:10071000202021688860E06D40F00200E065042040
:1007200084F8590000BF002084F8580000BFE06939
:1007300010B12046E169884705F00800E0B106F4F1
:100740000060C8B12068006820F40060216808607B
:10075000082021688860E06D40F00400E065042016
:1007600084F8590000BF002084F8580000BFE069F9
:1007700010B12046E169884705F0040070B106F425
:10078000806058B12068006820F4806021680860AB
:10079000042021688860204600F089F805F00200F6
:1007A000D0B106F40070B8B12068006820F4007081
:1007B00021680860022021688860E06DE065012002
:1007C00084F8590000BF002084F8580000BFA069D9
:1007D00010B12046A169884705F01000C0B106F4A9
:1007E0008050A8B12068006820F48050216808601B
:1007F000102021688860E06DE065012084F85900D0
:1008000000BF002084F8580000BF2046FFF7B6FE66
:1008100070BD10B504460CB9012010BD94F8590004
:1008200028B9002084F85800204600F041F8022042
:1008300084F859002068006820F44030616808435B
:10084000216808602068406B20F00700A168084319
:10085000216848632068006C6FF30D00E16808436D
:10086000216808642068406B20F480104FF48012E7
:1008700092FAA2F2B2FA82F2216991400843216809
:1008800048632068406B20F400104FF4001292FA85
:10089000A2F2B2FA82F2616991400843216848638A
:1008A0000020E065012084F859000020B5E770477A
:1008B00008B5094A016891420DD100BF074909688E
:1008C00041F01001054A11601146096801F010015C
:1008D000009100BF00BF08BD00100052D444025870
:1008E0002DE9F84304460D4616461F46DDF82080E4
:1008F00000BF94F85800012802D10220BDE8F88317
:10090000012084F8580000BF022084F859003B46BB
:10091000324629462046CDF80080FFF707FD2068C3
:10092000006840F40C50216808602068006840F0BE
:100930000100216808600020E0E7000070B504466F
:1009400000F0AEF906462546681C10B10448007850
:10095000054400BF00F0A4F9801BA842FAD370BD83
:100960002000002000B587B03048006808B107B00B
:1009700000BD01202D49086000BF2D48006840F4EB
:1009800080502B4908600846006800F480500190B0
:1009900000BF00BF4FF63F000290022003900020EE
:1009A0000490032005900C20069002A9214800F035
:1009B0004BF80D20029002200390002004900320A9
:1009C00005900C20069002A91B4800F03DF848F263
:1009D000371002900220039000200490032005901D
:1009E0000C20069002A9154800F02EF84FF68370EF
:1009F00002900220039000200490032005900C2018
:100A0000069002A90E4800F01FF84CF20370029005
:100A10000220039000200490032005900C200690F3
:100A200002A9084800F010F800BFA0E7100000205D
:100A3000D444025800140258000802580018025802
:100A400000100258000C0258F8B502460B4600216F
:100A5000002600240020824D00BFFCE0012707FA99
:100A600001F61F6807EA0604B4427CD15F68022FD2
:100A700002D05F68122F1AD14FEAD10C02F1200781
:100A800057F82C004F074FEAD76C0F2707FA0CF7DF
:100A9000B8434FEA417C4FEADC6C1F6907FA0CF758
:100AA00038434FEAD10C02F1200747F82C001068B8
:100AB0004FEA410C032707FA0CF7B8431F7907F0F8
:100AC00003074FEA410C07FA0CF7384310605F68E0
:100AD000012F08D05F68022F05D05F68112F02D068
:100AE0005F68122F17D190684FEA410C032707FA6D
:100AF0000CF7B8434FEA410CDF6807FA0CF73843AC
:100B00009060506801278F40B8431F79C7F30017E2
:100B10008F4038435060D0684FEA410C032707FAF2
:100B20000CF7B8434FEA410C9F6807FA0CF73843BB
:100B3000D0605F6807F08057B7F1805F95D100BF44
:100B4000484F3F6847F00207DFF818C1CCF8007043
:100B500067463F6807F00207009700BF00BF424F9B
:100B60004FEA910C00E075E057F82C008F074FEA30
:100B7000177C0F2707FA0CF7B8433C4FBA4201D154
:100B800000272DE03A4FBA4201D1012728E0394F22
:100B9000BA4201D1022723E0374FBA4201D10327DD
:100BA0001EE0364FBA4201D1042719E0344FBA4251
:100BB00001D1052714E0334FBA4201D106270FE0D7
:100BC000314FBA4201D107270AE0304FBA4201D172
:100BD000082705E02E4FBA4201D1092700E00A2775
:100BE0004FEA817C4FEA1C7C07FA0CF738431E4F12
:100BF0004FEA910C47F82C002868A0435F6807F47F
:100C00008037B7F5803F00D1204328606868A04353
:100C10005F6807F40037B7F5003F00D120436860F4
:100C20004FF0B0473868A0435F6807F48017B7F506
:100C3000801F00D120434FF0B04738607868A04350
:100C40005F6807F40017B7F5001F00D120434FF08D
:100C5000B0477860491C1029FFF400AFF8BD0000D0
:100C600080000058F444025808040058000002585C
:100C70000004025800080258000C025800100258E4
:100C80000014025800180258001C02580020025894
:100C9000002402580AB1018300E04183704700003C
:100CA00001480068704700001800002003480068F1
:100CB000034909780844014908607047180000207A
:100CC0002000002010B5032000F0D8F9002000F02B
:100CD00007F808B1012010BD00F046F90020FAE73E
:100CE00070B504460E4800784FF47A71B1FBF0F00D
:100CF0000C490968B1FBF0F5284601F08AFD08B1FE
:100D0000012070BD102C07D200222146501E00F099
:100D100077F90548046001E00120F2E70020F0E7E0
:100D200020000020240000201C00002070B5044694
:100D30000E46154600BF94F8A000012801D10220FC
:100D400070BD012084F8A00000BF022084F8A1003B
:100D500005EB850101EBC50204F1380101EB8200CE
:100D600034223146FFF7B4FA2A463146204601F0D4
:100D700070FD01202168486284F8A10000BF0020B6
:100D800084F8A00000BF00BFDAE7000070B5044699
:100D9000002500260CB9012070BD94F8A10028B9E7
:100DA000002084F8A000204600F07EF8022084F89D
:100DB000A1002068806920F0704021688861D4E932
:100DC00001010843E16808432169084321688969F2
:100DD000084321688861206880683249084021689A
:100DE0008860A08A050420688068A16929430843B7
:100DF000216888602068C0682A4908402168C86066
:100E0000A08B05042068C068216A29430843216833
:100E1000C860206800692349084021680861A08CE7
:100E2000050420680069A16A294308432168086114
:100E3000206840691B49084021684861A08D05046D
:100E400020684069216B294308432168486194F870
:100E50003500050294F8360006042068C06A00F0E8
:100E60007F402168C86246EA050094F834100843C0
:100E70002168C96A08432168C8622068406B40F055
:100E80000600216848632068806940F001002168FD
:100E900088610020C4F8A400012084F8A10000208B
:100EA0007AE7000000F800F010B586B00446284943
:100EB0002068884249D100BF2648006840F00800F9
:100EC000244908600846006800F00800009000BF50
:100ED00000BF40F2F76001900220029000200390D2
:100EE000032004900E20059001A91B48FFF7ACFDDC
:100EF0004FF48060019002200290002003900320B4
:100F000004900E20059001A91448FFF79DFD4FF4B1
:100F10007E40019002200290002003900320049064
:100F20000E20059001A90E48FFF78EFD4FF40C60CE
:100F300001900220029000200390032004900E20D4
:100F4000059001A90748FFF77FFD06B010BD00001E
:100F500000100050E44402580020025800140258C7
:100F6000001C02580018025808B500BF1B48006852
:100F700040F00200194908600846006800F00200CD
:100F8000009000BF00BF032000F078F80022114657
:100F90006FF00B0000F034F8002211466FF00A00E9
:100FA00000F02EF8002211466FF0090000F028F83A
:100FB00000221146501F00F023F800221146101F96
:100FC00000F01EF800221146901E00F019F80022D1
:100FD0001146501E00F014F808BD0000F4440258F9
:100FE00001460846002809DB00F01F0301229A4051
:100FF00043099B0003F1E023C3F8002100BF7047C1
:101000002DE9F05F80460D46164602F03DF9074691
:1010100039462A46334601F00700C0F1070ABAF103
:10102000040F02D94FF0040A01E0C0F1070AD146CB
:1010300000F1040ABAF1070F02D24FF0000A01E0F2
:10104000A0F1030AD4464FF0010A0AFA09FAAAF1FC
:10105000010A0AEA020A0AFA0CFA4FF0010B0BFA2B
:101060000CFBABF1010B0BEA030B4AEA0B04214624
:10107000404602F011F9BDE8F09F000000BF00F00B
:101080000702064B19684FF6FF031940044B0B4348
:1010900043EA0221014B196000BF70470CED00E0EC
:1010A0000000FA052DE9F0410446002500262068DD
:1010B00000F00060B0F1006F30D1606E48B1B0F563
:1010C000801F0DD0B0F5001F10D0B0F5401F15D116
:1010D00013E0F948006840F40030F74908600FE079
:1010E0000221201D01F060FE054609E0022104F105
:1010F000240001F0F1FE054602E001E0012500BFF9
:1011000000BF55B9EC482430006820F44010616EEF
:101110000843E9492431086000E02E43208800F4A8
:101120008070B0F5807F2DD1606D05281AD2DFE880
:1011300000F0030A10171800DF48006840F4003080
:10114000DD49086010E00021201D01F02DFE05465C
:101150000AE0002104F1240001F0BEFE054603E090
:1011600002E001E0012500BF00BF55B9D24824309C
:10117000006820F00700616D0843CF492431086002
:1011800000E02E43208800F40070B0F5007F33D1DA
:10119000A06D802817D003DC40B140281CD10CE0A2
:1011A000C02817D0B0F5807F16D114E0C24800687F
:1011B00040F40030C049086010E00021201D01F01B
:1011C000F3FD05460AE0002104F1240001F084FE4D
:1011D000054603E002E001E0012500BF00BF55B96C
:1011E000B5482430006820F4E070A16D0843B2498E
:1011F0002431086000E02E43208800F48060B0F5C0
:10120000806F38D1D4F8A400B0F5800F19D004DC79
:1012100050B1B0F5001F1DD10DE0B0F5C00F17D0D3
:10122000B0F5000F16D114E0A348006840F4003078
:10123000A149086010E00021201D01F0B5FD054620
:101240000AE0002104F1240001F046FE054603E017
:1012500002E001E0012500BF00BF5DB996482C30D7
:10126000006820F46000D4F8A410084392492C319F
:10127000086000E02E43208800F40060B0F5006FA5
:1012800038D1D4F8A800B0F1007F19D004DC50B1F7
:10129000B0F1807F1DD10DE0B0F1407F17D0B0F1EB
:1012A000806F16D114E08448006840F40030824911
:1012B000086010E00021201D01F076FD05460AE0DF
:1012C000002104F1240001F007FE054603E002E0DE
:1012D00001E0012500BF00BF5DB977482C300068F0
:1012E00020F0E060D4F8A810084373492C3108605E
:1012F00000E02E43206800F00070B0F1007F27D19D
:10130000A06CA0B1102804D0202809D030280FD11B
:101310000CE06948006840F400306749086009E063
:101320000221201D01F040FD054603E002E001E03E
:10133000012500BF00BF55B95F482030006820F08C
:101340003000A16C08435C492031086000E02E4366
:10135000208800F48050B0F5805F36D1E06DB0F5A4
:10136000005F19D004DC50B1B0F5805F1DD10DE0F5
:10137000B0F5405F17D0B0F5804F16D114E04E485D
:10138000006840F400304C49086010E00021201D46
:1013900001F00AFD05460AE0002104F1240001F0F5
:1013A0009BFD054603E002E001E0012500BF00BF10
:1013B00055B941482430006820F4E040E16D08430D
:1013C0003D492431086000E02E43208800F400509D
:1013D000B0F5005F34D1206EB0F5403F1DD007DC82
:1013E00068B1B0F5803F0BD0B0F5003F18D10DE0EB
:1013F000B0F5802F12D0B0F5A02F11D10FE011E081
:101400000121201D01F0D0FC05460BE0012104F173
:10141000240001F061FD054604E003E002E001E084
:10142000012500BF00BF55B923482430006820F4CF
:10143000E020216E084320492431086000E02E435B
:10144000208800F48040B0F5804F38D1D4F8AC004B
:10145000B0F1405F1DD007DC68B1B0F1805F0BD008
:10146000B0F1005F18D10DE0B0F1804F12D0B0F1B3
:10147000A04F11D10FE011E00121201D01F094FCDB
:1014800005460BE0012104F1240001F025FD05468D
:1014900004E003E002E001E0012500BF00BF6DB9F8
:1014A00005482C30006820F0E040D4F8AC10084328
:1014B00001492C31086002E02C4402582E43208858
:1014C00000F40040B0F5004F26D1E06E98B1B0F1C5
:1014D000805F03D0B0F1005F0ED106E0FA480068EB
:1014E00040F40030F849086008E00121201D01F0B7
:1014F0005BFC054602E001E0012500BF00BF55B9D5
:10150000F1482430006820F04050E16E0843EE4975
:101510002431086000E02E43206800F08070B0F1B4
:10152000807F27D1606CA0B1012804D0022809D0A7
:1015300003280FD10CE0E448006840F40030E24991
:10154000086009E00221201D01F02EFC054603E0A1
:1015500002E001E0012500BF00BF55B9DA482030A4
:10156000006820F00300616C0843D749203108600F
:1015700000E02E43206800F48000B0F5800F7DD19C
:10158000D248006840F48070D0490860FFF788FBBB
:10159000074606E0FFF784FBC01B642801D903253A
:1015A00005E0CA48006800F480700028F2D000BF4F
:1015B0008DBBC5484430006800F44070B4F8B010EA
:1015C00001F44071884214D0BF484430006820F4D0
:1015D0004078BD484430006840F48030BA49443116
:1015E00008600846006820F4803008600846C0F8AB
:1015F0000080D4F8B000B0F5807F15D1FFF750FB24
:10160000074609E0FFF74CFBC01B41F288318842D6
:1016100002D9032507E038E0AB4844300068C0F346
:1016200040000028EED000BF4DBB00BFB4F8B000B2
:1016300000F44070B0F5407F0ED1A3481C3800681C
:1016400020F47C51A24AD4F8B000104041EA1010B6
:101650009D491C39086007E09B481C38006820F44D
:101660007C5099491C390860974844300068B4F8A8
:10167000B010C1F30B010843934901E006E002E01A
:101680004431086002E02E4300E02E43207800F051
:10169000010068B3A06F182819D005DC48B10828EC
:1016A00008D0102816D10BE0202811D0282811D1FD
:1016B0000FE011E00121201D01F076FB05460BE053
:1016C000012104F1240001F007FC054604E003E0D9
:1016D00002E001E0012500BF00BF55B97A4828307B
:1016E000006820F03800A16F08437749283108606E
:1016F00000E02E43207800F00200022828D1606F1D
:10170000062815D2DFE800F003040A11121311E0D5
:101710000121201D01F048FB05460BE0012104F1E9
:10172000240001F0D9FB054604E003E002E001E0FB
:10173000012500BF00BF55B963482830006820F07C
:101740000700616F084360492831086000E02E43BC
:10175000207800F0040004282AD1D4F8900006284C
:1017600015D2DFE800F003040A11121311E0012181
:10177000201D01F019FB05460BE0012104F12400B6
:1017800001F0AAFB054604E003E002E001E00125C8
:1017900000BF00BF5DB94C482C30006820F0070046
:1017A000D4F89010084348492C31086000E02E43DB
:1017B000207800F02000202836D1D4F88C00B0F139
:1017C000405F1DD007DC68B1B0F1805F0BD0B0F195
:1017D000005F18D10DE0B0F1804F12D0B0F1A04FF2
:1017E00011D10FE011E00021201D01F0DDFA0546C6
:1017F0000BE0022104F1240001F06EFB054604E039
:1018000003E002E001E0012500BF00BF5DB92E4802
:101810002830006820F0E040D4F88C1008432A49B2
:101820002831086000E02E43207800F04000402876
:1018300036D1D4F89800B0F5406F1DD007DC68B100
:10184000B0F5806F0BD0B0F5006F18D10DE0B0F59A
:10185000805F12D0B0F5A05F11D10FE011E0002140
:10186000201D01F0A1FA05460BE0022104F124003D
:1018700001F032FB054604E003E002E001E001254F
:1018800000BF00BF5DB910482C30006820F4E05064
:10189000D4F8981008430C492C31086000E02E431E
:1018A000207800F0800080283BD1D4F89C00B0F56F
:1018B000C04F24D00EDCA0B1B0F5005F12D0B0F55F
:1018C000804F1FD114E000002C44025800480258F9
:1018D000FFFCFF0FB0F5004F12D0B0F5204F11D133
:1018E0000FE011E00021201D01F05EFA05460BE03B
:1018F000022104F1240001F0EFFA054604E003E0C0
:1019000002E001E0012500BF00BF4DB9B248006808
:1019100020F46040D4F89C100843AF49086000E010
:101920002E43207800F00800082816D1D4F8800053
:10193000B0F5805F06D1022104F1240001F0CCFA59
:1019400006430AE0A448001F006820F44050D4F881
:1019500080100843A049091F0860207800F010009B
:10196000102814D1D4F89400B0F5807F06D102215C
:1019700004F1240001F0B0FA064308E0964800683C
:1019800020F44070D4F8941008439349086020680C
:1019900000F40020B0F5002F26D1D4F8A00030B11B
:1019A000B0F5803F09D0B0F5003F0ED10CE000212A
:1019B000201D01F0F9F9054609E0022104F1240097
:1019C00001F08AFA054602E001E0012500BF00BFF0
:1019D0004DB98148006820F44030D4F8A010084385
:1019E0007D49086000E02E43206800F48020B0F5B7
:1019F000802F2DD1D4F88400B0F5801F06D0B0F52B
:101A0000001F0CD0B0F5401F11D10FE072482C38E8
:101A1000006840F4003070492C39086009E0012169
:101A200004F1240001F058FA054602E001E0012526
:101A300000BF00BF5DB96848001F006820F4401077
:101A4000D4F8841008436449091F086000E02E435D
:101A5000206800F48030B0F5803F24D1E06C18B1EC
:101A6000B0F5803F0FD108E05B482C38006840F4A7
:101A7000003059492C39086007E00221201D01F08F
:101A800093F9054601E0012500BF00BF55B9524852
:101A90000C38006820F48030E16C08434E490C3962
:101AA000086000E02E43206800F00050B0F1005FB5
:101AB00005D1022104F1240001F00EFA064320684A
:101AC00000F40030B0F5003F27D1E06FA0B1B0F5D1
:101AD000807F06D0B0F5007F0CD0B0F5407F0CD1F0
:101AE00009E03D482C38006840F400303A492C3970
:101AF000086004E003E002E001E0012500BF00BF50
:101B000055B93548001F006820F44070E16F084364
:101B10003149091F086000E02E43206800F480105E
:101B2000B0F5801F09D12C480838006820F000402B
:101B3000216F0843284908390860206800F0805068
:101B4000B0F1805F0AD124484838006820F4804012
:101B5000D4F8B4100843204948390860206800F4DC
:101B60000010B0F5001F09D11B480838006820F0AC
:101B70008070A16E0843184908390860206800F099
:101B80008040B0F1804F11D100BF13484838006841
:101B900020F4004010494839086008460068D4F82D
:101BA000B81008430C494839086000BF206800F0AD
:101BB0000040B0F1004F09D107480C38006820F010
:101BC0004050216D084304490C39086016B90020C3
:101BD000BDE8F0810120FBE75844025870B5044687
:101BE0000D4600268D48006800F00700A8420ED27E
:101BF0008A48006820F007002843884908600846A2
:101C0000006800F00700A84201D0012070BD2078D4
:101C100000F00200022807D18148006820F00F0080
:101C2000E16808437E490860207800F00100002840
:101C300051D07B48006820F47060A168084378495F
:101C400008606068022807D1754818380068C0F33A
:101C50004040F8B90120D9E76068032807D17048EF
:101C600018380068C0F34060A0B90120CEE7606872
:101C7000012807D16A4818380068C0F3002048B925
:101C80000120C3E7664818380068C0F3800008B92F
:101C90000120BBE762480838006820F0070061684F
:101CA00008435F4908390860FEF7FAFF0646606896
:101CB000022811D108E0FEF7F3FF801B41F28831C2
:101CC000884201D90320A1E755480838006800F090
:101CD00038001028EFD13AE06068032811D108E0FD
:101CE000FEF7DEFF801B41F28831884201D90320D4
:101CF0008CE74B480838006800F038001828EFD10E
:101D000025E06068012811D108E0FEF7C9FF801BBB
:101D100041F28831884201D9032077E740480838EA
:101D2000006800F038000828EFD110E008E0FEF766
:101D3000B7FF801B41F28831884201D9032065E753
:101D400037480838006800F038000028EFD13348E1
:101D5000006800F00700A8420ED93048006820F063
:101D6000070028432D4908600846006800F0070076
:101D7000A84201D0012049E7207800F0040004289F
:101D800007D12748006820F07000216908432449E2
:101D90000860207800F00800082809D12048001DBC
:101DA000006820F07000616908431D49091D086042
:101DB000207800F01000102809D11948001D006893
:101DC00020F4E060A16908431549091D08602078E6
:101DD00000F02000202809D111480830006820F0C8
:101DE0007000E16908430E490831086000F01EF8F0
:101DF0000B49096801F470614FF4807292FAA2F203
:101E0000B2FA82F2D140074A515CC84006490860E4
:101E10000020FEF765FF0020F8E6000000200052D9
:101E200018440258CC3400082400002070B5012565
:101E300000EE905A0022012100230024DFED861AD3
:101E4000B0EE610ADFED841AB0EE611A0020834D16
:101E50002D6805F0380535B1082D15D0102D15D099
:101E6000182D7CD114E07D4D103D2D68C5F3401533
:101E700045B17A4D103D2D68C5F3C106784D25FA60
:101E800006F000E07648E5E07648E3E07648E1E0F9
:101E9000724D18352D6805F00302704D18352D6808
:101EA000C5F305116D4D1C352D6805F001036B4D13
:101EB00024352D68C5F3CC0515FB03F501EE905ACA
:101EC000F8EE611AB0EE610A22B1012A4FD0022A5F
:101ED0007DD16BE0614D103D2D68C5F340152DB3EC
:101EE0005E4D103D2D68C5F3C1065D4D25FA06F423
:101EF000B4FBF1F501EE905AB8EE612ADFED5B1A02
:101F0000C0EE212A554D20352D68C5F3080501EE98
:101F1000905AF8EE611A72EEA11AF7EE002A71EEED
:101F2000A21A62EE211AB0EE611A1FE04C4DB5FB09
:101F3000F1F501EE905AB8EE612ADFED4C1AC0EED1
:101F4000212A464D20352D68C5F3080501EE905A2B
:101F5000F8EE611A72EEA11AF7EE002A00E077E0BF
:101F600071EEA21A62EE211AB0EE611A5EE03D4DEA
:101F7000B5FBF1F501EE905AB8EE612ADFED3B1AA0
:101F8000C0EE212A354D20352D68C5F3080501EE38
:101F9000905AF8EE611A72EEA11AF7EE002A71EE6D
:101FA000A21A62EE211AB0EE611A3FE02E4DB5FB87
:101FB000F1F501EE905AB8EE612ADFED2C1AC0EE71
:101FC000212A264D20352D68C5F3080500E00EE0D6
:101FD00001EE905AF8EE611A72EEA11AF7EE002A9D
:101FE00071EEA21A62EE211AB0EE611A1EE01D4DCA
:101FF000B5FBF1F501EE905AF8EE612ADFED1B1A00
:1020000080EE212A154D20352D68C5F3080501EE17
:10201000905AF8EE611A72EE211AB7EE002A71EEAC
:10202000821A62EEA11AB0EE611A00BF00BF0B4D1A
:1020300020352D68C5F346256D1C00EE905AF8EE4C
:10204000601A81EE212AFCEEC21A11EE900A01E01C
:10205000044800BF00BF70BD0000000010440258DB
:102060000090D00300093D0040787D01000000464B
:1020700070B504460025207800F00100002870D0DB
:10208000F748006800F0380010280CD0F4480068C9
:1020900000F03800182812D1F1481830006800F01C
:1020A000030002280BD1EE4810380068C0F340400E
:1020B000002869D06068002866D1012070BD00BF8B
:1020C0006068B0F5803F08D1E5481038006840F4FA
:1020D0008030E349103908602EE0606868B9E04854
:1020E0001038006820F48030DD4910390860084657
:1020F000006820F4802008601EE06068B0F5A02F22
:102100000DD1D7481038006840F48020D4491039E8
:1021100008600846006840F4803008600CE0D04851
:102120001038006820F48030CD4910390860084626
:10213000006820F48020086000BF606890B1FEF75E
:10214000AFFD054606E0FEF7ABFD401B642801D954
:102150000320B3E7C24810380068C0F340400028AD
:10216000F1D011E0FEF79CFD054606E0FEF798FD74
:10217000401B642801D90320A0E7B9481038006843
:10218000C0F340400028F1D1207800F0020002287E
:1021900047D1B348006800F0380058B1B048006833
:1021A00000F0380018283ED1AD481830006800F023
:1021B0000300B8BBAA4810380068C0F3800018B10B
:1021C000E06808B9012079E7A5481038006820F0D8
:1021D0001900E1680843A24910390860FEF760FD64
:1021E000054606E0FEF75CFD401B022801D90320EE
:1021F00064E79B4810380068C0F380000028F1D0E5
:1022000097480C38006820F47C304FF47C3292FA06
:10221000A2F2B2FA82F221699140084390490C3946
:1022200008604AE0FFE7E06868B38D48103800684E
:1022300020F01900E1680843894910390860FEF769
:102240002FFD054606E0FEF72BFD401B022801D9B5
:10225000032033E7824810380068C0F3800000286C
:10226000F1D07F480C38006820F47C304FF47C3289
:1022700092FAA2F2B2FA82F22169914008437849B7
:102280000C39086019E076481038006820F0010029
:10229000734910390860FEF703FD054606E0FEF7B6
:1022A000FFFC401B022801D9032007E76C481038C7
:1022B0000068C0F380000028F1D1207800F0100001
:1022C000102877D16648006800F0380008280CD044
:1022D0006348006800F03800182823D1604818309F
:1022E000006800F0030001281CD15D481038006828
:1022F000C0F3002020B1E069802801D00120DDE694
:1023000057480C38006820F0F8404FF0F84292FA35
:10231000A2F2B2FA82F2216A9140084350490C3984
:10232000086047E0E06958B34D481038006840F055
:1023300080004B4910390860FEF7B2FC054606E004
:10234000FEF7AEFC401B022801D90320B6E6444844
:1023500010380068C0F300200028F1D040480C3845
:10236000006820F0F8404FF0F84292FAA2F2B2FA78
:1023700082F2216A9140084339490C39086019E01A
:1023800037481038006820F080003549103908605F
:10239000FEF786FC054606E0FEF782FC401B02289D
:1023A00001D903208AE62E4810380068C0F30020C7
:1023B0000028F1D1207800F00800082836D16069A3
:1023C000D0B127486430006840F0010024496431EE
:1023D0000860FEF765FC054606E0FEF761FC401B61
:1023E000022801D9032069E61D4864300068C0F363
:1023F00040000028F1D019E019486430006820F04E
:102400000100174964310860FEF74AFC054606E002
:10241000FEF746FC401B022801D903204EE6104877
:1024200064300068C0F340000028F1D1207800F04B
:102430002000202834D1A069D8B10948103800689C
:1024400040F48050064910390860FEF729FC054623
:1024500008E0FEF725FC401B022803D903202DE6E7
:1024600010440258AF480068C0F340300028F0D054
:1024700016E0AC48006820F48050AA490860FEF7D6
:102480000FFC054606E0FEF70BFC401B022801D9B5
:10249000032013E6A3480068C0F340300028F2D1BF
:1024A000207800F0040004287DD19F48006840F4A3
:1024B00080709D490860FEF7F3FB054606E0FEF7D5
:1024C000EFFB401B642801D90320F7E5964800681C
:1024D00000F480700028F2D000BFA068012808D165
:1024E00090487030006840F001008E4970310860FB
:1024F0002DE0A06868B98B487030006820F00100BA
:102500008849703108600846006820F004000860BF
:102510001DE0A06805280DD182487030006840F0A9
:1025200004008049703108600846006840F00100EE
:1025300008600CE07B487030006820F001007949A9
:10254000703108600846006820F00400086000BF91
:10255000A068A0B1FEF7A4FB054608E0FEF7A0FBCB
:10256000401B41F28831884201D90320A6E56D481D
:1025700070300068C0F340000028EFD013E0FEF791
:102580008FFB054608E0FEF78BFB401B41F28831CC
:10259000884201D9032091E5624870300068C0F399
:1025A00040000028EFD1606A00287CD05D481030E0
:1025B000006800F03800182876D0606A022874D1CC
:1025C0005848006820F0807056490860FEF768FBA4
:1025D000054606E0FEF764FB401B022801D90320F4
:1025E0006CE550480068C0F340600028F2D100BF9D
:1025F000D4E90A1041EA00104A492831096840F23A
:10260000F33291430843474928310860208E401E29
:10261000C0F30800616B491E4FF47E4202EA41217B
:102620000843218F491ED20102EA014108433C219F
:10263000095D491E120202EA01610843394930313D
:10264000086000BF081D00684FF6F87188434FF618
:10265000F87292FAA2F2B2FA82F2A16C91400843A7
:102660003049343108602F482C30006820F00C00CD
:10267000216C08432B492C3108600846006820F083
:102680000200616C084327492C3108600846006845
:1026900040F4803008600846006840F4003008606C
:1026A0000846006802E03BE038E01FE040F480208C
:1026B00008600846006840F001000860194800689A
:1026C00040F0807017490860FEF7EAFA054606E018
:1026D000FEF7E6FA401B022801D90320EEE4114878
:1026E0000068C0F340600028F2D019E00D4800688F
:1026F00020F080700B490860FEF7D2FA054606E02C
:10270000FEF7CEFA401B022801D90320D6E4054883
:102710000068C0F340600028F2D101E00120CDE460
:102720000020CBE4004402580048025870B504462B
:102730000D460CB9012070BD94F82C0028B900207A
:1027400084F82D00204600F019F8022084F82C00AF
:10275000211D2068FDF76FFE2946D4E90002FDF730
:10276000BFFE0548006840F00040034908600120B2
:1027700084F82C000020DEE70040005210B504462B
:10278000FEF7F0F810BD70B504460D4694F82C0025
:10279000022800D170BD022084F82C002946206850
:1027A000FDF783FE012084F82C000020F2E770B5CD
:1027B00004460D46164694F82C00022800D170BD40
:1027C000022084F82C00324629462068FDF774FE6A
:1027D0002868022803D1052084F82C0002E001209B
:1027E00084F82C000020EAE7042808D14FF0E0210B
:1027F000096941F004014FF0E022116107E04FF058
:10280000E021096921F004014FF0E02211617047D5
:10281000704770B504462546681EB0F1807F01D32D
:1028200001200FE0681E4FF0E02148610F214FF0BA
:10283000FF3000F031FD00204FF0E02188610720DB
:102840000861002070BD10B5FFF7E2FF10BD00BFAA
:10285000FEE7F0B50023002400258E880768FF6896
:10286000C7F30B473E44330406688436802707FBD2
:102870000266766806F47047066884364FF0800C6E
:102880000CFB026677600E680768FF68C7F30B47AA
:102890003E44761C1E43076884370CFB02777E603B
:1028A0008E890768FF68C7F30A073E443304066849
:1028B0008436802707FB0266B66806F47047066810
:1028C00084360CFB0266B7608E680768FF68C7F342
:1028D0000A073E44761C1E43076884370CFB0277C8
:1028E000BE6006688436802707FB0266366926F0DC
:1028F0000707066884360CFB026637610F690668B5
:1029000084360CFB026637613126765C3302322650
:10291000765C34040E7E350606688436802707FB15
:102920000266B6690027066884360CFB0266B7614A
:1029300091F830601E4326432E43076884370CFB12
:102940000277BE6106688436802707FB02667669D7
:1029500026F0FF07066884360CFB026677614F6934
:10296000066884360CFB0266776106688436802729
:1029700007FB0266F76940F20776B74306688436BC
:102980000CFB0266F761D1E907673E4307688437AD
:102990000CFB0277FE6106688436802707FB02661F
:1029A000B66A0027066884360CFB0266B7624F6A77
:1029B000066884360CFB0266B7620E690EB9042302
:1029C00013E00E69012E01D103230EE00E69042EDF
:1029D00008D00E69022E05D00E69032E02D00E69B2
:1029E000072E01D1022300E00123066884368027E8
:1029F00007FB0266F66A06F0E027066884364FF0A9
:102A0000800C0CFB0266F762D1E90076F61B5E4390
:102A1000F71D0E8D5E4347EA0647066884360CFBB9
:102A20000266F76206688436802707FB0266366B0B
:102A3000F70AFF02066884360CFB02663763CF6A2A
:102A4000066884360CFB0266376306688436D70155
:102A5000F65946F00107066884364FEAC21C46F86C
:102A60000C70F0BD10B51248124908600020486093
:102A70000221104881600021C160C163022101640C
:102A80000021416481644165FDF7C3FE20B14FF42C
:102A9000AF7109A000F0F6FB01210648FDF770FDBB
:102AA00020B140F2631104A000F0ECFB10BD000067
:102AB000001000522C0000202E2E2F5372632F6D19
:102AC00061696E2E6300000000B587B0184819498F
:102AD0000860002048600121164881600821C1601B
:102AE0001021016140214161890081610021C161A2
:102AF0004FF40061016249004162002181620220BD
:102B0000009008200190062002900390032004907A
:102B1000022005900320069069460648FFF706FE4E
:102B200020B14FF4E67104A000F0ACFB07B000BD8B
:102B300040410052340100202E2E2F5372632F6D1E
:102B400061696E2E6300000000B587B000BF3D488C
:102B5000006840F480703B4908600846006800F453
:102B60008070019000BF00BF00BF0846006840F0C1
:102B7000200008600846006800F02000019000BFB7
:102B800000BF00BF0846006840F0800008600846AB
:102B9000006800F08000019000BF00BF00BF084641
:102BA000006840F0040008600846006800F0040077
:102BB000019000BF00BF00BF0846006840F0400021
:102BC00008600846006800F04000019000BF00BFA8
:102BD00000BF0846006840F0100008600846006822
:102BE00000F01000019000BF00BF00BF0846006861
:102BF00040F0080008600846006800F008000190F6
:102C000000BF00BF00BF0846006840F00200086037
:102C10000846006800F00200019000BF00BF0022DB
:102C200020210948FEF736F8202002900120039069
:102C300000200490059002A90348FDF705FF07B0A6
:102C400000BD0000E04402580004025800B59BB0EB
:102C50004848494908600020486000214648816092
:102C6000C160016113214161022181619F21C16124
:102C70001621016240F29F41416240F26E21816261
:102C800040F23F51C1624FF421710163002180F88D
:102C9000341080F8351080F83610FEF777F820B140
:102CA00040F2811135A000F0EDFA00200E904FF4B3
:102CB00080600F90002010904FF416701190022049
:102CC0001290FF201390002014904FF4C0601590D4
:102CD00007201690800717904FF4806018904FF4EB
:102CE00016701990FF208DF8680000218DF869108A
:102CF0008DF86A1000220EA91F48FEF717F820B1C0
:102D000040F295111DA000F0BDFA4FF480700190C3
:102D10004FF440700290962003904FF4E1700490BD
:102D200000200590FF200690002007904FF4C0601F
:102D30000890072009904FF041400A904FF400702E
:102D40000B904FF496700C9000208DF83400002109
:102D50008DF83510FF218DF83610012201A90648A3
:102D6000FDF7E4FF20B140F2A91104A000F08AFAB7
:102D70001BB000BD001000508C0000202E2E2F53E1
:102D800072632F6D61696E2E6300000010B5002222
:102D900011465A20FEF734F95A20FEF721F910BDEA
:102DA00000BFFEE7704770472DE9F04104460E462C
:102DB00000274848006800F00300032802D10120E2
:102DC000BDE8F08143482838006820F08060414920
:102DD00028390860FDF764FF054606E0FDF760FF4F
:102DE000401B022801D90320EAE73A482838006846
:102DF000C0F3C0600028F1D100BF3648006820F45D
:102E00007C30216840EA013032490860A088401EC9
:102E1000C0F30800A168491E4FF47E4202EA412136
:102E20000843A189491ED20102EA01410843217CDD
:102E3000491E120202EA0161084326491031086066
:102E400000BF2448001D006820F0C00061690843ED
:102E50002049091D08600846006820F02000A1698B
:102E600008431C49091D08602EB90846006840F453
:102E70000020086012E0012E08D11648001D0068ED
:102E800040F480101349091D086007E01148001D37
:102E9000006840F400100F49091D08600D482838EB
:102EA000006840F080600B4928390860FDF7F8FEA3
:102EB000054606E0FDF7F4FE401B022801D9032079
:102EC0007EE7044828380068C0F3C0600028F1D0CD
:102ED000384675E7284402582DE9F04104460E466D
:102EE00000274848006800F00300032802D10120B1
:102EF000BDE8F08143482838006820F080504149FF
:102F000028390860FDF7CCFE054606E0FDF7C8FE4F
:102F1000401B022801D90320EAE73A482838006814
:102F2000C0F340700028F1D100BF3648006820F09F
:102F30007C70218840EA015032490860A088401E18
:102F4000C0F30800A168491E4FF47E4202EA412105
:102F50000843A189491ED20102EA01410843217CAC
:102F6000491E120202EA016108432649183108602D
:102F700000BF2448001D006820F4406061690843D8
:102F80002049091D08600846006820F40070A16906
:102F900008431C49091D08602EB90846006840F422
:102FA0008000086012E0012E08D11648001D00685C
:102FB00040F400001349091D086007E01148001D96
:102FC000006840F080700F49091D08600D482838DE
:102FD000006840F080500B4928390860FDF760FE1A
:102FE000054606E0FDF75CFE401B022801D90320E0
:102FF0007EE7044828380068C0F340700028F1D00C
:10300000384675E72844025810B5002400230122F1
:103010001146184600F020F80120FDF78FFC002330
:1030200001220221184600F017F80023082203218C
:10303000184600F011F84FF40874234601220421C9
:10304000002000F009F840F2A5210248FFF79BFBA1
:1030500010BD0000340100202DE9FF4104460D465B
:1030600016461F464FF0000814B94FF0100803E051
:10307000012C01D14FF008080095CDF8048002968C
:1030800003974FF6FF7269460448FFF790FB18B9A3
:10309000002004B0BDE8F0810120FAE734010020EF
:1030A000704710B5FDF702FEFFF7CDFB10BD000025
:1030B00010B5CCB04648006820F0040044490860D0
:1030C00000BF0020019042480C30006840F44040AE
:1030D0003F490C3108600846006800F44040019008
:1030E00000BF00BF00BF3A480C30006800F4005039
:1030F000B0F5005FF7D13748006820F00300801C6E
:10310000344908600120399000043A90022042902E
:10311000022139A88162C162402101630221416319
:103120008163C1630C210164002141648164FEF765
:103130009FFF20B14FF48A7127A000F0A3F83F2031
:1031400031900320329000203390082034904020AA
:10315000359036900001379040203890022131A8F8
:10316000FEF73CFD20B14FF493711BA000F08AF8EC
:103170004FF00450029001200B9009210C91022184
:103180000D910E9105210F914FF440611091002196
:10319000119112910020139002A8FDF783FF20B136
:1031A00040F235110CA000F06DF80F4800684FF4A4
:1031B0007A71B0FBF1F42046FFF72BFB0420FFF7F8
:1031C00013FB00221146501EFDF71AFF4CB010BD34
:1031D0000C480258284402582E2E2F5372632F6D2C
:1031E00061696E2E63000000240000202048006802
:1031F00040F470001E4908601E48006840F001005D
:103200001C49086000201B491031086019480068FB
:10321000194908401749086000201649183108600C
:10322000091D0860091D0860124928310860091D40
:103230000860091D0860091D0860091D0860091D56
:103240000860091D0860091D08600A48006820F42C
:10325000802008490860002006496031086001208C
:1032600006490860C00602498039086070470000BE
:1032700088ED00E0004402587FEDF6EA0881005135
:1032800000BFFEE700BFFEE702480068C0F302206F
:10329000704700000CED00E010B5002804DB0A07C1
:1032A000130E054A135406E00A07140E034A00F0F1
:1032B0000F031B1FD45410BD00E400E018ED00E024
:1032C00002E008C8121F08C1002AFAD170477047EF
:1032D000002001E001C1121F002AFBD1704700004D
:1032E000F8B5044619490020194AC2E9001000BF88
:1032F000174806C80838D0E900506D1E60F100007C
:10330000134BC3E900500025694082EA05000143E0
:10331000EED110480068401C0E490860084600685D
:10332000062801D1012008604FF41670009009486A
:1033300000684FF496125043A0F180414FF480632F
:1033400012042046FDF7CCFAF8BD0000FF2C310135
:10335000080000200000002008B5FDF7B3FCFFF7CF
:10336000A7FEFFF7F1FBFFF7AFFBFFF76FFCFFF7DF
:1033700079FBFFF70BFD012220214B48FDF78AFC6A
:10338000FFF742FE49484A4988614FF416204949EF
:10339000086006E04FF4784046490968464A22F83A
:1033A0001100444801680068401E424A106000292C
:1033B000F0D14FF416201146086006E04FF4FC608F
:1033C0003C4909683D4A22F811003A480168006802
:1033D000401E384A10600029F0D14FF416201146E3
:1033E000086005E01F2033490968354A22F81100BA
:1033F000304801680068401E2E4A10600029F1D153
:103400004FF416201146086006E04FF61F002949C8
:1034100009682C4A22F81100264801680068401EFD
:10342000244A10600029F0D14FF41620114608609C
:1034300006E040F2FF701F490968234A22F8110094
:103440001C4801680068401E1A4A10600029F0D12B
:103450004FF41630114608600FE04FF6FF71154823
:1034600000688000A0F17C5001804AF2FF01114801
:1034700000688000A0F17C5041800E48016800681F
:10348000401E0C4A10600029E7D100201146086058
:103490004FF416704FF48063C20607490090044849
:1034A000FDF71EFA00BFFEE700040258E1320008F3
:1034B0002C0000200000002000C012C0008025C0A9
:1034C000004038C000004BC000C05DC000000000DC
:1034D000010203040102030406070809FC34000882
:1034E000000000202C000000C03200082835000831
:1034F0002C0000203C2D0000D0320008002C0100E0
:1035000000000000000000000000000000000000BB
:10351000000000000000000010000000010000009A
:083520000090D0030090D003DD
:040000050800029954
:00000001FF
