:020000040800F2
:1000000008040020AD020008050E0008010E0008DB
:10001000030E0008F50200084D0F00080000000064
:10002000000000000000000000000000090E0008B1
:10003000F702000800000000070E00080B0E000881
:10004000C7020008C7020008C7020008C70200086C
:10005000C7020008C7020008C7020008C70200085C
:10006000C7020008C7020008C7020008C70200084C
:10007000C7020008C7020008C7020008C70200083C
:10008000C7020008C7020008C7020008C70200082C
:10009000C7020008C7020008C7020008C70200081C
:1000A000C7020008C7020008C7020008C70200080C
:1000B000C7020008C7020008C7020008C7020008FC
:1000C000C7020008C7020008C7020008C7020008EC
:1000D000C7020008C7020008C7020008C7020008DC
:1000E000C7020008C702000800000000C70200089D
:1000F000C7020008C7020008C7020008C7020008BC
:10010000C7020008C7020008C7020008C7020008AB
:10011000C7020008C7020008C7020008C70200089B
:10012000C7020008C7020008C7020008C70200088B
:10013000C7020008C7020008C7020008C70200087B
:1001400000000000000000000000000000000000AF
:10015000C7020008C7020008C7020008C70200085B
:10016000C7020008C7020008C7020008C70200084B
:10017000C7020008C7020008C7020008000000000C
:10018000C7020008C7020008C7020008C70200082B
:10019000C7020008C7020008C7020008C70200081B
:1001A000C7020008C7020008C7020008C70200080B
:1001B000C7020008C7020008C7020008C7020008FB
:1001C000C7020008C7020008C7020008C7020008EB
:1001D000C7020008C7020008C7020008C7020008DB
:1001E000C7020008C7020008C7020008C7020008CB
:1001F000C7020008C7020008C7020008C7020008BB
:10020000C7020008C7020008C7020008C7020008AA
:10021000C7020008C7020008C7020008C70200089A
:10022000C7020008C7020008C7020008000000005B
:10023000C7020008C702000800000000C70200084B
:10024000C7020008C7020008C7020008C70200086A
:10025000C7020008C7020008C7020008C70200085A
:10026000C7020008C7020008C7020008C70200084A
:10027000C7020008C7020008C7020008000000000B
:10028000C702000800000000C702000800000000CC
:1002900000000000C7020008DFF80CD000F018F8DA
:1002A00000480047910F00080804002006488047D6
:1002B00006480047FEE7FEE7FEE7FEE7FEE7FEE74B
:1002C000FEE7FEE7FEE7FEE7C50E0008990200081C
:1002D000064C074D06E0E06840F0010394E8070093
:1002E00098471034AC42F6D3FFF7DAFF7C100008D1
:1002F0009C100008FEE7704731B500F0F1F80446A5
:1003000000F0EEF80099001B8842F9D338BD0000D8
:100310002DE9F84F00224FF001084FF0B04E4FF09A
:10032000030B4FF00F0A00BF0B6808FA02F42340DA
:10033000A34271D14D68022D01D0122D0FD1D508E5
:100340000E69570700EB8505A9462D6AFF0E0AFACC
:1003500007FCBE4025EA0C052E43C9F820600F7942
:10036000550006680BFA05FC07F0030726EA0C06A1
:10037000AF40374307604E68012E05D0022E03D0F0
:10038000112E01D0122E0ED18668CF6826EA0C06F7
:10039000AF403743876046680F79A643C7F300171D
:1003A000974037434760C6688C6826EA0C06AC4025
:1003B0003443C4604C68E40072D53C4C256845F079
:1003C00002052560246822F0030505F1B04504F01C
:1003D000020400949407260FD5F80844DFF8D0C033
:1003E0000AFA06F7604524EA070401D100272EE047
:1003F000304FB84201D1012729E02F4FB84201D137
:10040000022724E02D4FB84201D103271FE02C4FD3
:10041000B84202D104271AE042E02A4FB84201D183
:10042000052714E0284FB84201D106270FE0274FD7
:10043000B84201D107270AE0254FB84201D1082769
:1004400005E0244FB84201D1092700E00A27B74050
:1004500027437646C5F808744D68DEF88040ED0302
:1004600024EA030400D51C43C6F880404D68D6F842
:100470008440AD0324EA030400D51C43C6F884403D
:100480004D683468ED0224EA030400D51C4334604F
:100490004D687468AD0224EA030400D51C437460FF
:1004A000521C102AFFF440AFBDE8F88FF444025804
:1004B000000002580004025800080258000C0258BC
:1004C000001002580014025800180258001C02586C
:1004D000002002580024025842694A404261704795
:1004E00001480068704700000400002002480168CD
:1004F000491C01607047000004000020032010B573
:1005000000F074F8002000F005F800F017F8002063
:1005100010BD0000084910B504464FF47A70096810
:10052000B1FBF0F000F055FC00222146501E00F017
:100530003DF8002010BD0000000000201A4808B55A
:10054000016841F002010160006800F002000090C3
:10055000032000F04BF800226FF00B00114600F072
:1005600025F800226FF00A00114600F01FF8002263
:100570006FF00900114600F019F80022501F1146D3
:1005800000F014F80022101F114600F00FF80022AE
:10059000901E114600F00AF80022BDE80840501EE7
:1005A000114600F003B80000F44402580E4BF0B4BA
:1005B0001B680D46C3F30223C3F10706042E00D9BE
:1005C0000426191D072901D2002300E0DB1E0124A7
:1005D00004FA06F19C40491E2940641E99401440CB
:1005E0002143F0BC00F0B3BC0CED00E0064900F084
:1005F000070210B54FF6FF040868044B204040EA9C
:1006000002201843086010BD0CED00E00000FA0560
:100610002DE9F047DFF8C49104460E46D9F80000F2
:1006200000F00700B0420CD2D9F8001021F0070109
:100630003143C9F80010D9F8000000F00700B042BB
:1006400072D12078DFF89881800707D5E268D8F862
:10065000001021F00F011143C8F800102078C007E6
:1006600067D05F49A368D8F80020183922F4706277
:100670001A43C8F80020606802281CD003281DD047
:10068000096801281DD04907002963DA544D083D47
:10069000296821F0070101432960FFF721FF616804
:1006A000074641F28830022914D0032920D00129BD
:1006B00082462AD039E009688903E5E7096889019B
:1006C000E2E7C905E0E700BFFFF70AFFC11B51459C
:1006D00001D926E082462868C0F3C2000228F3D17F
:1006E00027E000BFFFF7FCFEC11B514501D918E010
:1006F00082462868C0F3C2000328F3D119E000BF86
:10070000FFF7EEFEC11B51450BD82868C0F3C200AD
:100710000128F5D10DE000BFFFF7E2FEC11B5145F6
:1007200003D90320BDE8F08714E0286810F0380FE3
:10073000F2D1D9F80010484601F00701B1420BD9B7
:10074000016821F0070131430160006800F00700F3
:10075000B04201D00120E5E72078400707D52269A3
:10076000D8F8001021F070011143C8F8001021786A
:100770001B48001D090705D56269016821F0700159
:10078000114301602178C90605D5A269016821F4E9
:10079000E061114301602078800607D51048E269C6
:1007A0000830016821F070011143016000F01EF86B
:1007B000D8F800104FF4807292FAA2F201F470613E
:1007C000B2FA82F2D140074A515CC840064908603B
:1007D0000020FFF79FFE0020A4E700000020005249
:1007E000184402586C100008000000204349F0B57E
:1007F00043480968414B103B11F0380409D00111FE
:10080000082C04D03F4A102C0BD0182C0BD00846D3
:10081000F0BD19688906FBD51968C1F3C101C8404C
:10082000F0BD1046F0BD354CDFF8D0C01834261DA1
:100830000CF1240C2768351D2468DFED330AB7EE70
:10084000001A3668DCF800C017F0030706F001064E
:10085000C4F30514CCF3CC0C1CFB06F600EE106AB6
:10086000B8EE400A0BD0012F01D0022F37D0C0EED6
:10087000201A2868B1FBF4F1C0F3080036E01968CB
:10088000C0EE201A890607D519682A68C1F3C1018C
:10089000C840C2F3080102E02968C1F30801B0FBB7
:1008A000F4F000EE101AF8EE400A00EE100A00BF55
:1008B00071EEA00AB8EE400A286870EE810A20EEB8
:1008C000200AC0F34620401C00EE900AF8EE600AB1
:1008D00080EE201ABCEEC10A10EE100AF0BDC0EE88
:1008E000201A2868B2FBF4F1C0F3080000EE100AE9
:1008F000F8EE400A00EE101ADAE700001044025841
:100900000090D00340787D0100F8FF452DE9F047C5
:10091000FF4C05460078DFF8F883103CFC4FC00719
:1009200008F118084CD03868C0F3C20002281AD069
:100930003868C0F3C200032805D1D8F8000000F0E1
:10094000030002280FD06868B0F5803F12D010B1C4
:10095000B0F5A02F18D0206820F4803020602068E7
:1009600020F4802009E02068800329D568680028E9
:1009700076D025E0206840F480302060686890B12F
:10098000FFF7AEFD06460AE0206840F480202060B4
:10099000F0E700BFFFF7A4FD801B64287ED8206825
:1009A0008003F7D50CE0FFF79BFD064605E000BF8E
:1009B000FFF796FD801B6428F0D820688003F7D4E9
:1009C0002878D34E0C3E80075DD538684FF47C3ACA
:1009D00010F0380F13D03868C0F3C200032803D1D9
:1009E000D8F8000080070AD0E868C0B3216821F079
:1009F000190101432160FFF773FD814620E0206863
:100A0000400702D5E8680028B2D0E968206820F0E5
:100A1000190008432060FFF763FD814606E000BF30
:100A2000FFF75EFDA0EB09000228B7D82068400759
:100A3000F6D508E0FFF754FDA0EB09000228ADD879
:100A400020684007F6D5286932689AFAAAF1B1FA07
:100A500081F1884022F47C310143316013E000E0F1
:100A6000AAE0206820F001002060FFF739FD8146F0
:100A700006E000BFFFF734FDA0EB090002288DD887
:100A800020684007F6D42878C00649D538684FF06A
:100A9000F84AC0F3C200012817D000E0E0E038684F
:100AA000C0F3C200032805D1D8F8000000F003000D
:100AB00001280AD0E8690028206822D040F0800090
:100AC0002060FFF70DFD81460CE02068C0050CD5C5
:100AD000E869802870D108E0FFF702FDA0EB09006B
:100AE0000228A2D82068C005F6D5286A32689AFA8A
:100AF000AAF1B1FA81F1884022F0F8410143316056
:100B00000EE020F080002060FFF7EAFC064604E0DB
:100B1000FFF7E6FC801B022887D82068C005F7D4C1
:100B20002878000729D57A48696964300029814608
:100B3000016811D041F001010160FFF7D1FC0646C8
:100B400005E000BFFFF7CCFC801B022897D8D9F83E
:100B500000008007F6D510E021F001010160FFF7E9
:100B6000BFFC064605E000BFFFF7BAFC801B022869
:100B700076D8D9F800008007F6D42878800625D5E5
:100B8000A8690028206810D040F480502060FFF74A
:100B9000A7FC064605E000BFFFF7A2FC801B022869
:100BA0005ED820688004F7D510E020F480502060E3
:100BB000FFF796FC064606E0D9E000BFFFF790FC81
:100BC000801B02284CD820688004F7D4287840077E
:100BD00051D5DFF84091D9F8001041F48071C9F87F
:100BE0000010FFF77DFC064605E000BFFFF778FC2C
:100BF000801B642834D8D9F80000C005F6D5444ECF
:100C0000A868603601280AD008B1052814D03068D9
:100C100020F001003060306820F0040002E030680D
:100C200040F001003060A86841F2883A012808D0FD
:100C3000FFF756FC81461BE0306840F0040030604E
:100C4000EDE7FFF74DFC814606E000BFFFF748FCEB
:100C5000A0EB0901514503D830688007F6D50AE0BA
:100C600084E000BFFFF73CFCA0EB090151457DD8B3
:100C700030688007F6D4686AE8B33968C1F3C20106
:100C8000032974D00228206820F08070206003D0EF
:100C9000FFF726FC054685E0FFF722FC064604E048
:100CA000FFF71EFC801B022879D820688001F7D44A
:100CB000EB6A40F2F332D8F800104FF4FE0755F813
:100CC000286F914341EA03113143C8F80010287B93
:100CD0004FF0FE4C0E4EB5F8088040022B8A2036AD
:100CE0002A7DA8F10108311DA0F5007080B25B1EBD
:100CF000C8F3080800E058E0521E07EA034340EA40
:100D0000080018434FF6F8730CEA0262104303E040
:100D1000104402580048025830600A6893FAA3F75A
:100D20002E6AB7FA87F723489A43BE4032430A60D7
:100D30000168AA6921F00C01114301600168EA69A8
:100D400021F0020111430160016841F4803101602A
:100D5000016841F400310160016841F480210160C3
:100D6000016841F001010160206801E017E01EE028
:100D700040F080702060FFF7B3FB054605E000BF40
:100D8000FFF7AEFB401B022809D820688001F7D589
:100D90000BE000BFFFF7A4FB401B022802D9032091
:100DA000BDE8F08720688001F4D40020F8E7012036
:100DB000F6E700002C44025804284FF0E0200169B7
:100DC00003D021F004010161704741F00401FAE70A
:100DD0007047401EB0F1807F10B501D3012010BDD7
:100DE0004FF0E02460610F21601700F0B0F80020A0
:100DF000A0610721216110BD10B5FFF7E9FF10BD0B
:100E0000FEE7FEE770477047704710B5FFF76EFBCF
:100E1000BDE81040FFF7F0BF284830B59DB001682D
:100E200021F00401016025480C300024016841F4E0
:100E300040410160016801F440411B91016889044F
:100E4000FCD502200090012103911022049204237A
:100E50000B933225CDE90904CDE90C500FAD0E906E
:100E60000C2185E8130068461294FFF74FFD00B18E
:100E7000FEE740201A9008230501CDE9163013AB98
:100E8000CDE918053F21032283E81600022113A8AB
:100E9000FFF7BEFB00B1FEE709494FF47A7009681D
:100EA000B1FBF0F0FFF795FF0420FFF785FF00226C
:100EB000501E1146FFF77AFB1DB030BD0C4802589A
:100EC000000000201D4AF0B51D49146800201C4B8D
:100ED00044F47004146010330A681A4C42F00102A2
:100EE0000A6018600D68164A25400D601832131DFF
:100EF0001C1D134D1060283518602A1D2060131D1D
:100F00001C1D2860251D10602A1D1860131D2060FF
:100F10001C1D28601060186020600A680124084BBE
:100F2000064FE606084D6033803F22F480220A60B7
:100F30001860C5F808413E60F0BD000088ED00E093
:100F4000004402587FEDF6EA00800051FEE70907F1
:100F500000284FEA116104DB00F1E02080F8001462
:100F6000704700F00F0000F1E02080F8141D70477A
:100F700002E008C8121F08C1002AFAD17047704762
:100F8000002001E001C1121F002AFBD170470000C0
:100F900086B0BFF34F8FBFF36F8F304800240460DB
:100FA000BFF34F8FBFF36F8F2D49086840F40030B7
:100FB0000860BFF34F8FBFF36F8F29487030046014
:100FC000BFF34F8F001F43F6FF7C0068234D1035A1
:100FD000C0F34E32C0F3C9030CEA4216184600BFF4
:100FE00046EA80772F60401EFAD2521EF4D2BFF339
:100FF0004F8F086840F480300860BFF34F8FBFF315
:101000006F8FFFF77BFAFFF707FF1648016841F083
:1010100080010160016801F080010591016841F0E3
:10102000020101600068012100F002000590032028
:101030008DE813000C4C694603902046FFF768F9D1
:1010400001212046FFF748FAC820FFF755F9012192
:101050002046FFF741FA0221F3E7000050EF00E0DD
:1010600014ED00E0E04402580004025800000000C3
:101070000102030401020304060708099C1000088A
:101080000000002008000000700F0008A4100008F5
:101090000800002000040000800F00080090D0032A
:0410A000000000004C
:040000050800029954
:00000001FF
