:020000040800F2
:10000000B041002069030008E1180008C717000884
:10001000DD18000841040008AF1B000800000000C4
:10002000000000000000000000000000AD02000819
:10003000450400080000000001030008ED18000856
:100040008303000883030008830300088303000878
:100050008303000883030008830300088303000868
:100060008303000883030008830300088303000858
:100070008303000883030008830300088303000848
:100080008303000883030008830300088303000838
:100090008303000883030008830300088303000828
:1000A000830300084D1A0008830300088303000837
:1000B0008303000883030008830300088303000808
:1000C00083030008830300088303000883030008F8
:1000D00083030008830300088303000883030008E8
:1000E0008303000883030008000000008303000866
:1000F00083030008830300088303000883030008C8
:1001000083030008830300088303000883030008B7
:1001100083030008830300088303000883030008A7
:100120008303000883030008830300088303000897
:100130008303000883030008830300088303000887
:1001400000000000000000000000000000000000AF
:100150008303000883030008830300088303000867
:100160008303000883030008830300088303000857
:1001700083030008830300088303000800000000D5
:100180008303000883030008830300088303000837
:100190008303000883030008830300088303000827
:1001A0008303000883030008830300088303000817
:1001B0008303000883030008830300088303000807
:1001C00083030008830300088303000883030008F7
:1001D00083030008830300088303000883030008E7
:1001E00083030008830300088303000883030008D7
:1001F00083030008830300088303000883030008C7
:1002000083030008830300088303000883030008B6
:1002100083030008830300088303000883030008A6
:100220008303000883030008830300080000000024
:100230008303000883030008000000008303000814
:100240008303000883030008830300088303000876
:100250008303000883030008830300088303000866
:100260008303000883030008830300088303000856
:1002700083030008830300088303000800000000D4
:100280008303000800000000830300080000000052
:100290000000000083030008DFF80CD000F09AF89B
:1002A000004800470D1C0008B04100202B4B196886
:1002B0000868B0E8F04F80F30988BFF36F8F4FF004
:1002C000000080F3118870470000000006480068B5
:1002D000006880F3088862B661B6BFF34F8FBFF342
:1002E0006F8F00DF00BF00BF08ED00E0DFF80C00FB
:1002F000016841F470010160704700BF88ED00E0C3
:10030000EFF30980BFF36F8F144B1A681EF0100FC4
:1003100008BF20ED108A20E9F04F106008B44FF0BC
:10032000500072B680F31188BFF34F8FBFF36F8F09
:1003300062B602F0ABF94FF0000080F3118808BC00
:1003400019680868B0E8F04F1EF0100F08BFB0EC55
:10035000108A80F30988BFF36F8F70472000002058
:10036000EFF30580704700000648804706480047C5
:10037000FEE7FEE7FEE7FEE7FEE7FEE7FEE7FEE755
:10038000FEE7FEE7B91900089902000840EA0103F8
:100390009B0703D009E008C9121F08C0042AFAD23B
:1003A00003E011F8013B00F8013B521EF9D27047FF
:1003B000D2B201E000F8012B491EFBD270470022A7
:1003C000F6E710B513460A4604461946FFF7F0FF54
:1003D000204610BD064C074D06E0E06840F00103E2
:1003E00094E8070098471034AC42F6D3FFF758FF63
:1003F000782B0008982B000800240F4801F04AF8D9
:1004000000BF0E4C00BF502072B680F31188BFF3BE
:100410004F8FBFF36F8F62B600BF00BF201EA4F1E5
:100420000104FBD100BF80F3118800BF4FF47A7044
:1004300001F01DFCE5E700008000002035897B010C
:1004400000BFFEE770477047F8B502460B46002133
:10045000002600240020824D00BFFCE0012707FA9F
:1004600001F61F6807EA0604B4427CD15F68022FD8
:1004700002D05F68122F1AD14FEAD10C02F1200787
:1004800057F82C004F074FEAD76C0F2707FA0CF7E5
:10049000B8434FEA417C4FEADC6C1F6907FA0CF75E
:1004A00038434FEAD10C02F1200747F82C001068BE
:1004B0004FEA410C032707FA0CF7B8431F7907F0FE
:1004C00003074FEA410C07FA0CF7384310605F68E6
:1004D000012F08D05F68022F05D05F68112F02D06E
:1004E0005F68122F17D190684FEA410C032707FA73
:1004F0000CF7B8434FEA410CDF6807FA0CF73843B2
:100500009060506801278F40B8431F79C7F30017E8
:100510008F4038435060D0684FEA410C032707FAF8
:100520000CF7B8434FEA410C9F6807FA0CF73843C1
:10053000D0605F6807F08057B7F1805F95D100BF4A
:10054000484F3F6847F00207DFF818C1CCF8007049
:1005500067463F6807F00207009700BF00BF424FA1
:100560004FEA910C00E075E057F82C008F074FEA36
:10057000177C0F2707FA0CF7B8433C4FBA4201D15A
:1005800000272DE03A4FBA4201D1012728E0394F28
:10059000BA4201D1022723E0374FBA4201D10327E3
:1005A0001EE0364FBA4201D1042719E0344FBA4257
:1005B00001D1052714E0334FBA4201D106270FE0DD
:1005C000314FBA4201D107270AE0304FBA4201D178
:1005D000082705E02E4FBA4201D1092700E00A277B
:1005E0004FEA817C4FEA1C7C07FA0CF738431E4F18
:1005F0004FEA910C47F82C002868A0435F6807F485
:100600008037B7F5803F00D1204328606868A04359
:100610005F6807F40037B7F5003F00D120436860FA
:100620004FF0B0473868A0435F6807F48017B7F50C
:10063000801F00D120434FF0B04738607868A04356
:100640005F6807F40017B7F5001F00D120434FF093
:10065000B0477860491C1029FFF400AFF8BD0000D6
:1006600080000058F4440258080400580000025862
:100670000004025800080258000C025800100258EA
:100680000014025800180258001C0258002002589A
:100690000024025842694A40426170470AB101830E
:1006A00000E0418370470000014800687047000087
:1006B0000C000020034800680349097808440149F8
:1006C000086070470C0000201400002010B50320C3
:1006D00000F096F80F2000F007F808B1012010BDD7
:1006E00000F028F80020FAE770B504460E480078BC
:1006F0004FF47A71B1FBF0F00C490968B1FBF0F5E9
:10070000284600F039FE08B1012070BD102C07D238
:1007100000222146501E00F035F80548046001E033
:100720000120F2E70020F0E714000020180000206C
:100730001000002008B500BF0948006840F0020022
:10074000074908600846006800F00200009000BFFA
:1007500000BF00220F21901E00F014F808BD000019
:10076000F444025801460846002809DB00F01F0344
:1007700001229A4043099B0003F1E023C3F80021C2
:1007800000BF70472DE9F05F80460D46164601F028
:1007900011FA074639462A46334601F00700C0F1F0
:1007A000070ABAF1040F02D94FF0040A01E0C0F1C0
:1007B000070AD14600F1040ABAF1070F02D24FF03E
:1007C000000A01E0A0F1030AD4464FF0010A0AFA38
:1007D00009FAAAF1010A0AEA020A0AFA0CFA4FF027
:1007E000010B0BFA0CFBABF1010B0BEA030B4AEA12
:1007F0000B042146404601F0E5F9BDE8F09F0000FA
:1008000000BF00F00702064B19684FF6FF031940BE
:10081000044B0B4343EA0221014B196000BF7047B0
:100820000CED00E00000FA0570B504460D46002608
:100830008D48006800F00700A8420ED28A48006880
:1008400020F007002843884908600846006800F047
:100850000700A84201D0012070BD207800F00200FE
:10086000022807D18148006820F00F00E1680843A2
:100870007E490860207800F00100002851D07B48B4
:10088000006820F47060A1680843784908606068D7
:10089000022807D1754818380068C0F34040F8B9FD
:1008A0000120D9E76068032807D17048183800682C
:1008B000C0F34060A0B90120CEE76068012807D1ED
:1008C0006A4818380068C0F3002048B90120C3E71F
:1008D000664818380068C0F3800008B90120BBE7FB
:1008E00062480838006820F00700616808435F49E3
:1008F00008390860FFF7D8FE06466068022811D163
:1009000008E0FFF7D1FE801B41F28831884201D90F
:100910000320A1E755480838006800F03800102887
:10092000EFD13AE06068032811D108E0FFF7BCFE80
:10093000801B41F28831884201D903208CE74B4863
:100940000838006800F038001828EFD125E060680A
:10095000012811D108E0FFF7A7FE801B41F2883182
:10096000884201D9032077E740480838006800F042
:1009700038000828EFD110E008E0FFF795FE801B53
:1009800041F28831884201D9032065E737480838A9
:10099000006800F038000028EFD13348006800F00C
:1009A0000700A8420ED93048006820F0070028430D
:1009B0002D4908600846006800F00700A84201D0F1
:1009C000012049E7207800F00400042807D12748D7
:1009D000006820F0700021690843244908602078ED
:1009E00000F00800082809D12048001D006820F008
:1009F0007000616908431D49091D0860207800F0F6
:100A00001000102809D11948001D006820F4E0608A
:100A1000A16908431549091D0860207800F02000ED
:100A2000202809D111480830006820F07000E169E1
:100A300008430E490831086000F01EF80B490968A8
:100A400001F470614FF4807292FAA2F2B2FA82F26B
:100A5000D140074A515CC840064908600F20FFF7A3
:100A600043FE0020F8E6000000200052184402581F
:100A70004C2B00081800002070B5012500EE905A9C
:100A80000022012100230024DFED861AB0EE610A66
:100A9000DFED841AB0EE611A0020834D2D6805F059
:100AA000380535B1082D15D0102D15D0182D7CD155
:100AB00014E07D4D103D2D68C5F3401545B17A4DCC
:100AC000103D2D68C5F3C106784D25FA06F000E00B
:100AD0007648E5E07648E3E07648E1E0724D183587
:100AE0002D6805F00302704D18352D68C5F305110A
:100AF0006D4D1C352D6805F001036B4D24352D68B7
:100B0000C5F3CC0515FB03F501EE905AF8EE611A1A
:100B1000B0EE610A22B1012A4FD0022A7DD16BE0EA
:100B2000614D103D2D68C5F340152DB35E4D103D50
:100B30002D68C5F3C1065D4D25FA06F4B4FBF1F549
:100B400001EE905AB8EE612ADFED5B1AC0EE212A61
:100B5000554D20352D68C5F3080501EE905AF8EE85
:100B6000611A72EEA11AF7EE002A71EEA21A62EE75
:100B7000211AB0EE611A1FE04C4DB5FBF1F501EE04
:100B8000905AB8EE612ADFED4C1AC0EE212A464D8C
:100B900020352D68C5F3080501EE905AF8EE611A6C
:100BA00072EEA11AF7EE002A00E077E071EEA21AC9
:100BB00062EE211AB0EE611A5EE03D4DB5FBF1F533
:100BC00001EE905AB8EE612ADFED3B1AC0EE212A01
:100BD000354D20352D68C5F3080501EE905AF8EE25
:100BE000611A72EEA11AF7EE002A71EEA21A62EEF5
:100BF000211AB0EE611A3FE02E4DB5FBF1F501EE82
:100C0000905AB8EE612ADFED2C1AC0EE212A264D4B
:100C100020352D68C5F3080500E00EE001EE905A7E
:100C2000F8EE611A72EEA11AF7EE002A71EEA21A1E
:100C300062EE211AB0EE611A1EE01D4DB5FBF1F512
:100C400001EE905AF8EE612ADFED1B1A80EE212AA0
:100C5000154D20352D68C5F3080501EE905AF8EEC4
:100C6000611A72EE211AB7EE002A71EE821A62EE54
:100C7000A11AB0EE611A00BF00BF0B4D20352D68E0
:100C8000C5F346256D1C00EE905AF8EE601A81EE11
:100C9000212AFCEEC21A11EE900A01E0044800BFBE
:100CA00000BF70BD00000000104402580090D00347
:100CB00000093D0040787D010000004670B5044603
:100CC0000025207800F00100002870D0F748006867
:100CD00000F0380010280CD0F448006800F038000C
:100CE000182812D1F1481830006800F003000228DB
:100CF0000BD1EE4810380068C0F34040002869D09E
:100D00006068002866D1012070BD00BF6068B0F542
:100D1000803F08D1E5481038006840F48030E3494E
:100D2000103908602EE0606868B9E0481038006843
:100D300020F48030DD49103908600846006820F44E
:100D4000802008601EE06068B0F5A02F0DD1D74864
:100D50001038006840F48020D449103908600846F3
:100D6000006840F4803008600CE0D048103800681B
:100D700020F48030CD49103908600846006820F41E
:100D80008020086000BF606890B1FFF78DFC0546C9
:100D900006E0FFF789FC401B642801D90320B3E774
:100DA000C24810380068C0F340400028F1D011E07C
:100DB000FFF77AFC054606E0FFF776FC401B642847
:100DC00001D90320A0E7B94810380068C0F34040BB
:100DD0000028F1D1207800F00200022847D1B34862
:100DE000006800F0380058B1B048006800F03800E2
:100DF00018283ED1AD481830006800F00300B8BB99
:100E0000AA4810380068C0F3800018B1E06808B93B
:100E1000012079E7A5481038006820F01900E16842
:100E20000843A24910390860FFF73EFC054606E07A
:100E3000FFF73AFC401B022801D9032064E79B48D6
:100E400010380068C0F380000028F1D097480C38B3
:100E5000006820F47C304FF47C3292FAA2F2B2FAAD
:100E600082F221699140084390490C3908604AE0B8
:100E7000FFE7E06868B38D481038006820F019007B
:100E8000E1680843894910390860FFF70DFC054601
:100E900006E0FFF709FC401B022801D9032033E7D5
:100EA000824810380068C0F380000028F1D07F48E5
:100EB0000C38006820F47C304FF47C3292FAA2F2B5
:100EC000B2FA82F221699140084378490C390860EE
:100ED00019E076481038006820F001007349103995
:100EE0000860FFF7E1FB054606E0FFF7DDFB401B6E
:100EF000022801D9032007E76C4810380068C0F3C6
:100F000080000028F1D1207800F01000102877D15F
:100F10006648006800F0380008280CD06348006874
:100F200000F03800182823D160481830006800F01D
:100F3000030001281CD15D4810380068C0F3002070
:100F400020B1E069802801D00120DDE657480C3847
:100F5000006820F0F8404FF0F84292FAA2F2B2FA9C
:100F600082F2216A9140084350490C39086047E0F9
:100F7000E06958B34D481038006840F080004B4994
:100F800010390860FFF790FB054606E0FFF78CFB81
:100F9000401B022801D90320B6E6444810380068F7
:100FA000C0F300200028F1D040480C38006820F041
:100FB000F8404FF0F84292FAA2F2B2FA82F2216AB5
:100FC0009140084339490C39086019E03748103816
:100FD000006820F08000354910390860FFF764FB95
:100FE000054606E0FFF760FB401B022801D90320FD
:100FF0008AE62E4810380068C0F300200028F1D19E
:10100000207800F00800082836D16069D0B1274860
:101010006430006840F00100244964310860FFF743
:1010200043FB054606E0FFF73FFB401B022801D9C2
:10103000032069E61D4864300068C0F340000028C2
:10104000F1D019E019486430006820F00100174918
:1010500064310860FFF728FB054606E0FFF724FB34
:10106000401B022801D903204EE610486430006876
:10107000C0F340000028F1D1207800F020002028A3
:1010800034D1A069D8B109481038006840F48050C4
:10109000064910390860FFF707FB054608E0FFF72F
:1010A00003FB401B022803D903202DE610440258FD
:1010B000AF480068C0F340300028F0D016E0AC48DC
:1010C000006820F48050AA490860FFF7EDFA054651
:1010D00006E0FFF7E9FA401B022801D9032013E6D6
:1010E000A3480068C0F340300028F2D1207800F017
:1010F000040004287DD19F48006840F480709D4919
:101100000860FFF7D1FA054606E0FFF7CDFA401B6D
:10111000642801D90320F7E59648006800F4807040
:101120000028F2D000BFA068012808D19048703094
:10113000006840F001008E49703108602DE0A06821
:1011400068B98B487030006820F001008849703120
:1011500008600846006820F0040008601DE0A068F0
:1011600005280DD182487030006840F004008049A5
:10117000703108600846006840F0010008600CE02B
:101180007B487030006820F00100794970310860B8
:101190000846006820F00400086000BFA068A0B105
:1011A000FFF782FA054608E0FFF77EFA401B41F29E
:1011B0008831884201D90320A6E56D487030006867
:1011C000C0F340000028EFD013E0FFF76DFA0546AA
:1011D00008E0FFF769FA401B41F28831884201D9E3
:1011E000032091E5624870300068C0F34000002899
:1011F000EFD1606A00287CD05D481030006800F0B4
:101200003800182876D0606A022874D158480068DF
:1012100020F0807056490860FFF746FA054606E060
:10122000FFF742FA401B022801D903206CE5504821
:101230000068C0F340600028F2D100BFD4E90A1072
:1012400041EA00104A492831096840F2F3329143DB
:101250000843474928310860208E401EC0F308002B
:10126000616B491E4FF47E4202EA41210843218FFF
:10127000491ED20102EA014108433C21095D491E91
:10128000120202EA0161084339493031086000BFA7
:10129000081D00684FF6F87188434FF6F87292FA0D
:1012A000A2F2B2FA82F2A16C914008433049343183
:1012B00008602F482C30006820F00C00216C084397
:1012C0002B492C3108600846006820F00200616C50
:1012D000084327492C3108600846006840F48030F4
:1012E00008600846006840F400300860084600685E
:1012F00002E03BE038E01FE040F480200860084650
:10130000006840F0010008601948006840F08070F3
:1013100017490860FFF7C8F9054606E0FFF7C4F96A
:10132000401B022801D90320EEE411480068C0F3F5
:1013300040600028F2D019E00D48006820F080706D
:101340000B490860FFF7B0F9054606E0FFF7ACF976
:10135000401B022801D90320D6E405480068C0F3E9
:1013600040600028F2D101E00120CDE40020CBE470
:10137000004402580048025870B504462546681ECD
:10138000B0F1807F01D301200FE0681E4FF0E02113
:1013900048610F214FF0FF3000F014FC00204FF0A7
:1013A000E021886107200861002070BD7047704708
:1013B00030B502460B4600BF92F83C00012801D12F
:1013C000022030BD012082F83C0000BF1068416857
:1013D000106884680F4D1068A84203D00E4D106845
:1013E000A84203D121F470015868014321F0700133
:1013F0001868014324F08004986804431068416031
:101400001068846000BF002082F83C0000BF00BF6D
:10141000D7E70000000001400004014010B5044679
:101420000CB9012010BD94F83D0028B9002084F8C3
:101430003C00204600F00CF8022084F83D00211DFD
:10144000206800F00BFB012084F83D000020E9E754
:1014500038B504460D492068884215D100BF0C48B4
:10146000006840F001000A4908600846006800F082
:101470000100009000BF00BF002205211920FFF7E6
:1014800081F91920FFF76EF938BD00000000014016
:10149000F044025801460868C06840F001000A683C
:1014A000D0600868008840F001000A6810800020C1
:1014B000704700002DE9F04104460D46002600BFAC
:1014C00094F83C00012802D10220BDE8F0810120FF
:1014D00084F83C0000BF022084F83D002068866844
:1014E0004148064026F47F462068866028685028D8
:1014F0003BD00CDC202860D004DC002853D010281E
:1015000065D155E030285DD0402860D141E06028A9
:1015100035D070280DD0B0F5805F03D0B0F5005FF6
:1015200055D115E0206880683049084021688860FE
:101530004EE0D5E902136A68206800F0F5FA2068E9
:1015400086682948064046F07706206886603FE0B6
:10155000D5E902136A68206800F0E6FA206880681E
:1015600040F480402168886032E0EA686968206859
:1015700000F0F2FA5021206800F0E2FA28E0EA6870
:101580006968206800F0FDFA6021206800F0D8FA50
:101590001EE0EA686968206800F0DEFA40212068F1
:1015A00000F0CEFA14E00021206800F0C9FA0FE044
:1015B0001021206800F0C4FA0AE02021206800F021
:1015C000BFFA05E03021206800F0BAFA00E000BF61
:1015D00000BF012084F83D0000BF002084F83C00DB
:1015E00000BF00BF71E7000088FFCEFFF8FFFEFFDD
:1015F000704710B5044620680069C0F34000D8B1B8
:101600002068C068C0F34000B0B16FF002002168EC
:101610000861012020772068806900F0030018B17C
:101620002046FFF7E5FF05E0204600F0BEF8204623
:1016300000F0BCF80020207720680069C0F380002B
:10164000D8B12068C068C0F38000B0B16FF004006A
:1016500021680861022020772068806900F44070CA
:1016600018B12046FFF7C4FF05E0204600F09DF8C2
:10167000204600F09BF80020207720680069C0F326
:10168000C000D8B12068C068C0F3C000B0B16FF02E
:10169000080021680861042020772068C06900F0F4
:1016A000030018B12046FFF7A3FF05E0204600F035
:1016B0007CF8204600F07AF8002020772068006946
:1016C000C0F30010D8B12068C068C0F30010B0B1FA
:1016D0006FF0100021680861082020772068C06939
:1016E00000F4407018B12046FFF782FF05E0204665
:1016F00000F05BF8204600F059F8002020772068C1
:10170000006900F0010058B12068C06800F00100D5
:1017100030B16FF0010021680861204600F048F800
:1017200020680069C0F3C01058B12068C068C0F3D9
:10173000C01030B16FF08000216808612046FFF7CB
:1017400035FE20680069C0F3002058B12068C068E9
:10175000C0F3C01030B16FF08000216808612046EE
:10176000FFF724FE20680069C0F3801058B120689C
:10177000C068C0F3801030B16FF04000216808618C
:10178000204600F01FF820680069C0F3401058B1EF
:101790002068C068C0F3401030B16FF020002168AD
:1017A00008612046FFF703FE10BD70477047000038
:1017B00010B5044601210248FEF76CFF10BD000081
:1017C00000040258704700BFFEE7000010B586B065
:1017D00004461422074901A8FEF7D8FD002101A8FC
:1017E00000F05EFA04490860002000F083FE06B0B5
:1017F00010BD0000382B00080800002000B587B09D
:10180000142102A8FEF7DBFD00BF1548006840F078
:101810008000134908600846006800F080000190CD
:1018200000BF00BF00BF0846006840F0020008602B
:101830000846006800F00200019000BF00BF0022CF
:1018400001210848FEF72AFF0120029003900020A2
:101850000490059002A90348FEF7F6FD07B000BD0D
:10186000E04402580004025800B587B000200390FD
:10187000049005900690009001900290154816493A
:10188000086040F2CF70486000211348816042F246
:101890000F71C1600021016141618161FFF7BEFDEF
:1018A00008B1FEF7D0FD4FF48050039003A90A4819
:1018B000FFF700FE08B1FEF7C6FD00200090019082
:1018C000029069460448FFF773FD08B1FEF7BBFDBF
:1018D00007B000BD000001408000002000BFFEE70F
:1018E000704700BF012000F0C2F9FBE710B5FEF71A
:1018F000E1FE00F0CDF910BD00B59DB04C210AA865
:10190000FEF75DFD202102A8FEF759FD2948006879
:1019100020F004002749086000BF002001902548FE
:101920000C30006840F4404022490C310860084601
:10193000006800F44040019000BF00BF00BF1D4898
:101940000C30006800F40050B0F5005FF7D10120C2
:101950000A9000040B90022013900221149115911B
:101960004021169102211791189119910C211A9179
:1019700000211B911C910AA8FFF7A0F908B1FEF7FE
:1019800062FD3F2002900320039000200490082075
:101990000590402006900790000108904020099093
:1019A000022102A8FEF740FF08B1FEF74CFD1DB072
:1019B00000BD00000C4802582048006840F4700048
:1019C0001E4908601E48006840F001001C4908607C
:1019D00000201B4910310860194800681949084067
:1019E000174908600020164918310860091D086071
:1019F000091D0860124928310860091D0860091D89
:101A00000860091D0860091D0860091D0860091D9E
:101A10000860091D08600A48006820F48020084911
:101A2000086000200649603108600120064908600E
:101A3000C0060249803908607047000088ED00E068
:101A4000004402587FEDF6EA0881005110B50248C3
:101A5000FFF7CFFD10BD00008000002010B5002270
:101A60000288294B98420ED0B0F1804F0BD0274B03
:101A7000984208D0264B984205D0264B984202D077
:101A8000254B984203D122F070024B681A431E4B3B
:101A9000984217D0B0F1804F14D01C4B984211D00F
:101AA0001B4B98420ED01B4B98420BD01A4B9842BE
:101AB00008D01A4B984205D0194B984202D0194BC6
:101AC000984203D122F44072CB681A4322F080037B
:101AD0004C6943EA040202808B68C3620B88038569
:101AE000094B98420BD00C4B984208D00B4B9842B4
:101AF00005D00B4B984202D00A4B984201D10B8A79
:101B000003860123436110BD000001400004004032
:101B100000080040000C004000040140004001406B
:101B2000004401400048014030B50C460021816866
:101B300021F47F4142EA032525432943816030BDDA
:101B40000A4600218168034B194042F007031943FC
:101B5000816070478FFFCFFF30B50B4614460021E0
:101B60000022026A056A25F001050562816921F0FB
:101B7000F00141EA041122F00A021A438161026273
:101B800030BD30B50B46144600210022056A25F011
:101B9000100505628169026A21F4704141EA04314D
:101BA00022F0A00242EA03128161026230BD00BF4E
:101BB000FEE7000002480068C0F302207047000002
:101BC0000CED00E010B5002804DB0A07130E054AEF
:101BD000135406E00A07140E034A00F00F031B1FFC
:101BE000D45410BD00E400E018ED00E002E008C8A5
:101BF000121F08C1002AFAD170477047002001E087
:101C000001C1121F002AFBD1704700008AB0FEF705
:101C10005DFDFFF771FEFFF7F1FDFFF725FE1422D2
:101C20000C4905A8FEF7B2FB002105A800F038F822
:101C3000094908601422074914316846FEF7A6FBDB
:101C40000021684600F02CF80449086000F01BF8F9
:101C500000BFFEE7102B0008000000200400002059
:101C600001460020842901D0CA1C1044704770B579
:101C7000044625460DB1294600E00121084600F042
:101C800009FC002070BD10B500F0B0FC002010BDB4
:101C900010B500F003FE012801D000F0B3FD10BD27
:101CA000FEB504460D46B4F90800FFF7D9FF064615
:101CB00002A8CDE90060238A9AB22B46D4E900102D
:101CC00000F0BCFD012801D00020FEBD0298FCE719
:101CD0002DE9F04105460E461C4807681C4800687F
:101CE000001D00F0E1FA50B91948006890F82C1076
:101CF0000120884017490968814316480160681C23
:101D000038B936B112480168091D134800F00AFBC2
:101D10001AE07C190E4800684460BC4207D20C48A7
:101D20000168091D0D48006800F0E2FA0CE008485F
:101D30000168091D0A48006800F0DAFA09480068DD
:101D4000844201D207480460BDE8F08134000020DD
:101D500020000020380000209C01002028000020E6
:101D6000240000205000002010B5044600F0E6FAE0
:101D700023480068401C224908602248006840B996
:101D8000204804600846006801280DD100F02CF9B5
:101D90000AE01D48006838B91A480068C06AE16A5C
:101DA000884201D81748046018480068401C174949
:101DB000086094F82C1001208840154909680843F0
:101DC00013490860E16A01EB8101124A02EB8100CC
:101DD000211D00F0A7FA00F0DFFA0B48006868B197
:101DE00008480068C06AE16A884207D24FF0805014
:101DF00009490860BFF34F8FBFF36F8F10BD00001C
:101E000030000020200000203C0000204C0000207A
:101E100038000020C000002004ED00E070B523E091
:101E200000F02CFC1348006808B9012000E00020F5
:101E3000054600F0E9FDBDB900F080FA0D48C06824
:101E4000C468201D00F030FA0B480068401E0A49A3
:101E500008600A480068401E0849086000F09CFAC3
:101E6000204600F00DF800BF044800680028D7D1D4
:101E700070BD000088010020300000202C000020F0
:101E800010B50446206B00F0A7FA204600F0A4FA33
:101E900010BD000030B54FF47053174800F0070430
:101EA0002CB1C01D20F00700134C041B1B1B024665
:101EB000124C22600024114D6C60D018083820F0BC
:101EC00007000F4C206000240D4D2D686C600C4DF8
:101ED0002D682C601146441A4C60094C24680C6033
:101EE000084D4C682C60084D4C682C604FF0004445
:101EF000064D2C6030BD0000B00100205C000020C9
:101F0000640000206C0000206800002070000020A9
:101F100000BFFFF783FF064800680128F9D94FF09A
:101F2000805004490860BFF34F8FBFF36F8FF0E715
:101F3000C000002004ED00E02DE9FF5F81460F4660
:101F40009246DDE90E6B109CAAF10100216B01EBBA
:101F5000800828F0070808F0070008B9012000E011
:101F6000002060B900BF502072B680F31188BFF323
:101F70004F8FBFF36F8F62B600BF00BFFEE7002533
:101F800007E0795D04F134004155785D00B902E065
:101F90006D1C102DF5D300BF002143200155072EE5
:101FA00000D30626E66266640020A064201D00F0CF
:101FB0009CF904F1180000F098F92461C6F10700BB
:101FC000A06164620020E06484F850004946404605
:101FD000039A00F053F92060BBF1000F01D0CBF859
:101FE0000040BDE8FF9F000010B5002407E004EBAF
:101FF00084010F4A02EB810000F06AF9641C072C8F
:10200000F5D30C4800F064F90B4800F061F90B4877
:1020100000F05EF90A4800F05BF90A4800F058F950
:1020200004480949086004480849086010BD0000D8
:10203000C00000204C01002060010020740100203D
:10204000880100209C01002024000020280000209E
:1020500010B50146164800E0006803688B42FBD3C8
:102060000246436813448B4204D143684C682344BE
:10207000436001460A464B6813440468A34211D1E9
:102080000C4C03682468A34208D04B680468646859
:1020900023444B6003681B680B6005E0054B1B681D
:1020A0000B6001E003680B60884200D0016010BD46
:1020B0005C000020640000200A490968096809B929
:1020C000012100E0002121B14FF0FF31064A1160EB
:1020D00006E004490968C968C868034A4168116094
:1020E00070470000240000205000002010480068C5
:1020F000401C08B9012000E0002060B900BF50205A
:1021000072B680F31188BFF34F8FBFF36F8F62B643
:1021100000BF00BFFEE700BF502072B680F31188F9
:10212000BFF34F8FBFF36F8F62B600BF00BFFEE7F4
:10213000740000202DE9F04104464FF0000800F043
:102140009DFA4948006808B9FFF7A4FE47480068AF
:10215000204000286FD1E4B1083404F00700C0B17A
:1021600004F00700C0F10800044404F0070008B9B7
:10217000012000E0002060B900BF502072B680F35B
:102180001188BFF34F8FBFF36F8F62B600BF00BFE0
:10219000FEE7002C4FD03648006884424BD8354EBD
:1021A0003046056801E02E462D686868A04202D2DC
:1021B00028680028F7D12C48006885423BD0306859
:1021C00000F10808286830606868001B10281BD9D7
:1021D0002F1907F0070008B9012000E0002060B9BE
:1021E00000BF502072B680F31188BFF34F8FBFF34A
:1021F0006F8F62B600BF00BFFEE76868001B7860A3
:102200006C603846FFF724FF194968680968081AA6
:10221000174908600846006817490968884203D2D0
:102220001348006814490860104968680968084341
:1022300068600020286000F0E7FB08F0070008B99C
:10224000012000E0002060B900BF502072B680F38A
:102250001188BFF34F8FBFF36F8F62B600BF00BF0F
:10226000FEE74046BDE8F0816400002070000020D9
:10227000680000205C0000206C000020001F4FF070
:1022800080730360001F21F001030360001F054BF2
:10229000036014380260001F6FF0020303602038EF
:1022A00070470000ED20000801460A69D1E90130BD
:1022B0009860D1E9010358605068884201D188686C
:1022C0005060002008611068401E10601068704760
:1022D00000F1080141604FF0FF31816000F1080119
:1022E000C1600161002101607047002101617047F8
:1022F00010B502460B685C1C0CB9106907E002F1CE
:10230000080000E04068446824689C42FAD94468A8
:102310004C604C68A160886041600A611468641C6C
:10232000146010BD42684A6093688B60936859607E
:102330009160086103685B1C0360704700BF502018
:1023400072B680F31188BFF34F8FBFF36F8F62B601
:1023500000BF0F480068401C0D490860084600682F
:10236000012814D10B480068C0B208B9012000E070
:10237000002060B900BF502072B680F31188BFF30F
:102380004F8FBFF36F8F62B600BF00BFFEE770478D
:102390007400002004ED00E00E48006860B900BF42
:1023A000502072B680F31188BFF34F8FBFF36F8F49
:1023B00062B600BF00BFFEE706480068401E054940
:1023C00008600846006820B9002080F3118800BF2B
:1023D00000BF70477400002070B506463546002ED9
:1023E00043D0083D2C46214960680968084008B17F
:1023F000012000E0002060B900BF502072B680F3D9
:102400001188BFF34F8FBFF36F8F62B600BF00BF5D
:10241000FEE7206808B9012000E0002060B900BF95
:10242000502072B680F31188BFF34F8FBFF36F8FC8
:1024300062B600BF00BFFEE70C496068096808404B
:1024400098B1206888B90949606809688843606064
:1024500000F014F9064960680968084404490860F6
:102460002046FFF7F5FD00F0CFFA70BD70000020A8
:1024700068000020064800684FF47A71B0FBF1F064
:10248000401E4FF0E02148610720086170470000BE
:102490001800002070B504460025E4B11348006818
:1024A00008B9012000E0002060B900BF502072B6DA
:1024B00080F31188BFF34F8FBFF36F8F62B600BFF9
:1024C00000BFFEE700F0DAF800212046FFF700FC2D
:1024D00000F09AFA05463DB94FF080500449086073
:1024E000BFF34F8FBFF36F8F70BD00005800002007
:1024F00004ED00E070B50546FFF720FF15B931483F
:10250000006800E028460446201DFFF7CDFE78B99C
:10251000E06A00EB80002C4951F8200040B994F8A3
:102520002C1001208840294909688143274801600F
:10253000A06A18B104F11800FFF7B6FE244800683D
:10254000401C234908601F480068844209D1211DAE
:102550002048FFF7E7FE20480068401C1E4908603D
:1025600009E01E480068401E1C4908602046FFF72D
:1025700087FCFFF7A1FDFFF70FFF19480068F8B1CE
:102580001048006884421BD11648006808B9012031
:1025900000E0002060B900BF502072B680F31188BF
:1025A000BFF34F8FBFF36F8F62B600BF00BFFEE770
:1025B0004FF080500C490860BFF34F8FBFF36F8F0F
:1025C00070BD000020000020C00000203800002066
:1025D0004C000020880100202C000020300000204A
:1025E0003C0000205800002004ED00E01CB51C4811
:1025F00000210B468022CDE900101AA11B4800F0F3
:102600001DF90446012C17D100BF502072B680F38B
:102610001188BFF34F8FBFF36F8F62B600BF4FF0CB
:10262000FF30134908600120124908600020124958
:10263000086000F073F812E0601C08B1012000E0AF
:10264000002060B900BF502072B680F31188BFF33C
:102650004F8FBFF36F8F62B600BF00BFFEE71CBD98
:102660005400002049444C4500000000111F0008A0
:10267000500000203C000020340000200248006888
:10268000401C014908607047580000201E4800683F
:1026900018B101201D49086034E000201B49086082
:1026A0001B480068B0FA80F0C0F11F0101EB810007
:1026B000184A52F8200008B1012000E0002060B95B
:1026C00000BF502072B680F31188BFF34F8FBFF365
:1026D0006F8F62B600BF00BFFEE701EB81020D4BBA
:1026E00003EB820042685268426000F108024368CE
:1026F000934202D14268526842604268D268064BF7
:102700001A6000BF704700005800002044000020FD
:1027100038000020C0000020200000201CB53349F4
:10272000084600780190FF200A461070084600789D
:1027300000909DF8000000F0F0009DF8002090420D
:1027400001D1012000E0002060B900BF502072B626
:1027500080F31188BFF34F8FBFF36F8F62B600BF56
:1027600000BFFEE79DF8000000F05000204A107006
:102770000720204A106009E01E480068401E1D4ADC
:1027800010609DF800004006000E00909DF80000CB
:1027900000F080008028EFD0164800680002154A3B
:1027A00010601046008800F4E06010600F4A019845
:1027B00010701148006840F470000F490860084626
:1027C000006840F070400860FFF754FE00200B499D
:1027D0000860FDF78BFD0A48006840F0404008495A
:1027E0000860FDF773FD00201CBD000000E400E060
:1027F000780000207C00002020ED00E07400002024
:1028000034EF00E010B500BF502072B680F311889D
:10281000BFF34F8FBFF36F8F62B600BF00F04EF86B
:1028200018B14FF080500449086000BF002080F3C9
:10283000118800BF10BD000004ED00E02DE9FF4F3E
:1028400085B0804689461746DDE912ABB800FFF730
:1028500071FC064656B15420FFF76CFC04460CB1DF
:10286000266304E03046FFF7B7FD00E000247CB1AA
:102870000020CDE900ABCDE902403A46494640464A
:10288000089BFFF759FB2046FFF76EFA012501E090
:102890004FF0FF35284609B0BDE8F08F05490968BB
:1028A00009B9012005E00449096809B9022000E0DE
:1028B000002070473C000020580000202DE9F04126
:1028C0004FF0000845480068002879D14448006866
:1028D000451C4348056025BB42480068006808B9AC
:1028E000012000E0002060B900BF502072B680F3E4
:1028F0001188BFF34F8FBFF36F8F62B600BF00BF69
:10290000FEE73848076838480068364908603648A6
:10291000076036480068401C34490860FFF7CCFB6C
:1029200000BF3348006885423CD300BF2D48006893
:10293000006808B9012000E0002020B14FF0FF300E
:102940002B4908602DE027480068C068C4686668A5
:10295000B54202D22648066023E0201DFFF7A4FC02
:10296000A06A18B104F11800FFF79EFC94F82C102F
:10297000012088401F49096808431E490860E16A30
:1029800001EB81011C4A02EB8100211DFFF7CAFC0B
:102990001A49E06A0968C96A8842C7D34FF001083A
:1029A000C4E700BF15480068C06A00EB8000124908
:1029B00051F82000012801D94FF0010805E0FFE798
:1029C0000F480068401C0E4908600E48006808B1B6
:1029D0004FF001084046BDE8F0810000580000209B
:1029E000340000202400002028000020480000209F
:1029F0005000002038000020C000002020000020EF
:102A0000400000204400002070B500240026374814
:102A1000006860B900BF502072B680F31188BFF320
:102A20004F8FBFF36F8F62B600BF00BFFEE7FFF7A7
:102A300085FC2E480068401E2C4908600846006846
:102A400000284FD12A48006800284BD024E02948AC
:102A5000C068C46804F11800FFF726FC201DFFF7CA
:102A600023FC94F82C10012088402349096808436E
:102A700021490860E16A01EB8101204A02EB8100F3
:102A8000211DFFF74FFC1E49E06A0968C96A8842A8
:102A900002D301201B4908601648006808B90120CC
:102AA00000E000200028D2D00CB1FFF705FB16484B
:102AB000056865B100BFFFF701FF10B101201149A2
:102AC00008606D1E002DF6D100200F4908600D48EA
:102AD000006838B1012630070C490860BFF34F8FFA
:102AE000BFF36F8FFFF758FC304670BD58000020D1
:102AF000300000207401002038000020C0000020B9
:102B000020000020440000204000002004ED00E0F0
:102B1000602B0008E318000800000000000000001F
:102B2000800000006C2B0008CD170008000000009A
:102B300000000000800000005C2B0008F903000882
:102B40000000000000000000800000000000000005
:102B50000102030401020304060708094C4544006E
:102B600064656661756C745461736B00496E697459
:102B70005F54696D65720000982B0008000000200A
:102B800080000000EC1B0008182C000880000020CA
:102B900030410000FC1B00080000000000000000A5
:102BA0000000000000000000100000000100000014
:102BB0000090D0030090D00300000000000000004F
:102BC0000000000000000000000000000000000005
:102BD00000000000000000000000000000000000F5
:102BE00000000000000000000000000000000000E5
:102BF00000000000000000000000000000000000D5
:102C0000000000000000000000000000AAAAAAAA1C
:082C10000000000000000000BC
:040000050800029954
:00000001FF
