:020000040800F2
:1000000028040020AD0200087B15000877150008C1
:100010007915000819030008A9180008000000005D
:100020000000000000000000000000007917000838
:100030001B030008000000007D1500087B17000866
:10004000C7020008C7020008C7020008C70200086C
:10005000C7020008C7020008C7020008C70200085C
:10006000C7020008C7020008C7020008C70200084C
:10007000C7020008C7020008C7020008C70200083C
:10008000C7020008C7020008C7020008C70200082C
:10009000C7020008C7020008C7020008C70200081C
:1000A000C7020008C7020008C7020008C70200080C
:1000B000C7020008C7020008C7020008C7020008FC
:1000C000C7020008C7020008C7020008C7020008EC
:1000D000C7020008C7020008C7020008C7020008DC
:1000E000C7020008C702000800000000C70200089D
:1000F000C7020008C7020008C7020008C7020008BC
:10010000C7020008C7020008C7020008C7020008AB
:10011000C7020008C7020008C7020008C70200089B
:10012000C7020008C7020008C7020008C70200088B
:10013000C7020008C7020008C7020008C70200087B
:1001400000000000000000000000000000000000AF
:10015000C7020008C7020008C7020008C70200085B
:10016000C7020008C7020008C7020008C70200084B
:10017000C7020008C7020008C7020008000000000C
:10018000C7020008C7020008C7020008C70200082B
:10019000C7020008C7020008C7020008C70200081B
:1001A000C7020008C7020008C7020008C70200080B
:1001B000C7020008C7020008C7020008C7020008FB
:1001C000C7020008C7020008C7020008C7020008EB
:1001D000C7020008C7020008C7020008C7020008DB
:1001E000C7020008C7020008C7020008C7020008CB
:1001F000C7020008C7020008C7020008C7020008BB
:10020000C7020008C7020008C7020008C7020008AA
:10021000C7020008C7020008C7020008C70200089A
:10022000C7020008C7020008C7020008000000005B
:10023000C7020008C702000800000000C70200084B
:10024000C7020008C7020008C7020008C70200086A
:10025000C7020008C7020008C7020008C70200085A
:10026000C7020008C7020008C7020008C70200084A
:10027000C7020008C7020008C7020008000000000B
:10028000C702000800000000C702000800000000CC
:1002900000000000C7020008DFF80CD000F02AF8C8
:1002A00000480047ED180008280400200648804751
:1002B00006480047FEE7FEE7FEE7FEE7FEE7FEE74B
:1002C000FEE7FEE7FEE7FEE72118000899020008B6
:1002D000D2B201E000F8012B491EFBD27047002288
:1002E000F6E710B513460A4604461946FFF7F0FF35
:1002F000204610BD064C074D06E0E06840F00103C3
:1003000094E8070098471034AC42F6D3FFF7C8FFD3
:100310004019000860190008FEE77047014880682E
:1003200070470000040000200248816802781144F0
:100330008160704704000020032010B500F058F8D9
:10034000002000F007F808B1012010BD00F022F8ED
:10035000002010BD70B50D4D04464FF47A700C4A64
:1003600029781268B0FBF1F0B2FBF0F001F0F0F880
:1003700048B9102C07D200222146501E00F018F870
:1003800000206C6070BD012070BD000004000020E2
:1003900010000020054808B5016841F00201016025
:1003A000006800F00200009008BD0000F44402580C
:1003B0000E4BF0B41B680D46C3F30223C3F10706CE
:1003C000042E00D90426191D072901D2002300E0BC
:1003D000DB1E012404FA06F19C40491E2940641EDC
:1003E000994014402143F0BC01F05FBA0CED00E0ED
:1003F000064900F0070210B54FF6FF040868044BE9
:10040000204040EA02201843086010BD0CED00E0D7
:100410000000FA052DE9FC5F044650F8241B002576
:1004200000902E460801FE4FDFF8F8931DD5606E50
:1004300050B1B0F5801F0CD0B0F5001F0ED0B0F554
:10044000401F1DD001250FE0386840F400303860AF
:1004500016E00221201D01F093F803E0009802212C
:1004600001F00CF905000BD02E462088C00523D5DD
:10047000606D05281ED2DFE800F00C11161B1B0072
:10048000626ED9F8001021F440111143C9F8001030
:10049000EBE7386840F40030386009E00021201DA7
:1004A00001F06EF803E00098002101F0E7F805463E
:1004B0006DB100E001252E432088800528D5A06D70
:1004C00080281ED00CDC90B140280ED114E0626D63
:1004D000D9F8001021F007011143C9F80010EBE72B
:1004E000C02813D0B0F5807F10D001250FE0386808
:1004F00040F40030386009E00021201D01F040F890
:1005000003E00098002101F0B9F8054695B12E43AB
:100510002088DFF81083400508F108082CD5D4F8AE
:10052000A400B0F5800F20D00DDCA0B1B0F5001F05
:100530000FD115E0A26DD9F8001021F4E07111433C
:10054000C9F80010E4E7B0F5C00F13D0B0F5000F04
:1005500010D001250FE0386840F40030386009E021
:100560000021201D01F00CF803E00098002101F0AB
:1005700085F8054675B12E43208800052DD5D4F8A1
:10058000A800B0F1007F21D00EDCA8B1B0F1807FCF
:1005900010D116E0D4F8A420D8F8001021F460019E
:1005A0001143C8F80010E7E7B0F1407F13D0B0F175
:1005B000806F10D001250FE0386840F400303860BB
:1005C00009E00021201D00F0DBFF03E0009800217E
:1005D00001F054F805466DB12E43206880011FD507
:1005E000A06CD8B110280FD0202812D0302815D0F8
:1005F000012514E0D4F8A820D8F8001021F0E0611B
:100600001143C8F80010E8E7386840F4003038605B
:1006100004E00221201D00F0B3FF05466DB12E431A
:100620002088C0042BD5E06DB0F5005F20D00DDC34
:10063000A0B1B0F5805F0FD115E07A48A26C001F21
:10064000016821F0300111430160E9E7B0F5405F36
:1006500013D0B0F5804F10D001250FE0386840F47A
:100660000030386009E00021201D00F089FF03E020
:100670000098002101F002F8054685B12E4320883C
:10068000800429D5206EB0F5403F23D010DC08B39C
:10069000B0F5803F14D0B0F5003F0FD115E0E26D0A
:1006A000D9F8001021F4E0411143C9F80010E6E741
:1006B000B0F5802F0ED0B0F5A02F0BD001250AE0A9
:1006C0000121201D00F05CFF03E00098012100F0F3
:1006D000D5FF05468DB12E43208840042AD5D4F895
:1006E000AC00B0F1405F23D010DC08B3B0F1805F04
:1006F00014D0B0F1005F0FD115E0226ED9F80010D0
:1007000021F4E0211143C9F80010E5E7B0F1804F72
:100710000ED0B0F1A04F0BD001250AE00121201D21
:1007200000F02EFF03E00098012100F0A7FF05462E
:100730006DB12E43208800041FD5E06ED8B1B0F112
:10074000805F0ED0B0F1005F10D0012514E0D4F826
:10075000AC20D8F8001021F0E0411143C8F8001097
:10076000E8E7386840F40030386004E00121201DDB
:1007700000F006FF05466DB12E432068C0011ED56E
:10078000606CD0B101280ED0022811D0032814D0FB
:10079000012513E0E26ED9F8001021F04051114319
:1007A000C9F80010E9E7386840F40030386004E028
:1007B0000221201D00F0E4FE054685B12E4320688D
:1007C000DFF85CB04002ABF11C0B1FD51648016886
:1007D00041F480710160FFF7A1FD824610E01148ED
:1007E000626C001F016821F0030111430160E6E71C
:1007F000FFF794FDA0EB0A00642801D9032504E06B
:1008000009480068C005F3D5C5B12E432078DFF84C
:1008100014A0C0070AF1040A79D0A06F182805E0D7
:100820002C44025850440258004802586DD05BDCFA
:10083000C0B308285ED010285AD161E0DFF880A448
:10084000B4F8B010DAF8000001F4407100F4407020
:10085000884211D0DAF80010DAF8002021F4407153
:1008600042F48032CAF80020DAF8002022F4803204
:10087000CAF80020CAF80010D4F8B000B0F5807FA4
:1008800015D1FFF74BFD01900DE000BFFFF746FDCE
:100890000199411A41F28830814204D9032546F07A
:1008A0000306B3E731E0DAF800008007EED5D4F8AC
:1008B000B010C1F30120032858460DD0016821F47F
:1008C0007C510160B4F8B020DAF80010C2F30B02DA
:1008D0001143CAF8001099E7FA4A036802EA1112B4
:1008E00023F47C511143ECE720280ED028280CD0AB
:1008F00001250BE00121201D00F042FE04E006E08E
:100900000098012100F0BAFE05465DB12E43207823
:1009100080071ED5606F062819D2DFE800F0160C9C
:1009200011161616A26FDAF8001021F038011143E3
:10093000CAF80010EBE70121201D00F021FE03E0C2
:100940000098012100F09AFE054675B100E00125EE
:100950002E43207840071FD5D4F89000062819D2DE
:10096000DFE800F0160C11161616626FDAF80010A8
:1009700021F007011143CAF80010EAE70121201D08
:1009800000F0FEFD03E00098012100F077FE05462F
:100990009DB100E001252E43207880062BD5D4F8A8
:1009A0008C00B0F1405F24D011DC10B3B0F1805F57
:1009B00015D0B0F1005F10D116E0D4F89020D8F82F
:1009C000001021F007011143C8F80010E4E7B0F16E
:1009D000804F0ED0B0F1A04F0BD001250AE00021CE
:1009E000201D00F0CDFD03E00098022100F046FE3E
:1009F00005468DB12E43207840062BD5D4F89800BB
:100A0000B0F5406F24D011DC10B3B0F5806F15D075
:100A1000B0F5006F10D116E0D4F88C20DAF8001091
:100A200021F0E0411143CAF80010E4E7B0F5805F1F
:100A30000ED0B0F5A05F0BD001250AE00021201DEB
:100A400000F09EFD03E00098022100F017FE05462D
:100A50008DB12E43207800062BD5D4F89C00B0F53C
:100A6000C04F24D011DC10B3B0F5005F15D0B0F545
:100A7000804F10D116E0D4F89820D8F8001021F457
:100A8000E0511143C8F80010E4E7B0F5004F0ED074
:100A9000B0F5204F0BD001250AE00021201D00F009
:100AA0006FFD03E00098022100F0E8FD054665B304
:100AB0002E43207800070BD5D4F88010B1F5805F65
:100AC0002DD0DAF8002022F440520A43CAF8002060
:100AD0002078C0060BD5D4F89410B1F5807F24D0CF
:100AE000D8F8002022F440720A43C8F80020206899
:100AF00000032CD5D4F8A000E8B1B0F5803F1FD09A
:100B0000B0F5003F21D0012520E0D4F89C20D8F892
:100B1000001021F460411143C8F80010C9E70098A3
:100B2000022100F0ABFD0643D2E70098022100F05D
:100B3000A5FD0643DBE70021201D00F021FD03E0B9
:100B40000098022100F09AFD054685B12E432068E9
:100B5000400322D5D4F88400B0F5801F11D0B0F541
:100B6000001F13D0B0F5401F15D0012514E0D4F8B4
:100B7000A020D8F8001021F440311143C8F800102B
:100B8000E5E7386840F40030386004E0009801215F
:100B900000F074FD054655B12E432068C0031CD5F6
:100BA000E06C70B1B0F5803F10D0012514E0D4F8AE
:100BB0008420DAF8001021F440111143CAF8001023
:100BC000EBE7386840F40030386004E00221201D73
:100BD00000F0D6FC0546C5B12E432068800004D540
:100BE0000098022100F04AFD0643206880031BD5CF
:100BF000E06FB8B1B0F5807F10D0B0F5007F11D0B4
:100C0000B0F5407F0ED001250DE02D48E26C243870
:100C1000016821F4803111430160DEE7386840F457
:100C200000303860F5B32E432068C00207D5226F2C
:100C3000D9F8001021F000411143C9F800102068D4
:100C4000C00008D5D4F8B420DBF8001021F48041AE
:100C50001143CBF800102068800207D5A26ED9F8A6
:100C6000001021F080711143C9F800102068400085
:100C70000CD5DBF8001021F40041CBF80010DBF8B4
:100C80000010D4F8B8201143CBF8001020680028D9
:100C900007DA0B48226D2438016821F040511143D6
:100CA000016000E003E07EB10120BDE8FC9FE26F3F
:100CB000DAF8001021F440711143CAF80010B3E7CC
:100CC00070440258CFFFFF000020EEE72DE9F04707
:100CD000DFF8C49104460E46D9F8000000F0070082
:100CE000B0420CD2D9F8001021F007013143C9F805
:100CF0000010D9F8000000F00700B04272D120784F
:100D0000DFF89881800707D5E268D8F8001021F055
:100D10000F011143C8F800102078C00767D05F4961
:100D2000A368D8F80020183922F470621A43C8F872
:100D30000020606802281CD003281DD00968012803
:100D40001DD04907002963DA544D083D296821F078
:100D5000070101432960FFF7E1FA6168074641F2A4
:100D60008830022914D0032920D0012982462AD0B4
:100D700039E009688903E5E709688901E2E7C905FF
:100D8000E0E700BFFFF7CAFAC11B514501D926E0D1
:100D900082462868C0F3C2000228F3D127E000BFD2
:100DA000FFF7BCFAC11B514501D918E082462868FB
:100DB000C0F3C2000328F3D119E000BFFFF7AEFA79
:100DC000C11B51450BD82868C0F3C2000128F5D1DA
:100DD0000DE000BFFFF7A2FAC11B514503D9032064
:100DE000BDE8F08714E0286810F0380FF2D1D9F888
:100DF0000010484601F00701B1420BD9016821F00B
:100E0000070131430160006800F00700B04201D0E3
:100E10000120E5E72078400707D52269D8F80010BF
:100E200021F070011143C8F8001021781B48001D03
:100E3000090705D56269016821F07001114301605D
:100E40002178C90605D5A269016821F4E061114342
:100E500001602078800607D51048E26908300168F3
:100E600021F070011143016000F01EF8D8F8001065
:100E70004FF4807292FAA2F201F47061B2FA82F237
:100E8000D140074A515CC840064908600020FFF77E
:100E900061FA0020A4E70000002000521844025824
:100EA00030190008100000204749F0B5474809688C
:100EB000454B103B11F0380409D00111082C04D027
:100EC000434A102C0BD0182C0BD00846F0BD1968E3
:100ED0008906FBD51968C1F3C101C840F0BD1046B1
:100EE000F0BD394CDFF8E0C01834261D0CF1240C9D
:100EF0002768351D2468DFED370AB7EE001A36681B
:100F0000DCF800C017F0030706F00106C4F305146F
:100F1000CCF3CC0C1CFB06F600EE106AB8EE400ACF
:100F200009D0012F01D0022F3BD02868B1FBF4F18A
:100F3000C0F308003AE01968890615D51A682968CF
:100F4000C2F3C102C1F30801D04001EE901AB0FB18
:100F5000F4F0F8EE611A40EE201A00EE100A71EE7D
:100F6000810AB8EE400A0BE02968B0FBF4F0C1F347
:100F7000080101EE901AB8EE612A01EE900A1BE01A
:100F800020EE200A2868C0F34620401C00EE900A9C
:100F9000F8EE600A80EE201ABCEEC10A10EE100ACC
:100FA000F0BD2868B2FBF4F1C0F3080001EE900A2E
:100FB000B8EE612A01EE901A00EE202AB8EE610A1E
:100FC00072EE010ADCE70000104402580090D003E2
:100FD00040787D01000000392DE9F047FF4C0546BF
:100FE0000078DFF8F883103CFC4FC00708F11808C0
:100FF0004CD03868C0F3C20002281AD03868C0F359
:10100000C200032805D1D8F8000000F00300022830
:101010000FD06868B0F5803F12D010B1B0F5A02FA6
:1010200018D0206820F480302060206820F48020D0
:1010300009E02068800329D56868002876D025E07B
:10104000206840F480302060686890B1FFF766F94E
:1010500006460AE0206840F480202060F0E700BFE8
:10106000FFF75CF9801B64287ED820688003F7D5E1
:101070000CE0FFF753F9064605E000BFFFF74EF915
:10108000801B6428F0D820688003F7D42878D34EDA
:101090000C3E80075DD538684FF47C3A10F0380F6D
:1010A00013D03868C0F3C200032803D1D8F8000079
:1010B00080070AD0E868C0B3216821F01901014314
:1010C0002160FFF72BF9814620E02068400702D518
:1010D000E8680028B2D0E968206820F019000843C9
:1010E0002060FFF71BF9814606E000BFFFF716F905
:1010F000A0EB09000228B7D820684007F6D508E021
:10110000FFF70CF9A0EB09000228ADD820684007D2
:10111000F6D5286932689AFAAAF1B1FA81F18840C5
:1011200022F47C310143316013E000E0AAE0206842
:1011300020F001002060FFF7F1F8814606E000BFD3
:10114000FFF7ECF8A0EB090002288DD820684007D3
:10115000F6D42878C00649D538684FF0F84AC0F36D
:10116000C200012817D000E0DAE03868C0F3C200FE
:10117000032805D1D8F8000000F0030001280AD0A8
:10118000E8690028206822D040F080002060FFF746
:10119000C5F881460CE02068C0050CD5E8698028B8
:1011A00070D108E0FFF7BAF8A0EB09000228A2D836
:1011B0002068C005F6D5286A32689AFAAAF1B1FA11
:1011C00081F1884022F0F841014331600EE020F0C7
:1011D00080002060FFF7A2F8064604E0FFF79EF8C3
:1011E000801B022887D82068C005F7D4287800071C
:1011F00029D57A486969643000298146016811D08F
:1012000041F001010160FFF789F8064605E000BFE3
:10121000FFF784F8801B022897D8D9F800008007D0
:10122000F6D510E021F001010160FFF777F80646DE
:1012300005E000BFFFF772F8801B022870D8D9F8CC
:1012400000008007F6D42878800625D5A8690028F4
:10125000206810D040F480502060FFF75FF8064609
:1012600005E000BFFFF75AF8801B022858D8206815
:101270008004F7D510E020F480502060FFF74EF88E
:10128000064606E0D7E000BFFFF748F8801B0228BB
:1012900046D820688004F7D4287840074FD5DFF877
:1012A0004091D9F8001041F48071C9F80010FFF79F
:1012B00035F8064605E000BFFFF730F8801B6428CC
:1012C0002ED8D9F80000C005F6D5444EA86860367F
:1012D00001280AD008B1052813D0306820F0010099
:1012E0003060306820F0040002E0306840F0010017
:1012F0003060A86841F2883A98B1FFF70FF881464C
:101300000AE0306840F004003060EEE7FFF706F8CE
:10131000A0EB0901514503D830688007F6D50EE0EF
:1013200088E0FEF7FBFF814606E000BFFEF7F6FF10
:10133000A0EB090151457DD830688007F6D4686A72
:10134000E8B33968C1F3C201032974D002282068C8
:1013500020F08070206003D0FEF7E0FF054685E0B6
:10136000FEF7DCFF064604E0FEF7D8FF801B0228EC
:1013700079D820688001F7D4EB6A40F2F332D8F8CC
:1013800000104FF4FE0755F8286F914341EA03110E
:101390003143C8F80010287B4FF0FE4C0F4EB5F8D3
:1013A000088040022B8A20362A7DA8F10108311DD1
:1013B000A0F5007080B25B1EC8F3080800E058E09A
:1013C000521E07EA034340EA080018434FF6F87339
:1013D0000CEA0262104330600A6803E010440258CD
:1013E0000048025893FAA3F72E6A24489A43B7FAA2
:1013F00087F7BE4032430A600168AA6921F00C01F8
:10140000114301600168EA6921F0020111430160A2
:10141000016841F480310160016841F400310160EC
:10142000016841F480210160016841F0010101601F
:10143000206801E017E01EE040F080702060FEF7B9
:101440006DFF054605E000BFFEF768FF401B022860
:1014500009D820688001F7D50BE000BFFEF75EFFDA
:10146000401B022802D90320BDE8F08720688001D4
:10147000F4D40020F8E70120F6E700002C440258DD
:101480002DE9F0470446007A0026894601280CD051
:10149000607A0127B0462772012808D05FF0010664
:1014A00084F808803046BDE8F0870220FBE7022080
:1014B0006072FEF733FF05460BE000BFFEF72EFF1C
:1014C000401B022805D904216172032084F808809A
:1014D000E9E720684068C043C007EFD12068806812
:1014E000E060C9F800006772DAE710B5040002D0C6
:1014F000607A10B106E0012010BD00202072204665
:1015000000F012F8022060720122D4E900030168A1
:1015100021F02001194301602068016841F00401B5
:1015200001606272002010BD08B50068064988425B
:1015300008D10648016841F040010160006800F0F0
:101540004000009008BD000000180248DC4402582A
:10155000401EB0F1807F10B501D3012010BD4FF0C7
:10156000E02460610F21601700F09FF90020A06166
:101570000721216110BDFEE7FEE7704770470000BC
:101580002DE9F0473C4E044689464FF0000A30688A
:10159000C04380070AD0384D283D286820F080607D
:1015A0002860FEF7BBFE0746A84608E00120BDE81C
:1015B000F08700BFFEF7B2FEC01B022855D8D8F84E
:1015C00000000001F6D4206831684FF4FE0C4FF0A3
:1015D000FE4721F47C3141EA00303060207AA68851
:1015E000A3894002244D761E23495B1E227C1035C0
:1015F000091DA0F5007080B2521EC6F308063043E4
:101600000CEA0343184307EA0262104328600868A3
:10161000626920F0C000104308600868A26920F0E9
:10162000200010430860B9F1000F11D00868B9F12B
:10163000010F11D040F400100860D8F800004446B3
:1016400040F08060C8F80000FEF768FE05460EE036
:10165000086840F40020EFE740F48010ECE700BF9A
:10166000FEF75CFE401B022801D903209FE720689B
:101670000001F5D550469AE7284402582DE9F04775
:101680003C4E044689464FF0000A3068C04380074C
:101690000AD0384D283D286820F080502860FEF799
:1016A0003DFE0746A84608E00120BDE8F08700BFE0
:1016B000FEF734FEC01B022855D8D8F80000800081
:1016C000F6D4208831684FF4FE0C4FF0FE4721F02D
:1016D0007C7141EA00503060207AA688A3894002DC
:1016E000244D761E23495B1E227C1835091DA0F56A
:1016F000007080B2521EC6F3080630430CEA034362
:10170000184307EA0262104328600868626920F4FF
:101710004060104308600868A26920F4007010431C
:101720000860B9F1000F11D00868B9F1010F11D0AC
:1017300040F080700860D8F80000444640F08050C7
:10174000C8F80000FEF7EAFD05460EE0086840F420
:101750008000EFE740F40000ECE700BFFEF7DEFD9D
:10176000401B022801D903209FE720688000F5D59F
:1017700050469AE7284402587047FEF7D5BD00004E
:1017800030B5CBB04C212FA8FEF7A9FD202142A8EF
:10179000FEF7A5FDBC216846FEF7A1FD1F480168C4
:1017A00021F0040101601D480C300025016841F45E
:1017B00040410160016801F440414A910168890497
:1017C000FCD502200121C2034024CDE92F123EAAFC
:1017D00038900C213990CDE93A043C903D9082E854
:1017E00023002FA84195FFF7F7FB0822CDE94524F8
:1017F000D30142AA3F20CDE947430321499482E81F
:101800002300022142A8FFF761FAE0020090411292
:1018100068461F91FEF7FEFD4BB030BD0C480258E4
:101820001D4AF0B51D49146800201C4B44F4700497
:10183000146010330A681A4C42F001020A60186002
:101840000D68164A25400D601832131D1C1D134DDE
:101850001060283518602A1D2060131D1C1D28608B
:10186000251D10602A1D1860131D20601C1D286096
:101870001060186020600A680124084B064FE606D5
:10188000084D6033803F22F480220A601860C5F85A
:1018900008413E60F0BD000088ED00E000440258C1
:1018A0007FEDF6EA00800051FEE7090700284FEAC5
:1018B000116104DB00F1E02080F80014704700F0B3
:1018C0000F0000F1E02080F8141D704702E008C806
:1018D000121F08C1002AFAD170477047002001E0AA
:1018E00001C1121F002AFBD17047000008B5FEF7A6
:1018F00023FDFFF745FF0A48016841F080010160C0
:1019000000680022074900F0800000900648C0E906
:101910000012FFF7EAFD05490348FFF7B1FDFAE7BA
:10192000E044025800180248140000200000002083
:101930000000000001020304010203040607080975
:10194000601900080000002014000000CC180008F6
:10195000741900081400002014040000DC180008AA
:101960000000000001000000100000000000000066
:041970000090D00310
:040000050800029954
:00000001FF
