:020000040800F2
:1000000090040020AD020008AB130008FB120008AA
:10001000A9130008F5020008C3160008000000003C
:10002000000000000000000000000000AF13000806
:10003000F702000800000000AD130008B11300082B
:10004000C7020008C7020008C7020008C70200086C
:10005000C7020008C7020008C7020008C70200085C
:10006000C7020008C7020008C7020008C70200084C
:10007000C7020008C7020008C7020008C70200083C
:10008000C7020008C7020008C7020008C70200082C
:10009000C7020008C7020008C7020008C70200081C
:1000A000C7020008C7020008C7020008C70200080C
:1000B000F514000801150008C7020008C70200086F
:1000C000C7020008C7020008C7020008C7020008EC
:1000D000C7020008C7020008C7020008C7020008DC
:1000E000C7020008C702000800000000C70200089D
:1000F000C7020008C7020008C7020008C7020008BC
:10010000C7020008C7020008C7020008C7020008AB
:10011000C7020008C7020008C7020008C70200089B
:10012000C7020008C7020008C7020008C70200088B
:10013000C7020008C7020008C7020008C70200087B
:1001400000000000000000000000000000000000AF
:10015000C7020008C7020008C7020008C70200085B
:10016000C7020008C7020008C7020008C70200084B
:10017000C7020008C7020008C7020008000000000C
:10018000C7020008C7020008C7020008C70200082B
:10019000C7020008C7020008C7020008C70200081B
:1001A000C7020008C7020008C7020008C70200080B
:1001B000C7020008C7020008C7020008C7020008FB
:1001C000C7020008C7020008C7020008C7020008EB
:1001D000C7020008C7020008C7020008C7020008DB
:1001E000C7020008C7020008C7020008C7020008CB
:1001F000C7020008C7020008C7020008C7020008BB
:10020000C7020008C7020008C7020008C7020008AA
:10021000C7020008C7020008C7020008C70200089A
:10022000C7020008C7020008C7020008000000005B
:10023000C7020008C702000800000000C70200084B
:10024000C7020008C7020008C7020008C70200086A
:10025000C7020008C7020008C7020008C70200085A
:10026000C7020008C7020008C7020008C70200084A
:10027000C7020008C7020008C7020008000000000B
:10028000C702000800000000C702000800000000CC
:1002900000000000C7020008DFF80CD000F018F8DA
:1002A00000480047051700089004002006488047D2
:1002B00006480047FEE7FEE7FEE7FEE7FEE7FEE74B
:1002C000FEE7FEE7FEE7FEE76D140008990200086E
:1002D000064C074D06E0E06840F0010394E8070093
:1002E00098471034AC42F6D3FFF7DAFFB81700088E
:1002F000D8170008FEE7704770B5044600F012F901
:100300000546601C02D004480078044400F00AF955
:10031000401BA042FAD370BD000000202DE9F84F29
:100320006F4D00224FF001094FF0030E4FF00F0BFD
:100330000B6809FA02F803EA0803434574D14C68D4
:10034000022C01D0122C0FD1D4080E69570700EBF4
:100350008404A246246AFF0E0BFA07FCBE4024EA7E
:100360000C042643CAF820600F79540006680EFA80
:1003700004FC07F0030726EA0C06A7403743076092
:100380004E68012E05D0022E03D0112E01D0122E60
:100390000FD18668CF6826EA0C06A74037438760EE
:1003A00046680F7926EA0806C7F3001797403743D7
:1003B0004760C7688E6827EA0C07A6403E43C660C0
:1003C0004C68E40030D5474C266846F002062660AB
:1003D000246822F0030606F1B04604F002040094FB
:1003E0009407270FD6F80844DFF8FC800BFA07FCC7
:1003F000404524EA0C0402D14FF0000C41E0DFF844
:10040000ECC0604502D14FF0010C3AE0DFF8E0C0EB
:10041000604502D14FF0020C33E0DFF8D8C06045F0
:1004200003D14FF0030C2CE053E0DFF8CCC0604563
:1004300002D14FF0040C24E0DFF8C0C0604502D1C7
:100440004FF0050C1DE0DFF8B8C0604502D14FF059
:10045000060C16E0DFF8ACC0604502D14FF0070C87
:100460000FE0DFF8A4C0604502D14FF0080C08E0AF
:10047000DFF898C0604502D14FF0090C01E04FF061
:100480000A0C0CFA07FC4CEA040CC6F808C42C68E9
:100490004E6824EA0304F60300D51C432C606C6804
:1004A0004E6824EA0304B60300D51C436C604FF089
:1004B000B0444F682668FF0226EA030600D51E43B3
:1004C00026604F686668BF0226EA030600D51E4311
:1004D0006660521C102AFFF42BAFBDE8F88F0000B5
:1004E00080000058F44402580000025800040258EA
:1004F00000080258000C025800100258001402585C
:1005000000180258001C025800200258002402580B
:1005100042694A40426170470AB101837047418392
:10052000704700000148806870470000000000200C
:100530000248816802781144816070470000002001
:10054000032010B500F0A0F8002000F007F808B173
:10055000012010BD00F022F8002010BD70B50D4D37
:1005600004464FF47A700C4A29781268B0FBF1F017
:10057000B2FBF0F000F081FC48B9102C07D2002249
:100580002146501E00F060F800206C6070BD012014
:1005900070BD0000000000200C0000201A4808B5C3
:1005A000016841F002010160006800F00200009063
:1005B000032000F069F800226FF00B00114600F0F4
:1005C00043F800226FF00A00114600F03DF80022C7
:1005D0006FF00900114600F037F80022501F114655
:1005E00000F032F80022101F114600F02DF8002212
:1005F000901E114600F028F80022BDE80840501E69
:10060000114600F021B80000F444025800280DDB28
:10061000410900F01F028900012001F1E021904012
:10062000C1F88001BFF34F8FBFF36F8F7047002871
:1006300009DB410900F01F028900012001F1E021DE
:100640009040C1F8000170470E4BF0B41B680D4696
:10065000C3F30223C3F10706042E00D90426191D93
:10066000072901D2002300E0DB1E012404FA06F171
:100670009C40491E2940641E994014402143F0BC0F
:1006800001F020B80CED00E0064900F0070210B5BB
:100690004FF6FF040868044B204040EA022018434C
:1006A000086010BD0CED00E00000FA052DE9F047F0
:1006B000DFF8C49104460E46D9F8000000F00700A8
:1006C000B0420CD2D9F8001021F007013143C9F82B
:1006D0000010D9F8000000F00700B04272D1207875
:1006E000DFF89881800707D5E268D8F8001021F07C
:1006F0000F011143C8F800102078C00767D05F4988
:10070000A368D8F80020183922F470621A43C8F898
:100710000020606802281CD003281DD00968012829
:100720001DD04907002963DA544D083D296821F09E
:10073000070101432960FFF7F5FE6168074641F2B2
:100740008830022914D0032920D0012982462AD0DA
:1007500039E009688903E5E709688901E2E7C90525
:10076000E0E700BFFFF7DEFEC11B514501D926E0DF
:1007700082462868C0F3C2000228F3D127E000BFF8
:10078000FFF7D0FEC11B514501D918E08246286809
:10079000C0F3C2000328F3D119E000BFFFF7C2FE87
:1007A000C11B51450BD82868C0F3C2000128F5D100
:1007B0000DE000BFFFF7B6FEC11B514503D9032072
:1007C000BDE8F08714E0286810F0380FF2D1D9F8AE
:1007D0000010484601F00701B1420BD9016821F031
:1007E000070131430160006800F00700B04201D00A
:1007F0000120E5E72078400707D52269D8F80010E6
:1008000021F070011143C8F8001021781B48001D29
:10081000090705D56269016821F070011143016083
:100820002178C90605D5A269016821F4E061114368
:1008300001602078800607D51048E2690830016819
:1008400021F070011143016000F01EF8D8F800108B
:100850004FF4807292FAA2F201F47061B2FA82F25D
:10086000D140074A515CC840064908600020FFF7A4
:1008700075FE0020A4E70000002000521844025832
:10088000A81700080C0000204749F0B54748096840
:10089000454B103B11F0380409D00111082C04D04D
:1008A000434A102C0BD0182C0BD00846F0BD196809
:1008B0008906FBD51968C1F3C101C840F0BD1046D7
:1008C000F0BD394CDFF8E0C01834261D0CF1240CC3
:1008D0002768351D2468DFED370AB7EE001A366841
:1008E000DCF800C017F0030706F00106C4F3051496
:1008F000CCF3CC0C1CFB06F600EE106AB8EE400AF6
:1009000009D0012F01D0022F3BD02868B1FBF4F1B0
:10091000C0F308003AE01968890615D51A682968F5
:10092000C2F3C102C1F30801D04001EE901AB0FB3E
:10093000F4F0F8EE611A40EE201A00EE100A71EEA3
:10094000810AB8EE400A0BE02968B0FBF4F0C1F36D
:10095000080101EE901AB8EE612A01EE900A1BE040
:1009600020EE200A2868C0F34620401C00EE900AC2
:10097000F8EE600A80EE201ABCEEC10A10EE100AF2
:10098000F0BD2868B2FBF4F1C0F3080001EE900A54
:10099000B8EE612A01EE901A00EE202AB8EE610A44
:1009A00072EE010ADCE70000104402580090D00308
:1009B00040787D01000000392DE9F047FF4C0546E5
:1009C0000078DFF8F883103CFC4FC00708F11808E6
:1009D0004CD03868C0F3C20002281AD03868C0F37F
:1009E000C200032805D1D8F8000000F00300022857
:1009F0000FD06868B0F5803F12D010B1B0F5A02FCD
:100A000018D0206820F480302060206820F48020F6
:100A100009E02068800329D56868002876D025E0A1
:100A2000206840F480302060686890B1FFF77AFD5C
:100A300006460AE0206840F480202060F0E700BF0E
:100A4000FFF770FD801B64287ED820688003F7D5EF
:100A50000CE0FFF767FD064605E000BFFFF762FD0B
:100A6000801B6428F0D820688003F7D42878D34E00
:100A70000C3E80075DD538684FF47C3A10F0380F93
:100A800013D03868C0F3C200032803D1D8F800009F
:100A900080070AD0E868C0B3216821F0190101433A
:100AA0002160FFF73FFD814620E02068400702D526
:100AB000E8680028B2D0E968206820F019000843EF
:100AC0002060FFF72FFD814606E000BFFFF72AFDFB
:100AD000A0EB09000228B7D820684007F6D508E047
:100AE000FFF720FDA0EB09000228ADD820684007E1
:100AF000F6D5286932689AFAAAF1B1FA81F18840EC
:100B000022F47C310143316013E000E0AAE0206868
:100B100020F001002060FFF705FD814606E000BFE0
:100B2000FFF700FDA0EB090002288DD820684007E0
:100B3000F6D42878C00649D538684FF0F84AC0F393
:100B4000C200012817D000E0DAE03868C0F3C20024
:100B5000032805D1D8F8000000F0030001280AD0CE
:100B6000E8690028206822D040F080002060FFF76C
:100B7000D9FC81460CE02068C0050CD5E8698028C6
:100B800070D108E0FFF7CEFCA0EB09000228A2D844
:100B90002068C005F6D5286A32689AFAAAF1B1FA37
:100BA00081F1884022F0F841014331600EE020F0ED
:100BB00080002060FFF7B6FC064604E0FFF7B2FCB9
:100BC000801B022887D82068C005F7D42878000742
:100BD00029D57A486969643000298146016811D0B5
:100BE00041F001010160FFF79DFC064605E000BFF2
:100BF000FFF798FC801B022897D8D9F800008007DF
:100C0000F6D510E021F001010160FFF78BFC0646EC
:100C100005E000BFFFF786FC801B022870D8D9F8DA
:100C200000008007F6D42878800625D5A86900281A
:100C3000206810D040F480502060FFF773FC064617
:100C400005E000BFFFF76EFC801B022858D8206823
:100C50008004F7D510E020F480502060FFF762FC9C
:100C6000064606E0D7E000BFFFF75CFC801B0228C9
:100C700046D820688004F7D4287840074FD5DFF89D
:100C80004091D9F8001041F48071C9F80010FFF7C5
:100C900049FC064605E000BFFFF744FC801B6428C2
:100CA0002ED8D9F80000C005F6D5444EA8686036A5
:100CB00001280AD008B1052813D0306820F00100BF
:100CC0003060306820F0040002E0306840F001003D
:100CD0003060A86841F2883A98B1FFF723FC81465A
:100CE0000AE0306840F004003060EEE7FFF71AFCDD
:100CF000A0EB0901514503D830688007F6D50EE016
:100D000088E0FFF70FFC814606E000BFFFF70AFC12
:100D1000A0EB090151457DD830688007F6D4686A98
:100D2000E8B33968C1F3C201032974D002282068EE
:100D300020F08070206003D0FFF7F4FB054685E0CB
:100D4000FFF7F0FB064604E0FFF7ECFB801B0228F0
:100D500079D820688001F7D4EB6A40F2F332D8F8F2
:100D600000104FF4FE0755F8286F914341EA031134
:100D70003143C8F80010287B4FF0FE4C0F4EB5F8F9
:100D8000088040022B8A20362A7DA8F10108311DF7
:100D9000A0F5007080B25B1EC8F3080800E058E0C0
:100DA000521E07EA034340EA080018434FF6F8735F
:100DB0000CEA0262104330600A6803E010440258F3
:100DC0000048025893FAA3F72E6A24489A43B7FAC8
:100DD00087F7BE4032430A600168AA6921F00C011E
:100DE000114301600168EA6921F0020111430160C9
:100DF000016841F480310160016841F40031016013
:100E0000016841F480210160016841F00101016045
:100E1000206801E017E01EE040F080702060FFF7DE
:100E200081FB054605E000BFFFF77CFB401B022865
:100E300009D820688001F7D50BE000BFFFF772FBEF
:100E4000401B022802D90320BDE8F08720688001FA
:100E5000F4D40020F8E70120F6E700002C44025803
:100E600004284FF0E020016903D021F00401016162
:100E7000704741F00401FAE77047401EB0F1807FEF
:100E800010B501D3012010BD4FF0E02460610F21A7
:100E9000601700F017FC0020A0610721216110BD40
:100EA00010B5FFF7E9FF10BD7047704770B590F8B7
:100EB0003C20012A1FD0012280F83C2002680F4C00
:100EC0005368A242956802D00D4CA24203D14C68EF
:100ED00023F4700323430C688968002623F0700311
:100EE0001C43546025F0800502682943916080F816
:100EF0003C60304670BD022070BD00000000014023
:100F00000004014010B5044641F21112022084F899
:100F10003D002068016A114207D1016A9210114216
:100F200003D1018821F001010180204600F022F860
:100F3000002084F83D0084F83C0010BD10B504008A
:100F400003D094F83D0010B107E0012010BD00204F
:100F500084F83C00204600F029F8022084F83D0087
:100F60002068211D00F0D2FA012084F83D00002005
:100F700010BD000001680B48B1F1804F0AD00A4A49
:100F800091420DD1016821F0020101605FF01D0066
:100F9000FFF73CBB016821F0010101601C20F7E76D
:100FA00070470000E84402580004004008B501689A
:100FB0000B48B1F1804F0BD00A4A914207D101682A
:100FC00041F002010160006800F00200009008BDDD
:100FD000016841F001010160006800F00100F5E7DF
:100FE000E8440258000400400168CA6842F0010267
:100FF000CA600068018841F001010180002070474B
:1010000070B5044690F83C00012817D0394E0125F0
:1010100084F83C50022084F83D00226890683040FB
:1010200020F47F4090600868502838D00DDC2028DC
:101030005AD005DC90B3102842D152E0022070BD96
:10104000302854D040283BD140E060282FD0702871
:101050000BD0B0F5805F03D0B0F5005F30D111E068
:101060002068254A8168114016E04A682068D1E965
:10107000021300F0ADFA21688868304040F0770034
:1010800088601DE04A682068D1E9021300F0A0FAE8
:101090002068816841F48041816011E01EE0CA68E7
:1010A0004968206800F0EAFA2068502106E0CA6822
:1010B0004968206800F0F3FA2068602100F092FA95
:1010C000002084F83D5084F83C0070BDCA6849682F
:1010D000206800F0D3FA20684021EFE72068002163
:1010E000ECE720681021E9E720682021E6E7206886
:1010F0003021E3E788FFCEFFF8FFFEFF704770B5B1
:101100000446006800250169C943890715D4C168F0
:10111000C943890711D4EA1E0261012121772068A1
:1011200080698007204602D0FFF7E8FF04E000F066
:10113000A5F8204600F0A3F8257720680169C94387
:10114000490717D4C168C943490713D402216FF076
:101150000402026121772068806910F4407F2046F4
:1011600002D0FFF7CBFF04E000F088F8204600F043
:1011700086F8257720680169C943090716D4C16834
:10118000C943090712D404216FF0080202612177D4
:101190002068C0698007204602D0FFF7AFFF04E057
:1011A00000F06CF8204600F06AF8257720680169A5
:1011B000C943C90617D4C168C943C90613D4082155
:1011C0006FF01002026121772068C06910F4407F3F
:1011D000204602D0FFF792FF04E000F04FF82046CF
:1011E00000F04DF8257720680169C943C90708D187
:1011F000C168C943C90704D1891E0161204600F0B6
:101200003FF820686FF080050169C943090607D4DB
:10121000C168C943090603D405612046FFF744FEAF
:1012200020680169C943C90507D4C168C9430906D3
:1012300003D405612046FFF737FE20680169C943E2
:10124000490609D4C168C943490605D46FF0400175
:101250000161204600F050F820680169C943890601
:101260000BD4C168C943890607D46FF0200101611E
:101270002046BDE87040FFF718BE70BD704770474C
:1012800070B504460068094DB0F1804F03D10121CB
:101290002846FFF73DF906492068884205D12846CF
:1012A000BDE870400221FFF733B970BD0004025859
:1012B0000004004070B5044690F83C00012819D0A5
:1012C000012584F83C50022084F83D00204600F0BF
:1012D00093F920680021C26822F04002C2602068B1
:1012E000C26822F48042C26084F83D50084684F807
:1012F0003C1070BD022070BD7047FEE7134801210D
:1013000010B5002488B04FF08043C0E90034C0E934
:101310000241046180228261FFF710FE00B1FEE706
:1013200020210720CDE9000108486946FFF7C2FFE8
:1013300000B1FEE7054805A905940794FFF7B6FD3F
:10134000002800D0FEE708B010BD0000100000200B
:101350001448632130B500244FF2234387B0104D69
:10136000C0E90241046180228261C0E90053FFF7B5
:10137000E5FD00B1FEE74FF480500390094803A952
:10138000FFF73EFE00B1FEE72020009005486946C9
:101390000294FFF78BFD002800D0FEE707B030BDB8
:1013A0000004004050000020FEE77047704770477F
:1013B00010B5FFF7BDF8BDE81040FFF771BD0000A4
:1013C000284870B59CB0016821F0040101602548EF
:1013D0000C300024016841F440410160016801F4CF
:1013E00040411B9101688904FCD5022009904025E9
:1013F00001210091C20301920A900FABCDE90B05C8
:101400000C210D900E9083E8130068461294FFF7AC
:10141000D3FA00B1FEE70A221A95CDE9162513AAE0
:101420003F20032182E813004FF4806670230021DF
:10143000CDE9183613A8FFF739F900B1FEE70A49DC
:101440004FF47A700968B1FBF0F0FFF716FD042045
:10145000FFF706FD0022501E1146FFF7F5F81CB0FD
:1014600070BD00000C4802580C0000201D4AF0B569
:101470001D49146800201C4B44F4700414601033A0
:101480000A681A4C42F001020A6018600D68164A98
:1014900025400D601832131D1C1D134D106028359A
:1014A00018602A1D2060131D1C1D2860251D10605A
:1014B0002A1D1860131D20601C1D28601060186014
:1014C00020600A680124084B064FE606084D603389
:1014D000803F22F480220A601860C5F808413E600F
:1014E000F0BD000088ED00E0004402587FEDF6EA10
:1014F000008000510148FFF702BE000010000020EC
:101500000148FFF7FCBD0000500000202DE9F04726
:10151000274B4FF0804A274D02889842264E274F8E
:10152000274C09D0504507D0A84205D0B04203D07F
:10153000B84201D0A04205D1D1F804C022F0700217
:101540004CEA0202DFF87CC0DFF87C809842DFF8CA
:101550007C900FD050450DD0A8420BD0B04209D09E
:10156000B84207D0A04205D0604503D0404501D025
:10157000484503D1CD6822F440722A438D8A22F077
:1015800080022A43028098428A68C2620A880285E1
:1015900007D0A04205D0604503D0404501D0484562
:1015A00001D1098A018601214161BDE8F08700006F
:1015B000000001400004004000080040000C004012
:1015C0000004014000400140004401400048014047
:1015D00042EA032283680A4323F47F410A4382607C
:1015E00070470000034B82681A400A4342F007012B
:1015F000816070478FFFCFFFF0B40568D1E90032FA
:101600001C4F1D4EAC683C40224332401343AB603C
:101610004A6812F00F0F1FD11211082A1CD2DFE8FE
:1016200002F01B1B1B1B0B1D23048A680068D1E9F9
:101630000313F0BCFFF7CCBF0268136A146A24F0EE
:101640000104146202680C69916921F0F00141EA19
:101650000411916100680362F0BC70470A69006878
:101660008968F0BC00F00AB80A6900688968F0BCB3
:1016700000F015B88FFFCFFFF8FFFEFF10B5036A2B
:10168000046A23F00A0324F00104046284690B4312
:1016900024F0F00141EA02118161036210BD10B52E
:1016A000036A23F0100303628369046A23F470431E
:1016B00024F0A00443EA0232826144EA011101628B
:1016C00010BDFEE7090700284FEA116104DB00F1B5
:1016D000E02080F80014704700F00F0000F1E020D7
:1016E00080F8141D704702E008C8121F08C1002AC4
:1016F000FAD170477047002001E001C1121F002A93
:10170000FBD1704786B0FEF71BFFFFF759FE234859
:10171000016841F080010160016801F080010591DC
:10172000016841F002010160006801221C4C0321A4
:1017300000F0020005902046FEF7EEFE0321012096
:101740000022CDE90221CDE9001069462046FEF7CE
:10175000E5FDFFF7FDFDFFF7D1FD002203211D2070
:10176000FEF772FF1D20FEF762FF002203211C20FE
:10177000FEF76AFF1C20FEF75AFF0A48FFF734FC09
:1017800008484038FFF730FC42F210742046FEF75C
:10179000B3FD0448FFF7B6FBF8E70000E044025849
:1017A0000004025850000020000000000102030461
:1017B0000102030406070809D817000800000020EA
:1017C00010000000E6160008E817000810000020CE
:1017D00080040000F6160008010000001000000060
:0817E000000000000090D0039E
:040000050800029954
:00000001FF
