:020000040800F2
:1000000018040020AD0200084D0E0008490E00083B
:100010004B0E0008F50200082D100008000000003B
:10002000000000000000000000000000510E000869
:10003000F7020008000000004F0E0008530E0008F1
:10004000C7020008C7020008C7020008C70200086C
:10005000C7020008C7020008C7020008C70200085C
:10006000C7020008C7020008C7020008C70200084C
:10007000C7020008C7020008C7020008C70200083C
:10008000C7020008C7020008C7020008C70200082C
:10009000C7020008C7020008C7020008C70200081C
:1000A000C7020008C7020008C7020008C70200080C
:1000B000C7020008C7020008C7020008C7020008FC
:1000C000C7020008C7020008C7020008C7020008EC
:1000D000C7020008C7020008C7020008C7020008DC
:1000E000C7020008C702000800000000C70200089D
:1000F000C7020008C7020008C7020008C7020008BC
:10010000C7020008C7020008C7020008C7020008AB
:10011000C7020008C7020008C7020008C70200089B
:10012000C7020008C7020008C7020008C70200088B
:10013000C7020008C7020008C7020008C70200087B
:1001400000000000000000000000000000000000AF
:10015000C7020008C7020008C7020008C70200085B
:10016000C7020008C7020008C7020008C70200084B
:10017000C7020008C7020008C7020008000000000C
:10018000C7020008C7020008C7020008C70200082B
:10019000C7020008C7020008C7020008C70200081B
:1001A000C7020008C7020008C7020008C70200080B
:1001B000C7020008C7020008C7020008C7020008FB
:1001C000C7020008C7020008C7020008C7020008EB
:1001D000C7020008C7020008C7020008C7020008DB
:1001E000C7020008C7020008C7020008C7020008CB
:1001F000C7020008C7020008C7020008C7020008BB
:10020000C7020008C7020008C7020008C7020008AA
:10021000C7020008C7020008C7020008C70200089A
:10022000C7020008C7020008C7020008000000005B
:10023000C7020008C702000800000000C70200084B
:10024000C7020008C7020008C7020008C70200086A
:10025000C7020008C7020008C7020008C70200085A
:10026000C7020008C7020008C7020008C70200084A
:10027000C7020008C7020008C7020008000000000B
:10028000C702000800000000C702000800000000CC
:1002900000000000C7020008DFF80CD000F018F8DA
:1002A00000480047711000081804002006488047E5
:1002B00006480047FEE7FEE7FEE7FEE7FEE7FEE74B
:1002C000FEE7FEE7FEE7FEE7A50F0008990200083B
:1002D000064C074D06E0E06840F0010394E8070093
:1002E00098471034AC42F6D3FFF7DAFF0C11000840
:1002F0002C110008FEE770472DE9F84F6F4D0022E2
:100300004FF001094FF0030E4FF00F0B0B6809FA85
:1003100002F803EA0803434574D14C68022C01D06B
:10032000122C0FD1D4080E69570700EB8404A246A3
:10033000246AFF0E0BFA07FCBE4024EA0C04264395
:10034000CAF820600F79540006680EFA04FC07F022
:10035000030726EA0C06A740374307604E68012EC4
:1003600005D0022E03D0112E01D0122E0FD1866897
:10037000CF6826EA0C06A7403743876046680F79A6
:1003800026EA0806C7F30017974037434760C76857
:100390008E6827EA0C07A6403E43C6604C68E4001E
:1003A00030D5474C266846F002062660246822F0C5
:1003B000030606F1B04604F0020400949407270FE8
:1003C000D6F80844DFF8FC800BFA07FC404524EA25
:1003D0000C0402D14FF0000C41E0DFF8ECC06045A6
:1003E00002D14FF0010C3AE0DFF8E0C0604502D1E5
:1003F0004FF0020C33E0DFF8D8C0604503D14FF076
:10040000030C2CE053E0DFF8CCC0604502D14FF084
:10041000040C24E0DFF8C0C0604502D14FF0050CA9
:100420001DE0DFF8B8C0604502D14FF0060C16E0C1
:10043000DFF8ACC0604502D14FF0070C0FE0DFF8E9
:10044000A4C0604502D14FF0080C08E0DFF898C066
:10045000604502D14FF0090C01E04FF00A0C0CFA94
:1004600007FC4CEA040CC6F808C42C684E6824EA61
:100470000304F60300D51C432C606C684E6824EA24
:100480000304B60300D51C436C604FF0B0444F68C2
:100490002668FF0226EA030600D51E4326604F6841
:1004A0006668BF0226EA030600D51E436660521C3A
:1004B000102AFFF42BAFBDE8F88F00008000005831
:1004C000F444025800000258000402580008025880
:1004D000000C02580010025800140258001802586C
:1004E000001C0258002002580024025842694A4069
:1004F000426170470AB10183704741837047000031
:1005000001488068704700000800002002488168A8
:10051000027811448160704708000020032010B564
:1005200000F082F8002000F007F808B1012010BDAB
:1005300000F022F8002010BD70B50D4D04464FF4B8
:100540007A700C4A29781268B0FBF1F0B2FBF0F037
:1005500000F063FC48B9102C07D200222146501E3F
:1005600000F042F800206C6070BD012070BD0000FA
:1005700008000020140000201A4808B5016841F066
:1005800002010160006800F002000090032000F00A
:100590004BF800226FF00B00114600F025F8002206
:1005A0006FF00A00114600F01FF800226FF00900FA
:1005B000114600F019F80022501F114600F014F8FF
:1005C0000022101F114600F00FF80022901E114665
:1005D00000F00AF80022BDE80840501E114600F065
:1005E00003B80000F44402580E4BF0B41B680D46EB
:1005F000C3F30223C3F10706042E00D90426191DF4
:10060000072901D2002300E0DB1E012404FA06F1D1
:100610009C40491E2940641E994014402143F0BC6F
:1006200000F005BD0CED00E0064900F0070210B532
:100630004FF6FF040868044B204040EA02201843AC
:10064000086010BD0CED00E00000FA052DE9F04750
:10065000DFF8C49104460E46D9F8000000F0070008
:10066000B0420CD2D9F8001021F007013143C9F88B
:100670000010D9F8000000F00700B04272D12078D5
:10068000DFF89881800707D5E268D8F8001021F0DC
:100690000F011143C8F800102078C00767D05F49E8
:1006A000A368D8F80020183922F470621A43C8F8F9
:1006B0000020606802281CD003281DD0096801288A
:1006C0001DD04907002963DA544D083D296821F0FF
:1006D000070101432960FFF713FF6168074641F2F4
:1006E0008830022914D0032920D0012982462AD03B
:1006F00039E009688903E5E709688901E2E7C90586
:10070000E0E700BFFFF7FCFEC11B514501D926E021
:1007100082462868C0F3C2000228F3D127E000BF58
:10072000FFF7EEFEC11B514501D918E0824628684B
:10073000C0F3C2000328F3D119E000BFFFF7E0FEC9
:10074000C11B51450BD82868C0F3C2000128F5D160
:100750000DE000BFFFF7D4FEC11B514503D90320B4
:10076000BDE8F08714E0286810F0380FF2D1D9F80E
:100770000010484601F00701B1420BD9016821F091
:10078000070131430160006800F00700B04201D06A
:100790000120E5E72078400707D52269D8F8001046
:1007A00021F070011143C8F8001021781B48001D8A
:1007B000090705D56269016821F0700111430160E4
:1007C0002178C90605D5A269016821F4E0611143C9
:1007D00001602078800607D51048E269083001687A
:1007E00021F070011143016000F01EF8D8F80010EC
:1007F0004FF4807292FAA2F201F47061B2FA82F2BE
:10080000D140074A515CC840064908600020FFF704
:1008100093FE0020A4E70000002000521844025874
:10082000FC100008140000204749F0B5474809684B
:10083000454B103B11F0380409D00111082C04D0AD
:10084000434A102C0BD0182C0BD00846F0BD196869
:100850008906FBD51968C1F3C101C840F0BD104637
:10086000F0BD394CDFF8E0C01834261D0CF1240C23
:100870002768351D2468DFED370AB7EE001A3668A1
:10088000DCF800C017F0030706F00106C4F30514F6
:10089000CCF3CC0C1CFB06F600EE106AB8EE400A56
:1008A00009D0012F01D0022F3BD02868B1FBF4F111
:1008B000C0F308003AE01968890615D51A68296856
:1008C000C2F3C102C1F30801D04001EE901AB0FB9F
:1008D000F4F0F8EE611A40EE201A00EE100A71EE04
:1008E000810AB8EE400A0BE02968B0FBF4F0C1F3CE
:1008F000080101EE901AB8EE612A01EE900A1BE0A1
:1009000020EE200A2868C0F34620401C00EE900A22
:10091000F8EE600A80EE201ABCEEC10A10EE100A52
:10092000F0BD2868B2FBF4F1C0F3080001EE900AB4
:10093000B8EE612A01EE901A00EE202AB8EE610AA4
:1009400072EE010ADCE70000104402580090D00368
:1009500040787D01000000392DE9F047FF4C054645
:100960000078DFF8F883103CFC4FC00708F1180846
:100970004CD03868C0F3C20002281AD03868C0F3DF
:10098000C200032805D1D8F8000000F003000228B7
:100990000FD06868B0F5803F12D010B1B0F5A02F2D
:1009A00018D0206820F480302060206820F4802057
:1009B00009E02068800329D56868002876D025E002
:1009C000206840F480302060686890B1FFF798FD9F
:1009D00006460AE0206840F480202060F0E700BF6F
:1009E000FFF78EFD801B64287ED820688003F7D532
:1009F0000CE0FFF785FD064605E000BFFFF780FD30
:100A0000801B6428F0D820688003F7D42878D34E60
:100A10000C3E80075DD538684FF47C3A10F0380FF3
:100A200013D03868C0F3C200032803D1D8F80000FF
:100A300080070AD0E868C0B3216821F0190101439A
:100A40002160FFF75DFD814620E02068400702D568
:100A5000E8680028B2D0E968206820F0190008434F
:100A60002060FFF74DFD814606E000BFFFF748FD1F
:100A7000A0EB09000228B7D820684007F6D508E0A7
:100A8000FFF73EFDA0EB09000228ADD82068400723
:100A9000F6D5286932689AFAAAF1B1FA81F188404C
:100AA00022F47C310143316013E000E0AAE02068C9
:100AB00020F001002060FFF723FD814606E000BF23
:100AC000FFF71EFDA0EB090002288DD82068400723
:100AD000F6D42878C00649D538684FF0F84AC0F3F4
:100AE000C200012817D000E0DAE03868C0F3C20085
:100AF000032805D1D8F8000000F0030001280AD02F
:100B0000E8690028206822D040F080002060FFF7CC
:100B1000F7FC81460CE02068C0050CD5E869802808
:100B200070D108E0FFF7ECFCA0EB09000228A2D886
:100B30002068C005F6D5286A32689AFAAAF1B1FA97
:100B400081F1884022F0F841014331600EE020F04D
:100B500080002060FFF7D4FC064604E0FFF7D0FCDD
:100B6000801B022887D82068C005F7D428780007A2
:100B700029D57A486969643000298146016811D015
:100B800041F001010160FFF7BBFC064605E000BF34
:100B9000FFF7B6FC801B022897D8D9F80000800721
:100BA000F6D510E021F001010160FFF7A9FC06462F
:100BB00005E000BFFFF7A4FC801B022870D8D9F81D
:100BC00000008007F6D42878800625D5A86900287B
:100BD000206810D040F480502060FFF791FC06465A
:100BE00005E000BFFFF78CFC801B022858D8206866
:100BF0008004F7D510E020F480502060FFF780FCDF
:100C0000064606E0D7E000BFFFF77AFC801B02280B
:100C100046D820688004F7D4287840074FD5DFF8FD
:100C20004091D9F8001041F48071C9F80010FFF725
:100C300067FC064605E000BFFFF762FC801B6428E6
:100C40002ED8D9F80000C005F6D5444EA868603605
:100C500001280AD008B1052813D0306820F001001F
:100C60003060306820F0040002E0306840F001009D
:100C70003060A86841F2883A98B1FFF741FC81469C
:100C80000AE0306840F004003060EEE7FFF738FC1F
:100C9000A0EB0901514503D830688007F6D50EE076
:100CA00088E0FFF72DFC814606E000BFFFF728FC37
:100CB000A0EB090151457DD830688007F6D4686AF9
:100CC000E8B33968C1F3C201032974D0022820684F
:100CD00020F08070206003D0FFF712FC054685E00D
:100CE000FFF70EFC064604E0FFF70AFC801B022813
:100CF00079D820688001F7D4EB6A40F2F332D8F853
:100D000000104FF4FE0755F8286F914341EA031194
:100D10003143C8F80010287B4FF0FE4C0F4EB5F859
:100D2000088040022B8A20362A7DA8F10108311D57
:100D3000A0F5007080B25B1EC8F3080800E058E020
:100D4000521E07EA034340EA080018434FF6F873BF
:100D50000CEA0262104330600A6803E01044025853
:100D60000048025893FAA3F72E6A24489A43B7FA28
:100D700087F7BE4032430A600168AA6921F00C017E
:100D8000114301600168EA6921F002011143016029
:100D9000016841F480310160016841F40031016073
:100DA000016841F480210160016841F001010160A6
:100DB000206801E017E01EE040F080702060FFF73F
:100DC0009FFB054605E000BFFFF79AFB401B02288A
:100DD00009D820688001F7D50BE000BFFFF790FB32
:100DE000401B022802D90320BDE8F087206880015B
:100DF000F4D40020F8E70120F6E700002C44025864
:100E000004284FF0E020016903D021F004010161C2
:100E1000704741F00401FAE77047401EB0F1807F4F
:100E200010B501D3012010BD4FF0E02460610F2107
:100E3000601700F0FCF80020A0610721216110BDBF
:100E400010B5FFF7E9FF10BDFEE7FEE770477047FA
:100E5000704710B5FFF75AFBBDE81040FFF7F0BF31
:100E6000244830B59DB0016821F00401016021489B
:100E70000C300021026822F4404242F480420260B9
:100E8000026802F440421B9202689204FCD51020D2
:100E90000090CDE90801802268460792FFF75CFDCB
:100EA00000B1FEE740201A9008240501CDE9164064
:100EB00013ACCDE918053F2101224FF4106384E8FB
:100EC0000E00002113A8FFF7C1FB00B1FEE70A499D
:100ED0004FF47A700968B1FBF0F0FFF79EFF042031
:100EE000FFF78EFF0022501E1146FFF77DFB1DB05D
:100EF00030BD00000C48025814000020274830B5CF
:100F00009DB0016821F00401016024480C300025E7
:100F1000016841F440410160016801F440411B91C6
:100F200001688904FCD50220099040240121009128
:100F3000C20301920A900FABCDE90B040C210D9076
:100F40000E9083E8230068461295FFF705FD00B177
:100F5000FEE708221A94CDE91624D30113AA3F20F4
:100F60000321CDE9184382E82300022113A8FFF7EB
:100F70006DFB00B1FEE70A494FF47A700968B1FBD6
:100F8000F0F0FFF74AFF0420FFF73AFF0022501E5F
:100F90001146FFF729FB1DB030BD00000C48025878
:100FA000140000201D4AF0B51D49146800201C4B98
:100FB00044F47004146010330A681A4C42F00102C1
:100FC0000A6018600D68164A25400D601832131D1E
:100FD0001C1D134D1060283518602A1D2060131D3C
:100FE0001C1D2860251D10602A1D1860131D20601F
:100FF0001C1D28601060186020600A680124084BDE
:10100000064FE606084D6033803F22F480220A60D6
:101010001860C5F808413E60F0BD000088ED00E0B2
:10102000004402587FEDF6EA00800051FEE7090710
:1010300000284FEA116104DB00F1E02080F8001481
:10104000704700F00F0000F1E02080F8141D704799
:1010500002E008C8121F08C1002AFAD17047704781
:10106000002001E001C1121F002AFBD170470000DF
:1010700086B0FFF753FAFFF7F3FE1C48016841F012
:1010800080010160016801F080010591016841F073
:101090000201016000680022154D032100F00200EA
:1010A00005902846FFF726FA00200321009101222F
:1010B0006946CDE9012003902846FFF71DF90D4C44
:1010C0000D4E2068401C2060142801D1FFF716FF48
:1010D00002212846FFF70AFA6068401EFDD201216E
:1010E00028466660FFF702FAEBE70000E04402588A
:1010F0000004025800000020FFFF1F000000000055
:101100000102030401020304060708092C11000868
:1011100000000020180000005010000844110008D2
:10112000180000200004000060100008000000000B
:10113000FFFF0000010000001000000000000000A0
:041140000090D00348
:040000050800029954
:00000001FF
