:020000040800F2
:1000000020040020AD0200084F0F0008E10E000898
:100010004D0F0008F50200089910000800000000CC
:10002000000000000000000000000000530F000866
:10003000F702000800000000510F0008550F0008EB
:10004000C7020008C7020008C7020008C70200086C
:10005000C7020008C7020008C7020008C70200085C
:10006000C7020008C7020008C7020008C70200084C
:10007000C7020008C7020008C7020008C70200083C
:10008000C7020008C7020008C7020008C70200082C
:10009000C7020008C7020008C7020008C70200081C
:1000A000C7020008C7020008C7020008C70200080C
:1000B000C7020008C7020008C7020008C7020008FC
:1000C000C7020008C7020008C7020008C7020008EC
:1000D000C7020008C7020008C7020008C7020008DC
:1000E000C7020008C702000800000000C70200089D
:1000F000C7020008C7020008C7020008C7020008BC
:10010000C7020008C7020008C7020008C7020008AB
:10011000C7020008C7020008C7020008C70200089B
:10012000C7020008C7020008C7020008C70200088B
:10013000C7020008C7020008C7020008C70200087B
:1001400000000000000000000000000000000000AF
:10015000C7020008C7020008C7020008C70200085B
:10016000C7020008C7020008C7020008C70200084B
:10017000C7020008C7020008C7020008000000000C
:10018000C7020008C7020008C7020008C70200082B
:10019000C7020008C7020008C7020008C70200081B
:1001A000C7020008C7020008C7020008C70200080B
:1001B000C7020008C7020008C7020008C7020008FB
:1001C000C7020008C7020008C7020008C7020008EB
:1001D000C7020008C7020008C7020008C7020008DB
:1001E000C7020008C7020008C7020008C7020008CB
:1001F000C7020008C7020008C7020008C7020008BB
:10020000C7020008C7020008C7020008C7020008AA
:10021000C7020008C7020008C7020008C70200089A
:10022000C7020008C7020008C7020008000000005B
:10023000C7020008C702000800000000C70200084B
:10024000C7020008C7020008C7020008C70200086A
:10025000C7020008C7020008C7020008C70200085A
:10026000C7020008C7020008C7020008C70200084A
:10027000C7020008C7020008C7020008000000000B
:10028000C702000800000000C702000800000000CC
:1002900000000000C7020008DFF80CD000F018F8DA
:1002A00000480047DD100008200400200648804771
:1002B00006480047FEE7FEE7FEE7FEE7FEE7FEE74B
:1002C000FEE7FEE7FEE7FEE71110000899020008CE
:1002D000064C074D06E0E06840F0010394E8070093
:1002E00098471034AC42F6D3FFF7DAFF64110008E8
:1002F00084110008FEE7704770B5044600F016F957
:100300000546601C02D004480078044400F00EF951
:10031000401BA042FAD370BD000000202DE9F84F29
:100320006F4D00224FF001094FF0030E4FF00F0BFD
:100330000B6809FA02F803EA0803434574D14C68D4
:10034000022C01D0122C0FD1D4080E69570700EBF4
:100350008404A246246AFF0E0BFA07FCBE4024EA7E
:100360000C042643CAF820600F79540006680EFA80
:1003700004FC07F0030726EA0C06A7403743076092
:100380004E68012E05D0022E03D0112E01D0122E60
:100390000FD18668CF6826EA0C06A74037438760EE
:1003A00046680F7926EA0806C7F3001797403743D7
:1003B0004760C7688E6827EA0C07A6403E43C660C0
:1003C0004C68E40030D5474C266846F002062660AB
:1003D000246822F0030606F1B04604F002040094FB
:1003E0009407270FD6F80844DFF8FC800BFA07FCC7
:1003F000404524EA0C0402D14FF0000C41E0DFF844
:10040000ECC0604502D14FF0010C3AE0DFF8E0C0EB
:10041000604502D14FF0020C33E0DFF8D8C06045F0
:1004200003D14FF0030C2CE053E0DFF8CCC0604563
:1004300002D14FF0040C24E0DFF8C0C0604502D1C7
:100440004FF0050C1DE0DFF8B8C0604502D14FF059
:10045000060C16E0DFF8ACC0604502D14FF0070C87
:100460000FE0DFF8A4C0604502D14FF0080C08E0AF
:10047000DFF898C0604502D14FF0090C01E04FF061
:100480000A0C0CFA07FC4CEA040CC6F808C42C68E9
:100490004E6824EA0304F60300D51C432C606C6804
:1004A0004E6824EA0304B60300D51C436C604FF089
:1004B000B0444F682668FF0226EA030600D51E43B3
:1004C00026604F686668BF0226EA030600D51E4311
:1004D0006660521C102AFFF42BAFBDE8F88F0000B5
:1004E00080000058F44402580000025800040258EA
:1004F00000080258000C025800100258001402585C
:1005000000180258001C025800200258002402580B
:100510000069084000D00120704742694A404261AA
:1005200070470AB101837047418370470148806872
:10053000704700000000002070B5040011D0226850
:100540004CF6CC4145F25550116021680860D4E961
:10055000000141602168A0688860FFF7E7FF054659
:1005600009E0012070BD00BFFFF7E0FF401B30280D
:1005700001D9032070BD2068C0680028F4D120682C
:10058000E16802698A4201D0016102E04AF6AA21CB
:100590000160002070BD01684AF6AA2008600020B2
:1005A00070470000024881680278114481607047FA
:1005B00000000020032010B500F082F8002000F0B9
:1005C00007F808B1012010BD00F022F8002010BD8E
:1005D00070B50D4D04464FF47A700C4A29781268B4
:1005E000B0FBF1F0B2FBF0F000F063FC48B9102C66
:1005F00007D200222146501E00F042F800206C6015
:1006000070BD012070BD0000000000200C00002023
:100610001A4808B5016841F002010160006800F065
:1006200002000090032000F04BF800226FF00B0056
:10063000114600F025F800226FF00A00114600F084
:100640001FF800226FF00900114600F019F800228F
:10065000501F114600F014F80022101F114600F040
:100660000FF80022901E114600F00AF80022BDE8A3
:100670000840501E114600F003B80000F444025830
:100680000E4BF0B41B680D46C3F30223C3F10706FB
:10069000042E00D90426191D072901D2002300E0E9
:1006A000DB1E012404FA06F19C40491E2940641E09
:1006B000994014402143F0BC00F0EFBC0CED00E089
:1006C000064900F0070210B54FF6FF040868044B16
:1006D000204040EA02201843086010BD0CED00E005
:1006E0000000FA052DE9F047DFF8C49104460E46F4
:1006F000D9F8000000F00700B0420CD2D9F8001081
:1007000021F007013143C9F80010D9F8000000F0CA
:100710000700B04272D12078DFF89881800707D5B2
:10072000E268D8F8001021F00F011143C8F800105A
:100730002078C00767D05F49A368D8F8002018392F
:1007400022F470621A43C8F80020606802281CD0A6
:1007500003281DD0096801281DD04907002963DA44
:10076000544D083D296821F0070101432960FFF736
:10077000DDFE6168074641F28830022914D0032962
:1007800020D0012982462AD039E009688903E5E7AB
:1007900009688901E2E7C905E0E700BFFFF7C6FE87
:1007A000C11B514501D926E082462868C0F3C2002A
:1007B0000228F3D127E000BFFFF7B8FEC11B514567
:1007C00001D918E082462868C0F3C2000328F3D19B
:1007D00019E000BFFFF7AAFEC11B51450BD82868DE
:1007E000C0F3C2000128F5D10DE000BFFFF79EFE67
:1007F000C11B514503D90320BDE8F08714E02868E8
:1008000010F0380FF2D1D9F80010484601F0070176
:10081000B1420BD9016821F0070131430160006842
:1008200000F00700B04201D00120E5E72078400742
:1008300007D52269D8F8001021F070011143C8F8DB
:10084000001021781B48001D090705D56269016861
:1008500021F07001114301602178C90605D5A26914
:10086000016821F4E061114301602078800607D51A
:100870001048E2690830016821F0700111430160FD
:1008800000F01EF8D8F800104FF4807292FAA2F22D
:1008900001F47061B2FA82F2D140074A515CC8405B
:1008A000064908600020FFF793FE0020A4E700003F
:1008B0000020005218440258541100080C00002077
:1008C0004749F0B547480968454B103B11F03804DB
:1008D00009D00111082C04D0434A102C0BD0182C3D
:1008E0000BD00846F0BD19688906FBD51968C1F31D
:1008F000C101C840F0BD1046F0BD394CDFF8E0C082
:100900001834261D0CF1240C2768351D2468DFEDF2
:10091000370AB7EE001A3668DCF800C017F0030794
:1009200006F00106C4F30514CCF3CC0C1CFB06F650
:1009300000EE106AB8EE400A09D0012F01D0022F54
:100940003BD02868B1FBF4F1C0F308003AE0196825
:10095000890615D51A682968C2F3C102C1F30801D6
:10096000D04001EE901AB0FBF4F0F8EE611A40EEC0
:10097000201A00EE100A71EE810AB8EE400A0BE070
:100980002968B0FBF4F0C1F3080101EE901AB8EE4B
:10099000612A01EE900A1BE020EE200A2868C0F3CD
:1009A0004620401C00EE900AF8EE600A80EE201A05
:1009B000BCEEC10A10EE100AF0BD2868B2FBF4F1DB
:1009C000C0F3080001EE900AB8EE612A01EE901A19
:1009D00000EE202AB8EE610A72EE010ADCE70000A0
:1009E000104402580090D00340787D010000003987
:1009F0002DE9F047FF4C05460078DFF8F883103CFE
:100A0000FC4FC00708F118084CD03868C0F3C2008A
:100A100002281AD03868C0F3C200032805D1D8F8DC
:100A2000000000F0030002280FD06868B0F5803F96
:100A300012D010B1B0F5A02F18D0206820F480306B
:100A40002060206820F4802009E02068800329D5F8
:100A50006868002876D025E0206840F48030206067
:100A6000686890B1FFF762FD06460AE0206840F42E
:100A700080202060F0E700BFFFF758FD801B64284E
:100A80007ED820688003F7D50CE0FFF74FFD0646BF
:100A900005E000BFFFF74AFD801B6428F0D82068FE
:100AA0008003F7D42878D34E0C3E80075DD5386894
:100AB0004FF47C3A10F0380F13D03868C0F3C200FE
:100AC000032803D1D8F8000080070AD0E868C0B333
:100AD000216821F0190101432160FFF727FD8146BC
:100AE00020E02068400702D5E8680028B2D0E96815
:100AF000206820F0190008432060FFF717FD8146A9
:100B000006E000BFFFF712FDA0EB09000228B7D8EE
:100B100020684007F6D508E0FFF708FDA0EB0900C4
:100B20000228ADD820684007F6D5286932689AFABD
:100B3000AAF1B1FA81F1884022F47C31014331609D
:100B400013E000E0AAE0206820F001002060FFF739
:100B5000EDFC814606E000BFFFF7E8FCA0EB0900D2
:100B600002288DD820684007F6D42878C00649D5D9
:100B700038684FF0F84AC0F3C200012817D000E0EF
:100B8000DAE03868C0F3C200032805D1D8F80000C5
:100B900000F0030001280AD0E8690028206822D06C
:100BA00040F080002060FFF7C1FC81460CE0206827
:100BB000C0050CD5E869802870D108E0FFF7B6FCC5
:100BC000A0EB09000228A2D82068C005F6D5286A43
:100BD00032689AFAAAF1B1FA81F1884022F0F8411C
:100BE000014331600EE020F080002060FFF79EFCA2
:100BF000064604E0FFF79AFC801B022887D820688D
:100C0000C005F7D42878000729D57A486969643087
:100C100000298146016811D041F001010160FFF710
:100C200085FC064605E000BFFFF780FC801B02281C
:100C300097D8D9F800008007F6D510E021F001011F
:100C40000160FFF773FC064605E000BFFFF76EFC8E
:100C5000801B022870D8D9F800008007F6D42878C5
:100C6000800625D5A8690028206810D040F480505F
:100C70002060FFF75BFC064605E000BFFFF756FC6F
:100C8000801B022858D820688004F7D510E020F493
:100C900080502060FFF74AFC064606E0D7E000BF20
:100CA000FFF744FC801B022846D820688004F7D454
:100CB000287840074FD5DFF84091D9F8001041F46B
:100CC0008071C9F80010FFF731FC064605E000BF4F
:100CD000FFF72CFC801B64282ED8D9F80000C00533
:100CE000F6D5444EA868603601280AD008B1052818
:100CF00013D0306820F001003060306820F004002C
:100D000002E0306840F001003060A86841F2883AA3
:100D100098B1FFF70BFC81460AE0306840F0040010
:100D20003060EEE7FFF702FCA0EB0901514503D864
:100D300030688007F6D50EE088E0FFF7F7FB8146C4
:100D400006E000BFFFF7F2FBA0EB090151457DD89B
:100D500030688007F6D4686AE8B33968C1F3C20125
:100D6000032974D00228206820F08070206003D00E
:100D7000FFF7DCFB054685E0FFF7D8FB064604E0FD
:100D8000FFF7D4FB801B022879D820688001F7D4B4
:100D9000EB6A40F2F332D8F800104FF4FE0755F832
:100DA000286F914341EA03113143C8F80010287BB2
:100DB0004FF0FE4C0F4EB5F8088040022B8A2036CB
:100DC0002A7DA8F10108311DA0F5007080B25B1EDC
:100DD000C8F3080800E058E0521E07EA034340EA5F
:100DE000080018434FF6F8730CEA026210433060B3
:100DF0000A6803E0104402580048025893FAA3F727
:100E00002E6A24489A43B7FA87F7BE4032430A60F5
:100E10000168AA6921F00C01114301600168EA69C7
:100E200021F0020111430160016841F48031016049
:100E3000016841F400310160016841F480210160E2
:100E4000016841F001010160206801E017E01EE047
:100E500040F080702060FFF769FB054605E000BFA9
:100E6000FFF764FB401B022809D820688001F7D5F2
:100E70000BE000BFFFF75AFB401B022802D90320FA
:100E8000BDE8F08720688001F4D40020F8E7012055
:100E9000F6E700002C44025804284FF0E0200169D6
:100EA00003D021F004010161704741F00401FAE729
:100EB0007047401EB0F1807F10B501D3012010BDF6
:100EC0004FF0E02460610F21601700F0E6F8002089
:100ED000A0610721216110BD10B5FFF7E9FF10BD2A
:100EE000FEE70000164870B586B0016841F0800149
:100EF0000160016801F080010591016841F0020183
:100F00000160006801220F4E114600F002000590BA
:100F10003046FFF706FB00246946012504208DE8D2
:100F200031000948FFF7FAF911200321CDE90050FB
:100F3000CDE9024169463046FFF7F0F906B070BDD1
:100F4000E044025800040258001C0258FEE77047B3
:100F50007047704710B5FFF725FBBDE81040FFF75D
:100F6000BBBF0000284830B59DB0016821F00401E6
:100F7000016025480C300025016841F440410160C2
:100F8000016801F440411B9101688904FCD50220ED
:100F900009900921C20340240123CDE900120593E1
:100FA0000FAA0A900C21CDE90B040D900E9082E857
:100FB000230068461295FFF71BFD00B1FEE70822EB
:100FC0001A94CDE91624D30113AA3F200321CDE9B9
:100FD000184382E82300022113A8FFF783FB00B126
:100FE000FEE70A494FF47A700968B1FBF0F0FFF7A9
:100FF00060FF0420FFF750FF0022501E1146FFF74C
:101000003FFB1DB030BD00000C4802580C00002012
:101010001D4AF0B51D49146800201C4B44F47004AF
:10102000146010330A681A4C42F001020A6018601A
:101030000D68164A25400D601832131D1C1D134DF6
:101040001060283518602A1D2060131D1C1D2860A3
:10105000251D10602A1D1860131D20601C1D2860AE
:101060001060186020600A680124084B064FE606ED
:10107000084D6033803F22F480220A601860C5F872
:1010800008413E60F0BD000088ED00E000440258D9
:101090007FEDF6EA00800051FEE7090700284FEADD
:1010A000116104DB00F1E02080F80014704700F0CB
:1010B0000F0000F1E02080F8141D704702E008C81E
:1010C000121F08C1002AFAD170477047002001E0C2
:1010D00001C1121F002AFBD170470000FFF76AFA16
:1010E000FFF740FFFFF7FEFE17484FF47A71154BEC
:1010F00003220360C160C0E90121FFF71DFA134C10
:1011000040F2EE2500B1FEE7114E2846FFF7F4F855
:1011100004212046FFF7FCF910B90B48FFF73BFA12
:101120002846FFF7E9F801213046FFF7F6F90421D8
:101130002046FFF7EDF90028E7D10348FFF72BFA27
:10114000E3E700000048005810000020001C02588F
:10115000000402580000000001020304010203041D
:101160000607080984110008000000201000000094
:10117000BC100008941100081000002010040000AA
:10118000CC1000080100000010000000000000006A
:041190000090D003F8
:040000050800029954
:00000001FF
