:020000040800F2
:10000000982C0020AD020008752A00087529000808
:10001000712A000895030008653B000800000000F5
:10002000000000000000000000000000D92C0008C3
:100030009903000800000000772A0008DB2C000864
:10004000C7020008C7020008C7020008C70200086C
:10005000C7020008C7020008C7020008C70200085C
:10006000C7020008C7020008C7020008C70200084C
:10007000C7020008C7020008C7020008C70200083C
:10008000C7020008C7020008C7020008C70200082C
:10009000C7020008C7020008C7020008C70200081C
:1000A000C7020008C7020008C7020008C70200080C
:1000B000C7020008C7020008C7020008C7020008FC
:1000C000C7020008C7020008C7020008C7020008EC
:1000D000C7020008553B0008C7020008C702000815
:1000E000C7020008C702000800000000C70200089D
:1000F000C7020008C7020008C7020008C7020008BC
:10010000C7020008C7020008C7020008C7020008AB
:10011000C7020008C7020008C7020008C70200089B
:10012000C7020008C7020008C7020008C70200088B
:10013000C7020008C7020008C7020008C70200087B
:1001400000000000000000000000000000000000AF
:10015000C7020008C7020008C7020008C70200085B
:10016000C7020008C7020008C7020008C70200084B
:10017000C7020008C7020008C7020008000000000C
:10018000C7020008C7020008C7020008C70200082B
:10019000C7020008C7020008C7020008C70200081B
:1001A000C7020008C7020008C7020008C70200080B
:1001B000C7020008C7020008C7020008C7020008FB
:1001C000C7020008C7020008C7020008C7020008EB
:1001D000C7020008C7020008C7020008C7020008DB
:1001E000C7020008C7020008C7020008C7020008CB
:1001F000C7020008C7020008C7020008C7020008BB
:10020000C7020008C7020008C7020008C7020008AA
:10021000C7020008C7020008C7020008C70200089A
:10022000C7020008C7020008C7020008000000005B
:10023000C7020008C702000800000000C70200084B
:10024000C7020008C7020008C7020008C70200086A
:10025000C7020008C7020008C7020008C70200085A
:10026000C7020008C7020008C7020008C70200084A
:10027000C7020008C7020008C7020008000000000B
:10028000C702000800000000C702000800000000CC
:1002900000000000C7020008DFF80CD000F068F88A
:1002A00000480047C53B0008982C002006488047BE
:1002B00006480047FEE7FEE7FEE7FEE7FEE7FEE74B
:1002C000FEE7FEE7FEE7FEE7ED2D000899020008D5
:1002D0002DE9F05F0546002092469B46884606467B
:1002E000814640241BE0284641464746224600F00E
:1002F0002FF853465A46C01A914110D3114618465A
:10030000224600F016F82D1A67EB01084F462246E8
:100310000120002100F00DF817EB00094E41201ECE
:10032000A4F10104DFDC484631462A464346BDE8D5
:10033000F09F202A04DB203A00FA02F100207047E7
:100340009140C2F1200320FA03F319439040704713
:10035000202A04DB203A21FA02F00021704721FA1A
:1003600002F3D040C2F12002914008431946704781
:10037000064C074D06E0E06840F0010394E80700F2
:1003800098471034AC42F6D3FFF78AFF543C00087C
:10039000743C000800BFFEE77047000010B504463B
:1003A0000CB9012010BD94F83500022803D080203C
:1003B00060650120F6E734492068884205D3334957
:1003C0002068884201D8012000E00020C0B104204C
:1003D00084F835002C49206888420AD32B492068CC
:1003E000884206D82068006820F001002168086073
:1003F00048E02068006820F001002168086041E0C2
:100400002068006820F00E00216808601E492068FE
:1004100088420AD31D492068884206D820680068AF
:1004200020F001002168086005E02068006820F0E5
:10043000010021680860206E006820F48070216E41
:10044000086094F85C100120884011490860D4E9E4
:1004500019104860E06E40B1E06E006820F48070D2
:10046000E16E0860D4E91C10486000BF002084F8E9
:10047000340000BF012084F83500206D10B1204603
:10048000216D884700208DE710000240B80402402B
:100490000454025870B5044600F040F9064625465B
:1004A000681C10B104480078054400BF00F036F91C
:1004B000801BA842FAD370BD08000020F8B50246A0
:1004C0000B460021002600240020824D00BFFCE0E6
:1004D000012707FA01F61F6807EA0604B4427CD137
:1004E0005F68022F02D05F68122F1AD14FEAD10C39
:1004F00002F1200757F82C004F074FEAD76C0F275F
:1005000007FA0CF7B8434FEA417C4FEADC6C1F69ED
:1005100007FA0CF738434FEAD10C02F1200747F8ED
:100520002C0010684FEA410C032707FA0CF7B84378
:100530001F7907F003074FEA410C07FA0CF738431D
:1005400010605F68012F08D05F68022F05D05F68D8
:10055000112F02D05F68122F17D190684FEA410C1B
:10056000032707FA0CF7B8434FEA410CDF6807FA94
:100570000CF738439060506801278F40B8431F79CB
:10058000C7F300178F4038435060D0684FEA410CE2
:10059000032707FA0CF7B8434FEA410C9F6807FAA4
:1005A0000CF73843D0605F6807F08057B7F1805F81
:1005B00095D100BF484F3F6847F00207DFF818C1E8
:1005C000CCF8007067463F6807F00207009700BF4D
:1005D00000BF424F4FEA910C00E075E057F82C0045
:1005E0008F074FEA177C0F2707FA0CF7B8433C4FE9
:1005F000BA4201D100272DE03A4FBA4201D101277A
:1006000028E0394FBA4201D1022723E0374FBA42DE
:1006100001D103271EE0364FBA4201D1042719E069
:10062000344FBA4201D1052714E0334FBA4201D109
:1006300006270FE0314FBA4201D107270AE0304FB9
:10064000BA4201D1082705E02E4FBA4201D109274D
:1006500000E00A274FEA817C4FEA1C7C07FA0CF77E
:1006600038431E4F4FEA910C47F82C002868A043EE
:100670005F6807F48037B7F5803F00D120432860DA
:100680006868A0435F6807F40037B7F5003F00D102
:10069000204368604FF0B0473868A0435F6807F4B4
:1006A0008017B7F5801F00D120434FF0B047386066
:1006B0007868A0435F6807F40017B7F5001F00D102
:1006C00020434FF0B0477860491C1029FFF400AF79
:1006D000F8BD000080000058F44402580804005897
:1006E000000002580004025800080258000C02588A
:1006F000001002580014025800180258001C02583A
:10070000002002580024025842694A404261704762
:100710000AB1018300E0418370470000014800688E
:100720007047000000000020034800680349097872
:1007300008440149086070470000002008000020BC
:1007400010B5032000F0BAF8002000F007F808B157
:10075000012010BD00F028F80020FAE770B504462B
:100760000E4800784FF47A71B1FBF0F00C4909683B
:10077000B1FBF0F5284601F0B4FE08B1012070BDD0
:10078000102C07D200222146501E00F059F80548CF
:10079000046001E00120F2E70020F0E708000020FB
:1007A0000C0000200400002008B500BF1B480068B2
:1007B00040F00200194908600846006800F0020095
:1007C000009000BF00BF052000F078F8002211461D
:1007D0006FF00B0000F034F8002211466FF00A00B1
:1007E00000F02EF8002211466FF0090000F028F802
:1007F00000221146501F00F023F800221146101F5E
:1008000000F01EF800221146901E00F019F8002298
:100810001146501E00F014F808BD0000F4440258C0
:1008200001460846002809DB00F01F0301229A4018
:1008300043099B0003F1E023C3F8002100BF704788
:100840002DE9F05F80460D46164603F08FF9074606
:1008500039462A46334601F00700C0F1070ABAF1CB
:10086000040F02D94FF0040A01E0C0F1070AD14693
:1008700000F1040ABAF1070F02D24FF0000A01E0BA
:10088000A0F1030AD4464FF0010A0AFA09FAAAF1C4
:10089000010A0AEA020A0AFA0CFA4FF0010B0BFAF3
:1008A0000CFBABF1010B0BEA030B4AEA0B042146EC
:1008B000404603F063F9BDE8F09F000000BF00F080
:1008C0000702064B19684FF6FF031940044B0B4310
:1008D00043EA0221014B196000BF70470CED00E0B4
:1008E0000000FA0510B501F067F90949096801F43B
:1008F00070614FF4807292FAA2F2B2FA82F2D140A1
:10090000044A515CC840044908600846006810BDAC
:1009100018440258443C00080C00002010B501F0B7
:1009200003F90749096801F07001102292FAA2F256
:10093000B2FA82F2D140034A515CC84010BD0000B7
:1009400020440258443C000870B5014600220120B2
:10095000002300249FED811AB0EE410A9FED7F1A1B
:10096000F0EE410A7E4D2D6805F003027C4D2D68A6
:10097000C5F305307A4D2D1D2D6805F01003784D17
:1009800014352D68C5F3CC0515FB03F501EE105A9F
:10099000B8EE411AB0EE410A22B1012A4DD0022A26
:1009A0007DD169E06E4D283D2D68C5F340152DB30E
:1009B0006B4D283D2D68C5F3C1066A4D25FA06F436
:1009C000B4FBF0F501EE105AF8EE411A9FED661AED
:1009D00080EE012A624D10352D68C5F3080501EE41
:1009E000105AB8EE411A32EE011AB7EE002A31EE73
:1009F000021A21EE811AF0EE410A1DE0594DB5FBB5
:100A0000F0F501EE105AF8EE411A9FED571A80EEFC
:100A1000012A534D10352D68C5F3080501EE105A13
:100A2000B8EE411A32EE011AB7EE002A31EE021A80
:100A300021EE811AF0EE410A5EE04C4DB5FBF0F577
:100A400001EE105AB8EE412A9FED471AC0EE011A86
:100A5000434D10352D68C5F3080501EE105AB8EE68
:100A6000411A31EE811AF7EE001A31EE211A22EE08
:100A7000011AF0EE410A3FE03D4DB5FBF0F501EE05
:100A8000105AF8EE411A9FED381A80EE012A344DC3
:100A900010352D68C5F3080501EE105A00E00CE092
:100AA000B8EE411A32EE011AB7EE002A31EE021A00
:100AB00021EE811AF0EE410A1EE02C4DB5FBF0F557
:100AC00001EE105AB8EE412A9FED271AC0EE011A26
:100AD000234D10352D68C5F3080501EE105AB8EE08
:100AE000411A31EE811AF7EE001A31EE211A22EE88
:100AF000011AF0EE410A00BF00BF194D10352D68F4
:100B0000C5F346256D1C01EE105AB8EE411AC0EE31
:100B1000811ABCEEE11A81ED001A114D10352D68D5
:100B2000C5F306456D1C01EE105AB8EE411AC0EE31
:100B3000811ABCEEE11A81ED011A094D10352D68BC
:100B4000C5F306656D1C01EE105AB8EE411AC0EEF1
:100B5000811ABCEEE11A81ED021A70BD000000009E
:100B6000284402580090D0030000004600093D00D0
:100B700040787D0170B50146002201200023002449
:100B80009FED811AB0EE410A9FED7F1AF0EE410A07
:100B90007E4D2D6805F003027C4D2D68C5F3055090
:100BA0007A4D2D1D2D6805F48073784D1C352D6808
:100BB000C5F3CC0515FB03F501EE105AB8EE411A4A
:100BC000B0EE410A22B1012A4DD0022A7DD169E05E
:100BD0006E4D283D2D68C5F340152DB36B4D283D56
:100BE0002D68C5F3C1066A4D25FA06F4B4FBF0F58D
:100BF00001EE105AF8EE411A9FED661A80EE012AB6
:100C0000624D18352D68C5F3080501EE105AB8EE8F
:100C1000411A32EE011AB7EE002A31EE021A21EE25
:100C2000811AF0EE410A1DE0594DB5FBF0F501EED9
:100C3000105AF8EE411A9FED571A80EE012A534DD3
:100C400018352D68C5F3080501EE105AB8EE411AA3
:100C500032EE011AB7EE002A31EE021A21EE811AA5
:100C6000F0EE410A5EE04C4DB5FBF0F501EE105A96
:100C7000B8EE412A9FED471AC0EE011A434D1835D0
:100C80002D68C5F3080501EE105AB8EE411A31EE91
:100C9000811AF7EE001A31EE211A22EE011AF0EE57
:100CA000410A3FE03D4DB5FBF0F501EE105AF8EE7C
:100CB000411A9FED381A80EE012A344D18352D68FF
:100CC000C5F3080501EE105A00E00CE0B8EE411A39
:100CD00032EE011AB7EE002A31EE021A21EE811A25
:100CE000F0EE410A1EE02C4DB5FBF0F501EE105A76
:100CF000B8EE412A9FED271AC0EE011A234D183590
:100D00002D68C5F3080501EE105AB8EE411A31EE10
:100D1000811AF7EE001A31EE211A22EE011AF0EED6
:100D2000410A00BF00BF194D18352D68C5F346258F
:100D30006D1C01EE105AB8EE411AC0EE811ABCEEDD
:100D4000E11A81ED001A114D18352D68C5F30645DD
:100D50006D1C01EE105AB8EE411AC0EE811ABCEEBD
:100D6000E11A81ED011A094D18352D68C5F30665A4
:100D70006D1C01EE105AB8EE411AC0EE811ABCEE9D
:100D8000E11A81ED021A70BD0000000028440258EB
:100D90000090D0030000004600093D0040787D012E
:100DA0002DE9F041044600250026206800F000608F
:100DB000B0F1006F30D1606E48B1B0F5801F0DD03A
:100DC000B0F5001F10D0B0F5401F15D113E0F94861
:100DD000006840F40030F74908600FE00221201D50
:100DE00001F04AFE054609E0022104F1240001F069
:100DF000DBFE054602E001E0012500BF00BF55B95A
:100E0000EC482430006820F44010616E0843E94942
:100E10002431086000E02E43208800F48070B0F593
:100E2000807F2DD1606D05281AD2DFE800F0030A1B
:100E300010171800DF48006840F40030DD490860F2
:100E400010E00021201D01F017FE05460AE00021F8
:100E500004F1240001F0A8FE054603E002E001E0F1
:100E6000012500BF00BF55B9D2482430006820F0EA
:100E70000700616D0843CF492431086000E02E432C
:100E8000208800F40070B0F5007F33D1A06D802879
:100E900017D003DC40B140281CD10CE0C02817D08B
:100EA000B0F5807F16D114E0C248006840F40030ED
:100EB000C049086010E00021201D01F0DDFD05465D
:100EC0000AE0002104F1240001F06EFE054603E073
:100ED00002E001E0012500BF00BF55B9B54824304C
:100EE000006820F4E070A16D0843B2492431086025
:100EF00000E02E43208800F48060B0F5806F38D188
:100F0000D4F8A400B0F5800F19D004DC50B1B0F5CE
:100F1000001F1DD10DE0B0F5C00F17D0B0F5000FC8
:100F200016D114E0A348006840F40030A1490860DD
:100F300010E00021201D01F09FFD05460AE0002180
:100F400004F1240001F030FE054603E002E001E078
:100F5000012500BF00BF5DB996482C30006820F421
:100F60006000D4F8A410084392492C31086000E0D6
:100F70002E43208800F40060B0F5006F38D1D4F81B
:100F8000A800B0F1007F19D004DC50B1B0F1807F2F
:100F90001DD10DE0B0F1407F17D0B0F1806F16D1B8
:100FA00014E08448006840F400308249086010E092
:100FB0000021201D01F060FD05460AE0002104F13A
:100FC000240001F0F1FD054603E002E001E0012507
:100FD00000BF00BF5DB977482C30006820F0E060AA
:100FE000D4F8A810084373492C31086000E02E4360
:100FF000206800F00070B0F1007F27D1A06CA0B194
:10100000102804D0202809D030280FD10CE06948DE
:10101000006840F400306749086009E00221201DA3
:1010200001F02AFD054603E002E001E0012500BFD2
:1010300000BF55B95F482030006820F03000A16C37
:1010400008435C492031086000E02E43208800F40A
:101050008050B0F5805F36D1E06DB0F5005F19D0FB
:1010600004DC50B1B0F5805F1DD10DE0B0F5405FFC
:1010700017D0B0F5804F16D114E04E48006840F408
:1010800000304C49086010E00021201D01F0F4FC04
:1010900005460AE0002104F1240001F085FD054623
:1010A00003E002E001E0012500BF00BF55B941485F
:1010B0002430006820F4E040E16D08433D492431CC
:1010C000086000E02E43208800F40050B0F5005F77
:1010D00034D1206EB0F5403F1DD007DC68B1B0F5CB
:1010E000803F0BD0B0F5003F18D10DE0B0F5802F58
:1010F00012D0B0F5A02F11D10FE011E00121201D79
:1011000001F0BAFC05460BE0012104F1240001F0D6
:101110004BFD054604E003E002E001E0012500BFCD
:1011200000BF55B923482430006820F4E020216E28
:10113000084320492431086000E02E43208800F451
:101140008040B0F5804F38D1D4F8AC00B0F1405FAA
:101150001DD007DC68B1B0F1805F0BD0B0F1005F4B
:1011600018D10DE0B0F1804F12D0B0F1A04F11D1E5
:101170000FE011E00121201D01F07EFC05460BE08F
:10118000012104F1240001F00FFD054604E003E015
:1011900002E001E0012500BF00BF6DB905482C3019
:1011A000006820F0E040D4F8AC10084301492C312D
:1011B000086002E02C4402582E43208800F40040CE
:1011C000B0F5004F26D1E06E98B1B0F1805F03D04A
:1011D000B0F1005F0ED106E0FA48006840F400303C
:1011E000F849086008E00121201D01F045FC054692
:1011F00002E001E0012500BF00BF55B9F1482430ED
:10120000006820F04050E16E0843EE492431086048
:1012100000E02E43206800F08070B0F1807F27D17D
:10122000606CA0B1012804D0022809D003280FD196
:101230000CE0E448006840F40030E249086009E04E
:101240000221201D01F018FC054603E002E001E048
:10125000012500BF00BF55B9DA482030006820F0F2
:101260000300616C0843D7492031086000E02E4339
:10127000206800F48000B0F5800F7DD1D24800686E
:1012800040F48070D0490860FFF748FA074606E04E
:10129000FFF744FAC01B642801D9032505E0CA48BA
:1012A000006800F480700028F2D000BF8DBBC548F4
:1012B0004430006800F44070B4F8B01001F440719C
:1012C000884214D0BF484430006820F44078BD48BC
:1012D0004430006840F48030BA4944310860084620
:1012E000006820F4803008600846C0F80080D4F818
:1012F000B000B0F5807F15D1FFF710FA074609E07E
:10130000FFF70CFAC01B41F28831884202D903254D
:1013100007E038E0AB4844300068C0F340000028E4
:10132000EED000BF4DBB00BFB4F8B00000F4407079
:10133000B0F5407F0ED1A3481C38006820F47C51E2
:10134000A24AD4F8B000104041EA10109D491C395F
:10135000086007E09B481C38006820F47C509949DD
:101360001C390860974844300068B4F8B010C1F3E5
:101370000B010843934901E006E002E044310860B4
:1013800002E02E4300E02E43207800F0010068B315
:10139000A06F182819D005DC48B1082808D01028FB
:1013A00016D10BE0202811D0282811D10FE011E030
:1013B0000121201D01F060FB05460BE0012104F135
:1013C000240001F0F1FB054604E003E002E001E047
:1013D000012500BF00BF55B97A482830006820F0C9
:1013E0003800A16F084377492831086000E02E4398
:1013F000207800F00200022828D1606F062815D25C
:10140000DFE800F003040A11121311E00121201D8E
:1014100001F032FB05460BE0012104F1240001F04C
:10142000C3FB054604E003E002E001E0012500BF44
:1014300000BF55B963482830006820F00700616F8D
:10144000084360492831086000E02E43207800F00E
:10145000040004282AD1D4F89000062815D2DFE829
:1014600000F003040A11121311E00121201D01F004
:1014700003FB05460BE0012104F1240001F094FB7D
:10148000054604E003E002E001E0012500BF00BFE3
:101490005DB94C482C30006820F00700D4F890105B
:1014A000084348492C31086000E02E43207800F0C2
:1014B0002000202836D1D4F88C00B0F1405F1DD038
:1014C00007DC68B1B0F1805F0BD0B0F1005F18D1DC
:1014D0000DE0B0F1804F12D0B0F1A04F11D10FE06C
:1014E00011E00021201D01F0C7FA05460BE00221A2
:1014F00004F1240001F058FB054604E003E002E09B
:1015000001E0012500BF00BF5DB92E48283000680A
:1015100020F0E040D4F88C1008432A4928310860B4
:1015200000E02E43207800F04000402836D1D4F867
:101530009800B0F5406F1DD007DC68B1B0F5806F42
:101540000BD0B0F5006F18D10DE0B0F5805F12D070
:10155000B0F5A05F11D10FE011E00021201D01F0D6
:101560008BFA05460BE0022104F1240001F01CFB7C
:10157000054604E003E002E001E0012500BF00BFF2
:101580005DB910482C30006820F4E050D4F8981071
:1015900008430C492C31086000E02E43207800F00D
:1015A000800080283BD1D4F89C00B0F5C04F24D0F7
:1015B0000EDCA0B1B0F5005F12D0B0F5804F1FD1A6
:1015C00014E000002C44025800480258FFFCFF0FB2
:1015D000B0F5004F12D0B0F5204F11D10FE011E05F
:1015E0000021201D01F048FA05460BE0022104F11C
:1015F000240001F0D9FA054604E003E002E001E02E
:10160000012500BF00BF4DB9B248006820F460401A
:10161000D4F89C100843AF49086000E02E432078BE
:1016200000F00800082816D1D4F88000B0F5805FDB
:1016300006D1022104F1240001F0B6FA06430AE0C3
:10164000A448001F006820F44050D4F880100843DC
:10165000A049091F0860207800F01000102814D15C
:10166000D4F89400B0F5807F06D1022104F1240063
:1016700001F09AFA064308E09648006820F44070AA
:10168000D4F89410084393490860206800F40020BF
:10169000B0F5002F26D1D4F8A00030B1B0F5803FCE
:1016A00009D0B0F5003F0ED10CE00021201D01F063
:1016B000E3F9054609E0022104F1240001F074FA7F
:1016C000054602E001E0012500BF00BF4DB9814899
:1016D000006820F44030D4F8A01008437D49086029
:1016E00000E02E43206800F48020B0F5802F2DD13B
:1016F000D4F88400B0F5801F06D0B0F5001F0CD0E0
:10170000B0F5401F11D10FE072482C38006840F44A
:10171000003070492C39086009E0012104F12400EF
:1017200001F042FA054602E001E0012500BF00BFDA
:101730005DB96848001F006820F44010D4F8841098
:1017400008436449091F086000E02E43206800F444
:101750008030B0F5803F24D1E06C18B1B0F5803F07
:101760000FD108E05B482C38006840F4003059493C
:101770002C39086007E00221201D01F07DF90546A3
:1017800001E0012500BF00BF55B952480C38006880
:1017900020F48030E16C08434E490C39086000E0C9
:1017A0002E43206800F00050B0F1005F05D1022107
:1017B00004F1240001F0F8F90643206800F4003039
:1017C000B0F5003F27D1E06FA0B1B0F5807F06D023
:1017D000B0F5007F0CD0B0F5407F0CD109E03D485A
:1017E0002C38006840F400303A492C39086004E095
:1017F00003E002E001E0012500BF00BF55B9354814
:10180000001F006820F44070E16F08433149091F50
:10181000086000E02E43206800F48010B0F5801FBF
:1018200009D12C480838006820F00040216F084397
:10183000284908390860206800F08050B0F1805FC6
:101840000AD124484838006820F48040D4F8B41005
:101850000843204948390860206800F40010B0F5BA
:10186000001F09D11B480838006820F08070A16E65
:101870000843184908390860206800F08040B0F13A
:10188000804F11D100BF13484838006820F4004051
:1018900010494839086008460068D4F8B810084371
:1018A0000C494839086000BF206800F00040B0F1E2
:1018B000004F09D107480C38006820F04050216DD6
:1018C000084304490C39086016B90020BDE8F081CE
:1018D0000120FBE75844025870B504460D46002627
:1018E0008D48006800F00700A8420ED28A480068C0
:1018F00020F007002843884908600846006800F087
:101900000700A84201D0012070BD207800F002003D
:10191000022807D18148006820F00F00E1680843E1
:101920007E490860207800F00100002851D07B48F3
:10193000006820F47060A168084378490860606816
:10194000022807D1754818380068C0F34040F8B93C
:101950000120D9E76068032807D17048183800686B
:10196000C0F34060A0B90120CEE76068012807D12C
:101970006A4818380068C0F3002048B90120C3E75E
:10198000664818380068C0F3800008B90120BBE73A
:1019900062480838006820F00700616808435F4922
:1019A00008390860FEF7BAFE06466068022811D1C1
:1019B00008E0FEF7B3FE801B41F28831884201D96E
:1019C0000320A1E755480838006800F038001028C7
:1019D000EFD13AE06068032811D108E0FEF79EFEDF
:1019E000801B41F28831884201D903208CE74B48A3
:1019F0000838006800F038001828EFD125E060684A
:101A0000012811D108E0FEF789FE801B41F28831E0
:101A1000884201D9032077E740480838006800F081
:101A200038000828EFD110E008E0FEF777FE801BB1
:101A300041F28831884201D9032065E737480838E8
:101A4000006800F038000028EFD13348006800F04B
:101A50000700A8420ED93048006820F0070028434C
:101A60002D4908600846006800F00700A84201D030
:101A7000012049E7207800F00400042807D1274816
:101A8000006820F07000216908432449086020782C
:101A900000F00800082809D12048001D006820F047
:101AA0007000616908431D49091D0860207800F035
:101AB0001000102809D11948001D006820F4E060CA
:101AC000A16908431549091D0860207800F020002D
:101AD000202809D111480830006820F07000E16921
:101AE00008430E490831086000F066F80B490968A0
:101AF00001F470614FF4807292FAA2F2B2FA82F2AB
:101B0000D140074A515CC840064908600020FEF7F2
:101B100025FE0020F8E6000000200052184402587C
:101B2000443C00080C00002010B5FEF7DBFE09491C
:101B3000096801F00F01012292FAA2F2B2FA82F2D0
:101B4000D140054A515CC840044908600846006815
:101B500010BD000018440258443C0008100000204A
:101B600010B5FFF7E1FF0749096801F07001102285
:101B700092FAA2F2B2FA82F2D140034A515CC84012
:101B800010BD00001C440258443C000810B5FFF78B
:101B9000CBFF0749096801F4E0614FF4807292FAC3
:101BA000A2F2B2FA82F2D140024A515CC84010BDA2
:101BB0001C440258443C000870B5012500EE905AC0
:101BC0000022012100230024DFED861AB0EE610A15
:101BD000DFED841AB0EE611A0020834D2D6805F008
:101BE000380535B1082D15D0102D15D0182D7CD104
:101BF00014E07D4D103D2D68C5F3401545B17A4D7B
:101C0000103D2D68C5F3C106784D25FA06F000E0B9
:101C10007648E5E07648E3E07648E1E0724D183535
:101C20002D6805F00302704D18352D68C5F30511B8
:101C30006D4D1C352D6805F001036B4D24352D6865
:101C4000C5F3CC0515FB03F501EE905AF8EE611AC9
:101C5000B0EE610A22B1012A4FD0022A7DD16BE099
:101C6000614D103D2D68C5F340152DB35E4D103DFF
:101C70002D68C5F3C1065D4D25FA06F4B4FBF1F5F8
:101C800001EE905AB8EE612ADFED5B1AC0EE212A10
:101C9000554D20352D68C5F3080501EE905AF8EE34
:101CA000611A72EEA11AF7EE002A71EEA21A62EE24
:101CB000211AB0EE611A1FE04C4DB5FBF1F501EEB3
:101CC000905AB8EE612ADFED4C1AC0EE212A464D3B
:101CD00020352D68C5F3080501EE905AF8EE611A1B
:101CE00072EEA11AF7EE002A00E077E071EEA21A78
:101CF00062EE211AB0EE611A5EE03D4DB5FBF1F5E2
:101D000001EE905AB8EE612ADFED3B1AC0EE212AAF
:101D1000354D20352D68C5F3080501EE905AF8EED3
:101D2000611A72EEA11AF7EE002A71EEA21A62EEA3
:101D3000211AB0EE611A3FE02E4DB5FBF1F501EE30
:101D4000905AB8EE612ADFED2C1AC0EE212A264DFA
:101D500020352D68C5F3080500E00EE001EE905A2D
:101D6000F8EE611A72EEA11AF7EE002A71EEA21ACD
:101D700062EE211AB0EE611A1EE01D4DB5FBF1F5C1
:101D800001EE905AF8EE612ADFED1B1A80EE212A4F
:101D9000154D20352D68C5F3080501EE905AF8EE73
:101DA000611A72EE211AB7EE002A71EE821A62EE03
:101DB000A11AB0EE611A00BF00BF0B4D20352D688F
:101DC000C5F346256D1C00EE905AF8EE601A81EEC0
:101DD000212AFCEEC21A11EE900A01E0044800BF6D
:101DE00000BF70BD00000000104402580090D003F6
:101DF00000093D0040787D010000004670B50446B2
:101E00000025207800F00100002870D0F748006815
:101E100000F0380010280CD0F448006800F03800BA
:101E2000182812D1F1481830006800F00300022889
:101E30000BD1EE4810380068C0F34040002869D04C
:101E40006068002866D1012070BD00BF6068B0F5F1
:101E5000803F08D1E5481038006840F48030E349FD
:101E6000103908602EE0606868B9E04810380068F2
:101E700020F48030DD49103908600846006820F4FD
:101E8000802008601EE06068B0F5A02F0DD1D74813
:101E90001038006840F48020D449103908600846A2
:101EA000006840F4803008600CE0D04810380068CA
:101EB00020F48030CD49103908600846006820F4CD
:101EC0008020086000BF606890B1FEF727FC0546DF
:101ED00006E0FEF723FC401B642801D90320B3E78A
:101EE000C24810380068C0F340400028F1D011E02B
:101EF000FEF714FC054606E0FEF710FC401B6428C4
:101F000001D90320A0E7B94810380068C0F3404069
:101F10000028F1D1207800F00200022847D1B34810
:101F2000006800F0380058B1B048006800F0380090
:101F300018283ED1AD481830006800F00300B8BB47
:101F4000AA4810380068C0F3800018B1E06808B9EA
:101F5000012079E7A5481038006820F01900E168F1
:101F60000843A24910390860FEF7D8FB054606E091
:101F7000FEF7D4FB401B022801D9032064E79B48ED
:101F800010380068C0F380000028F1D097480C3862
:101F9000006820F47C304FF47C3292FAA2F2B2FA5C
:101FA00082F221699140084390490C3908604AE067
:101FB000FFE7E06868B38D481038006820F019002A
:101FC000E1680843894910390860FEF7A7FB054618
:101FD00006E0FEF7A3FB401B022801D9032033E7EC
:101FE000824810380068C0F380000028F1D07F4894
:101FF0000C38006820F47C304FF47C3292FAA2F264
:10200000B2FA82F221699140084378490C3908609C
:1020100019E076481038006820F001007349103943
:102020000860FEF77BFB054606E0FEF777FB401BEA
:10203000022801D9032007E76C4810380068C0F374
:1020400080000028F1D1207800F01000102877D10E
:102050006648006800F0380008280CD06348006823
:1020600000F03800182823D160481830006800F0CC
:10207000030001281CD15D4810380068C0F300201F
:1020800020B1E069802801D00120DDE657480C38F6
:10209000006820F0F8404FF0F84292FAA2F2B2FA4B
:1020A00082F2216A9140084350490C39086047E0A8
:1020B000E06958B34D481038006840F080004B4943
:1020C00010390860FEF72AFB054606E0FEF726FBFE
:1020D000401B022801D90320B6E6444810380068A6
:1020E000C0F300200028F1D040480C38006820F0F0
:1020F000F8404FF0F84292FAA2F2B2FA82F2216A64
:102100009140084339490C39086019E037481038C4
:10211000006820F08000354910390860FEF7FEFAAB
:10212000054606E0FEF7FAFA401B022801D9032013
:102130008AE62E4810380068C0F300200028F1D14C
:10214000207800F00800082836D16069D0B127480F
:102150006430006840F00100244964310860FEF7F3
:10216000DDFA054606E0FEF7D9FA401B022801D940
:10217000032069E61D4864300068C0F34000002871
:10218000F1D019E019486430006820F001001749C7
:1021900064310860FEF7C2FA054606E0FEF7BEFAB3
:1021A000401B022801D903204EE610486430006825
:1021B000C0F340000028F1D1207800F02000202852
:1021C00034D1A069D8B109481038006840F4805073
:1021D000064910390860FEF7A1FA054608E0FEF747
:1021E0009DFA401B022803D903202DE61044025813
:1021F000AF480068C0F340300028F0D016E0AC488B
:10220000006820F48050AA490860FEF787FA054666
:1022100006E0FEF783FA401B022801D9032013E6EB
:10222000A3480068C0F340300028F2D1207800F0C5
:10223000040004287DD19F48006840F480709D49C7
:102240000860FEF76BFA054606E0FEF767FA401BEA
:10225000642801D90320F7E59648006800F48070EF
:102260000028F2D000BFA068012808D19048703043
:10227000006840F001008E49703108602DE0A068D0
:1022800068B98B487030006820F0010088497031CF
:1022900008600846006820F0040008601DE0A0689F
:1022A00005280DD182487030006840F00400804954
:1022B000703108600846006840F0010008600CE0DA
:1022C0007B487030006820F0010079497031086067
:1022D0000846006820F00400086000BFA068A0B1B4
:1022E000FEF71CFA054608E0FEF718FA401B41F21B
:1022F0008831884201D90320A6E56D487030006816
:10230000C0F340000028EFD013E0FEF707FA0546BF
:1023100008E0FEF703FA401B41F28831884201D9F8
:10232000032091E5624870300068C0F34000002847
:10233000EFD1606A00287CD05D481030006800F062
:102340003800182876D0606A022874D1584800688E
:1023500020F0807056490860FEF7E0F9054606E077
:10236000FEF7DCF9401B022801D903206CE5504838
:102370000068C0F340600028F2D100BFD4E90A1021
:1023800041EA00104A492831096840F2F33291438A
:102390000843474928310860208E401EC0F30800DA
:1023A000616B491E4FF47E4202EA41210843218FAE
:1023B000491ED20102EA014108433C21095D491E40
:1023C000120202EA0161084339493031086000BF56
:1023D000081D00684FF6F87188434FF6F87292FABC
:1023E000A2F2B2FA82F2A16C914008433049343132
:1023F00008602F482C30006820F00C00216C084346
:102400002B492C3108600846006820F00200616CFE
:10241000084327492C3108600846006840F48030A2
:1024200008600846006840F400300860084600680C
:1024300002E03BE038E01FE040F4802008600846FE
:10244000006840F0010008601948006840F08070A2
:1024500017490860FEF762F9054606E0FEF75EF9E7
:10246000401B022801D90320EEE411480068C0F3A4
:1024700040600028F2D019E00D48006820F080701C
:102480000B490860FEF74AF9054606E0FEF746F9F3
:10249000401B022801D90320D6E405480068C0F398
:1024A00040600028F2D101E00120CDE40020CBE41F
:1024B0000044025800480258042808D14FF0E02197
:1024C000096941F004014FF0E022116107E04FF08B
:1024D000E021096921F004014FF0E0221161704709
:1024E000704770B504462546681EB0F1807F01D361
:1024F00001200FE0681E4FF0E02148610F214FF0EE
:10250000FF3001F03BFB00204FF0E0218861072005
:102510000861002070BD10B5FFF7E2FF10BD7047E5
:10252000704700002DE9F04104462068C569206825
:1025300007682068866805F00F08B8F1000F0DD114
:1025400005F0200050B107F0200010B906F08050CF
:1025500020B1204600F06FFDBDE8F081B8F1000F1A
:1025600072D05D48304018B907F4907000287AD0D6
:1025700005F0010048B107F4807030B101202168F6
:102580000862E06F40F00100E06705F0020048B12A
:1025900006F0010030B1022021680862E06F40F0CF
:1025A0000400E06705F0040048B106F0010030B116
:1025B000042021680862E06F40F00200E06705F047
:1025C000080078B107F0200028B906F0805010B953
:1025D00006F0010030B1082021680862E06F40F089
:1025E0000800E067E06F70B305F0200040B107F02D
:1025F000200010B906F0805010B1204600F01BFDFD
:10260000E06F00F0080020B92068806800F040000A
:1026100018B3204600F0EFFC2068806800F040000E
:10262000B8B12068806820F0400021688860606F41
:1026300058B12A48616F0865606FFDF7AFFE10B1B1
:10264000606F016D88470DE00DE02046FFF768FFE1
:1026500008E02046FFF764FF04E02046FFF760FF34
:102660000020E06778E705F4801078B106F4800078
:1026700060B14FF4801021680862202084F879004E
:1026800084F87A002046FFF74AFF65E705F08000EE
:1026900048B107F0800010B906F4000018B12046D8
:1026A00001F0E0F958E705F0400030B107F04000D4
:1026B00018B1204600F0AFFC4EE705F4000040B131
:1026C00007F0804028B12068006820F08040216831
:1026D000086000BF40E7000001000010DF2F000885
:1026E00010B504460CB9012010BDA06900B100E08E
:1026F00000BF94F8790028B9002084F878002046BB
:1027000000F02AF8242084F879002068006820F07E
:10271000010021680860204600F0D2FC012800D1A9
:10272000E2E7606B10B1204600F0AAFB2068406829
:1027300020F49040216848602068806820F02A00DA
:10274000216888602068006840F001002168086006
:10275000204600F00AFCC7E710B586B004461149D0
:10276000206888421CD100BF0F48006840F010006C
:102770000D4908600846006800F01000009000BF96
:1027800000BF4FF4C060019002200290002003902F
:10279000032004900720059001A90448FDF78EFE50
:1027A00006B010BD00100140F0440258000002586D
:1027B00010B5034693F87A00202867D101B10AB911
:1027C000012010BD00BF93F87800012801D102203C
:1027D000F7E7012083F8780000BF5966A3F8682066
:1027E000A3F86A2000BF9868B0F5805F0AD1186925
:1027F00020B940F2FF10A3F86C001CE0FF20A3F802
:102800006C0018E0986848B9186918B9FF20A3F857
:102810006C0010E07F20A3F86C000CE09868B0F129
:10282000805F08D1186918B97F20A3F86C0002E016
:102830003F20A3F86C0000BF0020D867222083F857
:102840007A0000BF002083F8780000BF1868806815
:1028500040F001001C68A0601868006800F000509B
:1028600060B11868006840F480701C6820601868C7
:10287000806840F080501C68A06005E0186800681F
:1028800040F490701C68206000209AE7022098E7CE
:1028900010B50446B4F868204FF47A730249204614
:1028A00000F004F810BD0000940000202DE9F8436A
:1028B00004460D4616461F464FF0000994F879006D
:1028C000202854D105B116B90120BDE8F88300BF16
:1028D00094F87800012801D10220F6E7012084F85D
:1028E000780000BF00206034E06121206076FDF7B1
:1028F00015FF814626806680603C21E0B4F86200C6
:10290000401EA4F862004B4600228021204600971A
:1029100001F0E9F808B10320D7E7A068B0F5805FBF
:102920000AD1206940B9A846B8F80000C0F30800F1
:1029300021680885AD1C03E015F8010B21680885A6
:10294000B4F862000028D9D14B460022402120462D
:10295000009701F0C8F808B10320B6E7202084F8FA
:10296000790000BF002084F8780000BFADE70220A6
:10297000ABE7704700BFFEE700B587B000BF1D485A
:10298000006840F080001B4908600846006800F0BD
:102990008000019000BF00BF00BF0846006840F003
:1029A000020008600846006800F00200019000BFC5
:1029B00000BF00BF0846006840F0010008600846FC
:1029C000006800F00100019000BF00BF0122114625
:1029D0000948FDF79DFE0120029011200390002080
:1029E00004900320059002A90348FDF767FD07B096
:1029F00000BD0000E04402580004025810B5032254
:102A000011462520FDF71CFF2520FDF709FF10BD0D
:102A100010B51048104908601048486000210E4861
:102A20008160C16001610C21416100218161C1614E
:102A3000016241628162C16201630020064948630C
:102A40000846FFF74DFE18B1EC2105A001F08CF807
:102A500010BD0000001001401400002088F50400A3
:102A60002E2E2F5372632F6D61696E2E630000004E
:102A700000BFFEE7704770472DE9F04104460E465F
:102A800000274848006800F00300032802D1012015
:102A9000BDE8F08143482838006820F08060414953
:102AA00028390860FDF73AFE054606E0FDF736FED8
:102AB000401B022801D90320EAE73A482838006879
:102AC000C0F3C0600028F1D100BF3648006820F490
:102AD0007C30216840EA013032490860A088401EFD
:102AE000C0F30800A168491E4FF47E4202EA41216A
:102AF0000843A189491ED20102EA01410843217C11
:102B0000491E120202EA0161084326491031086099
:102B100000BF2448001D006820F0C0006169084320
:102B20002049091D08600846006820F02000A169BE
:102B300008431C49091D08602EB90846006840F486
:102B40000020086012E0012E08D11648001D006820
:102B500040F480101349091D086007E01148001D6A
:102B6000006840F400100F49091D08600D4828381E
:102B7000006840F080600B4928390860FDF7CEFD01
:102B8000054606E0FDF7CAFD401B022801D90320D7
:102B90007EE7044828380068C0F3C0600028F1D000
:102BA000384675E7284402582DE9F04104460E46A0
:102BB00000274848006800F00300032802D10120E4
:102BC000BDE8F08143482838006820F08050414932
:102BD00028390860FDF7A2FD054606E0FDF79EFDD9
:102BE000401B022801D90320EAE73A482838006848
:102BF000C0F340700028F1D100BF3648006820F0D3
:102C00007C70218840EA015032490860A088401E4B
:102C1000C0F30800A168491E4FF47E4202EA412138
:102C20000843A189491ED20102EA01410843217CDF
:102C3000491E120202EA0161084326491831086060
:102C400000BF2448001D006820F44060616908430B
:102C50002049091D08600846006820F40070A16939
:102C600008431C49091D08602EB90846006840F455
:102C70008000086012E0012E08D11648001D00688F
:102C800040F400001349091D086007E01148001DC9
:102C9000006840F080700F49091D08600D48283811
:102CA000006840F080500B4928390860FDF736FD78
:102CB000054606E0FDF732FD401B022801D903203E
:102CC0007EE7044828380068C0F340700028F1D03F
:102CD000384675E728440258704710B5FDF724FDC3
:102CE000FFF719FC10BD000010B5CCB039480068E2
:102CF00020F004003749086000BF002001903548EB
:102D00000C30006840F4404032490C3108600846FD
:102D1000006800F44040019000BF00BF00BF2D4894
:102D20000C30006800F40050B0F5005FF7D10120CE
:102D3000399000043A9002204290022139A8816221
:102D4000C16240210163022141638163C1630C219F
:102D50000164002141648164FFF750F818B1A52196
:102D60001DA000F001FF3F20319003203290002091
:102D700033900820349040203590369000013790F1
:102D800040203890022131A8FEF7A6FD18B1B721E6
:102D900011A000F0E9FE012002900020209002A87E
:102DA000FDF7FEFF18B1BE210BA000F0DDFE0E48BE
:102DB00000684FF47A71B0FBF1F42046FFF791FB05
:102DC0000420FFF779FB00221146501EFDF738FD65
:102DD0004CB010BD0C4802582E2E2F5372632F6D2D
:102DE00061696E2E630000000C000020204800681E
:102DF00040F470001E4908601E48006840F0010061
:102E00001C49086000201B491031086019480068FF
:102E10001949084017490860002016491831086010
:102E2000091D0860091D0860124928310860091D44
:102E30000860091D0860091D0860091D0860091D5A
:102E40000860091D0860091D08600A48006820F430
:102E50008020084908600020064960310860012090
:102E600006490860C00602498039086070470000C2
:102E700088ED00E0004402587FEDF6EA0881005139
:102E800090F8341001F0010139B10168496821F46A
:102E90000031826B11430268516090F8341001F0E8
:102EA000020139B10168496821F48031C26B1143D4
:102EB0000268516090F8341001F0040139B10168E2
:102EC000496821F48021026C11430268516090F836
:102ED000341001F0080139B10168496821F400415A
:102EE000426C11430268516090F8341001F01001F7
:102EF00039B10168896821F48051826C11430268FC
:102F0000916090F8341001F0200139B101688968AE
:102F100021F40051C26C11430268916090F83410A2
:102F200001F0400199B10168496821F48011026DF6
:102F3000114302685160016DB1F5801F07D101682E
:102F4000496821F4C001426D11430268516090F854
:102F5000341001F0800139B10168496821F4002181
:102F6000826D114302685160704738B504460025F0
:102F70000020E067FDF7D2FB05462068006800F0FE
:102F8000080008280CD16FF07E402B4600224FF439
:102F900000110090204600F0A6FD08B1032038BDC6
:102FA0002068006800F0040004280CD16FF07E4017
:102FB0002B4600224FF480010090204600F093FD44
:102FC00008B10320EBE7202084F8790084F87A0028
:102FD00000BF002084F8780000BF00BFDFE770B5B5
:102FE0000546AC6B0020A4F86A00A4F862002046F5
:102FF000FFF796FA70BD0168096821F490710268C4
:1030000011600168896821F0010102689160202146
:1030100080F87A10704710B504462068006820F0E8
:10302000400021680860202084F879002046FFF7DE
:10303000A0FC002010BD2DE9F0410446B4F86C70EE
:1030400094F87A00222833D12068858CA068B0F5E6
:10305000805F09D1206938B9666E05EA07003080C3
:10306000606E801C606605E0F8B22840626E511CFC
:1030700061661070B4F86A00401E80B2A4F86A005D
:10308000A0B92068006820F490702168086020686A
:10309000806820F0010021688860202084F87A0090
:1030A0002046FFF7F5FB0020BDE8F0810020FBE79C
:1030B0002068008B40F00800216808830220F3E7B5
:1030C0002DE9F04F89B0044600254FF08008A9464D
:1030D000AA4600200890FA492068884201D10120C0
:1030E00000E0002000B100E000BFA06AB0F1005F86
:1030F00000D100BF2169A068084361690843E16904
:1031000040EA0105A06A054320680068ED490840CF
:103110002843216808602068406820F44050E16836
:10312000084321684860A569E5492068884201D1C3
:10313000012000E0002008B9206A0543A06AB0F130
:10314000005F03D1D4E90B01084305432068806880
:10315000DD4908402843216888602068C06A20F063
:103160000F00616A08432168C86200BFD749206820
:10317000884224D1D648006800F03800182814D0BE
:1031800005DC48B108280AD0102817D10AE0202809
:103190000ED0282812D10EE04FF001080EE04FF0BB
:1031A00004080BE04FF0400808E04FF0080805E085
:1031B0004FF0100802E04FF0200800BF17E1C549AA
:1031C000206888421DD1C248006800F00700062828
:1031D00016D2DFE800F00306090C0F124FF00008CA
:1031E0000EE04FF004080BE04FF0400808E04FF00D
:1031F000080805E04FF0100802E04FF0200800BF7B
:10320000F5E0B549206888421DD1B148006800F05A
:103210000700062816D2DFE800F00306090C0F129B
:103220004FF000080EE04FF004080BE04FF04008AC
:1032300008E04FF0080805E04FF0100802E04FF0FA
:10324000200800BFD3E0A549206888421DD1A048CE
:10325000006800F00700062816D2DFE800F0030639
:10326000090C0F124FF000080EE04FF004080BE0BD
:103270004FF0400808E04FF0080805E04FF0100854
:1032800002E04FF0200800BFB1E095492068884275
:103290001DD18F48006800F00700062816D2DFE82D
:1032A00000F00306090C0F124FF000080EE04FF07B
:1032B00004080BE04FF0400808E04FF0080805E074
:1032C0004FF0100802E04FF0200800BF8FE0854962
:1032D0002068884224D17E48006800F03800182811
:1032E00014D005DC48B108280AD0102817D10AE00C
:1032F00020280ED0282812D10EE04FF001080EE051
:103300004FF004080BE04FF0400808E04FF00808C9
:1033100005E04FF0100802E04FF0200800BF66E023
:103320007149206888421DD16948006800F0070093
:10333000062816D2DFE800F00306090C0F124FF042
:1033400000080EE04FF004080BE04FF0400808E0E2
:103350004FF0080805E04FF0100802E04FF0200899
:1033600000BF44E06149206888421DD15848006888
:1033700000F00700062816D2DFE800F00306090C6B
:103380000F124FF000080EE04FF004080BE04FF072
:10339000400808E04FF0080805E04FF0100802E090
:1033A0004FF0200800BF22E04549206888421ED126
:1033B0004748001D006800F00700062816D2DFE825
:1033C00000F00306090C0F124FF002080EE04FF058
:1033D00004080BE04FF0400808E04FF0080805E053
:1033E0004FF0100802E04FF0200800BF00BF00BF00
:1033F00033492068884201D1012000E000200028E4
:103400005DD00025B8F1100F33D009DCB8F1020F00
:1034100010D0B8F1040F11D0B8F1080F2ED117E079
:10342000B8F1200F27D0B8F1400F0CD0B8F1800FC1
:1034300024D124E0FDF772FA054623E005A8FDF744
:1034400083FA069D1EE002A8FDF794FB039D19E098
:103450001F4854380068C0F3401040B11C4854382D
:103460000068C0F3C101224820FA01F500E0204DB8
:1034700008E0204D06E04FF4004503E000BF0120C6
:10348000089000BF00BF002D0AD0606800EB40002C
:10349000A84203D860680003A84202D20120089025
:1034A000D4E2B8F1100F7CD026DCB8F1020F2DD099
:1034B000B8F1040F52D0B8F1080F73D19EE03FE18C
:1034C000000C0058F369FFCFFFF4FF11001001401A
:1034D000544402580044004000480040004C004062
:1034E000005000400014014000780040007C004083
:1034F0000090D00300093D00B8F1200F7DD0B8F155
:10350000400F54D0B8F1800FD7D109E1FDF706FA8A
:1035100000270646FB49606A31F810C062463B4608
:1035200030463946FCF7D4FE4FF48076002203463D
:10353000A3FB060701FB067103FB02136168490840
:10354000064671185A41CDE90012666832460023DA
:1035500008460199FCF7BCFE0546E4E005A8FDF726
:10356000F3F9DDF818C0E749606A31F810B05A463F
:10357000002360461946FCF7ABFE4FF4807C002226
:10358000A0FB0C3B01FB0CB100FB02106168490879
:103590005E1840EB0201D4F804C0624600233046B6
:1035A00001E079E0BBE0FCF793FE0546BBE002A832
:1035B000FDF7E0FADDF80CC0D249606A31F810B0CE
:1035C0005A46002360461946FCF782FE4FF4807C81
:1035D0000022A0FB0C3B01FB0CB100FB0210616858
:1035E00049085E1840EB0201D4F804C0624600238B
:1035F0003046FCF76DFE054695E06EE0C248006877
:10360000C0F3401038B3C0480068C0F3C101BF48E0
:1036100020FA01FCBB49606A31F810B05A46002319
:1036200060461946FCF754FE4FF4807C0022A0FB54
:103630000C3B01FB0CB100FB0210616849085E18ED
:1036400040EB0201D4F804C0624600233046FCF788
:103650003FFE05461FE0AB49606A31F810C0624684
:103660000023AA481946FCF733FE4FF4807C002261
:10367000A0FB0C3B01FB0CB100FB02106168490888
:103680005E1840EB0201D4F804C0624600233046C5
:10369000FCF71EFE054646E09A49606A31F810C004
:1036A000624600239A481946FCF712FE4FF4807CCC
:1036B0000022A0FB0C3B01FB0CB100FB0210616877
:1036C00049085E1840EB0201D4F804C062460023AA
:1036D0003046FCF7FDFD054625E08A49606A31F871
:1036E00010C0624600234FF400401946FCF7F0FD7D
:1036F0004FF4807C0022A0FB0C3B01FB0CB100FBD3
:103700000210616849085E1840EB0201D4F804C059
:10371000624600233046FCF7DBFD054603E000BFB0
:103720000120089000BF00BFB5F5407F05D3B5F577
:10373000801F02D22068C56088E10120089085E1E1
:10374000E069B0F5004F7CD1B8F1100F7AD00CDCF5
:10375000B8F1000F13D0B8F1010F21D0B8F1040F68
:103760002FD0B8F1080F6ED151E0B8F1200F6BD017
:10377000B8F1400F38D0B8F1800F64D197E0FEF770
:10378000EFF9604A616A32F81110B0FBF1F04000C5
:10379000616800EB5100B0FBF1F01FFA80FA89E09C
:1037A000FEF7F4F9574A616A32F81110B0FBF1F0F4
:1037B0004000616800EB5100B0FBF1F01FFA80FAA5
:1037C00078E005A8FDF7C0F806994E4A606A32F81D
:1037D0001000B1FBF0F04000616800EB5100B0FB5D
:1037E000F1F01FFA80FA65E002A8FDF7C3F903992A
:1037F000444A606A32F81000B1FBF0F040006168A2
:1038000000EB5100B0FBF1F01FFA80FA52E03E48A5
:103810000068C0F34010C0B13B480068C0F3C1016C
:103820003A48C840374A616A32F81110B0FBF1F0EB
:103830004000616800EB5100B0FBF1F01FFA80FA24
:1038400012E044E011E031E01FE02E49606A31F8F7
:1038500010002E49B1FBF0F04000616800EB510010
:10386000B0FBF1F01FFA80FA24E02649606A31F8D3
:1038700010002749B1FBF0F04000616800EB5100F7
:10388000B0FBF1F01FFA80FA14E01E49606A31F8CB
:1038900010004FF40041B1FBF0F04000616800EB14
:1038A0005100B0FBF1F01FFA80FA03E000BF0120E5
:1038B000089000BF00BF4FF6F0700AEA0009CAF393
:1038C000420049EA00092068C0F80C90BEE0B8F157
:1038D000100F7CD00CDCB8F1000F1BD0B8F1010F39
:1038E00029D0B8F1040F37D0B8F1080F70D159E0E2
:1038F000B8F1200F6DD0B8F1400F40D0B8F1800F73
:1039000066D19FE0143C0008004402580090D003A8
:1039100000093D00FEF724F94E4A616A32F81110A1
:10392000B0FBF1F0616800EB5100B0FBF1F080B248
:103930002168C86089E0FEF729F9464A616A32F8D1
:103940001110B0FBF1F0616800EB5100B0FBF1F039
:1039500080B22168C86078E005A8FCF7F5FF0699F9
:103960003C4A606A32F81000B1FBF0F0616800EB8D
:103970005100B0FBF1F080B22168C86065E002A898
:10398000FDF7F8F80399334A606A32F81000B1FB8A
:10399000F0F0616800EB5100B0FBF1F080B22168FB
:1039A000C86052E02C480068C0F34010C0B12A48FB
:1039B0000068C0F3C1012948C840264A616A32F84C
:1039C0001110B0FBF1F0616800EB510002E017E06C
:1039D00037E025E0B0FBF1F080B22168C8600EE06E
:1039E0001C49606A31F810001C49B1FBF0F06168B5
:1039F00000EB5100B0FBF1F080B22168C86024E018
:103A00001449606A31F810001549B1FBF0F06168A3
:103A100000EB5100B0FBF1F080B22168C86014E007
:103A20000C49606A31F810004FF40041B1FBF0F02E
:103A3000616800EB5100B0FBF1F080B22168C86012
:103A400003E000BF0120089000BF00BF089809B044
:103A5000BDE8F08F143C0008004402580090D003E9
:103A600000093D00014691F87900212839D1B1F8CB
:103A70006200C8B90868006800F0005030B10868FA
:103A8000806820F400000B68986005E00868006812
:103A900020F080000B6818600868006840F0400063
:103AA0000B681860002070478868B0F5805F0BD104
:103AB000086948B9CA6D1088C0F308000B681885FA
:103AC000C86D801CC86505E0CB6D581CC8651878AA
:103AD0000B681885B1F86200401EA1F86200002052
:103AE000E1E70220DFE72DE9F04104460D461746E5
:103AF0009846069E21E0701CF8B12EB1FCF70EFE30
:103B0000A0EB0800B04218D92068006820F4D070FB
:103B1000216808602068806820F0010021688860C2
:103B2000202084F8790084F87A0000BF002084F80F
:103B3000780000BF0320BDE8F0812068C0692840FC
:103B4000A84201D1012000E00020B842D3D00020DB
:103B5000F1E7000010B50248FEF7E4FC10BD0000DC
:103B60001400002000BFFEE700BFFEE70248006827
:103B7000C0F30220704700000CED00E010B50028F3
:103B800004DB0A07130E054A135406E00A07140E55
:103B9000034A00F00F031B1FD45410BD00E400E0E3
:103BA00018ED00E002E008C8121F08C1002AFAD18F
:103BB00070477047002001E001C1121F002AFBD1AD
:103BC00070470000FCF7BCFDFFF78EF8FEF7D4FE4F
:103BD000FEF71EFFFEF712FF01220B490B48FEF70E
:103BE000E7FD10E0C820FCF755FC01210848FCF770
:103BF0008BFD064890F87A00202804D10122024962
:103C00000248FEF7D5FDEDE79400002014000020E7
:103C100000040258010002000400060008000A0027
:103C20000C00100020004000800000010100020094
:103C30000400060008000A000C00100020004000EC
:103C400080000001000000000102030401020304DF
:103C500006070809743C000800000020140000005A
:103C6000A43B0008883C000814000020842C0000BD
:103C7000B43B00080000000010000000010000003C
:083C80000090D0030090D00376
:040000050800029954
:00000001FF
