:020000040800F2
:1000000050040020AD020008852400085323000896
:1000100081240008190300080129000800000000DD
:100020000000000000000000000000006927000838
:100030001D03000800000000872400086B2700084B
:10004000C7020008C7020008C702000859270008B5
:10005000C7020008C7020008C7020008C70200085C
:10006000C7020008C7020008C7020008C70200084C
:10007000C7020008C7020008C7020008C70200083C
:10008000C7020008C7020008C7020008C70200082C
:10009000C7020008C7020008C7020008C70200081C
:1000A000C7020008C7020008C7020008C70200080C
:1000B000C7020008C7020008C7020008C7020008FC
:1000C000C7020008C7020008C7020008C7020008EC
:1000D000C7020008C7020008C7020008C7020008DC
:1000E000C7020008C702000800000000C70200089D
:1000F000C7020008C7020008C7020008C7020008BC
:10010000C7020008C7020008C7020008C7020008AB
:10011000C7020008C7020008C7020008C70200089B
:10012000C7020008C7020008C7020008C70200088B
:10013000C7020008C7020008C7020008C70200087B
:1001400000000000000000000000000000000000AF
:10015000C7020008C7020008C7020008C70200085B
:10016000C7020008C7020008C7020008C70200084B
:10017000C7020008C7020008C7020008000000000C
:10018000C7020008C7020008C7020008C70200082B
:10019000C7020008C7020008C7020008C70200081B
:1001A000C7020008C7020008C7020008C70200080B
:1001B000C7020008C7020008C7020008C7020008FB
:1001C000C7020008C7020008C7020008C7020008EB
:1001D000C7020008C7020008C7020008C7020008DB
:1001E000C7020008C7020008C7020008C7020008CB
:1001F000C7020008C7020008C7020008C7020008BB
:10020000C7020008C7020008C7020008C7020008AA
:10021000C7020008C7020008C7020008C70200089A
:10022000C7020008C7020008C7020008000000005B
:10023000C7020008C702000800000000C70200084B
:10024000C7020008C7020008C7020008C70200086A
:10025000C7020008C7020008C7020008C70200085A
:10026000C7020008C7020008C7020008C70200084A
:10027000C7020008C7020008C7020008000000000B
:10028000C702000800000000C702000800000000CC
:1002900000000000C7020008DFF80CD000F02AF8C8
:1002A000004800475D2900085004002006488047A8
:1002B00006480047FEE7FEE7FEE7FEE7FEE7FEE74B
:1002C000FEE7FEE7FEE7FEE76D280008990200085A
:1002D000D2B201E000F8012B491EFBD27047002288
:1002E000F6E710B513460A4604461946FFF7F0FF35
:1002F000204610BD064C074D06E0E06840F00103C3
:1003000094E8070098471034AC42F6D3FFF7C8FFD3
:10031000A0290008C029000800BFFEE77047704709
:10032000F8B502460B460021002600240020824D2D
:1003300000BFFCE0012707FA01F61F6807EA060480
:10034000B4427CD15F68022F02D05F68122F1AD1AD
:100350004FEAD10C02F1200757F82C004F074FEA63
:10036000D76C0F2707FA0CF7B8434FEA417C4FEAE6
:10037000DC6C1F6907FA0CF738434FEAD10C02F125
:10038000200747F82C0010684FEA410C032707FAB2
:100390000CF7B8431F7907F003074FEA410C07FA3F
:1003A0000CF7384310605F68012F08D05F68022F98
:1003B00005D05F68112F02D05F68122F17D19068A7
:1003C0004FEA410C032707FA0CF7B8434FEA410CF8
:1003D000DF6807FA0CF738439060506801278F40B8
:1003E000B8431F79C7F300178F4038435060D06877
:1003F0004FEA410C032707FA0CF7B8434FEA410CC8
:100400009F6807FA0CF73843D0605F6807F08057A1
:10041000B7F1805F95D100BF484F3F6847F00207B2
:10042000DFF818C1CCF8007067463F6807F0020794
:10043000009700BF00BF424F4FEA910C00E075E00B
:1004400057F82C008F074FEA177C0F2707FA0CF795
:10045000B8433C4FBA4201D100272DE03A4FBA428F
:1004600001D1012728E0394FBA4201D1022723E008
:10047000374FBA4201D103271EE0364FBA4201D1AD
:10048000042719E0344FBA4201D1052714E0334F55
:10049000BA4201D106270FE0314FBA4201D10727F6
:1004A0000AE0304FBA4201D1082705E02E4FBA4288
:1004B00001D1092700E00A274FEA817C4FEA1C7C22
:1004C00007FA0CF738431E4F4FEA910C47F82C00FF
:1004D0002868A0435F6807F48037B7F5803F00D1F4
:1004E000204328606868A0435F6807F40037B7F5C9
:1004F000003F00D1204368604FF0B0473868A04308
:100500005F6807F48017B7F5801F00D120434FF0D4
:10051000B04738607868A0435F6807F40017B7F504
:10052000001F00D120434FF0B0477860491C1029CC
:10053000FFF400AFF8BD000080000058F4440258FA
:10054000080400580000025800040258000802582D
:10055000000C0258001002580014025800180258EB
:10056000001C0258002002580024025842694A40E8
:10057000426170470AB1018300E041837047000087
:10058000014800687047000004000020034800682C
:1005900003490978084401490860704704000020B5
:1005A0000C00002010B5032000F090F8002000F0AF
:1005B00007F808B1012010BD00F028F80020FAE784
:1005C00070B504460E4800784FF47A71B1FBF0F034
:1005D0000C490968B1FBF0F5284601F0A0FE08B10E
:1005E000012070BD102C07D200222146501E00F0C1
:1005F0002FF80548046001E00120F2E70020F0E751
:100600000C000020100000200800002008B500BFEA
:100610000648006840F00200044908600846006887
:1006200000F00200009000BF00BF08BDF444025873
:1006300001460846002809DB00F01F0301229A400A
:1006400043099B0003F1E023C3F8002100BF70477A
:100650002DE9F05F80460D46164602F053F9074635
:1006600039462A46334601F00700C0F1070ABAF1BD
:10067000040F02D94FF0040A01E0C0F1070AD14685
:1006800000F1040ABAF1070F02D24FF0000A01E0AC
:10069000A0F1030AD4464FF0010A0AFA09FAAAF1B6
:1006A000010A0AEA020A0AFA0CFA4FF0010B0BFAE5
:1006B0000CFBABF1010B0BEA030B4AEA0B042146DE
:1006C000404602F027F9BDE8F09F000000BF00F0AF
:1006D0000702064B19684FF6FF031940044B0B4302
:1006E00043EA0221014B196000BF70470CED00E0A6
:1006F0000000FA050348006840F480700149086072
:1007000070470000004802582DE9F04104460025DA
:100710000026206800F00060B0F1006F30D1606EFC
:1007200048B1B0F5801F0DD0B0F5001F10D0B0F566
:10073000401F15D113E0F948006840F40030F74934
:1007400008600FE00221201D01F09EFE054609E031
:10075000022104F1240001F02FFF054602E001E030
:10076000012500BF00BF55B9EC482430006820F4D3
:100770004010616E0843E9492431086000E02E43CF
:10078000208800F48070B0F5807F2DD1606D052841
:100790001AD2DFE800F0030A10171800DF480068DB
:1007A00040F40030DD49086010E00021201D01F018
:1007B0006BFE05460AE0002104F1240001F0FCFE76
:1007C000054603E002E001E0012500BF00BF55B986
:1007D000D2482430006820F00700616D0843CF49FB
:1007E0002431086000E02E43208800F40070B0F54A
:1007F000007F33D1A06D802817D003DC40B14028A2
:100800001CD10CE0C02817D0B0F5807F16D114E0C1
:10081000C248006840F40030C049086010E0002180
:10082000201D01F031FE05460AE0002104F12400FC
:1008300001F0C2FE054603E002E001E0012500BF31
:1008400000BF55B9B5482430006820F4E070A16DB0
:100850000843B2492431086000E02E43208800F4A8
:100860008060B0F5806F38D1D4F8A400B0F5800F67
:1008700019D004DC50B1B0F5001F1DD10DE0B0F56A
:10088000C00F17D0B0F5000F16D114E0A3480068D0
:1008900040F40030A149086010E00021201D01F063
:1008A000F3FD05460AE0002104F1240001F084FE76
:1008B000054603E002E001E0012500BF00BF5DB98D
:1008C00096482C30006820F46000D4F8A410084347
:1008D00092492C31086000E02E43208800F400602B
:1008E000B0F5006F38D1D4F8A800B0F1007F19D06E
:1008F00004DC50B1B0F1807F1DD10DE0B0F1407F3C
:1009000017D0B0F1806F16D114E08448006840F42D
:1009100000308249086010E00021201D01F0B4FD84
:1009200005460AE0002104F1240001F045FE0546D9
:1009300003E002E001E0012500BF00BF5DB9774898
:100940002C30006820F0E060D4F8A8100843734908
:100950002C31086000E02E43206800F00070B0F1F8
:10096000007F27D1A06CA0B1102804D0202809D086
:1009700030280FD10CE06948006840F40030674926
:10098000086009E00221201D01F07EFD054603E01C
:1009900002E001E0012500BF00BF55B95F482030EB
:1009A000006820F03000A16C08435C4920310860E9
:1009B00000E02E43208800F48050B0F5805F36D1EF
:1009C000E06DB0F5005F19D004DC50B1B0F5805F88
:1009D0001DD10DE0B0F5405F17D0B0F5804F16D1B6
:1009E00014E04E48006840F400304C49086010E0C4
:1009F0000021201D01F048FD05460AE0002104F118
:100A0000240001F0D9FD054603E002E001E00125E4
:100A100000BF00BF55B941482430006820F4E040D1
:100A2000E16D08433D492431086000E02E432088F1
:100A300000F40050B0F5005F34D1206EB0F5403FB7
:100A40001DD007DC68B1B0F5803F0BD0B0F5003F9A
:100A500018D10DE0B0F5802F12D0B0F5A02F11D134
:100A60000FE011E00121201D01F00EFD05460BE015
:100A7000012104F1240001F09FFD054604E003E09C
:100A800002E001E0012500BF00BF55B92348243032
:100A9000006820F4E020216E0843204924310860DA
:100AA00000E02E43208800F48040B0F5804F38D11C
:100AB000D4F8AC00B0F1405F1DD007DC68B1B0F1F4
:100AC000805F0BD0B0F1005F18D10DE0B0F1804F26
:100AD00012D0B0F1A04F11D10FE011E00121201D83
:100AE00001F0D2FC05460BE0012104F1240001F0E5
:100AF00063FD054604E003E002E001E0012500BFDC
:100B000000BF6DB905482C30006820F0E040D4F8F3
:100B1000AC10084301492C31086002E02C44025813
:100B20002E43208800F40040B0F5004F26D1E06E3F
:100B300098B1B0F1805F03D0B0F1005F0ED106E054
:100B4000FA48006840F40030F849086008E00121E4
:100B5000201D01F099FC054602E001E0012500BFDF
:100B600000BF55B9F1482430006820F04050E16ED4
:100B70000843EE492431086000E02E43206800F06D
:100B80008070B0F1807F27D1606CA0B1012804D0C3
:100B9000022809D003280FD10CE0E448006840F493
:100BA0000030E249086009E00221201D01F06CFCE0
:100BB000054603E002E001E0012500BF00BF55B992
:100BC000DA482030006820F00300616C0843D74900
:100BD0002031086000E02E43206800F48000B0F56A
:100BE000800F7DD1D248006840F48070D049086001
:100BF000FFF7C6FC074606E0FFF7C2FCC01B6428EF
:100C000001D9032505E0CA48006800F48070002877
:100C1000F2D000BF8DBBC5484430006800F440707E
:100C2000B4F8B01001F44071884214D0BF48443089
:100C3000006820F44078BD484430006840F48030BB
:100C4000BA49443108600846006820F480300860E2
:100C50000846C0F80080D4F8B000B0F5807F15D108
:100C6000FFF78EFC074609E0FFF78AFCC01B41F244
:100C70008831884202D9032507E038E0AB48443088
:100C80000068C0F340000028EED000BF4DBB00BF9D
:100C9000B4F8B00000F44070B0F5407F0ED1A34826
:100CA0001C38006820F47C51A24AD4F8B0001040EF
:100CB00041EA10109D491C39086007E09B481C3828
:100CC000006820F47C5099491C39086097484430EA
:100CD0000068B4F8B010C1F30B010843934901E078
:100CE00006E002E04431086002E02E4300E02E43BB
:100CF000207800F0010068B3A06F182819D005DC37
:100D000048B1082808D0102816D10BE0202811D0AF
:100D1000282811D10FE011E00121201D01F0B4FBC2
:100D200005460BE0012104F1240001F045FC0546D5
:100D300004E003E002E001E0012500BF00BF55B977
:100D40007A482830006820F03800A16F08437749BE
:100D50002831086000E02E43207800F002000228CD
:100D600028D1606F062815D2DFE800F003040A11CD
:100D7000121311E00121201D01F086FB05460BE056
:100D8000012104F1240001F017FC054604E003E012
:100D900002E001E0012500BF00BF55B963482830DB
:100DA000006820F00700616F08436049283108603F
:100DB00000E02E43207800F0040004282AD1D4F863
:100DC0009000062815D2DFE800F003040A11121380
:100DD00011E00121201D01F057FB05460BE0012128
:100DE00004F1240001F0E8FB054604E003E002E022
:100DF00001E0012500BF00BF5DB94C482C30006800
:100E000020F00700D4F89010084348492C310860BE
:100E100000E02E43207800F02000202836D1D4F8BE
:100E20008C00B0F1405F1DD007DC68B1B0F1805F8D
:100E30000BD0B0F1005F18D10DE0B0F1804F12D0AF
:100E4000B0F1A04F11D10FE011E00021201D01F001
:100E50001BFB05460BE0022104F1240001F0ACFB72
:100E6000054604E003E002E001E0012500BF00BF09
:100E70005DB92E482830006820F0E040D4F88C108E
:100E800008432A492831086000E02E43207800F00A
:100E90004000402836D1D4F89800B0F5406F1DD0FE
:100EA00007DC68B1B0F5806F0BD0B0F5006F18D1DA
:100EB0000DE0B0F5805F12D0B0F5A05F11D10FE06A
:100EC00011E00021201D01F0DFFA05460BE00221B0
:100ED00004F1240001F070FB054604E003E002E0A9
:100EE00001E0012500BF00BF5DB910482C3000684B
:100EF00020F4E050D4F8981008430C492C310860D5
:100F000000E02E43207800F0800080283BD1D4F808
:100F10009C00B0F5C04F24D00EDCA0B1B0F5005F4E
:100F200012D0B0F5804F1FD114E000002C440258BD
:100F300000480258FFFCFF0FB0F5004F12D0B0F58B
:100F4000204F11D10FE011E00021201D01F09CFA8B
:100F500005460BE0022104F1240001F02DFB0546BB
:100F600004E003E002E001E0012500BF00BF4DB94D
:100F7000B248006820F46040D4F89C100843AF49A0
:100F8000086000E02E43207800F00800082816D101
:100F9000D4F88000B0F5805F06D1022104F124006E
:100FA00001F00AFB06430AE0A448001F006820F491
:100FB0004050D4F880100843A049091F08602078E9
:100FC00000F01000102814D1D4F89400B0F5807F00
:100FD00006D1022104F1240001F0EEFA064308E0F4
:100FE0009648006820F44070D4F894100843934960
:100FF0000860206800F40020B0F5002F26D1D4F856
:10100000A00030B1B0F5803F09D0B0F5003F0ED15F
:101010000CE00021201D01F037FA054609E002210D
:1010200004F1240001F0C8FA054602E001E00125C0
:1010300000BF00BF4DB98148006820F44030D4F8AB
:10104000A01008437D49086000E02E43206800F4AA
:101050008020B0F5802F2DD1D4F88400B0F5801F0A
:1010600006D0B0F5001F0CD0B0F5401F11D10FE035
:1010700072482C38006840F4003070492C39086000
:1010800009E0012104F1240001F096FA054602E08E
:1010900001E0012500BF00BF5DB96848001F00687E
:1010A00020F44010D4F8841008436449091F0860F4
:1010B00000E02E43206800F48030B0F5803F24D15A
:1010C000E06C18B1B0F5803F0FD108E05B482C38D8
:1010D000006840F4003059492C39086007E00221CB
:1010E000201D01F0D1F9054601E0012500BF00BF38
:1010F00055B952480C38006820F48030E16C084340
:101100004E490C39086000E02E43206800F0005082
:10111000B0F1005F05D1022104F1240001F04CFA86
:101120000643206800F40030B0F5003F27D1E06F9F
:10113000A0B1B0F5807F06D0B0F5007F0CD0B0F53F
:10114000407F0CD109E03D482C38006840F4003065
:101150003A492C39086004E003E002E001E001258F
:1011600000BF00BF55B93548001F006820F440702B
:10117000E16F08433149091F086000E02E432068F1
:1011800000F48010B0F5801F09D12C4808380068A1
:1011900020F00040216F0843284908390860206882
:1011A00000F08050B0F1805F0AD1244848380068D0
:1011B00020F48040D4F8B41008432049483908602E
:1011C000206800F40010B0F5001F09D11B48083852
:1011D000006820F08070A16E084318490839086043
:1011E000206800F08040B0F1804F11D100BF13485B
:1011F0004838006820F40040104948390860084623
:101200000068D4F8B81008430C494839086000BF9A
:10121000206800F00040B0F1004F09D107480C38B9
:10122000006820F04050216D084304490C390860E3
:1012300016B90020BDE8F0810120FBE758440258B0
:1012400070B504460D4600268D48006800F0070082
:10125000A8420ED28A48006820F007002843884937
:1012600008600846006800F00700A84201D001208D
:1012700070BD207800F00200022807D18148006884
:1012800020F00F00E16808437E490860207800F0F4
:101290000100002851D07B48006820F47060A168EC
:1012A0000843784908606068022807D175481838F3
:1012B0000068C0F34040F8B90120D9E7606803280E
:1012C00007D1704818380068C0F34060A0B9012009
:1012D000CEE76068012807D16A4818380068C0F373
:1012E000002048B90120C3E7664818380068C0F3F9
:1012F000800008B90120BBE762480838006820F088
:101300000700616808435F4908390860FFF738F94A
:1013100006466068022811D108E0FFF731F9801B0A
:1013200041F28831884201D90320A1E755480838A5
:10133000006800F038001028EFD13AE06068032818
:1013400011D108E0FFF71CF9801B41F28831884277
:1013500001D903208CE74B480838006800F03800BA
:101360001828EFD125E06068012811D108E0FFF7C7
:1013700007F9801B41F28831884201D9032077E7C1
:1013800040480838006800F038000828EFD110E025
:1013900008E0FFF7F5F8801B41F28831884201D957
:1013A000032065E737480838006800F03800002857
:1013B000EFD13348006800F00700A8420ED930484A
:1013C000006820F0070028432D490860084600689F
:1013D00000F00700A84201D0012049E7207800F082
:1013E0000400042807D12748006820F07000216914
:1013F000084324490860207800F00800082809D133
:101400002048001D006820F07000616908431D49F4
:10141000091D0860207800F01000102809D1194833
:10142000001D006820F4E060A16908431549091D0A
:101430000860207800F02000202809D111480830E9
:10144000006820F07000E16908430E490831086027
:1014500000F01EF80B49096801F470614FF48072C6
:1014600092FAA2F2B2FA82F2D140074A515CC84025
:10147000064908600020FFF7A3F80020F8E6000006
:101480000020005218440258902900081000002043
:1014900070B5012500EE905A00220121002300249E
:1014A000DFED861AB0EE610ADFED841AB0EE611A44
:1014B0000020834D2D6805F0380535B1082D15D075
:1014C000102D15D0182D7CD114E07D4D103D2D68C8
:1014D000C5F3401545B17A4D103D2D68C5F3C106E1
:1014E000784D25FA06F000E07648E5E07648E3E03E
:1014F0007648E1E0724D18352D6805F00302704D15
:1015000018352D68C5F305116D4D1C352D6805F096
:1015100001036B4D24352D68C5F3CC0515FB03F590
:1015200001EE905AF8EE611AB0EE610A22B1012A7A
:101530004FD0022A7DD16BE0614D103D2D68C5F37F
:1015400040152DB35E4D103D2D68C5F3C1065D4DB0
:1015500025FA06F4B4FBF1F501EE905AB8EE612AD3
:10156000DFED5B1AC0EE212A554D20352D68C5F3FD
:10157000080501EE905AF8EE611A72EEA11AF7EE24
:10158000002A71EEA21A62EE211AB0EE611A1FE073
:101590004C4DB5FBF1F501EE905AB8EE612ADFED46
:1015A0004C1AC0EE212A464D20352D68C5F308059A
:1015B00001EE905AF8EE611A72EEA11AF7EE002AC7
:1015C00000E077E071EEA21A62EE211AB0EE611A25
:1015D0005EE03D4DB5FBF1F501EE905AB8EE612AA3
:1015E000DFED3B1AC0EE212A354D20352D68C5F3BD
:1015F000080501EE905AF8EE611A72EEA11AF7EEA4
:10160000002A71EEA21A62EE211AB0EE611A3FE0D2
:101610002E4DB5FBF1F501EE905AB8EE612ADFEDE3
:101620002C1AC0EE212A264D20352D68C5F3080559
:1016300000E00EE001EE905AF8EE611A72EEA11A87
:10164000F7EE002A71EEA21A62EE211AB0EE611ACC
:101650001EE01D4DB5FBF1F501EE905AF8EE612A42
:10166000DFED1B1A80EE212A154D20352D68C5F3BC
:10167000080501EE905AF8EE611A72EE211AB7EEE3
:10168000002A71EE821A62EEA11AB0EE611A00BF52
:1016900000BF0B4D20352D68C5F346256D1C00EEAF
:1016A000905AF8EE601A81EE212AFCEEC21A11EE71
:1016B000900A01E0044800BF00BF70BD00000000B8
:1016C000104402580090D00300093D0040787D018D
:1016D0000000004670B504460025207800F00100A7
:1016E000002870D0F748006800F0380010280CD0AF
:1016F000F448006800F03800182812D1F14818307A
:10170000006800F0030002280BD1EE481038006892
:10171000C0F34040002869D06068002866D10120ED
:1017200070BD00BF6068B0F5803F08D1E548103853
:10173000006840F48030E349103908602EE06068AA
:1017400068B9E0481038006820F48030DD4910396D
:1017500008600846006820F4802008601EE0606889
:10176000B0F5A02F0DD1D7481038006840F4802084
:10177000D449103908600846006840F48030086099
:101780000CE0D0481038006820F48030CD49103982
:1017900008600846006820F48020086000BF606888
:1017A00090B1FEF7EDFE054606E0FEF7E9FE401BB0
:1017B000642801D90320B3E7C24810380068C0F399
:1017C00040400028F1D011E0FEF7DAFE054606E0C1
:1017D000FEF7D6FE401B642801D90320A0E7B948D4
:1017E00010380068C0F340400028F1D1207800F0A4
:1017F0000200022847D1B348006800F0380058B111
:10180000B048006800F0380018283ED1AD481830C4
:10181000006800F00300B8BBAA4810380068C0F3A5
:10182000800018B1E06808B9012079E7A5481038B0
:10183000006820F01900E1680843A24910390860E7
:10184000FEF79EFE054606E0FEF79AFE401B0228C4
:1018500001D9032064E79B4810380068C0F380007A
:101860000028F1D097480C38006820F47C304FF401
:101870007C3292FAA2F2B2FA82F2216991400843D4
:1018800090490C3908604AE0FFE7E06868B38D488A
:101890001038006820F01900E168084389491039C0
:1018A0000860FEF76DFE054606E0FEF769FE401B88
:1018B000022801D9032033E7824810380068C0F3BA
:1018C00080000028F1D07F480C38006820F47C307C
:1018D0004FF47C3292FAA2F2B2FA82F2216991407C
:1018E000084378490C39086019E0764810380068D8
:1018F00020F00100734910390860FEF741FE0546EB
:1019000006E0FEF73DFE401B022801D9032007E751
:101910006C4810380068C0F380000028F1D12078AE
:1019200000F01000102877D16648006800F03800F9
:1019300008280CD06348006800F03800182823D12C
:1019400060481830006800F0030001281CD15D4891
:1019500010380068C0F3002020B1E069802801D071
:101960000120DDE657480C38006820F0F8404FF0C1
:10197000F84292FAA2F2B2FA82F2216A9140084346
:1019800050490C39086047E0E06958B34D481038B9
:10199000006840F080004B4910390860FEF7F0FD08
:1019A000054606E0FEF7ECFD401B022801D90320A6
:1019B000B6E6444810380068C0F300200028F1D093
:1019C00040480C38006820F0F8404FF0F84292FA96
:1019D000A2F2B2FA82F2216A9140084339490C39E5
:1019E000086019E037481038006820F08000354959
:1019F00010390860FEF7C4FD054606E0FEF7C0FD9D
:101A0000401B022801D903208AE62E4810380068BE
:101A1000C0F300200028F1D1207800F00800082849
:101A200036D16069D0B127486430006840F00100C9
:101A3000244964310860FEF7A3FD054606E0FEF781
:101A40009FFD401B022801D9032069E61D48643030
:101A50000068C0F340000028F1D019E01948643054
:101A6000006820F00100174964310860FEF788FD26
:101A7000054606E0FEF784FD401B022801D903203D
:101A80004EE6104864300068C0F340000028F1D1F1
:101A9000207800F02000202834D1A069D8B109486E
:101AA0001038006840F48050064910390860FEF78D
:101AB00067FD054608E0FEF763FD401B022803D9D9
:101AC00003202DE610440258AF480068C0F34030B0
:101AD0000028F0D016E0AC48006820F48050AA49F5
:101AE0000860FEF74DFD054606E0FEF749FD401B88
:101AF000022801D9032013E6A3480068C0F3403050
:101B00000028F2D1207800F0040004287DD19F48FD
:101B1000006840F480709D490860FEF731FD05467D
:101B200006E0FEF72DFD401B642801D90320F7E5F0
:101B30009648006800F480700028F2D000BFA068CA
:101B4000012808D190487030006840F001008E49AB
:101B5000703108602DE0A06868B98B48703000686B
:101B600020F001008849703108600846006820F0C4
:101B7000040008601DE0A06805280DD1824870307F
:101B8000006840F004008049703108600846006831
:101B900040F0010008600CE07B487030006820F0E5
:101BA00001007949703108600846006820F004009F
:101BB000086000BFA068A0B1FEF7E2FC054608E09F
:101BC000FEF7DEFC401B41F28831884201D9032038
:101BD000A6E56D4870300068C0F340000028EFD0E3
:101BE00013E0FEF7CDFC054608E0FEF7C9FC401BFC
:101BF00041F28831884201D9032091E56248703072
:101C00000068C0F340000028EFD1606A00287CD053
:101C10005D481030006800F03800182876D0606AFF
:101C2000022874D15848006820F080705649086036
:101C3000FEF7A6FC054606E0FEF7A2FC401B0228C4
:101C400001D903206CE550480068C0F340600028CB
:101C5000F2D100BFD4E90A1041EA00104A49283104
:101C6000096840F2F332914308434749283108603C
:101C7000208E401EC0F30800616B491E4FF47E4267
:101C800002EA41210843218F491ED20102EA0141A3
:101C900008433C21095D491E120202EA0161084322
:101CA00039493031086000BF081D00684FF6F871EF
:101CB00088434FF6F87292FAA2F2B2FA82F2A16C5D
:101CC000914008433049343108602F482C30006877
:101CD00020F00C00216C08432B492C310860084689
:101CE000006820F00200616C084327492C3108602D
:101CF0000846006840F4803008600846006840F4F8
:101D0000003008600846006802E03BE038E01FE071
:101D100040F4802008600846006840F00100086038
:101D20001948006840F0807017490860FEF728FCE9
:101D3000054606E0FEF724FC401B022801D90320DB
:101D4000EEE411480068C0F340600028F2D019E0CA
:101D50000D48006820F080700B490860FEF710FC09
:101D6000054606E0FEF70CFC401B022801D90320C3
:101D7000D6E405480068C0F340600028F2D101E0D5
:101D80000120CDE40020CBE4004402580048025872
:101D90002DE9F74F044690F820008B4601281AD011
:101DA00002224FF0010884F82080CA2184F8212003
:101DB000532022680025FF264FF0030A4FF47A795A
:101DC0005162216848622068806840050FD5FEF79F
:101DD000D7FB074607E00220BDE8FE8FFEF7D0FBE9
:101DE000C01B484519D82068C0684007F6D4206851
:101DF000816821F4806181602068C16801F0800100
:101E000061F49061C160FEF7BBFB07460DE000BFC7
:101E1000FEF7B6FBC01B484507D921684E6284F81F
:101E200021A0032084F82050D6E72068C06840072E
:101E3000EED522684FF0B040C2F814B04246216897
:101E40008B6823F007038B6021688B68029F3B43FC
:101E50008B60D0F8801041F40021C0F88010016838
:101E600041F4002101602068816841F48041816073
:101E70002068816841F4806181602068466284F84E
:101E80002120002084F82050A6E7000010B5044669
:101E900001210248FEF76AFB10BD00000004025851
:101EA0004FF0B04110B504464FF40020C1F888004F
:101EB0002068C168490508D5C16801F0800161F456
:101EC0009061C1602046FFF7E1FF012084F8210006
:101ED00010BD000070B505460B4616460024286864
:101EE00040680E4900EA0104200CD870C4F30420B5
:101EF000587004F03F009870C4F3423018705EB917
:101F0000D87800F0F1FBD870587800F0EDFB5870ED
:101F1000987800F0E9FB9870002070BD3FFFFF004B
:101F200070B504460B46164600252068806A586046
:101F300020680069C0F30E009860206800680F49AF
:101F400000EA0105C5F305401870C5F30620587076
:101F500005F07F00987005F48000000CD8705EB921
:101F6000187800F0C1FB1870587800F0BDFB58706D
:101F7000987800F0B9FB9870002070BD7F7F7F00DB
:101F800010B504460CB9012010BD94F8210028B901
:101F9000002084F82000204600F054F8022084F845
:101FA000210000BFCA20216848625320216848628E
:101FB00000BF204600F0B0FB48B100BFFF20216801
:101FC000486200BF042084F821000120DCE720687B
:101FD00080681B490840216888602169606808435F
:101FE000A1690843216889680843216888602168DD
:101FF000E068086120680169208941EA00402168A1
:1020000008612068C06820F080002168C8602068EE
:10201000C06C20F003002168C8646169E06908436E
:102020002168C96C08432168C86400BFFF2021688B
:10203000486200BF012084F821000020A4E70000CE
:10204000BFFF8FFF10B504460949206888420DD1B3
:102050000848006840F40040064908600022114624
:102060000320FEF7F5FA0320FEF7E2FA10BD0000A8
:1020700000400058704402582DE9F04104460D46D6
:102080001646002700BF94F82000012802D1022044
:10209000BDE8F081012084F8200000BF022084F810
:1020A00021004EB9687800F01000102804D168783B
:1020B00000F0EF000A30687086B9E87800F01FFB86
:1020C0000304687800F01BFB43EA0023A87800F0C3
:1020D00016FB0343287843EA403711E0687800F0A4
:1020E00003FB0746A87800F0FFFA0746E8780004EB
:1020F000697840EA0120A9780843297840EA413705
:1021000000BFCA202168486253202168486200BF8E
:10211000204600F001FB70B100BFFF20216848623B
:1021200000BF042084F8210000BF002084F82000B4
:1021300000BF0120ACE7184838402168486020689B
:10214000C06820F080002168C8602068806800F0C6
:10215000200090B9204600F0C5F870B100BFFF2004
:102160002168486200BF042084F8210000BF0020DD
:1021700084F8200000BF01208AE700BFFF2021680B
:10218000486200BF012084F8210000BF002084F8CD
:10219000200000BF00BF7BE73FFFFF002DE9F041BB
:1021A00004460D461646002700BF94F8200001287B
:1021B00002D10220BDE8F081012084F8200000BF98
:1021C000022084F82100CEB92068806800F0400029
:1021D00000B102E00020E87000BF287800F08FFA1C
:1021E0000304687800F08BFA43EA0023A87800F033
:1021F00086FA0343E87843EA004716E020688068DF
:1022000000F0400020B1287800F06EFA074602E0A6
:102210000020E87000BF28780004697840EA0120B7
:10222000A9780843E97840EA014700BFCA2021683D
:10223000486253202168486200BF204600F06CFAD3
:1022400070B100BFFF202168486200BF042084F8FD
:10225000210000BF002084F8200000BF0120A9E772
:102260001F483840216808602068806820F480207A
:1022700021688860D5E9030108432168896808431B
:10228000216888602068C06820F080002168C860EC
:102290002068806800F0200090B9204600F022F805
:1022A00070B100BFFF202168486200BF042084F89D
:1022B000210000BF002084F8200000BF012079E742
:1022C00000BFFF202168486200BF012084F8210080
:1022D00000BF002084F8200000BF00BF6AE70000B4
:1022E0007F7F7F0070B5044600252068C06820F01D
:1022F000A0002168C860FEF743F9054607E0FEF735
:102300003FF9401BB0F57A7F01D9032070BD2068EA
:10231000C06800F020000028F1D00020F6E770B57A
:1023200004462546681EB0F1807F01D301200FE0EE
:10233000681E4FF0E02148610F214FF0FF3000F0A0
:10234000E9FA00204FF0E0218861072008610020B1
:1023500070BD00BFFEE7000000B587B0142102A8E1
:10236000FDF7BDFF00BF1C48006840F004001A499B
:1023700008600846006800F00400019000BF00BF3C
:1023800000BF0846006840F080000860084600680A
:1023900000F08000019000BF00BF00BF0846006849
:1023A00040F0020008600846006800F0020001905A
:1023B00000BF00BF002201210848FEF7DBF8012022
:1023C0000290039000200490059002A90348FDF7B5
:1023D000A7FF07B000BD0000E04402580004025807
:1023E00000B587B0142102A8FDF779FF0020019005
:1023F000214822490860002048607F211F488160F1
:10240000FF21C160002101618161C1614161FFF76C
:10241000B7FD08B1FDF783FF0A208DF808000C20F6
:102420008DF809008DF80A00002005900690002222
:1024300002A91248FFF7B2FE08B1FDF770FF0120B4
:102440008DF804008DF805008DF8060026208DF823
:102450000700002201A90948FFF70EFE08B1FDF7A9
:102460005EFF042200210548FFF792FC08B1FDF74A
:1024700056FF07B000BD00000040005818000020C3
:1024800000BFFEE7704770472DE9F04104460E4655
:1024900000274848006800F00300032802D101200B
:1024A000BDE8F08143482838006820F08060414949
:1024B00028390860FEF764F8054606E0FEF760F884
:1024C000401B022801D90320EAE73A48283800686F
:1024D000C0F3C0600028F1D100BF3648006820F486
:1024E0007C30216840EA013032490860A088401EF3
:1024F000C0F30800A168491E4FF47E4202EA412160
:102500000843A189491ED20102EA01410843217C06
:10251000491E120202EA016108432649103108608F
:1025200000BF2448001D006820F0C0006169084316
:102530002049091D08600846006820F02000A169B4
:1025400008431C49091D08602EB90846006840F47C
:102550000020086012E0012E08D11648001D006816
:1025600040F480101349091D086007E01148001D60
:10257000006840F400100F49091D08600D48283814
:10258000006840F080600B4928390860FDF7F8FFCB
:10259000054606E0FDF7F4FF401B022801D90320A1
:1025A0007EE7044828380068C0F3C0600028F1D0F6
:1025B000384675E7284402582DE9F04104460E4696
:1025C00000274848006800F00300032802D10120DA
:1025D000BDE8F08143482838006820F08050414928
:1025E00028390860FDF7CCFF054606E0FDF7C8FF77
:1025F000401B022801D90320EAE73A48283800683E
:10260000C0F340700028F1D100BF3648006820F0C8
:102610007C70218840EA015032490860A088401E41
:10262000C0F30800A168491E4FF47E4202EA41212E
:102630000843A189491ED20102EA01410843217CD5
:10264000491E120202EA0161084326491831086056
:1026500000BF2448001D006820F440606169084301
:102660002049091D08600846006820F40070A1692F
:1026700008431C49091D08602EB90846006840F44B
:102680008000086012E0012E08D11648001D006885
:1026900040F400001349091D086007E01148001DBF
:1026A000006840F080700F49091D08600D48283807
:1026B000006840F080500B4928390860FDF760FF42
:1026C000054606E0FDF75CFF401B022801D9032008
:1026D0007EE7044828380068C0F340700028F1D035
:1026E000384675E728440258014600BF080900EB48
:1026F0008000420001F00F001044C0B27047014654
:10270000002203E0521CA1F10A00C1B20A29F9DA41
:10271000100741EA1060704770B504460025206834
:10272000C06800F04000A0B9681E2168C860FDF7CD
:1027300027FF054607E0FDF723FF401BB0F57A7F32
:1027400001D9032070BD2068C06800F04000002857
:10275000F1D00020F6E7000010B50248FFF7A0FB1B
:1027600010BD000018000020704710B5FDF70EFFE7
:1027700010BD000000B5CBB04C2138A8FDF7AFFD6F
:10278000202130A8FDF7ABFDBC2101A8FDF7A7FD76
:102790003448006820F004003249086000BF00207F
:1027A000009030480C30006840F440402D490C3116
:1027B00008600846006800F44040009000BF00BF79
:1027C00000BF28480C30006800F40050B0F5005FEE
:1027D000F7D1FDF78FFF2448006820F01800224948
:1027E0000860052038904FF48030399001203A90ED
:1027F00002204190022138A88162C1624021016318
:10280000022141638163C1630C21016400214164A1
:102810008164FEF75FFF08B1FDF781FD3F20309036
:1028200003203190002032900820339040203490D3
:1028300035900001369040203790022130A8FEF7F5
:10284000FFFC08B1FDF76BFD4FF480000190801391
:102850002D9001A8FDF758FF08B1FDF760FD4BB0C2
:1028600000BD00000C48025870440258204800681F
:1028700040F470001E4908601E48006840F00100E6
:102880001C49086000201B49103108601948006885
:102890001949084017490860002016491831086096
:1028A000091D0860091D0860124928310860091DCA
:1028B0000860091D0860091D0860091D0860091DE0
:1028C0000860091D0860091D08600A48006820F4B6
:1028D0008020084908600020064960310860012016
:1028E00006490860C0060249803908607047000048
:1028F00088ED00E0004402587FEDF6EA08810051BF
:1029000000BFFEE702480068C0F3022070470000E5
:102910000CED00E010B5002804DB0A07130E054A91
:10292000135406E00A07140E034A00F00F031B1F9E
:10293000D45410BD00E400E018ED00E002E008C847
:10294000121F08C1002AFAD170477047002001E029
:1029500001C1121F002AFBD170470000FDF722FEC3
:10296000FFF708FFFFF7F8FCFFF73AFD09E0002248
:1029700004490548FFF7AEFA002204490248FFF770
:10298000CFFAF4E700000020180000203C000020EF
:102990000000000001020304010203040607080905
:1029A000C029000800000020180000003C29000891
:1029B000D829000818000020380400004C2900081D
:1029C00000000000000000001000000001000000F6
:0829D0000090D0030090D00339
:040000050800029954
:00000001FF
